:100000000C9463000C948B000C948B000C948B006C
:100010000C948B000C948B000C948B000C946D0151
:100020000C948B000C948B000C948B000C94ED05BD
:100030000C948B000C940E040C948B000C948B008D
:100040000C94F8000C948B000C94ED010C94C701F7
:100050000C948B000C948B000C948B000C948B00F4
:100060000C948B000C948B000200000000240027ED
:10007000002A0000000000250028002B00000000DE
:100080000800020100000304070000000000000057
:1000900000000000002300260029000404040404DA
:1000A0000404040202020202020303030303030125
:1000B00002040810204080010204081020010204FC
:1000C00008102000430F11241FBECFEFD8E0DEBF81
:1000D000CDBF13E0A0E0B1E0EAEEFFE102C0059081
:1000E0000D92A037B107D9F724E0A0E7B3E001C033
:1000F0001D92A634B207E1F710E0C3E6D0E004C0D9
:100100002197FE010E94E80FC236D107C9F70E946D
:10011000AF090C94F30F0C940000CF92DF92EF9292
:10012000FF920F931F93CF93DF936C017A018B01A2
:10013000C0E0D0E0CE15DF0581F0D8016D918D01D2
:10014000D601ED91FC910190F081E02DC601099559
:10015000892B11F02196EECF7E01C701DF91CF915F
:100160001F910F91FF90EF90DF90CF900895089529
:1001700080E090E008950E94EE0F89E993E00E94EC
:10018000500221E0892B09F420E0822F08953FB727
:10019000F89480918D0390918E03A0918F03B0917C
:1001A000900326B5A89B05C02F3F19F00196A11D0D
:1001B000B11D3FBFBA2FA92F982F8827820F911DFD
:1001C000A11DB11DBC01CD0143E0660F771F881F43
:1001D000991F4A95D1F708952FB7F8946091890334
:1001E00070918A0380918B0390918C032FBF0895A7
:1001F0001F920F920FB60F9211242F933F938F935C
:100200009F93AF93BF938091890390918A03A091AC
:100210008B03B0918C033091880326E0230F2D3798
:1002200020F40296A11DB11D05C029E8230F0396F5
:10023000A11DB11D209388038093890390938A03A5
:10024000A0938B03B0938C0380918D0390918E03C8
:10025000A0918F03B09190030196A11DB11D8093D1
:100260008D0390938E03A0938F03B0939003BF915F
:10027000AF919F918F913F912F910F900FBE0F9053
:100280001F90189590910001891324C0E8E6F0E0D2
:10029000E4919FEF90930001E130B9F098F0E230E3
:1002A000C9F4909170009D7F9093700091E09093BD
:1002B000B0009091B100987F94609093B10010923B
:1002C000B30008C010926E0005C090916F009D7F32
:1002D00090936F0060E00C942F081F920F920FB65E
:1002E0000F9211242F933F934F935F936F937F93BC
:1002F0008F939F93AF93BF93EF93FF9380917E0370
:1003000090917F03A0918003B0918103892B8A2B68
:100310008B2B41F190917D03809100008927809380
:10032000000080917E0390917F03A0918003B091A3
:100330008103181619061A061B06C4F480917E0361
:1003400090917F03A0918003B09181030197A1094F
:10035000B10980937E0390937F03A0938003B093B1
:10036000810304C0809100010E944201FF91EF913E
:10037000BF91AF919F918F917F916F915F914F91BD
:100380003F912F910F900FBE0F901F9018951F92C5
:100390000F920FB60F9211242F933F934F935F93B9
:1003A0006F937F938F939F93AF93BF93EF93FF933D
:1003B00089E993E00E946602FF91EF91BF91AF91AE
:1003C0009F918F917F916F915F914F913F912F916D
:1003D0000F900FBE0F901F9018951F920F920FB69F
:1003E0000F9211242F938F939F93EF93FF93E0919C
:1003F000A903F091AA038081E091AF03F091B003CB
:1004000082FD12C090818091B2038F5F8F73209123
:10041000B303821751F0E091B203F0E0E756FC4FCE
:10042000958F8093B20301C08081FF91EF919F91DE
:100430008F912F910F900FBE0F901F901895FC0178
:10044000538D448D252F30E0842F90E0821B930B39
:10045000541710F0CF96089501970895FC01918DDF
:10046000828D981761F0828DDF01A80FB11D5D9616
:100470008C91928D9F5F9F73928F90E008958FEF84
:100480009FEF0895FC01918D828D981731F0828D38
:10049000E80FF11D858D90E008958FEF9FEF08958F
:1004A000FC01918D228D892F90E0805C9F4F821BF3
:1004B00091098F739927089580E090E0892B29F0A6
:1004C0000E94BD0081110C9400000895FC01848DF0
:1004D000DF01A80FB11DA35ABF4F2C91848D90E06E
:1004E00001968F739927848FA689B7892C93A08949
:1004F000B1898C91837080648C93938D848D9813D3
:1005000006C00288F389E02D80818F7D8083089565
:10051000EF92FF920F931F93CF93DF93EC0181E053
:10052000888F9B8D8C8D981305C0E889F98980810F
:1005300085FD26C0F62E0B8D10E00F5F1F4F0F7349
:100540001127E02E8C8DE8120CC00FB607FCFACFF5
:10055000E889F989808185FFF5CFCE010E94660286
:10056000F1CF8B8DFE01E80FF11DE35AFF4FF082B2
:100570009FB7F8940B8FEA89FB89808180620AC05B
:100580009FB7F894EE89FF896083E889F9898081B3
:100590008370806480839FBF81E090E0DF91CF9182
:1005A0001F910F91FF90EF900895CF93DF93EC018F
:1005B000888D8823C9F0EA89FB89808185FD05C083
:1005C000A889B9898C9186FD0FC00FB607FCF5CFBD
:1005D000808185FFF2CFA889B9898C9185FFEDCF05
:1005E000CE010E946602E7CFDF91CF910895FC0112
:1005F00090810180F281E02D892F809560FF12C0EB
:10060000F8942281822382838181892B8183A0E1D6
:10061000B0E01197F1F78281982B928378948AE663
:1006200090E011C0F8942281822382838181892BFA
:100630008183AEE7B0E01197F1F78281982B928326
:10064000789486E090E00197F1F70895DF92EF92B9
:10065000FF920F931F93CF93DF93EC01D62EE42EDE
:1006600008E010E0FF24F39461E08D2D8F2109F460
:1006700060E0CE010E94F702FF0C01501109A1F7C2
:10068000E11010C0F894E981FA8191818881809508
:1006900089238183E981FA819281888180958923E8
:1006A00082837894DF91CF911F910F91FF90EF900B
:1006B000DF900895DC012C911196ED91FC91129739
:1006C000F8948181922F90958923818378948DE786
:1006D000815009F130813223D9F3F8948281892342
:1006E00082838181822B81837894ACEBB3E0119774
:1006F000F1F7F89481819823918388E890E001973D
:10070000F1F78081282381E009F080E07894E0E32C
:10071000F3E03197F1F70895CF92DF92EF92FF92D5
:100720000F931F93CF93DF93EB017B0129E0E20E40
:10073000F11C8B016C01C61AD70AC601800F911FEC
:100740000E94B00FF80181938F01EE15FF05A9F704
:10075000CE01DF91CF911F910F91FF90EF90DF902D
:10076000CF9008950F931F93CF93DF938C01EB01EC
:100770000E94B00F8883C80101960E94B00F898340
:10078000CE01DF91CF911F910F910895AF92BF924B
:10079000DF92EF92FF920F931F93CF93DF93EC01C1
:1007A0007B018B015C0182E0A80EB11CF801D190A5
:1007B0008F01CE010E94B00FD81621F06D2DCE0111
:1007C0000E94B80F2196CA15DB0581F7C701DF919A
:1007D000CF911F910F91FF90EF90DF90BF90AF905E
:1007E0000895CF93C82F0E94980688E394E00E9452
:1007F0005A030E94810681E090E0A0E0B0E004C0CE
:10080000880F991FAA1FBB1FCA95D2F78095CF9159
:100810000C94A6060C94B80F0C94B00F1F920F9274
:100820000FB60F9211242F933F934F935F936F93C3
:100830007F938F939F93AF93BF93EF93FF9384ED39
:1008400092E00E94D207EFE6F0E080818E7F808305
:1008500080818D7F8083FF91EF91BF91AF919F91B8
:100860008F917F916F915F914F913F912F910F9059
:100870000FBE0F901F901895AF92BF92DF92EF922C
:10088000FF920F931F93CF93DF93CDB7DEB72997D6
:100890000FB6F894DEBF0FBECDBF64E773E08DE006
:1008A00090E00E94B203809179038F5F8093790377
:1008B000E0917B03F0E0EE0FFF1FE35FFE4F10813E
:1008C00020917403309175033A8329838B8380913F
:1008D00078038C831D831F821E8280917203909106
:1008E00073039987888786EE92E00E94DA0684E097
:1008F00093E00E94D20780917403909175030E9447
:10090000D40785E193E00E94D207809179030E9489
:10091000BF078CE293E00E94D207809178030E9487
:10092000BF078BE393E00E94D207812F0E94BF078D
:100930008BE493E00E94D2074AE060E070E0CB01D4
:100940000E947E0785E593E00E94C80686EE92E04D
:100950000E94DA066091790384E090E00E940A0424
:1009600088E593E00E94D20784E090E00E940C04A6
:100970000E94BF070091700310917103CE01019690
:100980007C01580199E0A90EB11CF701D1907F01BB
:10099000C8010E94B00FD81621F06D2DC8010E9429
:1009A000B80F0F5F1F4FA016B10679F78091700343
:1009B000909171039C012E5E3F4F2115344030F41D
:1009C0000996909371038093700304C01092710391
:1009D0001092700360E773E08AE090E00E94C60323
:1009E00080917403909175030196909375038093A1
:1009F000740364E773E08DE090E029960FB6F894F5
:100A0000DEBF0FBECDBFDF91CF911F910F91FF9041
:100A1000EF90DF90BF90AF900C94C603CF93DF931D
:100A200088E394E00E945A0340E066E988E394E09A
:100A30000E942603C1E9D3E0699140E088E394E095
:100A40000E94260383E0C939D807B1F740E06CE380
:100A500088E394E00E94260388E394E0DF91CF913D
:100A60000C945A0361110C94F1030E94980688E3D8
:100A700094E00E945A030E9481068FEF0C94A60610
:100A8000CF93DF93EC0180917C03811105C082E05C
:100A90000E9406080197A9F082E00E9406080197CB
:100AA00021F480917C03811110C082E00E9406082D
:100AB000892B49F080917C03811103C082E00E9460
:100AC000060888EC21C084E61FC0209761F40E94CC
:100AD0009806982F817091FD826092FD846093FF4B
:100AE00013C0886011C0C130D10529F40E94980656
:100AF0008295817009C0229731F40E94980685FB87
:100B0000882780F901C080E0DF91CF91089561E0EE
:100B100080E10E942F0887E00E9406080197D9F71C
:100B200060E080E10C942F0861E080E10E942F08D2
:100B300087E00E940608892BD9F760E080E10C94D9
:100B40002F0860E070E083E00C94160983E2809344
:100B5000B00089E08093B10080EE8093B3008FE60F
:100B60008093B4006FEF70E083E00E9416096FE09D
:100B700070E080E090E00E94750961EE70E083E033
:100B80000C9416090E94A60568EC70E080E090E0E5
:100B90000E94750980917A03882351F08091760331
:100BA000909177030196909377038093760308954D
:100BB00064E670E080E090E00E9475090E94940570
:100BC0006CE271E080E090E00E9475090E94A1054E
:100BD000109277031092760308951F920F920FB62A
:100BE0000F9211242F933F934F935F936F937F93B3
:100BF0008F939F93AF93BF93EF93FF93EFE6F0E054
:100C000080818E7F808380818D7F8083109285009C
:100C1000109284000E94C205FF91EF91BF91AF91A5
:100C20009F918F917F916F915F914F913F912F9104
:100C30000F900FBE0F901F90189590913804E0917F
:100C40003904F0913A04F8948181892B81832281BF
:100C5000892F809528232283A2E0B0E01197F1F735
:100C6000218182238183A0E1B0E01197F1F7808197
:100C70007894E6E6F0E03197F1F7982381E009F403
:100C800080E008950F931F93CF93DF9308E010E067
:100C9000C0E0D1E00E941D068111CD2BDD0F015077
:100CA0001109C1F78C2FDF91CF911F910F910895FA
:100CB000833081F028F4813099F08230A1F00895DA
:100CC0008730A9F08830B9F08430D1F48091800069
:100CD0008F7D03C0809180008F778093800008957E
:100CE00084B58F7702C084B58F7D84BD08958091CF
:100CF000B0008F7703C08091B0008F7D8093B000EB
:100D00000895CF93DF9340E065E588E394E00E9487
:100D10002603C1E9D3E0699140E088E394E00E94B2
:100D2000260383E0C939D807B1F7DF91CF91089541
:100D300088E394E00E945A030E94810641E065EF37
:100D400088E394E00E9426030C944206CF93C82FB8
:100D500041E06AE588E394E00E94260341E06C2FBD
:100D600088E394E00E9426036C2F609541E088E3BD
:100D700094E00E9426030E9442068A3A31F40E94BF
:100D80004206C81302C081E001C080E0CF910895FF
:100D9000009769F0FC0101900020E9F73197AF015D
:100DA000481B590BBC0189E993E00C948D0080E04D
:100DB00090E00895CF93DF930E94C806EC0185E58B
:100DC00093E00E94C8068C0F9D1FDF91CF9108957C
:100DD000DF92EF92FF920F931F93CF93DF931092C6
:100DE00043041092450410924404E3E4F4E08BE3DE
:100DF000E82E84E0F82E129284E0EB33F807D9F75E
:100E000088E394E00E945A03811107C010924304C2
:100E1000109245041092440468C040E060EF88E3FB
:100E200094E00E942603D1E000E0D12CC1E00E94B2
:100E30001D06182F0E941D06113019F48130C1F4CF
:100E400036C0202F30E018131DC080914304C8170E
:100E500038F4F901E85CFB4F83818D2349F402C02B
:100E60008C1731F010E0C93060F4C093440409C01D
:100E7000E02FF0E0E85CFB4F83818D2B838311E052
:100E800009C0DC2EF901E85CFB4F93818D2F809522
:100E900089238383612F88E394E00E94F702CF5F68
:100EA000DD0F11F40F5FD1E0083008F4C0CFC1347A
:100EB00008F4ACCFD0924304D11003C081E08093FA
:100EC000450480913B04882309F4A0CFE1E9F3E0D5
:100ED000D7018D917D018193B3E0E939FB07C1F71B
:100EE00081E090919103993209F080E0DF91CF91F8
:100EF0001F910F91FF90EF90DF9008958F929F9236
:100F0000AF92BF920F931F93CF93DF93CDB7DEB70E
:100F1000A1970FB6F894DEBF0FBECDBF19A2423025
:100F200008F44AE08E010F5D1F4F842E912CA12CF6
:100F3000B12CA50194010E94C60FE62FB901CA0188
:100F400001501109EA3014F4E05D01C0E95CD801F8
:100F5000EC93232B242B252B61F7C8010E94C80694
:100F6000A1960FB6F894DEBF0FBECDBFDF91CF9133
:100F70001F910F91BF90AF909F908F900895CF9346
:100F8000DF93682F70E080E090E04AE00E947E07E7
:100F9000EC0185E593E00E94C8068C0F9D1FDF9150
:100FA000CF9108950C94C806CF92DF92EF92FF92F2
:100FB000CF93DF936C01990FEE08FF08F7FE13C083
:100FC0006DE289E993E00E948802EC0166277727A9
:100FD000CB016C197D098E099F094AE00E947E07AA
:100FE000C80FD91F06C04AE0C701B6010E947E079C
:100FF000EC0185E593E00E94C8068C0F9D1FDF91F0
:10100000CF91FF90EF90DF90CF900895CF93DF9333
:10101000282F30E0F901E358FF4F8491F901E155A1
:10102000FF4FD491F901E556FF4FC491CC2391F0C5
:1010300081110E945806EC2FF0E0EE0FFF1FEF56D3
:10104000FF4FA591B491EC91ED2381E090E021F464
:1010500080E002C080E090E0DF91CF9108951F937F
:10106000CF93DF93282F30E0F901E358FF4F8491AD
:10107000F901E155FF4FD491F901E556FF4FC491B5
:10108000CC23C1F0162F81110E945806EC2FF0E0FE
:10109000EE0FFF1FED58FF4FA591B4919FB7F89445
:1010A000111104C08C91D095D82302C0EC91DE2B95
:1010B000DC939FBFDF91CF911F910895CF93DF9372
:1010C00090E0FC01E155FF4F2491FC01E556FF4FF4
:1010D0008491882361F190E0880F991FFC01E75902
:1010E000FF4FC591D491FC01ED58FF4FA591B491EC
:1010F000611109C09FB7F894888120958223888365
:10110000EC912E230BC0623061F49FB7F894888174
:10111000322F309583238883EC912E2B2C939FBF05
:1011200006C08FB7F894E8812E2B28838FBFDF91FC
:10113000CF9108954F925F926F927F928F929F927C
:10114000AF92BF92CF92DF92EF92FF920F931F93D5
:10115000CF93DF9300D000D000D0CDB7DEB76C01C5
:1011600061E086E00E945E080E94EC00812C912CD8
:1011700054011E821D829B01AC012C53364F4F4FF0
:101180005F4F29833A834B835C830D2C000CEE0860
:10119000FF080E94EC0029813A814B815C81621733
:1011A00073078407950720F50E94EC002B013C0192
:1011B000DC01CB0188199909AA09BB098C159D0589
:1011C000AE05BF0530F30D811E8131E00327A80174
:1011D000417055275E834D8388E693E00E94DA06CE
:1011E000602F617086E00E94320553014201D1CF29
:1011F00061E086E00E945E0886E00E944201269639
:101200000FB6F894DEBF0FBECDBFDF91CF911F9117
:101210000F91FF90EF90DF90CF90BF90AF909F9095
:101220008F907F906F905F904F9008951F93CF9312
:10123000DF93182FEB0161E00E945E08209711F404
:1012400060E004C0CF3FD10539F461E0812FDF9128
:10125000CF911F910C942F08E12FF0E0E358FF4F3E
:10126000E491E330F9F048F4E130B9F0E230A1F56F
:1012700084B5806284BDC8BD34C0E730E9F0E83091
:1012800019F1E43049F580918000806280938000FC
:10129000D0938B00C0938A0024C084B5806884BD3D
:1012A000C7BD1FC080918000806880938000D0936C
:1012B0008900C093880015C08091B0008068809339
:1012C000B000C093B3000DC08091B00080628093E5
:1012D000B000C093B40005C0C038D1050CF0B5CF44
:1012E000AFCFDF91CF911F9108958F929F92AF92D0
:1012F000BF92CF92DF92EF92FF926B017C010E942E
:10130000C7004B015C01C114D104E104F104F1F008
:101310000E94C700DC01CB0188199909AA09BB0901
:10132000883E9340A105B10570F321E0C21AD108AF
:10133000E108F10888EE880E83E0981EA11CB11C1C
:10134000C114D104E104F10419F7DDCFFF90EF904F
:10135000DF90CF90BF90AF909F908F900895CF93E4
:10136000DF93CDB7DEB72B970FB6F894DEBF0FBE75
:10137000CDBF789484B5826084BD84B5816084BD1E
:1013800085B5826085BD85B5816085BD80916E0023
:10139000816080936E001092810080918100826054
:1013A0008093810080918100816080938100809191
:1013B00080008160809380008091B1008460809380
:1013C000B1008091B00081608093B00080917A007C
:1013D000846080937A0080917A00826080937A00A2
:1013E00080917A008E7F80937A0080917A00806865
:1013F00080937A001092C100E091A903F091AA03B2
:1014000082E08083E091A503F091A6031082E09131
:10141000A703F091A80387E680831092B103E091BF
:10142000AD03F091AE0386E08083E091AB03F091D1
:10143000AC03808180618083E091AB03F091AC03C9
:10144000808188608083E091AB03F091AC03808160
:1014500080688083E091AB03F091AC0380818F7D45
:10146000808381E491E00E94DA0661E08DE00E94D1
:101470005E0861E081E10E945E0861E083E00E9415
:101480005E0861E08BE00E945E0862E08CE00E94F2
:101490005E0862E082E00E945E0862E088E00E94EE
:1014A0005E0862E087E00E945E0860E08FE00E94D4
:1014B0005E0860E08EE00E945E0861E084E00E94C9
:1014C0005E0860E084E00E942F0861E080E10E94F5
:1014D0005E0860E080E10E942F0860E070E083E039
:1014E0000E94160960E070E08BE00E94160980E01F
:1014F00090E00E940C04182F81E090E00E940C0400
:10150000133511F4883509F163E580E090E00E941D
:101510000A0468E581E090E00E940A0485E690E014
:101520009B878A87BE01665F7F4F8AE090E00E94BA
:10153000C60381E090E09A838983BE016F5F7F4F8D
:101540008DE090E00E94C60334C080917A03882326
:1015500021F180918703882301F163E580E090E029
:101560000E940A0468E581E090E00E940A0485E692
:1015700090E09B878A87BE01665F7F4F8AE090E09C
:101580000E94C60381E090E09A838983BE016F5F69
:101590007F4F8DE090E00E94C60360E773E08AE031
:1015A00090E00E94B20364E773E08DE090E00E9457
:1015B000B2030E94E806182F80937C0381110E94D9
:1015C0000E058FE00E940608892BB1F48EE00E9480
:1015D0000608892B89F4112379F084E090E00E94B9
:1015E0000C0408E010E0081B1109101611060CF499
:1015F00072C086E00E94F10387E00E940608892BF2
:1016000009F086C088E00E940608892B09F080C096
:1016100011E003E2E9E0FE2EF0EEEF2EAFE6DA2E67
:10162000C0907C030E94E80680937C03882359F1D4
:10163000C1100FC00E940E0586E00E94F10368EC05
:1016400070E080E090E00E94750960E086E00E9412
:10165000320580E090E00E94400580937B0381E0AA
:1016600090E00E94400591E0811101C090E09093CC
:101670007A0382E090E00E94400591E0811101C070
:1016800090E0909387038FE00E940608019709F08D
:1016900042C08EE00E940608892BE9F5109279037A
:1016A00060E084E090E00E940A0460E086E00E942E
:1016B000320586E00E94F1030E94A6050E9487057C
:1016C0000E9494050E94A10560E086E00E94320518
:1016D0000E945C02A5CFEE24E394F12C68EC70E04C
:1016E00080E090E00E94750986E00E94F10368ECBA
:1016F00070E080E090E00E94750960E086E00E9462
:1017000032052FEFE21AF20A0E151F053CF774CFCF
:101710000E9494057DCF8FE00E940608892B09F076
:10172000D8C08EE00E940608019709F0D2C0C09090
:10173000790387E08C1508F0CCC086E00E94F103A5
:101740008CE00E940608892B19F68091870381118D
:10175000BFCF80917403909175039A838983CB8264
:101760001C821D821F821E8219861886BE016F5F31
:101770007F4F80917003909171030E948C0360E70A
:1017800073E08AE090E00E94B20360907003709072
:101790007103530188E4A81AB1088CE592E00E9415
:1017A000DA068AE992E00E94D20780917003909154
:1017B00071030E94D4078AEB92E00E94D207C50110
:1017C0000E94D407BE016F5F7F4FC5010E948C034A
:1017D00089E591E00E94DA0681E991E00E94D20752
:1017E000C5010E94D4078DEB91E00E94D207898148
:1017F0009A810E94D40786EB91E00E94D2078B81E8
:101800000E94BF0788EC91E00E94D2078C810E9461
:10181000BF0784ED91E00E94D2078C81811104C042
:101820008CED91E00E94DA068C81813021F483EE08
:1018300091E00E94DA068C81823021F48CEE91E0F6
:101840000E94DA068C81843021F48DEF91E00E94B1
:10185000DA068C81853021F48DE092E00E94DA0670
:101860008C81863021F48AE192E00E94DA068C8134
:10187000873021F483E292E00E94DA068C8188307E
:1018800021F488E292E00E94DA068AE292E00E9465
:10189000D2078D810E94BF078AE392E00E94D2079F
:1018A0008E819F810E94D40781E492E00E94D2073A
:1018B000888599850E94D40729E0A20EB11C6A147C
:1018C0007B0409F07FCF809101018F5F809301013C
:1018D000FFCE8FE00E940608892B09F0F9CE8EE03A
:1018E0000E940608892B09F0F3CE84E090E00E9464
:1018F0000C04809379038CE00E940608892B09F080
:101900005EC0E0917B03F0E0EE0FFF1FE35FFE4F50
:10191000808191818F399F4F09F051C087E080937A
:1019200078030E943C040E94A6050E94870588E077
:101930000E9406080197D9F768E270E080E090E025
:101940000E947509C0908703CC2029F06FEF70E0EA
:101950008BE00E9416090E94A105CC2029F062E8C4
:1019600070E08BE00E9416098CE00E940608892B2B
:10197000D9F3CC2091F087E00E94F10361E070E0A0
:1019800080E090E00E94750960E070E08BE00E94CA
:10199000160960E087E00E9432050E94A60568EC07
:1019A00070E080E090E00E9475090E94940568EC68
:1019B00070E080E090E00E9475090E94A1058CE033
:1019C0000E940608892BF1F5E0917B03F0E0EE0F11
:1019D000FF1FE35FFE4F808191818E399F4F91F50C
:1019E00088E0809378030E943C040E94A6050E9430
:1019F000870588E00E9406080197D9F768E270E041
:101A000080E090E00E9475090E94A1058CE00E9490
:101A100006080197D9F38CE00E940608892B11F47F
:101A20000E94A60568EC70E080E090E00E947509D5
:101A30000E94940568EC70E080E090E00E947509D7
:101A40000E94A1051092860362E08CE00E945E086D
:101A50008CE00E9406089C01CC24C394892B09F4D5
:101A6000C12CC0920C0190910B01232B09F045C0B1
:101A7000992309F49FC00E94EC0040900701509008
:101A800008016090090170900A01DC01CB01841902
:101A90009509A609B7094597A105B10508F48AC0BB
:101AA0000E94EC0060930301709304018093050190
:101AB0009093060110928503109302011092840303
:101AC0000E94EC00DC01CB0184199509A609B70935
:101AD0008A3F9105A105B10568F4809183038111C6
:101AE00009C080918203882329F010938303109208
:101AF000820360C010928303FACF911128C00E9424
:101B0000EC0040900301509004016090050170903A
:101B10000601DC01CB0184199509A609B70945978F
:101B2000A105B105A0F080918503811110C00E942C
:101B3000EC00609307017093080180930901909372
:101B40000A018091830381118CC110938203A12C1F
:101B5000B12C0E94EC004090070150900801609069
:101B6000090170900A01DC01CB0184199509A609CD
:101B7000B7098A3F9105A105B10508F440C08091DD
:101B800082038823E1F180918303811138C0809121
:101B900002018823A1F182E0A816B10409F46EC104
:101BA0001092820310930B0110927803AA24A3943D
:101BB000B12C2BC00E94EC00409003015090040116
:101BC0006090050170900601DC01CB018419950934
:101BD000A609B7098E359140A105B10508F43DC0AD
:101BE00080918403811147C1109385031092830370
:101BF000109282031093840343E0A42EB12CC09270
:101C00000B0110927803A0FE0BC01093860322E014
:101C1000A216B10449F080917A03811144C027C013
:101C200082E0A816B104E9F40E94EC0089E492E095
:101C30000E94DA0688EE93E00E949A0888E592E016
:101C40000E949A0888EC90E00E949A0880E590E053
:101C50000E949A081093860304C0C0920B01109250
:101C6000780380918603882309F432CDD4CF809104
:101C700076039091770318161906ACF40E943C0481
:101C8000109277031092760360E086E00E9432059E
:101C90000E94940562E370E080E090E00E94750984
:101CA0000E94A10515CD80E090E00E944005843699
:101CB00009F05DC084E090E00E940C0480937903F9
:101CC0000E943C040093B000F092B100E092B30097
:101CD000D092B4006FEF70E08BE00E9416090E9472
:101CE000A6050E94870588E00E9406080197D9F79B
:101CF00062E870E08BE00E94160968E770E080E01F
:101D000090E00E9475090E94A10562E470E080E005
:101D100090E00E94750961E084E00E942F0862E073
:101D200070E080E090E00E94750960E070E08BE078
:101D30000E94160960E084E00E942F0864E170E0D0
:101D400080E090E00E9475090E94A60568EC70E0B2
:101D500080E090E00E9475090E94940568EC70E0B4
:101D600080E090E00E9475090E94A10508C080E013
:101D700090E00E944005883C39F40E943C04109297
:101D8000770310927603A4CCC0907B0323E62C1536
:101D900008F49ECC8BE08C1508F453C060E081E120
:101DA0000E942F0860E08DE00E942F080E94A60587
:101DB00064E670E080E090E00E9475090E9487056B
:101DC00088E00E9406080197D9F768E770E080E094
:101DD00090E00E947509EC2DF0E0EE0FFF1FE35F2D
:101DE000FE4FA080B18026E1A20EB11C0E94A10589
:101DF0000E94EC0025010B2C000C66087708460EAB
:101E0000571E681E791E0E94EC004616570668068B
:101E10007906C8F78091360490913704A816B90660
:101E20006CF087E00E94F10361E070E080E090E0F8
:101E30000E94750960E087E00E9432050E94C20599
:101E40000DC0EC2DF0E0EE0FFF1FE35FFE4F808131
:101E500091818C599F4F029708F03ACC0E943C0424
:101E600037CC10928303109282031092020152E049
:101E7000A52EB12C6ECEA12CB12CC1CE10930B018E
:101E800010927803D1CE10929C0310929B0388EE9F
:101E900093E0A0E0B0E080939D0390939E03A09315
:101EA0009F03B093A00381E391E090939A03809302
:101EB000990385EC90E09093A6038093A50384ECAE
:101EC00090E09093A8038093A70380EC90E0909318
:101ED000AA038093A90381EC90E09093AC038093D4
:101EE000AB0382EC90E09093AE038093AD0386EC5D
:101EF00090E09093B0038093AF031092B2031092DE
:101F0000B3031092B4031092B50360E082E00E9424
:101F10005E08E1EBF0E0E491E0933804EDE9F0E0F5
:101F2000E491F0E0EE0FFF1FEF56FF4F8591949183
:101F300090933A048093390410924304109245041C
:101F400010924404E3E4F4E0129284E0EB33F807E7
:101F5000D9F78FE290E09093370480933604089588
:101F6000F999FECF92BD81BDF89A992780B5089561
:101F7000262FF999FECF1FBA92BD81BD20BD0FB6A5
:101F8000F894FA9AF99A0FBE01960895A1E21A2ED2
:101F9000AA1BBB1BFD010DC0AA1FBB1FEE1FFF1F0D
:101FA000A217B307E407F50720F0A21BB30BE40B5D
:101FB000F50B661F771F881F991F1A9469F76095A4
:101FC0007095809590959B01AC01BD01CF0108955E
:101FD000EE0FFF1F0590F491E02D099481E090E051
:0A1FE000F8940C94F30FF894FFCF6F
:101FEA00FF0101FFFFFFFFFFFFFFFF0101010004E7
:101FFA0000060007000B001100160022002A0050FC
:10200A00008C0022019CFF9DFF9EFF9FFF000000A5
:10201A000088028D001F02D50250022E02420216CB
:10202A00006F70656E5358373021212121212121FB
:10203A002121212121212121003D3D3D3D3D3D3DE3
:10204A003D3D3D3D3D3D3D3D3D3D3D3D3D3D3D3DB6
:10205A003D3D3D3D3D3D3D3D3D3D3D3D3D3D3D3DA6
:10206A003D3D3D3D3D3D3D3D3D3D3D3D3D3D3D3D96
:10207A0000656541646472657373207265616420EA
:10208A0028746869735265636F7264416464726527
:10209A007373293A200043757272656E7420506911
:1020AA0063747572653A20002054797065207261F4
:1020BA00773A200020547970653A20004D414E55F8
:1020CA00414C004155544F2031303000464C415369
:1020DA004820444F4E474C454C45535300464C41CB
:1020EA00534820463820444F4E474C4500464C4101
:1020FA00534820444F4E474C45004155544F2036D3
:10210A0030300042554C42005400205368757474B4
:10211A00657253706565643A2000204C4F573A2027
:10212A000020484947483A20005354415254203528
:10213A0030302C323630302C352C30003D3D3D3D90
:10214A003D3D3D3D3D3D3D3D3D3D3D3D3D3D3D3DB5
:10215A003D3D3D20456E746572696E67206C6F6FF8
:10216A0070203D3D3D3D3D3D3D3D3D3D3D3D3D3D7F
:10217A003D3D3D3D3D3D3D3D3D00494E4954494172
:10218A004C20656541646472657373206265666F8D
:10219A007265206C6F6F703A200052656164416409
:1021AA006472657373206265666F7265206C6F6F07
:1021BA00703A20004F766572666C6F77204F6363C2
:1021CA007572656421002A2A2A2A2A2A2A2A2A2A90
:1021DA002A2A2A2A2A2A2A2A2A2A2A2A2A2A2A2A55
:1021EA002A2A2A0041637475616C207069637475C8
:1021FA0072653A200043757272656E742070696365
:10220A0074757265205061636B3A2000506963747B
:10221A0075726520747970653A2000536875747414
:10222A00657220696E206D733A2000436F756E7473
:10223A0065723A20000D0A00506963747572652050
:10224A0074616B656E3A2000545950452032000083
:00000001FF
