:100000000C9463000C948B000C948B000C948B006C
:100010000C948B000C948B000C948B000C94550961
:100020000C948B000C948B000C948B000C94920617
:100030000C948B000C94B3040C948B000C948B00E8
:100040000C9452030C948B000C9461010C943B01B2
:100050000C948B000C948B000C948B000C948B00F4
:100060000C948B000C948B000000000024002700EF
:100070002A0000000000250028002B0000000008D6
:10008000000201000003040700000000000000005F
:1000900002000000002300260029000404040404D8
:1000A0000404040202020202020303030303030125
:1000B00002040810204080010204081020010204FC
:1000C00008102000430F11241FBECFEFD8E0DEBF81
:1000D000CDBF13E0A0E0B1E0EAEEFFE102C0059081
:1000E0000D92A037B107D9F724E0A0E7B3E001C033
:1000F0001D92A035B207E1F710E0C3E6D0E004C0DE
:100100002197FE010E94E80FC236D107C9F70E946D
:10011000AF090C94F30F0C940000089580E090E078
:100120000895FC01538D448D252F30E0842F90E0FD
:10013000821B930B541710F0CF96089501970895E2
:10014000FC01918D828D981761F0828DDF01A80FDF
:10015000B11D5D968C91928D9F5F9F73928F90E001
:1001600008958FEF9FEF0895FC01918D828D981770
:1001700031F0828DE80FF11D858D90E008958FEFAD
:100180009FEF08958EE993E00E94930121E0892B6F
:1001900009F420E0822F0895EF92FF920F931F93AE
:1001A000CF93DF93EC0181E0888F9B8D8C8D98132A
:1001B00005C0E889F989808185FD26C0F62E0B8D62
:1001C00010E00F5F1F4F0F731127E02E8C8DE81288
:1001D0000CC00FB607FCFACFE889F989808185FF4A
:1001E000F5CFCE010E94F701F1CF8B8DFE01E80F14
:1001F000F11DE35AFF4FF0829FB7F8940B8FEA8905
:10020000FB89808180620AC09FB7F894EE89FF89DC
:100210006083E889F98980818370806480839FBFCF
:1002200081E090E0DF91CF911F910F91FF90EF90CF
:100230000895CF93DF93EC01888D8823C9F0EA8974
:10024000FB89808185FD05C0A889B9898C9186FDCF
:100250000FC00FB607FCF5CF808185FFF2CFA889CC
:10026000B9898C9185FFEDCFCE010E94F701E7CFD0
:10027000DF91CF9108951F920F920FB60F92112424
:100280002F933F934F935F936F937F938F939F939E
:10029000AF93BF93EF93FF938EE993E00E94F70132
:1002A000FF91EF91BF91AF919F918F917F916F914E
:1002B0005F914F913F912F910F900FBE0F901F9024
:1002C00018951F920F920FB60F9211242F938F93B0
:1002D0009F93EF93FF93E091AE03F091AF03808182
:1002E000E091B403F091B50382FD12C0908180913A
:1002F000B7038F5F8F732091B803821751F0E0919D
:10030000B703F0E0E256FC4F958F8093B70301C02E
:100310008081FF91EF919F918F912F910F900FBE50
:100320000F901F901895FC01918D228D892F90E0E0
:10033000805C9F4F821B91098F739927089580E0FD
:1003400090E0892B29F00E94C20081110C940000DA
:100350000895833081F028F4813099F08230A1F043
:1003600008958730A9F08830B9F08430D1F48091B5
:1003700080008F7D03C0809180008F778093800004
:10038000089584B58F7702C084B58F7D84BD0895AC
:100390008091B0008F7703C08091B0008F7D8093F3
:1003A000B00008953FB7F894809192039091930321
:1003B000A0919403B091950326B5A89B05C02F3F4B
:1003C00019F00196A11DB11D3FBFBA2FA92F982F7B
:1003D0008827820F911DA11DB11DBC01CD0143E0F5
:1003E000660F771F881F991F4A95D1F70895FC0162
:1003F000848DDF01A80FB11DA35ABF4F2C91848DAE
:1004000090E001968F739927848FA689B7892C93E2
:10041000A089B1898C91837080648C93938D848D35
:10042000981306C00288F389E02D80818F7D808338
:100430000895CF93DF93282F30E0F901E458FF4F60
:100440008491F901E155FF4FD491F901E556FF4F31
:10045000C491CC2391F081110E94A901EC2FF0E00E
:10046000EE0FFF1FEF56FF4FA591B491EC91ED23D6
:1004700081E090E021F480E002C080E090E0DF9134
:10048000CF9108951F93CF93DF93282F30E0F90188
:10049000E458FF4F8491F901E155FF4FD491F901E0
:1004A000E556FF4FC491CC23C1F0162F81110E9455
:1004B000A901EC2FF0E0EE0FFF1FEE58FF4FA591C2
:1004C000B4919FB7F894111104C08C91D095D823A2
:1004D00002C0EC91DE2BDC939FBFDF91CF911F9187
:1004E0000895CF93DF9390E0FC01E155FF4F2491F5
:1004F000FC01E556FF4F8491882361F190E0880F5D
:10050000991FFC01E859FF4FC591D491FC01EE58A9
:10051000FF4FA591B491611109C09FB7F8948881EC
:10052000209582238883EC912E230BC0623061F4E6
:100530009FB7F8948881322F309583238883EC917C
:100540002E2B2C939FBF06C08FB7F894E8812E2BDB
:1005500028838FBFDF91CF9108951F93CF93DF93AF
:10056000182FEB0161E00E947102209711F460E006
:1005700004C0CF3FD10539F461E0812FDF91CF91E5
:100580001F910C944202E12FF0E0E458FF4FE491F8
:10059000E330F9F048F4E130B9F0E230A1F584B588
:1005A000806284BDC8BD34C0E730E9F0E83019F19D
:1005B000E43049F580918000806280938000D09380
:1005C0008B00C0938A0024C084B5806884BDC7BDF9
:1005D0001FC080918000806880938000D093890044
:1005E000C093880015C08091B00080688093B000EF
:1005F000C093B3000DC08091B00080628093B000C2
:10060000C093B40005C0C038D1050CF0B5CFAFCF52
:10061000DF91CF911F9108958F929F92AF92BF92D9
:10062000CF92DF92EF92FF926B017C010E94D20188
:100630004B015C01C114D104E104F104F1F00E940A
:10064000D201DC01CB0188199909AA09BB09883EAE
:100650009340A105B10570F321E0C21AD108E10869
:10066000F10888EE880E83E0981EA11CB11CC1140D
:10067000D104E104F10419F7DDCFFF90EF90DF9092
:10068000CF90BF90AF909F908F9008952FB7F89420
:1006900060918E0370918F038091900390919103EC
:1006A0002FBF08951F920F920FB60F9211242F9310
:1006B0003F938F939F93AF93BF9380918E039091BD
:1006C0008F03A0919003B091910330918D0326E0A8
:1006D000230F2D3720F40296A11DB11D05C029E876
:1006E000230F0396A11DB11D20938D0380938E03CC
:1006F00090938F03A0939003B09391038091920302
:1007000090919303A0919403B09195030196A11D3C
:10071000B11D8093920390939303A0939403B0939D
:100720009503BF91AF919F918F913F912F910F9022
:100730000FBE0F901F901895FC0190810180F281EF
:10074000E02D892F809560FF12C0F89422818223CA
:1007500082838181892B8183A0E1B0E01197F1F739
:100760008281982B928378948AE690E011C0F89465
:100770002281822382838181892B8183AEE7B0E04D
:100780001197F1F78281982B9283789486E090E01C
:100790000197F1F70895DF92EF92FF920F931F9365
:1007A000CF93DF93EC01D62EE42E08E010E0FF2477
:1007B000F39461E08D2D8F2109F460E0CE010E9459
:1007C0009C03FF0C01501109A1F7E11010C0F8942F
:1007D000E981FA8191818881809589238183E981EA
:1007E000FA81928188818095892382837894DF9130
:1007F000CF911F910F91FF90EF90DF900895DC0152
:100800002C911196ED91FC911297F8948181922F81
:1008100090958923818378948DE7815009F1308107
:100820003223D9F3F8948281892382838181822BB8
:1008300081837894ACEBB3E01197F1F7F894818160
:100840009823918388E890E00197F1F7808128232D
:1008500081E009F080E07894E0E3F3E03197F1F78C
:100860000895CF92DF92EF92FF920F931F93CF9351
:10087000DF93EB017B0129E0E20EF11C8B016C019F
:10088000C61AD70AC601800F911F0E94B00FF80147
:1008900081938F01EE15FF05A9F7CE01DF91CF916E
:1008A0001F910F91FF90EF90DF90CF9008950F93DD
:1008B0001F93CF93DF938C01EB010E94B00F8883CD
:1008C000C80101960E94B00F8983CE01DF91CF91BC
:1008D0001F910F910895AF92BF92DF92EF92FF9216
:1008E0000F931F93CF93DF93EC017B018B015C018E
:1008F00082E0A80EB11CF801D1908F01CE010E94B8
:10090000B00FD81621F06D2DCE010E94B80F2196A0
:10091000CA15DB0581F7C701DF91CF911F910F91B8
:10092000FF90EF90DF90BF90AF900895CF93C82FC6
:100930000E946B078DE394E00E94FF030E9454071E
:1009400081E090E0A0E0B0E004C0880F991FAA1FEA
:10095000BB1FCA95D2F78095CF910C9479070C9460
:10096000B80F0C94B00F1F920F920FB60F92112474
:100970002F933F934F935F936F937F938F939F93A7
:10098000AF93BF93EF93FF9384ED92E00E94210910
:10099000EFE6F0E080818E7F808380818D7F808391
:1009A000FF91EF91BF91AF919F918F917F916F9147
:1009B0005F914F913F912F910F900FBE0F901F901D
:1009C0001895AF92BF92DF92EF92FF920F931F9311
:1009D000CF93DF93CDB7DEB729970FB6F894DEBF7C
:1009E0000FBECDBF64E773E08DE090E00E94570436
:1009F000809179038F5F80937903E0917B03F0E02E
:100A0000EE0FFF1FE35FFE4F1081209174033091C2
:100A100075033A8329838B83809178038C831D83AC
:100A20001F821E8280917203909173039987888739
:100A300086EE92E00E94AD0784E093E00E942109D7
:100A400080917403909175030E94230985E193E0DE
:100A50000E942109809179030E940E098CE293E0A3
:100A60000E942109809178030E940E098BE393E094
:100A70000E942109812F0E940E098BE493E00E94BD
:100A800021094AE060E070E0CB010E94CD0885E5D5
:100A900093E00E949B0786EE92E00E94AD07609172
:100AA000790384E090E00E94AF0488E593E00E941F
:100AB000210984E090E00E94B1040E940E09009197
:100AC000700310917103CE0101967C01580199E0E9
:100AD000A90EB11CF701D1907F01C8010E94B00F8F
:100AE000D81621F06D2DC8010E94B80F0F5F1F4F5F
:100AF000A016B10679F780917003909171039C0163
:100B00002E5E3F4F2115344030F4099690937103C7
:100B10008093700304C0109271031092700360E719
:100B200073E08AE090E00E946B04809174039091DE
:100B300075030196909375038093740364E773E0E3
:100B40008DE090E029960FB6F894DEBF0FBECDBFC2
:100B5000DF91CF911F910F91FF90EF90DF90BF90A9
:100B6000AF900C946B04CF93DF938DE394E00E94DD
:100B7000FF0340E066E98DE394E00E94CB03C6E901
:100B8000D3E0699140E08DE394E00E94CB0383E0E1
:100B9000CE39D807B1F740E06CE38DE394E00E94D2
:100BA000CB038DE394E0DF91CF910C94FF036111AF
:100BB0000C9496040E946B078DE394E00E94FF035F
:100BC0000E9454078FEF0C947907CF93DF93EC01C9
:100BD00080917C03811105C082E00E941902019777
:100BE000A9F082E00E941902019721F480917C0310
:100BF000811110C082E00E941902892B49F0809176
:100C00007C03811103C082E00E94190288EC21C09C
:100C100084E61FC0209761F40E946B07982F8170B3
:100C200091FD826092FD846093FF13C0886011C0C3
:100C3000C130D10529F40E946B078295817009C0EB
:100C4000229731F40E946B0785FB882780F901C049
:100C500080E0DF91CF91089561E080E10E9442023F
:100C600087E00E9419020197D9F760E080E10C94B7
:100C7000420261E080E10E94420287E00E94190284
:100C8000892BD9F760E080E10C94420260E070E0CB
:100C900083E00C94AD0283E28093B00089E08093FE
:100CA000B10080EE8093B3008FE68093B4006FEFC5
:100CB00070E083E00E94AD026FE070E080E090E0C1
:100CC0000E940C0361EE70E083E00C94AD020E9480
:100CD0004B0668EC70E080E090E00E940C0380918D
:100CE0007A03882351F080917603909177030196DF
:100CF0009093770380937603089564E670E080E034
:100D000090E00E940C030E9439066CE271E080E0E2
:100D100090E00E940C030E94460610927703109206
:100D2000760308951F920F920FB60F9211242F93FE
:100D30003F934F935F936F937F938F939F93AF9363
:100D4000BF93EF93FF93EFE6F0E080818E7F808387
:100D500080818D7F808310928500109284000E9494
:100D60006706FF91EF91BF91AF919F918F917F9116
:100D70006F915F914F913F912F910F900FBE0F9008
:100D80001F90189590913D04E0913E04F0913F042E
:100D9000F8948181892B81832281892F8095282352
:100DA0002283A2E0B0E01197F1F7218182238183B1
:100DB000A0E1B0E01197F1F780817894E6E6F0E0E9
:100DC0003197F1F7982381E009F480E008950F93BB
:100DD0001F93CF93DF9308E010E0C0E0D1E00E94C2
:100DE000C2068111CD2BDD0F01501109C1F78C2FE7
:100DF000DF91CF911F910F910895CF92DF92EF92E3
:100E0000FF920F931F93CF93DF936C017A018B01B5
:100E1000C0E0D0E0CE15DF0581F0D8016D918D01E5
:100E2000D601ED91FC910190F081E02DC60109956C
:100E3000892B11F02196EECF7E01C701DF91CF9172
:100E40001F910F91FF90EF90DF90CF9008950E9437
:100E5000EE0F90910C01891324C0E0E9F0E0E491D9
:100E60009FEF90930C01E130B9F098F0E230C9F4B3
:100E7000909170009D7F9093700091E09093B000EE
:100E80009091B100987F94609093B1001092B3005C
:100E900008C010926E0005C090916F009D7F9093E6
:100EA0006F0060E00C944202CF93DF9340E065E571
:100EB0008DE394E00E94CB03C6E9D3E0699140E062
:100EC0008DE394E00E94CB0383E0CE39D807B1F7DD
:100ED000DF91CF9108958DE394E00E94FF030E947B
:100EE000540741E065EF8DE394E00E94CB030C943E
:100EF000E706CF93C82F41E06AE58DE394E00E94B6
:100F0000CB0341E06C2F8DE394E00E94CB036C2F68
:100F1000609541E08DE394E00E94CB030E94E706D8
:100F20008A3A31F40E94E706C81302C081E001C08A
:100F300080E0CF910895009769F0FC0101900020B6
:100F4000E9F73197AF01481B590BBC018EE993E0DB
:100F50000C94FD0680E090E00895CF93DF930E940B
:100F60009B07EC0185E593E00E949B078C0F9D1F7A
:100F7000DF91CF9108954F925F926F927F928F92FF
:100F80009F92AF92BF92CF92DF92EF92FF920F9318
:100F90001F93CF93DF9300D000D000D0CDB7DEB742
:100FA0006C0161E086E00E9471020E944603812C80
:100FB000912C54011E821D829B01AC012C53364F93
:100FC0004F4F5F4F29833A834B835C830D2C000C7A
:100FD000EE08FF080E94460329813A814B815C811B
:100FE000621773078407950720F50E9446032B01BB
:100FF0003C01DC01CB0188199909AA09BB098C15B0
:101000009D05AE05BF0530F30D811E8131E003273C
:10101000A801417055275E834D8388E693E00E94C6
:10102000AD07602F617086E00E94D7055301420131
:10103000D1CF61E086E00E94710286E00E9429071C
:1010400026960FB6F894DEBF0FBECDBFDF91CF91CD
:101050001F910F91FF90EF90DF90CF90BF90AF90D6
:101060009F908F907F906F905F904F900895DF9248
:10107000EF92FF920F931F93CF93DF931092480448
:1010800010924A0410924904E8E4F4E080E4E82E67
:1010900084E0F82E129284E0E034F807D9F78DE36B
:1010A00094E00E94FF03811107C01092480410923F
:1010B0004A041092490468C040E060EF8DE394E078
:1010C0000E94CB03D1E000E0D12CC1E00E94C20617
:1010D000182F0E94C206113019F48130C1F436C0B5
:1010E000202F30E018131DC080914804C81738F431
:1010F000F901E35CFB4F83818D2349F402C08C1717
:1011000031F010E0C93060F4C093490409C0E02F09
:10111000F0E0E35CFB4F83818D2B838311E009C0FA
:10112000DC2EF901E35CFB4F93818D2F80958923A1
:101130008383612F8DE394E00E949C03CF5FDD0FDA
:1011400011F40F5FD1E0083008F4C0CFC13408F4C7
:10115000ACCFD0924804D11003C081E080934A0400
:1011600080914004882309F4A0CFE6E9F3E0D70199
:101170008D917D018193B3E0EE39FB07C1F781E0EA
:1011800090919603993209F080E0DF91CF911F9101
:101190000F91FF90EF90DF9008958F929F92AF9202
:1011A000BF920F931F93CF93DF93CDB7DEB7A19775
:1011B0000FB6F894DEBF0FBECDBF19A2423008F4BF
:1011C0004AE08E010F5D1F4F842E912CA12CB12C73
:1011D000A50194010E94C60FE62FB901CA01015072
:1011E0001109EA3014F4E05D01C0E95CD801EC9328
:1011F000232B242B252B61F7C8010E949B07A19666
:101200000FB6F894DEBF0FBECDBFDF91CF911F9117
:101210000F91BF90AF909F908F900895CF93DF93E1
:10122000682F70E080E090E04AE00E94CD08EC0179
:1012300085E593E00E949B078C0F9D1FDF91CF9166
:1012400008950C949B07CF92DF92EF92FF92CF9379
:10125000DF936C01990FEE08FF08F7FE13C06DE2F3
:101260008EE993E00E94CC00EC0166277727CB0142
:101270006C197D098E099F094AE00E94CD08C80FAC
:10128000D91F06C04AE0C701B6010E94CD08EC0193
:1012900085E593E00E949B078C0F9D1FDF91CF9106
:1012A000FF90EF90DF90CF9008951F920F920FB6AE
:1012B0000F9211242F933F934F935F936F937F93DC
:1012C0008F939F93AF93BF93EF93FF9380914C04C1
:1012D00090914D04A0914E04B0914F04892B8A2B1C
:1012E0008B2B41F190914B048091000089278093D2
:1012F000000080914C0490914D04A0914E04B09157
:101300004F04181619061A061B06C4F480914C04E3
:1013100090914D04A0914E04B0914F040197A10902
:10132000B10980934C0490934D04A0934E04B09364
:101330004F0404C080910C010E942907FF91EF9196
:10134000BF91AF919F918F917F916F915F914F91DD
:101350003F912F910F900FBE0F901F901895CF9334
:10136000DF93CDB7DEB72B970FB6F894DEBF0FBE75
:10137000CDBF789484B5826084BD84B5816084BD1E
:1013800085B5826085BD85B5816085BD80916E0023
:10139000816080936E001092810080918100826054
:1013A0008093810080918100816080938100809191
:1013B00080008160809380008091B1008460809380
:1013C000B1008091B00081608093B00080917A007C
:1013D000846080937A0080917A00826080937A00A2
:1013E00080917A008E7F80937A0080917A00806865
:1013F00080937A001092C100E091AE03F091AF03A8
:1014000082E08083E091AA03F091AB031082E09127
:10141000AC03F091AD0387E680831092B603E091B0
:10142000B203F091B30386E08083E091B003F091C2
:10143000B103808180618083E091B003F091B103BA
:10144000808188608083E091B003F091B103808156
:1014500080688083E091B003F091B10380818F7D3B
:10146000808381E491E00E94AD0761E08DE00E94FD
:10147000710261E081E10E94710261E083E00E94FB
:10148000710261E08BE00E94710262E08CE00E94D8
:10149000710262E082E00E94710262E088E00E94D4
:1014A000710262E087E00E94710260E08FE00E94BA
:1014B000710260E08EE00E94710261E084E00E94AF
:1014C000710260E084E00E94420261E080E10E94DB
:1014D000710260E080E10E94420260E070E083E01F
:1014E0000E94AD0260E070E08BE00E94AD0280E0FF
:1014F00090E00E94B104182F81E090E00E94B104B6
:10150000133511F4883509F163E580E090E00E941D
:10151000AF0468E581E090E00E94AF0485E690E0CA
:101520009B878A87BE01665F7F4F8AE090E00E94BA
:101530006B0481E090E09A838983BE016F5F7F4FE7
:101540008DE090E00E946B0434C080917A03882380
:1015500021F180918203882301F163E580E090E02E
:101560000E94AF0468E581E090E00E94AF0485E648
:1015700090E09B878A87BE01665F7F4F8AE090E09C
:101580000E946B0481E090E09A838983BE016F5FC3
:101590007F4F8DE090E00E946B0460E773E08AE08B
:1015A00090E00E94570464E773E08DE090E00E94B1
:1015B00057040E943708182F80937C0381110E94E2
:1015C000B3058FE00E941902892BB1F48EE00E94CE
:1015D0001902892B89F4112379F084E090E00E94AC
:1015E000B10408E010E0081B1109101611060CF4F4
:1015F00072C086E00E94960487E00E941902892B3F
:1016000009F086C088E00E941902892B09F080C089
:1016100011E003E2E9E0FE2EF0EEEF2EAFE6DA2E67
:10162000C0907C030E94370880937C03882359F183
:10163000C1100FC00E94B30586E00E94960468ECBA
:1016400070E080E090E00E940C0360E086E00E9481
:10165000D70580E090E00E94E50580937B0381E060
:1016600090E00E94E50591E0811101C090E0909327
:101670007A0382E090E00E94E50591E0811101C0CB
:1016800090E0909382038FE00E941902019709F085
:1016900042C08EE00E941902892BE9F5109279036D
:1016A00060E084E090E00E94AF0460E086E00E9489
:1016B000D70586E00E9496040E944B060E942C06E5
:1016C0000E9439060E94460660E086E00E94D70527
:1016D0000E949F01A5CFEE24E394F12C68EC70E00A
:1016E00080E090E00E940C0386E00E94960468EC83
:1016F00070E080E090E00E940C0360E086E00E94D1
:10170000D7052FEFE21AF20A0E151F053CF774CF2A
:101710000E9439067DCF8FE00E941902892B09F0C3
:10172000D8C08EE00E941902019709F0D2C0C09083
:10173000790387E08C1508F0CCC086E00E949604FF
:101740008CE00E941902892B19F680918203811185
:10175000BFCF80917403909175039A838983CB8264
:101760001C821D821F821E8219861886BE016F5F31
:101770007F4F80917003909171030E94310460E764
:1017800073E08AE090E00E945704609070037090CC
:101790007103530188E4A81AB1088CE592E00E9415
:1017A000AD078AE992E00E9421098091700390912F
:1017B00071030E9423098AEB92E00E942109C5016E
:1017C0000E942309BE016F5F7F4FC5010E94310453
:1017D00089E591E00E94AD0781E991E00E9421092D
:1017E000C5010E9423098DEB91E00E9421098981A6
:1017F0009A810E94230986EB91E00E9421098B8146
:101800000E940E0988EC91E00E9421098C810E94BF
:101810000E0984ED91E00E9421098C81811104C0A0
:101820008CED91E00E94AD078C81813021F483EE34
:1018300091E00E94AD078C81823021F48CEE91E022
:101840000E94AD078C81843021F48DEF91E00E94DD
:10185000AD078C81853021F48DE092E00E94AD07C8
:101860008C81863021F48AE192E00E94AD078C8160
:10187000873021F483E292E00E94AD078C818830AA
:1018800021F488E292E00E94AD078AE292E00E9491
:1018900021098D810E940E098AE392E00E942109AC
:1018A0008E819F810E94230981E492E00E94210998
:1018B000888599850E94230929E0A20EB11C6A142B
:1018C0007B0409F07FCF809100018F5F809300013E
:1018D000FFCE8FE00E941902892B09F0F9CE8EE02D
:1018E0000E941902892B09F0F3CE84E090E00E9457
:1018F000B104809379038CE00E941902892B09F0CE
:101900005EC0E0917B03F0E0EE0FFF1FE35FFE4F50
:10191000808191818F399F4F09F051C087E080937A
:1019200078030E94E1040E944B060E942C0688E086
:101930000E9419020197D9F768E270E080E090E018
:101940000E940C03C0908203CC2029F06FEF70E05E
:101950008BE00E94AD020E944606CC2029F062E88E
:1019600070E08BE00E94AD028CE00E941902892B8E
:10197000D9F3CC2091F087E00E94960461E070E0FA
:1019800080E090E00E940C0360E070E08BE00E9439
:10199000AD0260E087E00E94D7050E944B0668EC2C
:1019A00070E080E090E00E940C030E94390668EC31
:1019B00070E080E090E00E940C030E9446068CE0FC
:1019C0000E941902892BF1F5E0917B03F0E0EE0F04
:1019D000FF1FE35FFE4F808191818E399F4F91F50C
:1019E00088E0809378030E94E1040E944B060E94E5
:1019F0002C0688E00E9419020197D9F768E270E08E
:101A000080E090E00E940C030E9446068CE00E9459
:101A100019020197D9F38CE00E941902892B11F465
:101A20000E944B0668EC70E080E090E00E940C039E
:101A30000E94390668EC70E080E090E00E940C03A0
:101A40000E9446061092810362E08CE00E947102BF
:101A50008CE00E9419029C01CC24C394892B09F4C8
:101A6000C12CC0920B0190910A01232B09F045C0B3
:101A7000992309F49FC00E944603409006015090AC
:101A800007016090080170900901DC01CB01841905
:101A90009509A609B7094597A105B10508F48AC0BB
:101AA0000E94460360930201709303018093040136
:101AB00090930501109280031093010110927F030F
:101AC0000E944603DC01CB0184199509A609B709D8
:101AD0008A3F9105A105B10568F480917E038111CB
:101AE00009C080917D03882329F010937E03109212
:101AF0007D0360C010927E03FACF911128C00E942E
:101B000046034090020150900301609004017090E0
:101B10000501DC01CB0184199509A609B709459790
:101B2000A105B105A0F080918003811110C00E9431
:101B30004603609306017093070180930801909318
:101B4000090180917E0381118CC110937D03A12C2A
:101B5000B12C0E944603409006015090070160900E
:101B6000080170900901DC01CB0184199509A609CF
:101B7000B7098A3F9105A105B10508F440C08091DD
:101B80007D038823E1F180917E03811138C080912B
:101B900001018823A1F182E0A816B10409F46EC105
:101BA00010927D0310930A0110927803AA24A39443
:101BB000B12C2BC00E9446034090020150900301BB
:101BC0006090040170900501DC01CB018419950936
:101BD000A609B7098E359140A105B10508F43DC0AD
:101BE00080917F03811147C11093800310927E037F
:101BF00010927D0310937F0343E0A42EB12CC0927A
:101C00000A0110927803A0FE0BC01093810322E01A
:101C1000A216B10449F080917A03811144C027C013
:101C200082E0A816B104E9F40E94460389E492E038
:101C30000E94AD0788EE93E00E94BB0788E592E022
:101C40000E94BB0788EC90E00E94BB0780E590E013
:101C50000E94BB071093810304C0C0920A01109236
:101C6000780380918103882309F432CDD4CF809109
:101C700076039091770318161906ACF40E94E104DC
:101C8000109277031092760360E086E00E94D705F9
:101C90000E94390662E370E080E090E00E940C034D
:101CA0000E94460615CD80E090E00E94E50584364E
:101CB00009F05DC084E090E00E94B1048093790354
:101CC0000E94E1040093B000F092B100E092B300F2
:101CD000D092B4006FEF70E08BE00E94AD020E94E2
:101CE0004B060E942C0688E00E9419020197D9F742
:101CF00062E870E08BE00E94AD0268E770E080E08F
:101D000090E00E940C030E94460662E470E080E0CE
:101D100090E00E940C0361E084E00E94420262E0D5
:101D200070E080E090E00E940C0360E070E08BE0E7
:101D30000E94AD0260E084E00E94420264E170E033
:101D400080E090E00E940C030E944B0668EC70E07B
:101D500080E090E00E940C030E94390668EC70E07D
:101D600080E090E00E940C030E94460608C080E0DC
:101D700090E00E94E505883C39F40E94E10410924D
:101D8000770310927603A4CCC0907B0323E62C1536
:101D900008F49ECC8BE08C1508F453C060E081E120
:101DA0000E94420260E08DE00E9442020E944B06C7
:101DB00064E670E080E090E00E940C030E942C0634
:101DC00088E00E9419020197D9F768E770E080E087
:101DD00090E00E940C03EC2DF0E0EE0FFF1FE35F9C
:101DE000FE4FA080B18026E1A20EB11C0E944606E3
:101DF0000E94460325010B2C000C66087708460E4E
:101E0000571E681E791E0E9446034616570668062E
:101E10007906C8F780913B0490913C04A816B90656
:101E20006CF087E00E94960461E070E080E090E052
:101E30000E940C0360E087E00E94D7050E946706BD
:101E40000DC0EC2DF0E0EE0FFF1FE35FFE4F808131
:101E500091818C599F4F029708F03ACC0E94E1047F
:101E600037CC10927E0310927D031092010152E054
:101E7000A52EB12C6ECEA12CB12CC1CE10930A018F
:101E800010927803D1CE1092A1031092A00388EE95
:101E900093E0A0E0B0E08093A2039093A303A0930B
:101EA000A403B093A50381E391E090939F038093F3
:101EB0009E0385EC90E09093AB038093AA0384EC9F
:101EC00090E09093AD038093AC0380EC90E090930E
:101ED000AF038093AE0381EC90E09093B1038093C5
:101EE000B00382EC90E09093B3038093B20386EC4E
:101EF00090E09093B5038093B4031092B7031092CF
:101F0000B8031092B9031092BA0360E082E00E9415
:101F10007102E1EBF0E0E491E0933D04EDE9F0E0E3
:101F2000E491F0E0EE0FFF1FEF56FF4F8591949183
:101F300090933F0480933E041092480410924A0408
:101F400010924904E8E4F4E0129284E0E034F807E7
:101F5000D9F78FE290E090933C0480933B0408957E
:101F6000F999FECF92BD81BDF89A992780B5089561
:101F7000262FF999FECF1FBA92BD81BD20BD0FB6A5
:101F8000F894FA9AF99A0FBE01960895A1E21A2ED2
:101F9000AA1BBB1BFD010DC0AA1FBB1FEE1FFF1F0D
:101FA000A217B307E407F50720F0A21BB30BE40B5D
:101FB000F50B661F771F881F991F1A9469F76095A4
:101FC0007095809590959B01AC01BD01CF0108955E
:101FD000EE0FFF1F0590F491E02D099481E090E051
:0A1FE000F8940C94F30FF894FFCF6F
:101FEA000101FFFFFFFFFFFFFFFF0101FF010004E7
:101FFA0000060007000B001100160022002A0050FC
:10200A00008C0022019CFF9DFF9EFF9FFF000000A5
:10201A0000CC00FD06910019019301A000B400163E
:10202A00006F70656E5358373021212121212121FB
:10203A002121212121212121003D3D3D3D3D3D3DE3
:10204A003D3D3D3D3D3D3D3D3D3D3D3D3D3D3D3DB6
:10205A003D3D3D3D3D3D3D3D3D3D3D3D3D3D3D3DA6
:10206A003D3D3D3D3D3D3D3D3D3D3D3D3D3D3D3D96
:10207A0000656541646472657373207265616420EA
:10208A0028746869735265636F7264416464726527
:10209A007373293A200043757272656E7420506911
:1020AA0063747572653A20002054797065207261F4
:1020BA00773A200020547970653A20004D414E55F8
:1020CA00414C004155544F2031303000464C415369
:1020DA004820444F4E474C454C45535300464C41CB
:1020EA00534820463820444F4E474C4500464C4101
:1020FA00534820444F4E474C45004155544F2036D3
:10210A0030300042554C42005400205368757474B4
:10211A00657253706565643A2000204C4F573A2027
:10212A000020484947483A20005354415254203528
:10213A0030302C323630302C352C30003D3D3D3D90
:10214A003D3D3D3D3D3D3D3D3D3D3D3D3D3D3D3DB5
:10215A003D3D3D20456E746572696E67206C6F6FF8
:10216A0070203D3D3D3D3D3D3D3D3D3D3D3D3D3D7F
:10217A003D3D3D3D3D3D3D3D3D00494E4954494172
:10218A004C20656541646472657373206265666F8D
:10219A007265206C6F6F703A200052656164416409
:1021AA006472657373206265666F7265206C6F6F07
:1021BA00703A20004F766572666C6F77204F6363C2
:1021CA007572656421002A2A2A2A2A2A2A2A2A2A90
:1021DA002A2A2A2A2A2A2A2A2A2A2A2A2A2A2A2A55
:1021EA002A2A2A0041637475616C207069637475C8
:1021FA0072653A200043757272656E742070696365
:10220A0074757265205061636B3A2000506963747B
:10221A0075726520747970653A2000536875747414
:10222A00657220696E206D733A2000436F756E7473
:10223A0065723A20000D0A00506963747572652050
:10224A0074616B656E3A2000545950452032000083
:00000001FF
