:100000000C9462000C948A000C948A000C948A0070
:100010000C948A000C948A000C948A000C948A0038
:100020000C948A000C948A000C948A000C948A0028
:100030000C948A000C948A000C948A000C948A0018
:100040000C9458050C948A000C9426050C94000519
:100050000C948A000C948A000C948A000C948A00F8
:100060000C948A000C948A000000000024002700F1
:100070002A0000000000250028002B0000000008D6
:10008000000201000003040700000000000000005F
:1000900000000000230026002900040404040404D6
:1000A0000404020202020202030303030303010227
:1000B00004081020408001020408102001020408F6
:1000C0001020A20511241FBECFEFD8E0DEBFCDBFA8
:1000D00011E0A0E0B1E0E6E6F1E102C005900D928A
:1000E000AE3AB107D9F722E0AEEAB1E001C01D9205
:1000F000A936B207E1F710E0C2E6D0E004C02197CC
:10010000FE010E948507C136D107C9F70E94090682
:100110000C94B1080C94000090915702E0915802A1
:10012000F0915902292F209580FF12C0F894828106
:10013000822382838181892B8183A0E1B0E01197A2
:10014000F1F78281982B928378948AE690E011C02F
:10015000F8948281822382838181892B8183AEE717
:10016000B0E01197F1F78281982B9283789486E022
:1001700090E00197F1F7089590915702E0915802AD
:10018000F0915902F8948181892B81832281892FF2
:10019000809528232283A2E0B0E01197F1F7218116
:1001A00082238183A0E1B0E01197F1F780817894F8
:1001B000E6E6F0E03197F1F7982381E009F480E07A
:1001C0000895FF920F931F93CF93DF93F82E062F7E
:1001D000C8E0D0E011E081E09F2D912309F480E098
:1001E0000E948C00110F2197B1F7011113C0F894F0
:1001F000E0915802F09159029181809157028095C7
:1002000098239183E0915802F091590292818923B9
:1002100082837894DF91CF911F910F91FF90089581
:100220000F931F93CF93DF9308E010E0C0E0D1E07D
:100230000E94BC008111CD2BDD0F01501109C1F7C7
:100240008C2FDF91CF911F910F9108950F931F93E2
:10025000CF93DF938C0160E085E50E94E100E80127
:10026000085F1F4F60E089910E94E100C017D1072D
:10027000C9F7DF91CF911F910F910895CF93C82FA8
:1002800061E08AE50E94E10061E08C2F0E94E100BC
:1002900061E08C2F80950E94E1000E9410018A3A53
:1002A00031F40E941001C81302C081E001C080E057
:1002B000CF910895CF92DF92EF92FF920F931F9309
:1002C000CF93DF936C017A018B01C0E0D0E0CE15B3
:1002D000DF0581F0D8016D918D01D601ED91FC9182
:1002E0000190F081E02DC6010995892B11F021962E
:1002F000EECF7E01C701DF91CF911F910F91FF904B
:10030000EF90DF90CF900895089580E090E00895F9
:10031000FC01538D448D252F30E0842F90E0821B0B
:10032000930B541710F0CF96089501970895FC0190
:10033000918D828D981761F0828DDF01A80FB11D1C
:100340005D968C91928D9F5F9F73928F90E0089540
:100350008FEF9FEF0895FC01918D828D981731F0FA
:10036000828DE80FF11D858D90E008958FEF9FEF4E
:100370000895FC01918D228D892F90E0805C9F4F24
:10038000821B91098F73992708958AEB91E00E944F
:10039000B90121E0892B09F420E0822F0895FC01A6
:1003A000848DDF01A80FB11DA35ABF4F2C91848DFE
:1003B00090E001968F739927848FA689B7892C9333
:1003C000A089B1898C91837080648C93938D848D86
:1003D000981306C00288F389E02D80818F7D808389
:1003E0000895EF92FF920F931F93CF93DF93EC0149
:1003F00081E0888F9B8D8C8D981305C0E889F989E1
:10040000808185FD26C0F62E0B8D10E00F5F1F4FFB
:100410000F731127E02E8C8DE8120CC00FB607FC6D
:10042000FACFE889F989808185FFF5CFCE010E9456
:10043000CF01F1CF8B8DFE01E80FF11DE35AFF4F85
:10044000F0829FB7F8940B8FEA89FB8980818062E4
:100450000AC09FB7F894EE89FF896083E889F9891B
:1004600080818370806480839FBF81E090E0DF9112
:10047000CF911F910F91FF90EF900895CF93DF934D
:10048000EC01888D8823C9F0EA89FB89808185FD8C
:1004900005C0A889B9898C9186FD0FC00FB607FCED
:1004A000F5CF808185FFF2CFA889B9898C9185FF2E
:1004B000EDCFCE010E94CF01E7CFDF91CF9108951C
:1004C00080E090E0892B29F00E94C50181110C94F5
:1004D00000000895833081F028F4813099F0823053
:1004E000A1F008958730A9F08830B9F08430D1F4B4
:1004F000809180008F7D03C0809180008F778093F2
:100500008000089584B58F7702C084B58F7D84BD47
:1005100008958091B0008F7703C08091B0008F7DE7
:100520008093B00008951F93CF93DF93E7E8F0E046
:100530009491E9EBF0E0D491E5EAF0E0C491CC23AA
:10054000D1F0182F992319F0892F0E946A02EC2FFD
:10055000F0E0EE0FFF1FEE58FF4FA591B4919FB74B
:10056000F894111104C08C91D095D82302C0EC915D
:10057000DE2BDC939FBFDF91CF911F910895CF9326
:10058000DF93282F30E0F901E458FF4F8491F901FF
:10059000E255FF4FD491F901E656FF4FC491CC23A9
:1005A00091F081110E946A02EC2FF0E0EE0FFF1F24
:1005B000E057FF4FA591B491EC91ED2381E090E0DD
:1005C00021F480E002C080E090E0DF91CF910895B7
:1005D000CF93DF9390E0FC01E255FF4F2491FC01A3
:1005E000E656FF4F8491882361F190E0880F991FB0
:1005F000FC01E859FF4FC591D491FC01EE58FF4F23
:10060000A591B491611109C09FB7F8948881209594
:1006100082238883EC912E230BC0623061F49FB754
:10062000F8948881322F309583238883EC912E2B88
:100630002C939FBF06C08FB7F894E8812E2B288398
:100640008FBFDF91CF9108953FB7F8948091B301A8
:100650009091B401A091B501B091B60126B5A89BC7
:1006600005C02F3F19F00196A11DB11D3FBFBA2F44
:10067000A92F982F8827820F911DA11DB11DBC01A4
:10068000CD0143E0660F771F881F991F4A95D1F768
:1006900008958F929F92AF92BF92CF92DF92EF9286
:1006A000FF926B017C010E9424034B015C01C11489
:1006B000D104E104F104F1F00E942403DC01CB0138
:1006C00088199909AA09BB09883E9340A105B1057B
:1006D00070F321E0C21AD108E108F10888EE880E13
:1006E00083E0981EA11CB11CC114D104E104F104E3
:1006F00019F7DDCFFF90EF90DF90CF90BF90AF90D4
:100700009F908F90089520915702E0915802F091A8
:100710005902F8948181922F90958923818378944E
:100720008DE7815009F130813223D9F3F894828129
:10073000892382838181822B81837894ACEBB3E01F
:100740001197F1F7F89481819823918388E890E0DC
:100750000197F1F78081282381E009F080E0789407
:10076000E0E3F3E03197F1F70895DF92EF92FF9223
:100770000F931F93CF93DF9320916402211105C043
:100780007C010E948303811108C0109262021092C2
:1007900064021092630280E05FC060E080EF0E941C
:1007A000E100D1E000E0D12CC1E00E94BC00182F94
:1007B0000E94BC00113019F48130C1F433C0202FE5
:1007C00030E018131DC080916202C81738F4F90197
:1007D000E95AFD4F83818D2349F402C08C1731F013
:1007E00010E0C93060F4C093630209C0E02FF0E06C
:1007F000E95AFD4F83818D2B838311E009C0DC2EE4
:10080000F901E95AFD4F83812D2F20952823238359
:10081000812F0E948C00CF5FDD0F11F40F5FD1E0BC
:10082000083018F2C13408F4B0CFD0926202D1106F
:1008300003C081E08093640280915A02882309F406
:10084000A4CFAAE5B2E0F701C70108962D91219344
:10085000E817F907D9F781E0DF91CF911F910F9148
:10086000FF90EF90DF900895009769F0FC010190F0
:100870000020E9F73197AF01481B590BBC018AEB07
:1008800091E00C945A0180E090E00895CF93DF93BB
:100890000E943404EC0188E191E00E9434048C0F42
:1008A0009D1FDF91CF9108958F929F92AF92BF923B
:1008B0000F931F93CF93DF93CDB7DEB7A1970FB6FA
:1008C000F894DEBF0FBECDBF19A2423008F44AE053
:1008D0008E010F5D1F4F842E912CA12CB12CA501F0
:1008E00094010E946307E62FB901CA010150110962
:1008F000EA3014F4E05D01C0E95CD801EC93232BED
:10090000242B252B61F7C8010E943404A1960FB651
:10091000F894DEBF0FBECDBFDF91CF911F910F9135
:10092000BF90AF909F908F900895AF92BF92CF925B
:10093000DF92EF92FF921F93CF93DF93CDB7DEB795
:1009400028970FB6F894DEBF0FBECDBF10E0CE01E2
:1009500001960E94B503882349F089818932B9F74D
:100960008BE191E00E9446041F5FF1CF109262027A
:100970001092640210926302E2E6F2E0129282E0C8
:10098000EA35F807D9F76AEF70E080E090E00E945E
:100990004903A12EB12CC50123E0880F991F2A9588
:1009A000E1F70E948B079093B9018093B801E12C85
:1009B000F12CC12CD12CCA14DB047CF48091B80139
:1009C0009091B9018E0D9F1D0E94B5038FEFC81A3B
:1009D000D80A88E0E80EF11CEECF812F28960FB6DA
:1009E000F894DEBF0FBECDBFDF91CF911F91FF9076
:1009F000EF90DF90CF90BF90AF9008950E94AC0829
:100A00001F920F920FB60F9211242F933F934F9383
:100A10005F936F937F938F939F93AF93BF93EF9366
:100A2000FF938AEB91E00E94CF01FF91EF91BF917C
:100A3000AF919F918F917F916F915F914F913F9176
:100A40002F910F900FBE0F901F9018951F920F922D
:100A50000FB60F9211242F938F939F93EF93FF93D1
:100A6000E091CA01F091CB018081E091D001F09139
:100A7000D10182FD12C090818091D3018F5F8F736D
:100A80002091D401821751F0E091D301F0E0E654B7
:100A9000FE4F958F8093D30101C08081FF91EF912C
:100AA0009F918F912F910F900FBE0F901F901895CF
:100AB0001F920F920FB60F9211242F933F938F9393
:100AC0009F93AF93BF938091AF019091B001A0919C
:100AD000B101B091B2013091AE0126E0230F2D3764
:100AE00020F40296A11DB11D05C029E8230F03962D
:100AF000A11DB11D2093AE018093AF019093B00171
:100B0000A093B101B093B2018091B3019091B4016F
:100B1000A091B501B091B6010196A11DB11D8093C0
:100B2000B3019093B401A093B501B093B601BF9106
:100B3000AF919F918F913F912F910F900FBE0F908A
:100B40001F9018951092BD011092BC0188EE93E0A1
:100B5000A0E0B0E08093BE019093BF01A093C001DC
:100B6000B093C1018AE091E09093BB018093BA01F8
:100B700085EC90E09093C7018093C60184EC90E0EF
:100B80009093C9018093C80180EC90E09093CB01D1
:100B90008093CA0181EC90E09093CD018093CC01C9
:100BA00082EC90E09093CF018093CE0186EC90E0B0
:100BB0009093D1018093D0011092D3011092D4016F
:100BC0001092D5011092D60160E082E00E94E80206
:100BD000E0EBF0E0E491E0935702ECE9F0E0E4911F
:100BE000F0E0EE0FFF1FE057FF4F85919491909337
:100BF000590280935802109262021092640210927D
:100C00006302E2E6F2E0129282E0EA35F807D9F7F1
:100C10000895789484B5826084BD84B5816084BD74
:100C200085B5826085BD85B5816085BD80916E008A
:100C3000816080936E0010928100809181008260BB
:100C400080938100809181008160809381008091F8
:100C500080008160809380008091B10084608093E7
:100C6000B1008091B00081608093B00080917A00E3
:100C7000846080937A0080917A00826080937A0009
:100C800080917A008E7F80937A0080917A008068CC
:100C900080937A001092C10061E08BE00E94E8022C
:100CA00080E00E94930262E082E00E94E80262E03B
:100CB0008CE00E94E802E091CA01F091CB0182E051
:100CC0008083E091C601F091C7011082E091C801D4
:100CD000F091C90187E680831092D201E091CE01A4
:100CE000F091CF0186E08083E091CC01F091CD01BD
:100CF000808180618083E091CC01F091CD01808181
:100D000088608083E091CC01F091CD018081806882
:100D10008083E091CC01F091CD0180818F7D808333
:100D200083E291E00E9446040E9495048093B701FB
:100D30000E9495048093B70182E00E94BF02892B34
:100D4000D9F483E391E00E9446048CE00E94BF0244
:100D5000892B09F0B1C082E491E00E94460481E051
:100D60000E9493026FE070E080E090E00E944903EF
:100D700080E00E949302A0C00E949504C82F809337
:100D8000B70182E00E94BF02019711F4C1110FC0A8
:100D90000E9495048093B701811106C082E00E94F1
:100DA000BF02019709F484C00E946002C1CF80E8AD
:100DB00091E00E944604E12CF12CC12CD12CC0E022
:100DC000A12CB12C8091B70190E0C816D9060CF087
:100DD00041C00091B8011091B9010E0D1F1D0E9474
:100DE0008303C8010E94260161E085EF0E94E100B3
:100DF0000E941001D82F80FDC160D1FDC260D2FDDC
:100E0000C460D3FDC8608091B8019091B9018C0194
:100E10000E0D1F1DD4FF0BC00E948303C8010E944A
:100E200026018FEB0E943E01BB24B39408C00E94B0
:100E30008303C8010E9426018FEF0E943E01D5FF67
:100E400002C0AA24A3948FEFC81AD80A88E0E80E3B
:100E5000F11CB8CF8FE591E00E9434046C2F70E054
:100E600080E090E04AE00E94540488E191E00E9412
:100E700034048AE691E00E9434046B2D70E080E037
:100E800090E042E00E94540488E191E00E94340422
:100E900085E791E00E9434046A2D70E080E090E0E4
:100EA00042E00E94540488E191E00E9434047CCF27
:100EB0008BE991E00E94460468EE73E080E090E0E8
:100EC0000E94490371CFA1E21A2EAA1BBB1BFD0190
:100ED0000DC0AA1FBB1FEE1FFF1FA217B307E40719
:100EE000F50720F0A21BB30BE40BF50B661F771F71
:100EF000881F991F1A9469F7609570958095909551
:100F00009B01AC01BD01CF010895EE0FFF1F0590BD
:100F1000F491E02D09940F931F93CF93DF938230C8
:100F2000910510F482E090E0E0916702F091680290
:100F300020E030E0A0E0B0E0309719F1408151812D
:100F40000281138148175907C8F08417950769F47F
:100F5000109731F012960C93129713961C9327C09A
:100F6000009367021093680222C02115310519F021
:100F70004217530718F49A01BD01EF01DF01F80190
:100F8000DBCF21153105F9F0281B390B2430310551
:100F900080F48A819B816115710521F0FB019383A7
:100FA000828304C09093680280936702FE013296A8
:100FB00044C0FE01E20FF31F819391932250310947
:100FC000398328833AC02091650230916602232B31
:100FD00041F4209102013091030130936602209385
:100FE000650220910001309101012115310541F484
:100FF0002DB73EB74091040150910501241B350BDC
:10100000E0916502F0916602E217F307A0F42E1B4F
:101010003F0B2817390778F0AC014E5F5F4F24175C
:10102000350748F04E0F5F1F5093660240936502EC
:101030008193919302C0E0E0F0E0CF01DF91CF9186
:101040001F910F910895CF93DF93009709F481C00A
:10105000FC01329713821282A0916702B09168025C
:10106000109781F420813181820F931F20916502B6
:10107000309166022817390751F5F0936602E09324
:10108000650267C0ED0120E030E0CE17DF0740F4D5
:101090004A815B819E0141155105F1F0EA01F5CFCE
:1010A000D383C28340815181840F951FC817D9070C
:1010B00059F488819981840F951F029691838083CA
:1010C0008A819B81938382832115310529F4F093D2
:1010D0006802E09367023DC0E901FB83EA8349911E
:1010E0005991C40FD51FEC17FD0761F480819181E0
:1010F000840F951F0296E9019983888382819381E9
:101100009B838A83E0E0F0E012968D919C91139787
:10111000009719F0FD01DC01F7CF8D919C9111979B
:101120009D012E5F3F4F820F931F209165023091EA
:1011300066022817390769F4309729F4109268027B
:101140001092670202C013821282B0936602A093CB
:101150006502DF91CF91089581E090E0F8940C94BE
:06116000B108F894FFCF76
:1011660000006902800000000000F1015A018801B8
:101176003E02B9019701AB010D0A00436F756E740B
:1011860021210048454C4C4F206F70656E535837EF
:10119600302100464C41534820494E534552544550
:1011A6004400427574746F6E207072657373656463
:1011B6003A20666972696E6720666C6173680073AF
:1011C600656C6563746F723A20007377697463683F
:1011D60020313A200073776974636820323A200020
:1011E6006F70656E5358373020446F6E676C65209C
:1011F600636F6E6E656374656421004E4F54484993
:0E1206004E4720434F4E4E4543544544000092
:00000001FF
