:100000000C9463000C948B000C948B000C948B006C
:100010000C948B000C948B000C948B000C94C401FA
:100020000C948B000C948B000C948B000C948B0024
:100030000C948B000C948B000C948B000C948B0014
:100040000C9497090C948B000C9446020C9420029B
:100050000C948B000C948B000C948B000C948B00F4
:100060000C948B000C948B000200000000250028EB
:10007000002B00000000080002010000030407003C
:1000800000000000000000000000002300260029FE
:100090000004040404040404040202020202020331
:1000A000030303030301020408102040800102043B
:1000B000081020010204081020000000002400277E
:1000C000002A0000281111241FBECFEFD8E0DEBFA8
:1000D000CDBF13E0A0E0B1E0E2E0F6E202C005909F
:1000E0000D92A83BB107D9F724E0A8EBB3E001C01B
:1000F0001D92AA39B207E1F710E0C3E6D0E004C0D0
:100100002197FE010E94C711C236D107C9F70E948C
:10011000E1090C94FF120C940000CF92DF92EF9251
:10012000FF920F931F93CF93DF936C017A018B01A2
:10013000C0E0D0E0CE15DF0589F0D8016D918D01CA
:10014000D601ED91FC910190F081E02DC601099559
:10015000892B11F47E0102C02196ECCFC701DF91FB
:10016000CF911F910F91FF90EF90DF90CF90089566
:10017000089580E090E00895FC01538D448D252F73
:1001800030E0842F90E0821B930B541710F0CF9631
:10019000089501970895FC01918D828D981761F063
:1001A000828DDF01A80FB11D5D968C91928D9F5FAE
:1001B0009F73928F90E008958FEF9FEF0895FC0159
:1001C000918D828D981731F0828DE80FF11D858D0C
:1001D00090E008958FEF9FEF0895FC01918D228D9F
:1001E000892F90E0805C9F4F821B91098F73992724
:1001F000089582EE93E00E94ED0021E0892B09F43E
:1002000020E0822F0895FC01848DDF01A80FB11D2D
:10021000A35ABF4F2C91848D90E001968F7399273C
:10022000848FA689B7892C93A089B1898C91806429
:100230008C93938D848D981306C00288F389E02DEA
:1002400080818F7D80830895EF92FF920F931F939B
:10025000CF93DF93EC0181E0888F9B8D8C8D981379
:1002600005C0E889F989808185FD24C0F62E0B8DB3
:1002700010E00F5F1F4F0F731127E02E8C8DE812D7
:100280000CC00FB607FCFACFE889F989808185FF99
:10029000F5CFCE010E940301F1CF8B8DFE01E80F57
:1002A000F11DE35AFF4FF0820B8FEA89FB898081B1
:1002B000806207C0EE89FF896083E889F9898081BF
:1002C0008064808381E090E0DF91CF911F910F9156
:1002D000FF90EF900895CF93DF93EC01888D8823F2
:1002E000C9F0EA89FB89808185FD05C0A889B989A3
:1002F0008C9186FD0FC00FB607FCF5CF808185FF7E
:10030000F2CFA889B9898C9185FFEDCFCE010E94EB
:100310000301E7CFDF91CF91089580E090E0892B32
:1003200029F00E94F90081110C94000008950E94A8
:10033000FA1290910C01981324C0E8E6F0E0E491E1
:100340009FEF90930C01E130B9F098F0E230C9F4DE
:10035000909170009D7F9093700091E09093B00019
:100360009091B100987F94609093B1001092B30087
:1003700008C010926E0005C090916F009D7F909311
:100380006F0060E00C9461081F920F920FB60F92FD
:1003900011242F933F934F935F936F937F938F938A
:1003A0009F93AF93BF93EF93FF938091DC03909162
:1003B000DD03A091DE03B091DF03892B8A2B8B2B09
:1003C00051F18091DB03E091D903F091DA03908140
:1003D000892780838091DC039091DD03A091DE0367
:1003E000B091DF03181619061A061B06C4F4809193
:1003F000DC039091DD03A091DE03B091DF03019750
:10040000A109B1098093DC039093DD03A093DE037F
:10041000B093DF0304C080910C010E949901FF9109
:10042000EF91BF91AF919F918F917F916F915F916C
:100430004F913F912F910F900FBE0F901F901895E5
:100440001F920F920FB60F9211242F933F934F9349
:100450005F936F937F938F939F93AF93BF93EF932C
:10046000FF9382EE93E00E940301FF91EF91BF9111
:10047000AF919F918F917F916F915F914F913F913C
:100480002F910F900FBE0F901F9018951F920F92F3
:100490000FB60F9211242F938F939F93EF93FF9397
:1004A000E091F203F091F3038081E091F803F09181
:1004B000F90382FD12C090818091FB038F5F8F73DF
:1004C0002091FC03821751F0E091FB03F0E0EE5124
:1004D000FC4F958F8093FB0301C08081FF91EF91CA
:1004E0009F918F912F910F900FBE0F901F90189595
:1004F000FC0190810180F281E02D892F809560FFC1
:1005000012C0F8942281822382838181892B818386
:10051000A0E1B0E01197F1F78281982B9283789453
:100520008AE690E011C0F89422818223828381813F
:10053000892B8183AEE7B0E01197F1F78281982B88
:100540009283789486E090E00197F1F70895CF9236
:10055000DF92EF92FF920F931F93CF93DF931F923F
:10056000CDB7DEB76C01E62E08E010E0FF24F3946F
:1005700061E08F2D8E2109F460E0C60149830E945D
:100580007802FF0C0150110949810115110581F70D
:10059000411115C0F894D6011196ED91FC91129776
:1005A00091818C918095892381831196ED91FC91A5
:1005B000129792818C9180958923828378940F90F1
:1005C000DF91CF911F910F91FF90EF90DF90CF902F
:1005D0000895FC0190810180F281E02DF8948181E1
:1005E000292F20958223818378948DE7815009F10A
:1005F00030813923D9F3F8948281822382838181E7
:10060000892B81837894ACEBB3E01197F1F7F894E0
:10061000818128232183A8E8B0E01197F1F7808138
:10062000982381E009F080E07894E0E3F3E03197EB
:10063000F1F70895CF92DF92EF92FF920F931F93FD
:10064000CF93DF93EB017B0129E0E20EF11C8B01DC
:100650006C01C61AD70AC601800F911F0E948F1124
:10066000F80181938F01EE15FF05A9F7CE01DF9107
:10067000CF911F910F91FF90EF90DF90CF90089551
:100680000F931F93CF93DF938C01EB010E948F1187
:100690008883C80101960E948F118983CE01DF9162
:1006A000CF911F910F910895AF92BF92CF92DF9299
:1006B000EF92FF920F931F93CF93DF931F92CDB7CB
:1006C000DEB75C017B018B016C0182E0C80ED11C9E
:1006D000F80161918F01C50169830E948F116981C1
:1006E000681719F0C5010E949711FFEFAF1ABF0AF2
:1006F000AC14BD0469F7C7010F90DF91CF911F9132
:100700000F91FF90EF90DF90CF90BF90AF90089542
:100710000F931F93CF93C82F8091E0039091E10333
:100720000E9451060091E0031091E1038FE794E0ED
:100730000E94E902C8010E94350681E090E0A0E035
:10074000B0E004C0880F991FAA1FBB1FCA95D2F73B
:100750008095CF911F910F910C9465060C94971181
:10076000CF93DF93662321F0DF91CF910C94880320
:100770008091E0039091E1030E945106C091E00353
:10078000D091E1038FE794E00E94E902CE010E943C
:1007900035068FEFDF91CF910C9465061F93CF93B1
:1007A000DF93EC018091E0039091E1030E945106F8
:1007B000182F82E00E943808019711F411110DC022
:1007C00062E082E00E94B60882E00E943808892B2D
:1007D00011F484E62CC088EC2AC0209781F4809123
:1007E000E0039091E1030E945106982F817091FDE2
:1007F000826092FD846093FF1AC0886018C0C13087
:10080000D10551F48091E0039091E1030E945106DB
:1008100084FF0CC081E00BC0229741F48091E0037B
:100820009091E1030E94510685FDF4CF80E0DF91B5
:10083000CF911F910895CF92DF92EF92FF920F9385
:100840001F93CF93DF93CDB7DEB72A970FB6F894F7
:10085000DEBF0FBECDBF6EEB73E08DE090E00E9477
:1008600040038091C1038F5F8093C10380E090E0DB
:100870000E94CE03E82FF0E0EE0FFF1FED5EFE4F6B
:10088000D0808091BE039091BF039A838983809129
:10089000C1038B838091C0038C83DD82E090BC0315
:1008A000F090BD03FF82EE820091BA031091BB036A
:1008B0001987088787E793E00E942F078091BE037E
:1008C0009091BF030E94F1068091C1030E94250808
:1008D0008091C0030E9425088D2D0E942508C70124
:1008E0000E94F106C8010E94F10687E793E00E948A
:1008F0002F076091C10384E090E00E94971185E981
:1009000093E00E94870684E090E00E948F110E948D
:1009100025080091B8031091B903CE0101967C011E
:10092000680199E0C90ED11CF70161917F01C801EE
:100930006A870E948F116A85681719F0C8010E94A2
:1009400097110F5F1F4F0C151D0571F78091B803AC
:100950009091B9039C012E5E3F4F2115344030F435
:1009600009969093B9038093B80304C01092B90319
:100970001092B80368EB73E08AE090E00E945403A1
:100980008091BE039091BF0301969093BF03809323
:10099000BE036EEB73E08DE090E02A960FB6F894FC
:1009A000DEBF0FBECDBFDF91CF911F910F91FF90A2
:1009B000EF90DF90CF900C94540383E28093B000CB
:1009C00089E08093B10080EE8093B3008FE680933E
:1009D000B400089582E090E00E94CE03811105C02A
:1009E00068E270E080E090E004C068EC70E080E0D5
:1009F00090E00C94510961E080E10E94610887E079
:100A00000E9438080197D9F760E080E10C946108F2
:100A100061E080E10E94610887E00E943808892B2C
:100A2000D9F760E080E10C94610860E070E083E059
:100A30000C94F2080E94DD046FEF70E083E00E94E6
:100A4000F2086FE070E080E090E00E9451096DE7ED
:100A500070E083E00C94F20880917F04E0918004C0
:100A6000F0918104F8949181982B91832281982FA1
:100A7000909529232283A2E0B0E01197F1F721811C
:100A800092239183A0E1B0E01197F1F790817894DF
:100A9000E6E6F0E03197F1F7982381E009F480E091
:100AA00008950F931F93CF93DF9308E010E0D1E0F8
:100AB000C0E00E942C058111CD2BDD0F01501109E2
:100AC000C1F78C2FDF91CF911F910F910895833043
:100AD00081F028F4813099F08230A1F008958730B8
:100AE000A9F08830B9F08430D1F4809180008F7DF6
:100AF00003C0809180008F7780938000089584B533
:100B00008F7702C084B58F7D84BD08958091B00039
:100B10008F7703C08091B0008F7D8093B0000895DF
:100B2000009769F0FC0101900020E9F73197AF01CF
:100B3000481B590BBC0182EE93E00C948D0080E0C1
:100B400090E00895CF92DF92EF92FF920F931F9360
:100B5000CF93DF931F92CDB7DEB720918C04211184
:100B600008C0092FF82E8FE794E00E94E902811156
:100B700008C010928A0410928C0410928B0480E0BA
:100B80006AC040E060EF8FE794E00E94A702CC24A7
:100B9000C39410E0E12CDD24D3940E942C058983BA
:100BA0000E942C056981613019F48130C9F437C085
:100BB000212F30E068131EC080918A04D81638F4C3
:100BC000F901E158FB4F83818C2151F402C0D81602
:100BD00039F060E088E08D1560F0D0928B0409C098
:100BE000E12FF0E0E158FB4F83818C29838361E0A2
:100BF00009C0ED2CF901E158FB4F83812C2D209584
:100C0000282323838FE794E00E947802D394CC0CAE
:100C100019F41F5FCC24C394183008F4BECF80E4CD
:100C20008D1508F0A6CFE0928A04E11003C081E0A0
:100C300080938C0480918204882309F49ACFA2E8DF
:100C4000B4E0EF2DF02FCF0108962D912193E817F6
:100C5000F907D9F781E00F90DF91CF911F910F91A4
:100C6000FF90EF90DF90CF9008950F931F93CF9355
:100C7000DF938C0140E065E58FE794E00E94A702D6
:100C8000E801085F1F4F699140E08FE794E00E9400
:100C9000A702C017D107B9F7DF91CF911F910F912C
:100CA0000895CF93DF93EC018FE794E00E94E9026F
:100CB000CE010E94350641E065EF8FE794E00E9487
:100CC000A702DF91CF910C945105CF93C82F41E03B
:100CD0006AE58FE794E00E94A70241E06C2F8FE75E
:100CE00094E00E94A7026C2F609541E08FE794E0AA
:100CF0000E94A7020E9451058A3A31F40E945105D0
:100D00008C1302C081E001C080E0CF9108950C9463
:100D100090058F929F92AF92BF920F931F93CF93A4
:100D2000DF93CDB7DEB7A1970FB6F894DEBF0FBE45
:100D3000CDBF19A2423008F44AE08E010F5D1F4F6B
:100D4000842E912CA12CB12CA50194010E94A511F7
:100D5000E62FB901CA0101501109EA3014F4E05D2F
:100D600001C0E95CD801EC93232B242B252B61F7E0
:100D7000C8010E949005A1960FB6F894DEBF0FBE81
:100D8000CDBFDF91CF911F910F91BF90AF909F90FA
:100D90008F900895CF92DF92EF92FF92CF93DF93DF
:100DA0006B017C01E091E203F091E3030190F0819B
:100DB000E02D6DE282EE93E00995EC01662777273E
:100DC000CB016C197D098E099F094AE00E948906B2
:100DD0008C0F9D1FDF91CF91FF90EF90DF90CF9010
:100DE0000895CF93DF93BC01990F880B990B97FF60
:100DF00003C00E94CA0603C04AE00E948906EC01B3
:100E000085EA93E00E9490058C0F9D1FDF91CF91A2
:100E1000089580E090E00E94CE03E82FF0E0EE0F0E
:100E2000FF1FED5EFE4F8081918118161906B4F404
:100E30000E94150580E090E00E94CE03E82FF0E0CC
:100E4000EE0FFF1FED5EFE4F60817181072E000CDB
:100E5000880B990B0E9451090C941A050895CF93A1
:100E6000DF930E949005EC0185EA93E00E949005D3
:100E70008C0F9D1FDF91CF9108952F923F924F923B
:100E80005F926F927F928F929F92AF92BF92CF921A
:100E9000DF92EF92FF920F931F93CF93DF9300D0D7
:100EA00000D01F92CDB7DEB78C0161E086E00E94D2
:100EB000B6080E948B09812C912C5401212C312CD5
:100EC0009B01AC012C53364F4F4F5F4F29833A8320
:100ED0004B835C832801110F660877080E948B09F9
:100EE00029813A814B815C816217730784079507DA
:100EF00020F50E948B096B017C01DC01CB01881974
:100F00009909AA09BB0984159505A605B70530F30B
:100F1000910141E02427622F6170190151E02522DF
:100F2000332488EA93E06D830E942F076D8186E069
:100F30000E94B00346015701D1CF61E086E00E94D4
:100F4000B60886E00E9499010F900F900F900F90C5
:100F50000F90DF91CF911F910F91FF90EF90DF9055
:100F6000CF90BF90AF909F908F907F906F905F9049
:100F70004F903F902F900895AF92BF92CF92DF9203
:100F8000EF92FF921F93CF93DF93CDB7DEB72897F1
:100F90000FB6F894DEBF0FBECDBF10E0CE010196B4
:100FA0000E94A205882349F089818932B9F78FEA26
:100FB00093E00E942F071F5FF1CF10928A041092D6
:100FC0008C0410928B04EAE8F4E0129284E0E23898
:100FD000F807D9F76AEF70E080E090E00E945109CD
:100FE000A12EB12CC50123E0880F991F2A95E1F7A6
:100FF0000E94CD119093E1038093E003C12CD12C8A
:10100000E12CF12CEA14FB047CF48091E003909134
:10101000E1038C0D9D1D0E94A2058FEFE81AF80ACE
:1010200088E0C80ED11CEECF812F28960FB6F89419
:10103000DEBF0FBECDBFDF91CF911F91FF90EF902C
:10104000DF90CF90BF90AF900895CF93DF93682F3C
:1010500070E080E090E04AE00E948906EC0185EAB9
:1010600093E00E9490058C0F9D1FDF91CF91089512
:10107000CF93DF93282F30E0F901ED58FF4F849193
:10108000F901EB55FF4FD491F901EF56FF4FC49191
:10109000CC2391F081110E946705EC2FF0E0EE0F58
:1010A000FF1FE957FF4FA591B491EC91ED2381E02B
:1010B00090E021F480E002C080E090E0DF91CF91E9
:1010C00008951F93CF93DF93282F30E0F901ED5857
:1010D000FF4F8491F901EB55FF4FD491F901EF5681
:1010E000FF4FC491CC23C9F0162F81110E946705D0
:1010F000EC2FF0E0EE0FFF1FE759FF4FA591B491E1
:101100008FB7F894111105C09C91ED2FE095E9235C
:1011100002C0EC91ED2BEC938FBFDF91CF911F912B
:1011200008953FB7F8948091920490919304A09110
:101130009404B091950426B5A89B05C02F3F19F0E3
:101140000196A11DB11D3FBFBA2FA92F982F882747
:10115000820F911DA11DB11DBC01CD0143E0660FA1
:10116000771F881F991F4A95D1F70895CF93DF9372
:1011700090E0FC01EB55FF4F2491FC01EF56FF4F2F
:101180008491882361F190E0880F991FFC01E75456
:10119000FF4FC591D491FC01E759FF4FA591B49140
:1011A000611109C09FB7F8948881209582238883B4
:1011B000EC912E230BC0623061F49FB7F894388114
:1011C000822F809583238883EC912E2B2C939FBFB5
:1011D00006C08FB7F894E8812E2B28838FBFDF914C
:1011E000CF9108951F93CF93DF93182FEB0161E008
:1011F0000E94B608209711F460E004C0CF3FD105EB
:1012000039F461E0812FDF91CF911F910C94610837
:10121000E12FF0E0ED58FF4FE491E330F9F048F4AE
:10122000E130B9F0E230A1F584B5806284BDC8BD7B
:1012300034C0E730E9F0E83019F1E43049F5809145
:101240008000806280938000D0938B00C0938A00DE
:1012500024C084B5806884BDC7BD1FC08091800054
:10126000806880938000D0938900C093880015C067
:101270008091B00080688093B000C093B3000DC02F
:101280008091B00080628093B000C093B40005C02C
:10129000C038D1050CF0B5CFAFCFDF91CF911F9102
:1012A00008958F929F92AF92BF92CF92DF92EF926A
:1012B000FF926B017C010E9491084B015C01C114FB
:1012C000D104E104F104F1F00E949108DC01CB01AA
:1012D00088199909AA09BB09883E9340A105B1055F
:1012E00070F321E0C21AD108E108F10888EE880EF7
:1012F00083E0981EA11CB11CC114D104E104F104C7
:1013000019F7DDCFFF90EF90DF90CF90BF90AF90B7
:101310009F908F9008952FB7F89460918E047091EC
:101320008F0480919004909191042FBF08951F9293
:101330000F920FB60F9211242F933F938F939F9389
:10134000AF93BF9380918E0490918F04A0919004ED
:10135000B091910430918D0426E0230F2D3720F4B5
:101360000296A11DB11D05C029E8230F0396A11DFA
:10137000B11D20938D0480938E0490938F04A093CD
:101380009004B09391048091920490919304A09161
:101390009404B09195040196A11DB11D809392040F
:1013A00090939304A0939404B0939504BF91AF914C
:1013B0009F918F913F912F910F900FBE0F901F9093
:1013C0001895CF93DF93CDB7DEB72B970FB6F89470
:1013D000DEBF0FBECDBF789484B5826084BD84B576
:1013E000816084BD85B5826085BD85B5816085BD20
:1013F00080916E00816080936E00109281008091D8
:10140000810082608093810080918100816080935F
:101410008100809180008160809380008091B10084
:1014200084608093B1008091B00081608093B000AF
:1014300080917A00846080937A0080917A00826043
:1014400080937A0080917A008E7F80937A008091D9
:101450007A00806880937A001092C10061E08DE08C
:101460000E94B60861E085E00E94B60861E083E072
:101470000E94B60861E08BE00E94B60861E08DE052
:101480000E94610868E572E080E090E00E945109E6
:1014900060E08DE00E94610861E085E00E946108E3
:1014A00068E572E080E090E00E94510960E085E02C
:1014B0000E94610862E08CE00E94B60862E082E06F
:1014C0000E94B60862E088E00E94B60862E087E009
:1014D0000E94B60860E08FE00E94B60860E08EE0EF
:1014E0000E94B60861E084E00E94B60860E084E0F3
:1014F0000E94610861E080E10E94B60860E080E13E
:101500000E94610860E070E083E00E94F20860E001
:1015100070E08BE00E94F2080E94BC078093CE032B
:101520008FE794E00E94E90240E066E98FE794E0EB
:101530000E94A70200E010E0E091E003F091E103D7
:10154000E00FF11F40E060818FE794E00E94A70266
:101550000F5F1F4F0830110579F740E06CE38FE70C
:1015600094E00E94A7028FE794E00E94E90280E0E5
:1015700090E00E948F11182F81E090E00E948F115F
:10158000133511F4883509F163E580E090E00E949D
:10159000AE0368E581E090E00E94AE0385E690E04E
:1015A0009B878A87BE01665F7F4F8AE090E00E943A
:1015B000540381E090E09A838983BE016F5F7F4F7F
:1015C0008DE090E00E94540319C081E090E00E94F9
:1015D000CE03813039F482E090E00E94CE03813066
:1015E00009F467C068EB73E08AE090E00E94400372
:1015F0006EEB73E08DE090E00E9440038FE00E946C
:101600003808892BA1F48EE00E943808892B79F4E0
:1016100084E090E00E948F1108E010E0081B11099F
:10162000101611060CF466C086E00E94880387E05D
:101630000E943808892B09F07AC088E00E94380897
:10164000892B09F074C0FF24F39457E6E52E8091AE
:10165000CE03811111C00E94BC078093CE0386E0A7
:101660000E94880368EC70E080E090E00E945109DD
:1016700060E086E00E94B0038FE00E943808019786
:1016800031F48EE00E943808892B09F453C08FE0B2
:101690000E943808892B09F068C08EE00E94380843
:1016A000019709F062C01091C103183008F069C0B9
:1016B0005CC063E580E090E00E94AE0368E581E0F5
:1016C00090E00E94AE0385E690E09B878A87BE018A
:1016D000665F7F4F8AE090E00E94540381E090E0D3
:1016E0009A838983BE016F5F7F4F8DE090E00E94F7
:1016F000540378CFEE24E394F12C68EC70E080E0A2
:1017000090E00E94510986E00E94880368EC70E036
:1017100080E090E00E94510960E086E00E94B00302
:101720002FEFE21AF20A0E151F053CF780CF0E9438
:10173000080589CF1092C10360E084E090E00E9428
:10174000AE0360E086E00E94B00386E00E9488035A
:101750000E941A050E94FB040E9408050E941505BC
:1017600060E086E00E94B00392CF8FE00E943808CC
:10177000892BD9F48EE00E943808892B09F4C9C15D
:1017800014C086E00E9488038CE00E943808892BF0
:1017900039F482E090E00E94CE03882309F4FBC074
:1017A0008CE00E943808892B19F00E948D014FCFE0
:1017B00082E090E00E94CE038130B9F78091BE03B1
:1017C0009091BF039A8389838091C1038B83809119
:1017D000C0038C831D821F821E821986188668EBC7
:1017E00073E08AE090E00E944003E091F203F09100
:1017F000F30382E08083E091EE03F091EF03108227
:10180000E091F003F091F103E0821092FA03E0918D
:10181000F603F091F70386E08083E091F403F09102
:10182000F503808180618083E091F403F091F503FA
:10183000808188608083E091F403F091F5038081DA
:1018400080688083E091F403F091F50380818F7DBF
:10185000808383E393E00E942F0780910001C09072
:10186000B803D090B90398E4899FC018D108112417
:1018700000E010E0BE016F5F7F4F5801AC0CBD1C53
:10188000C5010E941A03B501BB0C880B990B97FF89
:1018900003C00E94CA0603C04AE00E94890687E48A
:1018A00092E00E9487066091000170E080E090E085
:1018B0004AE00E94890687E492E00E9487066B81D5
:1018C00070E080E090E04AE00E94890687E492E0C0
:1018D0000E94870669817A81072E000C880B990B7C
:1018E00097FF03C00E94CA0603C04AE00E9489060F
:1018F00087E492E00E9487066C8170E080E090E0CF
:101900004AE00E9489068C81811104C085E392E03F
:101910000E9487068C81813021F48EE392E00E9440
:1019200087068C81823021F489E492E00E94870648
:101930008C81843021F48CE592E00E9487068C81B2
:10194000863021F48EE692E00E9487068C818730F3
:1019500021F489E792E00E9487068C81883021F487
:1019600080E892E00E9487066D8170E080E090E060
:101970004AE00E94890687E492E00E948706075F9A
:101980001F4F0834110509F075CF809100018F5F5A
:10199000809300010ACF8091BE039091BF039A8388
:1019A00089831B831C821D821F821E8219861886D2
:1019B000BE016F5F7F4F8091B8039091B9030E9481
:1019C0001A0368EB73E08AE090E00E944003C09045
:1019D000B803D090B9038601085411098BEB92E04B
:1019E0000E942F0789EF92E00E9487068091B8033A
:1019F0009091B9030E94F10689E193E00E94870665
:101A0000C8010E94F106BE016F5F7F4FC8010E94AE
:101A10001A0385E491E00E942F078DE791E00E9470
:101A20008706C8010E94F10689EA91E00E948706B4
:101A300089819A810E94F10682EA91E00E948706DC
:101A40008B810E94250884EB91E00E9487068C819F
:101A50000E94250880EC91E00E9487068C8181110C
:101A600004C088EC91E00E942F078C81813021F422
:101A70008FEC91E00E942F078C81823021F488ED59
:101A800091E00E942F078C81843021F489EE91E04F
:101A90000E942F078C81853021F489EF91E00E940C
:101AA0002F078C81863021F486E092E00E942F0778
:101AB0008C81873021F48FE092E00E942F078C8187
:101AC000883021F484E192E00E942F0786E192E0C1
:101AD0000E9487068D810E94250886E292E00E947E
:101AE00087068E819F810E94F1068DE292E00E941E
:101AF0008706888599850E94F106075F1F4F0C15A0
:101B00001D0509F080CF809100018F5F8093000157
:101B100047CE84E090E00E948F118093C1038CE057
:101B20000E943808892B09F06BC080E090E00E9489
:101B3000CE03E82FF0E0EE0FFF1FED5EFE4F808139
:101B400091818F399F4F09F05BC087E08093C0037C
:101B50000E941B040E941A050E94FB0488E00E9458
:101B600038080197D9F768E270E080E090E00E94C1
:101B7000510982E090E00E94CE03813029F46FEF9A
:101B800070E08BE00E94F2080E94150582E090E070
:101B90000E94CE03813029F462E870E08BE00E945D
:101BA000F2088CE00E943808892BD9F382E090E09B
:101BB0000E94CE03813091F487E00E94880361E0A7
:101BC00070E080E090E00E94510960E070E08BE0FE
:101BD0000E94F20860E087E00E94B0030E941A05AC
:101BE00068EC70E080E090E00E9451090E940805D6
:101BF00068EC70E080E090E00E9451090E941505B9
:101C00008CE00E943808892B09F041C080E090E008
:101C10000E94CE03E82FF0E0EE0FFF1FED5EFE4FB7
:101C2000808191818E399F4F91F588E08093C00328
:101C30000E941B040E941A050E94FB0488E00E9477
:101C400038080197D9F768E270E080E090E00E94E0
:101C500051090E9415058CE00E9438080197D9F3BC
:101C60008CE00E943808892B11F40E941A0568EC58
:101C700070E080E090E00E9451090E94080568EC45
:101C800070E080E090E00E9451090E9415051092DA
:101C9000CD0362E08CE00E94B6088CE00E94380818
:101CA000DD24D394892B09F4D12CD0920B0180919F
:101CB0000A01D110FFC1882309F441C00E948B0999
:101CC0008090060190900701A0900801B090090152
:101CD000DC01CB0188199909AA09BB094597A1051F
:101CE000B10568F10E948B096093020170930301B2
:101CF00080930401909305011092C6031092C503CE
:101D0000F09201011092C4030E948B09DC01CB0107
:101D100088199909AA09BB098A3F9105A105B1054E
:101D200008F0B4C18091C3038111B0C18091C20396
:101D3000882309F4ABC1F092C3031092C2030E943E
:101D40008B0900910201109103012091040130914F
:101D50000501DC01CB01801B910BA20BB30B843F6F
:101D60009140A105B10508F094C100E010E0D092C7
:101D70000A011092C00300FDF092CD03023011055C
:101D8000C1F40E948B0984E892E00E942F0788EE3C
:101D900093E00E943D0788E592E00E943D0788ECB1
:101DA00090E00E943D0780E590E00E943D07F092A0
:101DB000CD0380E090E00E94CE03843608F008C195
:101DC00080E090E00E94CE03E82FF0E0EE0FFF1FCE
:101DD000ED5EFE4F808191818C399F4FA9F58091F6
:101DE000CD03882309F4E1CC0E941B040E94DD048A
:101DF0006FEF70E08BE00E94F2080E941A050E94CB
:101E0000FB0488E00E9438080197D9F762E870E087
:101E10008BE00E94F2080E94EA040E94150560E52A
:101E200070E080E090E00E94510987E00E94880302
:101E300061E070E080E090E00E94510960E070E0B5
:101E40008BE00E94F20833C080E090E00E94CE0355
:101E5000E82FF0E0EE0FFF1FED5EFE4F80819181D5
:101E60008D399F4F09F044C08091CD03882309F438
:101E70009CCC0E941B040E941A050E94FB0488E06F
:101E80000E9438080197D9F70E94EA040E941505BC
:101E900060E570E080E090E00E94510987E00E94D8
:101EA000880361E070E080E090E00E94510960E00A
:101EB00087E00E94B0036AE070E080E090E00E945A
:101EC00051090E941A0568EC70E080E090E00E94E1
:101ED00051090E94080568EC70E080E090E00E94E3
:101EE00051090E9415051092CC031092CB035DCCD2
:101EF0000E948B090091C7031091C8032091C90368
:101F00003091CA03DC01CB01801B910BA20BB30BF8
:101F1000803E23E9920724E0A207B105E0F080911A
:101F2000CB039091CC0318161906D4F40E941B041D
:101F30001092CC031092CB030E94080562E370E07C
:101F400080E090E00E9451090E94150560E086E063
:101F50000E94B0030FC080369A4EA105B10550F023
:101F60008091CB039091CC03181619061CF486E0DF
:101F70000E9488038091CD03882309F416CC81E068
:101F800090E00E94CE038111F6C08091CB03909126
:101F9000CC03892B09F0EFC00E941B040E941A0594
:101FA00064E670E080E090E00E9451090E94FB042A
:101FB00088E00E9438080197D9F70E94EA040E943D
:101FC00009070E94080562E370E080E090E087CF97
:101FD00080E090E00E94CE03843609F040C08091FA
:101FE000CD03882309F4E1CB84E090E00E948F11B7
:101FF0008093C1030E941B040E94DD046FEF70E018
:102000008BE00E94F2080E941A050E94FB0488E0FF
:102010000E9438080197D9F762E870E08BE00E94CF
:10202000F2080E94EA040E94150560E570E080E075
:1020300090E00E94510961E084E00E94610862E042
:1020400070E080E090E00E94510960E070E08BE079
:102050000E94F20860E084E00E9461082CCF80E0DA
:1020600090E00E94CE03883C09F49FCB80E090E092
:102070000E94CE03682F70E080E090E04AE00E946A
:10208000890687E992E00E942F078FCB1092C30345
:1020900054CE8091C403811168CEF092C503F092B2
:1020A000C6031092C3031092C203F092C40303E06C
:1020B00010E05DCE8111C9C00E948B090091020120
:1020C000109103012091040130910501DC01CB0145
:1020D000801B910BA20BB30B4597A105B10508F42A
:1020E000B4C08091C6038111B0C00E948B09609377
:1020F0000601709307018093080190930901809174
:10210000C303811103C0F092C2039FC01092C303A6
:102110001092C2031092010102E010E00E948B09AC
:102120008090060190900701A0900801B0900901ED
:10213000DC01CB0188199909AA09BB098A3F9105DD
:10214000A105B10508F413CE8091C203882309F4D8
:102150000ECE8091C30381110ACE809101018823A4
:1021600009F405CE0230110509F401CE1092C20324
:1021700001E010E0FCCD81E090E00E94CE038130D0
:1021800031F48091CB039091CC03892BC1F081E095
:1021900090E00E94CE038130A9F50091CB0310910D
:1021A000CC031016110674F50E94090764EF71E064
:1021B00080E090E00E9451090F5F1F4F1EC00E94F7
:1021C0008B096093C7037093C8038093C9039093EE
:1021D000CA030E941A050E94FB0488E00E94380886
:1021E0008C010197D1F70E94EA040E94090764EF6D
:1021F00071E080E090E00E9451091093CC030093BD
:10220000CB03D3CA81E090E00E94CE038111CDCAF6
:102210008091CB039091CC03181619060CF0C5CA17
:102220000E941B041092CC031092CB0360E086E066
:102230000E94B0030E94080562E370E080E090E035
:102240000E9451090E941505B0CA00E010E066CF57
:102250001092E5031092E40388EE93E0A0E0B0E072
:102260008093E6039093E703A093E803B093E90318
:1022700087E391E09093E3038093E20385EC90E0A1
:102280009093EF038093EE0384EC90E09093F1033E
:102290008093F00380EC90E09093F3038093F2033B
:1022A00081EC90E09093F5038093F40382EC90E04E
:1022B0009093F7038093F60386EC90E09093F903F4
:1022C0008093F8031092FB031092FC031092FD031D
:1022D0001092FE0360E082E00E94B608E7EAF0E0B8
:1022E000E491E0937F04E3E9F0E0E491F0E0EE0FA5
:1022F000FF1FE957FF4F859194919093810480933C
:10230000800410928A0410928C0410928B04EAE8E4
:10231000F4E0129284E0E238F807D9F70895F999C9
:10232000FECF92BD81BDF89A992780B50895262FDA
:10233000F999FECF1FBA92BD81BD20BD0FB6F894AA
:10234000FA9AF99A0FBE01960895A1E21A2EAA1BD5
:10235000BB1BFD010DC0AA1FBB1FEE1FFF1FA21755
:10236000B307E407F50720F0A21BB30BE40BF50B52
:10237000661F771F881F991F1A9469F760957095DB
:10238000809590959B01AC01BD01CF010895EE0FA2
:10239000FF1F0590F491E02D0994CF93DF938230D5
:1023A000910510F482E090E0E0919804F091990496
:1023B00020E030E0C0E0D0E0309711F14081518161
:1023C00048175907C0F04817590761F48281938173
:1023D000209719F09B838A832BC090939904809354
:1023E000980426C02115310519F04217530718F437
:1023F0009A01BE01DF01EF010280F381E02DDCCF05
:102400002115310509F1281B390B2430310590F4D1
:1024100012968D919C9113976115710521F0FB0126
:102420009383828304C09093990480939804FD0160
:10243000329644C0FD01E20FF31F81939193225025
:1024400031092D933C933AC0209196043091970422
:10245000232B41F420910F01309110013093970408
:102460002093960420910D0130910E012115310524
:1024700041F42DB73EB74091110150911201241B38
:10248000350BE0919604F0919704E217F307A0F45E
:102490002E1B3F0B2817390778F0AC014E5F5F4FBA
:1024A0002417350748F04E0F5F1F50939704409351
:1024B00096048193919302C0E0E0F0E0CF01DF91B8
:1024C000CF9108950F931F93CF93DF93009709F453
:1024D0008CC0FC01329713821282009198041091F3
:1024E00099040115110581F420813181820F931F18
:1024F00020919604309197042817390779F5F093C5
:102500009704E093960471C0D80140E050E0AE1704
:10251000BF0750F412962D913C911397AD012115F0
:10252000310509F1D901F3CF9D01DA01338322830B
:1025300060817181860F971F8217930769F4EC0100
:1025400028813981260F371F2E5F3F4F318320832B
:102550008A819B8193838283452B29F4F09399048C
:10256000E093980442C01396FC93EE931297ED010A
:10257000499159919E01240F351FE217F30771F419
:1025800080819181840F951F029611969C938E9362
:102590008281938113969C938E931297E0E0F0E0F2
:1025A000D80112968D919C911397009719F0F8011C
:1025B0008C01F6CF8D919C9198012E5F3F4F820F39
:1025C000931F20919604309197042817390769F4D6
:1025D000309729F4109299041092980402C0138243
:1025E00012821093970400939604DF91CF911F916C
:1025F0000F91089581E090E0F8940C94FF12F89404
:02260000FFCF0A
:102602000101FFFFFFFFFFFFFFFF0101FF00009A33
:1026120004800009000B000D000E001200190020BA
:10262200002D0035005A0096002C019CFF9DFF9E54
:10263200FF9FFF0000000024018D00BC006B01ED34
:1026420000CB00DF003D3D3D3D3D3D3D3D3D3D3D3F
:102652003D3D3D3D3D3D3D3D3D3D3D3D3D3D3D3DA8
:102662003D3D3D3D3D3D3D3D3D3D3D3D3D3D3D3D98
:102672003D3D3D3D3D3D3D3D3D3D3D3D0065654171
:10268200646472657373207265616420287468697A
:10269200735265636F726441646472657373293A3D
:1026A200200043757272656E74205069637475728E
:1026B200653A20002054797065207261773A2000D3
:1026C20020547970653A20004D414E55414C0041ED
:1026D20055544F2031303000464C41534820444F2E
:1026E2004E474C454C45535300464C4153482046B7
:1026F2003820444F4E474C4500464C4153482044F5
:102702004F4E474C45004155544F20363030004221
:10271200554C4200540020536875747465725370AE
:102722006565643A2000204C4F573A200020484902
:1027320047483A20002C4D414E55414C2C002C412B
:1027420055544F203130302C002C464C41534820F8
:10275200444F4E474C454C4553532C002C464C415C
:10276200534820463820444F4E474C452C002C41BC
:1027720055544F203630302C002C42554C422C0000
:102782002C542C005354415254203530302C3236C4
:1027920030302C352C30003A202020444F4E54202B
:1027A2004B4E4F572C2053484F554C44204E4F54BC
:1027B20020424520484552452120003D3D3D3D3DBA
:1027C2003D3D3D3D3D3D3D3D3D3D3D3D3D3D3D3D37
:1027D2003D3D20456E746572696E67206C6F6F7047
:1027E200203D3D3D3D3D3D3D3D3D3D3D3D3D3D3D34
:1027F2003D3D3D3D3D3D3D3D00494E495449414CE5
:1028020020656541646472657373206265666F72E8
:1028120065206C6F6F703A20005265616441646498
:1028220072657373206265666F7265206C6F6F707C
:102832003A20006565416464726573732C5061636C
:102842006B2C5061636B206F726465722C506963EC
:10285200747572652C54797065205261772C2054FE
:102862007970652C20536875747465725370656550
:10287200642C204C7578002A2A2A2A2A2A2A2A2AF3
:102882002A2A2A2A2A2A2A2A2A2A2A2A2A2A2A2AA6
:102892002A2A2A2A00506963747572652074616B52
:1028A200656E3A20000D0A0054595045203200430B
:0828B2006F756E742121000016
:00000001FF
