:100000000C948F000C94B7000C94B7000C94B700BC
:100010000C94B7000C94B7000C94B7000C94000A31
:100020000C94B7000C94B7000C94B7000C9407071D
:100030000C94B7000C9402050C94B7000C94B70014
:100040000C948E030C94B7000C9413020C94ED01E5
:100050000C94B7000C94B7000C94B7000C94B70044
:100060000C94B7000C94B700443A5C4749542D52A5
:100070004F4F545C6F70656E535837302D4172642A
:1000800075696E6F2D6D61696E5C315F6F70656E45
:10009000535837305F3230313930353133415C338A
:1000A0005F73657475702E696E6F204D61792031B4
:1000B0003620323031392031373A30393A30390050
:1000C00000000000240027002A0000000000250096
:1000D00028002B00000000080002010000030407B4
:1000E00000000000000000000200000000230026C5
:1000F00000290004040404040404040202020202AD
:1001000002030303030303010204081020408001DB
:10011000020408102001020408102000FA11112422
:100120001FBECFEFD8E0DEBFCDBF27E0A6E3B6E02D
:1001300001C01D92A236B207E1F716E0A0E0B1E0DF
:10014000ECE8F5E202C005900D92A633B107D9F7AD
:1001500010E0CFE8D0E004C02197FE010E94B91260
:10016000CE38D107C9F70E94840A0C94C4120C94AB
:100170000000089580E090E00895FC01538D448DC7
:10018000252F30E0842F90E0821B930B541710F042
:10019000CF96089501970895FC01918D828D98174F
:1001A00061F0828DDF01A80FB11D5D968C91928D5B
:1001B0009F5F9F73928F90E008958FEF9FEF089558
:1001C000FC01918D828D981731F0828DE80FF11D21
:1001D000858D90E008958FEF9FEF0895FC01918D3C
:1001E000228D892F90E0805C9F4F821B91098F7335
:1001F000992708958AE696E00E94EE0021E0892B77
:1002000009F420E0822F0895FC01848DDF01A80FFE
:10021000B11DA35ABF4F2C91848D90E001968F732E
:100220009927848FA689B7892C93A089B1898C914D
:10023000837080648C93938D848D981306C002889C
:10024000F389E02D80818F7D80830895EF92FF9266
:100250000F931F93CF93DF93EC0181E0888F9B8DE9
:100260008C8D981305C0E889F989808185FD26C0A9
:10027000F62E0B8D10E00F5F1F4F0F731127E02E2E
:100280008C8DE8120CC00FB607FCFACFE889F9890B
:10029000808185FFF5CFCE010E940401F1CF8B8DC7
:1002A000FE01E80FF11DE35AFF4FF0829FB7F8946B
:1002B0000B8FEA89FB89808180620AC09FB7F8941E
:1002C000EE89FF896083E889F98980818370806481
:1002D00080839FBF81E090E0DF91CF911F910F91CC
:1002E000FF90EF900895CF93DF93EC01888D8823E2
:1002F000C9F0EA89FB89808185FD05C0A889B98993
:100300008C9186FD0FC00FB607FCF5CF808185FF6D
:10031000F2CFA889B9898C9185FFEDCFCE010E94DB
:100320000401E7CFDF91CF91089580E090E0892B21
:1003300029F00E94FA0081110C9400000895833086
:1003400081F028F4813099F08230A1F0089587304F
:10035000A9F08830B9F08430D1F4809180008F7D8D
:1003600003C0809180008F7780938000089584B5CA
:100370008F7702C084B58F7D84BD08958091B000D1
:100380008F7703C08091B0008F7D8093B000089577
:100390003FB7F89480915E0690915F06A091600649
:1003A000B091610626B5A89B05C02F3F19F00196B4
:1003B000A11DB11D3FBFBA2FA92F982F8827820FEB
:1003C000911DA11DB11DBC01CD0143E0660F771F3A
:1003D000881F991F4A95D1F708951F920F920FB663
:1003E0000F9211242F933F934F935F936F937F93BB
:1003F0008F939F93AF93BF93EF93FF938AE696E01B
:100400000E940401FF91EF91BF91AF919F918F9155
:100410007F916F915F914F913F912F910F900FBE00
:100420000F901F9018951F920F920FB60F921124E4
:100430002F938F939F93EF93FF93E0917A06F09120
:100440007B068081E0918006F091810682FD12C0DA
:100450009081809183068F5F8F732091840682172D
:1004600051F0E0918306F0E0E659F94F958F8093C3
:10047000830601C08081FF91EF919F918F912F9111
:100480000F900FBE0F901F901895CF93DF93282FDA
:1004900030E0F901EC52FF4F8491F901E95FFE4F22
:1004A000D491F901ED50FF4FC491CC2391F081110B
:1004B0000E949F01EC2FF0E0EE0FFF1FE751FF4F6E
:1004C000A591B491EC91ED2381E090E021F480E0DE
:1004D00002C080E090E0DF91CF9108951F93CF9309
:1004E000DF93282F30E0F901EC52FF4F8491F9019E
:1004F000E95FFE4FD491F901ED50FF4FC491CC2339
:10050000C1F0162F81110E949F01EC2FF0E0EE0F39
:10051000FF1FE653FF4FA591B4919FB7F8941111B7
:1005200004C08C91D095D82302C0EC91DE2BDC93D3
:100530009FBFDF91CF911F91089583E595E00E94C1
:100540004A0860E080E10C946E028CE595E00E9420
:100550004A0861E080E10C946E02CF93DF9390E053
:10056000FC01E95FFE4F2491FC01ED50FF4F8491A7
:10057000882361F190E0880F991FFC01E054FF4F40
:10058000C591D491FC01E653FF4FA591B49161113F
:1005900009C09FB7F8948881209582238883EC91C5
:1005A0002E230BC0623061F49FB7F8948881322FFC
:1005B000309583238883EC912E2B2C939FBF06C00C
:1005C0008FB7F894E8812E2B28838FBFDF91CF91CE
:1005D00008951F93CF93DF93182FEB0161E00E94E2
:1005E000AD02209711F460E004C0CF3FD10539F48B
:1005F00061E0812FDF91CF911F910C946E02E12F6A
:10060000F0E0EC52FF4FE491E330F9F048F4E130D0
:10061000B9F0E230A1F584B5806284BDC8BD34C0B4
:10062000E730E9F0E83019F1E43049F580918000D5
:10063000806280938000D0938B00C0938A0024C096
:1006400084B5806884BDC7BD1FC08091800080686C
:1006500080938000D0938900C093880015C080915A
:10066000B00080688093B000C093B3000DC080914B
:10067000B00080628093B000C093B40005C0C03861
:10068000D1050CF0B5CFAFCFDF91CF911F91089579
:100690008F929F92AF92BF92CF92DF92EF92FF9292
:1006A0006B017C010E94C8014B015C01C114D104A3
:1006B000E104F104F1F00E94C801DC01CB018819CA
:1006C0009909AA09BB09883E9340A105B10570F3B9
:1006D00021E0C21AD108E108F10888EE880E83E013
:1006E000981EA11CB11CC114D104E104F10419F736
:1006F000DDCFFF90EF90DF90CF90BF90AF909F90B5
:100700008F9008952FB7F89460915A0670915B0608
:1007100080915C0690915D062FBF08951F920F9205
:100720000FB60F9211242F933F938F939F93AF9304
:10073000BF9380915A0690915B06A0915C06B091A0
:100740005D063091590626E0230F2D3720F40296DE
:10075000A11DB11D05C029E8230F0396A11DB11DE0
:100760002093590680935A0690935B06A0935C06EB
:10077000B0935D0680915E0690915F06A091600641
:10078000B09161060196A11DB11D80935E06909304
:100790005F06A0936006B0936106BF91AF919F91F1
:1007A0008F913F912F910F900FBE0F901F90189532
:1007B000FC0190810180F281E02D892F809560FFFE
:1007C00012C0F8942281822382838181892B8183C4
:1007D000A0E1B0E01197F1F78281982B9283789491
:1007E0008AE690E011C0F89422818223828381817D
:1007F000892B8183AEE7B0E01197F1F78281982BC6
:100800009283789486E090E00197F1F70895DF9263
:10081000EF92FF920F931F93CF93DF93EC01D62EAD
:10082000E42E08E010E0FF24F39461E08D2D8F2189
:1008300009F460E0CE010E94D803FF0C01501109B9
:10084000A1F7E11010C0F894E981FA8191818881C3
:10085000809589238183E981FA81928188818095BD
:10086000892382837894DF91CF911F910F91FF901C
:10087000EF90DF900895DC012C911196ED91FC91A1
:100880001297F8948181922F90958923818378948F
:100890008DE7815009F130813223D9F3F8948281B8
:1008A000892382838181822B81837894ACEBB3E0AE
:1008B0001197F1F7F89481819823918388E890E06B
:1008C0000197F1F78081282381E009F080E0789496
:1008D000E0E3F3E03197F1F70895CF92DF92EF92E2
:1008E000FF920F931F93CF93DF93EB017B0129E0DE
:1008F000E20EF11C8B016C01C61AD70AC601800FEB
:10090000911F0E948112F80181938F01EE15FF055E
:10091000A9F7CE01DF91CF911F910F91FF90EF903A
:10092000DF90CF9008950F931F93CF93DF938C01A7
:10093000EB010E9481128883C80101960E948112F6
:100940008983CE01DF91CF911F910F910895AF92CE
:10095000BF92DF92EF92FF920F931F93CF93DF939B
:10096000EC017B018B015C0182E0A80EB11CF80157
:10097000D1908F01CE010E948112D81621F06D2DE9
:10098000CE010E9489122196CA15DB0581F7C701A5
:10099000DF91CF911F910F91FF90EF90DF90BF906B
:1009A000AF900895CF93C82F0E94E00787E097E0AB
:1009B0000E943B040E94C90781E090E0A0E0B0E003
:1009C00004C0880F991FAA1FBB1FCA95D2F7809534
:1009D000CF910C94EE070C9489120C948112F89428
:1009E0008FEF86BB109280001092850010928400D9
:1009F000E1E8F0E080818460808380818260808390
:100A0000789408951F920F920FB60F9211242F938E
:100A10003F934F935F936F937F938F939F93AF9386
:100A2000BF93EF93FF9384E695E00E94AB09EFE656
:100A3000F0E080818E7F808380818D7F8083FF9135
:100A4000EF91BF91AF919F918F917F916F915F9146
:100A50004F913F912F910F900FBE0F901F901895BF
:100A6000AF92BF92DF92EF92FF920F931F93CF93BB
:100A7000DF93CDB7DEB729970FB6F894DEBF0FBE70
:100A8000CDBF6AE376E08DE090E00E949304809110
:100A900046068F5F8093460686E795E00E94AB0985
:100AA000809148060E94B409E0914806F0E0EE0FFC
:100AB000FF1FE45FFE4F108180913A0690913B0644
:100AC0009A838983809146068B83809145068C8327
:100AD0001D8380913C0690913D069F838E8380917B
:100AE0003806909139069987888782E895E00E94B8
:100AF0004A0880EA95E00E94AB0980913A069091FD
:100B00003B060E94EE0981EB95E00E94AB098091C3
:100B100046060E94B40988EC95E00E94AB098091DA
:100B200045060E94B40987ED95E00E94AB09812F2C
:100B30000E94B40987EE95E00E94AB0960913C06E3
:100B400070913D0680913E0690913F064AE00E94DA
:100B5000D40885E791E00E94380882E895E00E9479
:100B60004A086091460684E090E00E94EB0481EF21
:100B700095E00E94AB0984E090E00E94ED040E94A1
:100B8000B4090091360610913706CE0101967C011A
:100B9000580199E0A90EB11CF701D1907F01C8015D
:100BA0000E948112D81621F06D2DC8010E94891271
:100BB0000F5F1F4FA016B10679F78091360690910E
:100BC00037069C012E5E3F4F2115344030F40996C4
:100BD000909337068093360604C010923706109221
:100BE000360666E376E08AE090E00E94A7048091F2
:100BF0003A0690913B06019690933B0680933A0605
:100C00006AE376E08DE090E029960FB6F894DEBFB7
:100C10000FBECDBFDF91CF911F910F91FF90EF904D
:100C2000DF90BF90AF900C94A704CF93DF9387E041
:100C300097E00E943B0440E066E987E097E00E946D
:100C40000704C2E6D6E0699140E087E097E00E94A1
:100C5000070486E0CA36D807B1F740E06CE387E0C6
:100C600097E00E94070487E097E0DF91CF910C9412
:100C70003B0461110C94D2040E94E00787E097E0E6
:100C80000E943B040E94C9078FEF0C94EE07CF939C
:100C9000DF93EC0180914906811105C082E00E943A
:100CA00045020197A9F082E00E944502019721F4D4
:100CB00080914906811110C082E00E944502892B73
:100CC00049F080914906811103C082E00E944502EB
:100CD00088EC21C084E61FC0209761F40E94E007E1
:100CE000982F817091FD826092FD846093FF13C004
:100CF000886011C0C130D10529F40E94E0078295B7
:100D0000817009C0229731F40E94E00785FB882793
:100D100080F901C080E0DF91CF91089581E096E0F5
:100D20000E944A080E94A50287E00E94450201979E
:100D3000D9F70C949D028AE096E00E944A080E942E
:100D4000A50287E00E944502892BD9F70C949D02E9
:100D500085E196E00E944A0860E070E083E00C9430
:100D6000E90281E296E00E944A0883E28093B000A3
:100D700089E08093B10080EE8093B3008FE680938A
:100D8000B4006FEF70E083E00E94E9026FE070E072
:100D900080E090E00E94480361EE70E083E00C94F4
:100DA000E9020E94B1060E948E0688E00E94450278
:100DB0000197D9F768E770E080E090E00E9448036F
:100DC00010924406F89410928000109281008FEFE8
:100DD00086BB109285001092840082E083BD8091D2
:100DE00040069091410690938900809388008091FD
:100DF0006F00816080936F0080916F0082608093AC
:100E00006F00789487E0809381000C94A8061F926D
:100E10000F920FB60F9211242F933F934F935F932E
:100E20006F937F938F939F93AF93BF93EF93FF93B2
:100E300080916F008E7F80936F0080916F008D7F17
:100E400080936F0010928500109284000E94B1067A
:100E500068EC70E080E090E00E94480380914706D3
:100E6000882351F080914206909143060196909319
:100E700043068093420614C068EC70E080E090E086
:100E80000E9448030E949B0668EC70E080E090E0BE
:100E90000E9448030E94A806109243061092420640
:100EA000FF91EF91BF91AF919F918F917F916F9142
:100EB0005F914F913F912F910F900FBE0F901F9018
:100EC000189590910707E0910807F0910907F894A9
:100ED0008181892B81832281892F809528232283F8
:100EE000A2E0B0E01197F1F7218182238183A0E194
:100EF000B0E01197F1F780817894E6E6F0E0319761
:100F0000F1F7982381E009F480E008950F931F938F
:100F1000CF93DF9308E010E0C0E0D1E00E946107CA
:100F20008111CD2BDD0F01501109C1F78C2FDF91FD
:100F3000CF911F910F9108950E94BF1290912C01A3
:100F4000891324C0E8EEF0E0E4919FEF90932C0128
:100F5000E130B9F098F0E230C9F4909170009D7FD3
:100F60009093700091E09093B0009091B100987FC1
:100F700094609093B1001092B30008C010926E007C
:100F800005C090916F009D7F90936F0060E00C947E
:100F90006E02CF93DF9340E065E587E097E00E9423
:100FA0000704C2E6D6E0699140E087E097E00E943E
:100FB000070486E0CA36D807B1F7DF91CF910895CC
:100FC00087E097E00E943B040E94C90741E065EF7B
:100FD00087E097E00E9407040C948607CF93C82F00
:100FE00041E06AE587E097E00E94070441E06C2F4A
:100FF00087E097E00E9407046C2F609541E087E04E
:1010000097E00E9407040E9486078A3A31F40E9402
:101010008607C81302C081E001C080E0CF91089527
:10102000EAE6F6E0A089B18982E08C93A485B585D3
:101030001C92A685B78587E68C93108EA489B58906
:1010400086E08C93A289B3898C9180618C93A2896C
:10105000B3898C9188608C93A289B3898C918068C4
:101060008C930288F389E02D80818F7D80830895A1
:10107000009769F0FC0101900020E9F73197AF017A
:10108000481B590BBC018AE696E00C945A0A80E092
:1010900090E00895CF93DF930E943808EC0185E734
:1010A00091E00E9438088C0F9D1FDF91CF91089529
:1010B0004F925F926F927F928F929F92AF92BF9268
:1010C000CF92DF92EF92FF920F931F93CF93DF9314
:1010D00000D000D000D0CDB7DEB76C0161E086E073
:1010E0000E94AD020E948203812C912C54011E8229
:1010F0001D829B01AC012C53364F4F4F5F4F29830C
:101100003A834B835C830D2C000CEE08FF080E9491
:10111000820329813A814B815C81621773078407BE
:10112000950720F50E9482032B013C01DC01CB01D5
:1011300088199909AA09BB098C159D05AE05BF053B
:1011400030F30D811E8131E00327A801417055273E
:101150005E834D838EE296E00E944A08602F6170A4
:1011600086E00E94390653014201D1CF61E086E05A
:101170000E94AD0286E00E949E0726960FB6F89464
:10118000DEBF0FBECDBFDF91CF911F910F91FF90BA
:10119000EF90DF90CF90BF90AF909F908F907F9017
:1011A0006F905F904F9008958F929F92AF92BF92F1
:1011B0000F931F93CF93DF93CDB7DEB7A1970FB6F1
:1011C000F894DEBF0FBECDBF19A2423008F44AE04A
:1011D0008E010F5D1F4F842E912CA12CB12CA501E7
:1011E00094010E949712E62FB901CA01015011091A
:1011F000EA3014F4E05D01C0E95CD801EC93232BE4
:10120000242B252B61F7C8010E943808A1960FB640
:10121000F894DEBF0FBECDBFDF91CF911F910F912C
:10122000BF90AF909F908F900895DF92EF92FF92C2
:101230000F931F93CF93DF9310921207109214070E
:1012400010921307E2E1F7E08AE0E82E87E0F82E3B
:10125000129287E0EA30F807D9F787E097E00E941A
:101260003B04811107C010921207109214071092CC
:10127000130768C040E060EF87E097E00E94070432
:10128000D1E000E0D12CC1E00E946107182F0E943C
:101290006107113019F48130C1F436C0202F30E0DD
:1012A00018131DC080911207C81738F4F901E95FBF
:1012B000F84F83818D2349F402C08C1731F010E080
:1012C000C93060F4C093130709C0E02FF0E0E95F74
:1012D000F84F83818D2B838311E009C0DC2EF90147
:1012E000E95FF84F93818D2F809589238383612F48
:1012F00087E097E00E94D803CF5FDD0F11F40F5F06
:10130000D1E0083008F4C0CFC13408F4ACCFD0929B
:101310001207D11003C081E08093140780910A075F
:10132000882309F4A0CFE2E6F6E0D7018D917D0194
:101330008193B6E0EA36FB07C1F781E0909162063F
:10134000993209F080E0DF91CF911F910F91FF90CA
:10135000EF90DF9008950C943808682F70E080E0DB
:1013600090E04AE00C94D408CF93DF930E94AD093B
:10137000EC0185E791E00E9438088C0F9D1FDF91FA
:10138000CF910895CF92DF92EF92FF92CF93DF93A8
:1013900097FF1BC06B017C016DE28AE696E00E941C
:1013A0002601EC0166277727CB016C197D098E0990
:1013B0009F094AE00E94D4088C0F9D1FDF91CF91B6
:1013C000FF90EF90DF90CF9008954AE0DF91CF91AA
:1013D000FF90EF90DF90CF900C94D408CF93DF93E1
:1013E000BC01990F880B990B0E94C209EC0185E79B
:1013F00091E00E9438088C0F9D1FDF91CF910895D6
:101400001F920F920FB60F9211242F933F934F9379
:101410005F936F937F938F939F93AF93BF93EF935C
:10142000FF938091160790911707A0911807B0912C
:101430001907892B8A2B8B2B41F1909115078091ED
:10144000000089278093000080911607909117076C
:10145000A0911807B0911907181619061A061B064D
:10146000C4F48091160790911707A0911807B091C6
:1014700019070197A109B1098093160790931707DF
:10148000A0931807B093190704C080912C010E9403
:101490009E07FF91EF91BF91AF919F918F917F91A7
:1014A0006F915F914F913F912F910F900FBE0F90D1
:1014B0001F901895CF92DF92EF92FF920F931F9398
:1014C000CF93DF936C017A018B01C0E0D0E0CE15A1
:1014D000DF0581F0D8016D918D01D601ED91FC9170
:1014E0000190F081E02DC6010995892B11F021961C
:1014F000EECF7E01C701DF91CF911F910F91FF9039
:10150000EF90DF90CF900895CF93DF93CDB7DEB704
:101510002B970FB6F894DEBF0FBECDBF789484B57D
:10152000826084BD84B5816084BD85B5826085BDDF
:1015300085B5816085BD80916E00816080936E006D
:10154000109281008091810082608093810080915F
:101550008100816080938100809180008160809310
:1015600080008091B10084608093B1008091B000D0
:1015700081608093B00080917A00846080937A00CB
:1015800080917A00826080937A0080917A008E7FC9
:1015900080937A0080917A00806880937A0010921C
:1015A000C1000E9410088FE391E00E944A0861E0A8
:1015B0008DE00E94AD0261E081E10E94AD0261E038
:1015C00083E00E94AD0261E08BE00E94AD0262E028
:1015D0008CE00E94AD0262E082E00E94AD0262E017
:1015E00088E00E94AD0262E087E00E94AD0260E008
:1015F0008FE00E94AD0260E08EE00E94AD0261E0EB
:1016000084E00E94AD0260E084E00E946E020E94CD
:10161000100887E591E00E944A088BE691E00E945D
:10162000AB0908E610E0F8016491611122C085E77A
:1016300091E00E94380861E080E10E94AD0260E024
:1016400080E10E946E0260E070E083E00E94E902A7
:1016500060E070E08BE00E94E90280E090E00E9490
:10166000ED04182F81E090E00E94ED04133561F441
:1016700009C08AE696E00E9426010F5F1F4F892B62
:1016800091F6D5CF883529F188E791E00E944A0884
:1016900063E580E090E00E94EB0468E581E090E083
:1016A0000E94EB0485E690E09B878A87BE01665F17
:1016B0007F4F8AE090E00E94A70481E090E09A8347
:1016C0008983BE016F5F7F4F8DE090E00E94A70489
:1016D00038C080914706882341F180914E068823C7
:1016E00021F180E991E00E944A0863E580E090E002
:1016F0000E94EB0468E581E090E00E94EB0485E63F
:1017000090E09B878A87BE01665F7F4F8AE090E00A
:101710000E94A70481E090E09A838983BE016F5FF5
:101720007F4F8DE090E00E94A70466E376E08AE0B8
:1017300090E00E9493046AE376E08DE090E00E94DE
:1017400093040E941509182F8093490681110E9465
:1017500015068FE00E944502892BD1F48EE00E948D
:101760004502892BA9F4112399F084E090E00E94AE
:10177000ED0408E010E0081B1109101611060CF426
:10178000EEC086E00E94D2048AEA91E00E944A08F4
:1017900087E00E944502892B09F0FEC088E00E9484
:1017A0004502892B09F0F8C0FF24F39471EE472E0F
:1017B000512C612C712CE1EE2E2E312CFFE6EF2EF8
:1017C000109149060E94150980934906882359F112
:1017D00011110FC00E94150686E00E94D20468EC29
:1017E00070E080E090E00E94480360E086E00E94A4
:1017F000390680E090E00E9447068093480681E029
:1018000090E00E94470691E0811101C090E0909322
:10181000470682E090E00E94470691E0811101C0F6
:1018200090E090934E060E94EF0468EC70E080E038
:1018300090E00E944803609184007091850080E0F0
:1018400090E028EC30E040E050E00E9497122F5FDB
:101850003F4F4F4F5F4FC301B2010E9497124901A2
:101860005A01890180E090E00E944706883C69F4B3
:1018700060E08DE00E946E0280911A0190911B0140
:101880008816990614F061E001C060E081E10E94D1
:101890006E0280914E06882309F445C060910C01C8
:1018A00070910D016819790977FF03C071956195F1
:1018B0007109EEE0F1E041E050E09A012150310978
:1018C00081919191801B910B97FF03C09195819518
:1018D00091098617970754F49A012F5F3F4FBC0177
:1018E0002B30310511F0A901E8CF9A01809148060B
:1018F00090E0821793073CF461E081E10E946E0260
:1019000060E08DE00EC02817390714F461E004C0D0
:101910002817390741F460E08DE00E946E0260E014
:1019200081E10E946E028FE00E944502019729F436
:101930008EE00E944502892B91F18FE00E944502C2
:10194000892B09F04FC08EE00E944502019709F0F3
:1019500049C080914606883008F050C043C0EE244C
:10196000E394F12C68EC70E080E090E00E94480382
:1019700086E00E94D20468EC70E080E090E00E9473
:10198000480360E086E00E943906FFEFEF1AFF0A85
:101990000E151F053CF7F8CE0E949B0605CF10924E
:1019A000460660E084E090E00E94EB0460E086E0A0
:1019B0000E94390686E00E94D2048FE394E00E94E0
:1019C0004A080E94B1060E948E060E949B060E9451
:1019D000A80660E086E00E9439068EE494E00E944A
:1019E0004A08ABCF8FE00E944502892B09F58EE0B3
:1019F0000E944502892B09F488C11AC087E694E049
:101A00000E944A0886E00E94D20461E081E10E94BF
:101A10006E028CE00E944502892B29F480914E06CB
:101A2000882309F4B2C08CE00E944502892B19F08A
:101A30000E949501C5CE80914E068823C9F38091FE
:101A40003A0690913B069A838983809146068B8360
:101A5000809145068C831D8280913C0690913D06C5
:101A60009F838E831986188666E376E08AE090E08D
:101A70000E9493040E94100885EF94E00E944A0897
:101A8000809100012091360630913706590198E483
:101A9000899FA018B1081124C12CD12CBE016F5F01
:101AA0007F4F85010C0D1D1DC8010E946D04B801FA
:101AB000110F880B990B0E94C20980EC92E00E94E2
:101AC000AB09809100010E94AD0980EC92E00E9478
:101AD000AB098B810E94AD0980EC92E00E94AB09BA
:101AE00069817A81072E000C880B990B0E94C2092C
:101AF00080EC92E00E94AB098C810E94AD098C8140
:101B0000811104C08EEA92E00E94AB098C81813081
:101B100021F487EB92E00E94AB098C81823021F4A2
:101B200082EC92E00E94AB098C81843021F485ED37
:101B300092E00E94AB098C81863021F487EE92E01E
:101B40000E94AB098C81873021F482EF92E00E94E1
:101B5000AB098C81883021F489EF92E00E94AB09B7
:101B60008D810E94AD0980EC92E00E94AB0929E0D2
:101B7000C20ED11C88E4C816D10409F08FCF809121
:101B800000018F5F8093000153CF80913A069091BE
:101B90003B069A838983809146068B831C821D8233
:101BA0001F821E8219861886BE016F5F7F4F80914B
:101BB0003606909137060E946D0466E376E08AE06F
:101BC00090E00E949304C0903606D09037068601BC
:101BD000085411098DE794E00E944A088BEB94E0C9
:101BE0000E94AB0980913606909137060E94EE095B
:101BF0008BED94E00E94AB09C8010E94EE09BE0182
:101C00006F5F7F4FC8010E946D0480EC91E00E94DD
:101C10004A0888EF91E00E94AB09C8010E94EE09D2
:101C200084E292E00E94AB0989819A810E94EE09C8
:101C30008DE192E00E94AB098B810E94B4098FE292
:101C400092E00E94AB098C810E94B4098BE392E080
:101C50000E94AB098C81811104C083E492E00E9450
:101C60004A088C81813021F48AE492E00E944A087B
:101C70008C81823021F483E592E00E944A088C81B5
:101C8000843021F484E692E00E944A088C818530F9
:101C900021F484E792E00E944A088C81863021F486
:101CA00081E892E00E944A088C81873021F48AE81A
:101CB00092E00E944A088C81883021F481E595E009
:101CC0000E944A088FE892E00E94AB098D810E9431
:101CD000B4098FE992E00E94AB098E819F810E9436
:101CE000EE0986EA92E00E94AB09888599850E94F8
:101CF000EE09075F1F4FC016D10609F080CF809113
:101D000000018F5F809300018ECE84E090E00E94FE
:101D1000ED04809346068CE00E944502892B09F071
:101D200064C0E0914806F0E0EE0FFF1FE45FFE4F55
:101D3000808191818F399F4F09F057C087E0809350
:101D400045060E94300589E395E00E944A080E94FA
:101D5000B1060E948E0688E00E9445020197D9F7DD
:101D600068E270E080E090E00E94480380914E06B7
:101D7000882329F06FEF70E08BE00E94E9020E9457
:101D8000A80610914E06112329F062E870E08BE05E
:101D90000E94E9028CE00E944502892BD9F31123AD
:101DA00091F087E00E94D20461E070E080E090E072
:101DB0000E94480360E070E08BE00E94E90260E06E
:101DC00087E00E9439060E94B10668EC70E080E06E
:101DD00090E00E9448030E949B0668EC70E080E05F
:101DE00090E00E9448030E94A8068CE00E944502F1
:101DF000892B09F046C0E0914806F0E0EE0FFF1F86
:101E0000E45FFE4F808191818E399F4FD1F583E44D
:101E100095E00E944A0888E0809345060E943005BC
:101E200089E495E00E944A080E94B1060E948E064D
:101E300088E00E9445020197D9F768E270E080E0EF
:101E400090E00E9448030E94A8068CE00E94450290
:101E50000197D9F38CE00E944502892B11F40E946E
:101E6000B10668EC70E080E090E00E9448030E94B8
:101E70009B0668EC70E080E090E00E9448030E94BE
:101E8000A8061092440662E08CE00E94AD028CE04D
:101E90000E9445029C01DD24D394892B09F4D12CA6
:101EA000D0920B0190910A01232B09F045C0992390
:101EB00009F49CC00E948203809006019090070163
:101EC000A0900801B0900901DC01CB0188199909A3
:101ED000AA09BB094597A105B10508F487C00E946E
:101EE0008203609302017093030180930401909335
:101EF000050110924D06F092010110924C060E94CD
:101F00008203DC01CB0188199909AA09BB098A3F20
:101F10009105A105B10568F480914B06811109C0B6
:101F200080914A06882329F0F0924B0610924A06C7
:101F30005DC010924B06FACF911128C00E94820317
:101F400000910201109103012091040130910501DB
:101F5000DC01CB01801B910BA20BB30B4597A105B4
:101F6000B105A0F080914D06811110C00E9482033E
:101F70006093060170930701809308019093090113
:101F800080914B0681111EC2F0924A0600E010E0DB
:101F90000E9482038090060190900701A0900801A2
:101FA000B0900901DC01CB0188199909AA09BB0984
:101FB0008A3F9105A105B105E8F180914A06882381
:101FC000C9F180914B06811135C0809101018823B0
:101FD00089F10230110509F401C210924A06F0920B
:101FE0000A011092450601E010E02AC00E94820317
:101FF000009102011091030120910401309105012B
:10200000DC01CB01801B910BA20BB30B8E359140F1
:10201000A105B10508F4E7C180914C068111DBC12F
:10202000F0924D0610924B0610924A06F0924C0622
:1020300003E010E0D0920A011092450600FF06C0AE
:10204000F09244068DEF92E00E944A08023011059A
:1020500099F50E9482034B015C0180E193E00E94AC
:102060004A0888EE93E00E94580888E592E00E94B2
:10207000580888EC90E00E94580880E590E00E94A3
:1020800058080E948203681979098A099B0928EE79
:1020900033E040E050E00E949712CA01B9014AE0E3
:1020A0000E94D40883E293E00E944A08F09244061A
:1020B0008FE293E00E944A0880914406882309F445
:1020C000B7CC80914706811120C080914206909143
:1020D000430618161906CCF48DE493E00E944A08D2
:1020E0000E943005109243061092420660E086E09E
:1020F0000E9439060E949B0662E370E080E090E057
:102100000E9448030E94A80693CC87E593E00E94B2
:10211000AB09809148060E94B40980E090E00E94DB
:102120004706843609F076C086E893E00E944A08A4
:1021300080E090E00E9447060E94AD098FE893E09E
:102140000E944A0888E993E00E944A0884E090E0EF
:102150000E94ED04809346060E94300523E22093FE
:10216000B00089E08093B10090EE9093B300E092CC
:10217000B4006FEF70E08BE00E94E9020E94B106AC
:102180000E948E0688E00E9445020197D9F762E816
:1021900070E08BE00E94E90268E770E080E090E088
:1021A0000E9448030E94A80662E470E080E090E08C
:1021B0000E94480361E084E00E946E0262E070E0E9
:1021C00080E090E00E94480360E070E08BE00E94B5
:1021D000E90260E084E00E946E0264E170E080E069
:1021E00090E00E9448030E94B10668EC70E080E035
:1021F00090E00E9448030E949B0668EC70E080E03B
:1022000090E00E9448030E94A80610924306109294
:1022100042060ECC80E090E00E944706883C79F4AC
:1022200030924106209240060E94300585EA93E0F4
:102230000E944A0810924306109242061AC0E0918A
:102240004806E43608F0F4CBF0E0EE0FFF1FE45F41
:10225000FE4F808191818C39EFEF9E0769F43092B7
:102260004106209240060E94300588EB93E00E94D0
:102270004A080E94D106DCCB8D399F4F59F48FEE6E
:1022800091E090934106809340060E94300589ECCE
:1022900093E0EDCF8AED93E00E944A0880EF93E04F
:1022A0000E944A080E94B10664E670E080E090E077
:1022B0000E9448030E948E0688E00E944502019712
:1022C000D9F768E770E080E090E00E9448030E9440
:1022D000EF04E0914806F0E0EE0FFF1FE45FFE4FD1
:1022E00080819181181619060CF047C084E094E0B3
:1022F0000E94AB09E0914806F0E0EE0FFF1FE45F9B
:10230000FE4F808191810E94EE090E94EF040E949D
:10231000A806E0914806F0E0EE0FFF1FE45FFE4FD5
:1023200000811181075F1F4FB801012E000C880B3F
:10233000990B0E944803093111056CF087E00E9457
:10234000D20461E070E080E090E00E94480360E029
:1023500087E00E9439060E94B106F89480918400BB
:1023600090918500A0E0B0E080933C0690933D06FC
:10237000A0933E06B0933F06789480914706882349
:1023800051F0809142069091430601969093430646
:102390008093420614C068EC70E080E090E00E94F8
:1023A00048030E949B066CE370E080E090E00E948E
:1023B00048030E94A80610924306109242060E940B
:1023C000300536CB10924B0610924A06109201014E
:1023D00002E010E0DDCD00E010E02CCEF0920A012A
:1023E0001092450636CED0920A011092450600E0C2
:1023F00010E02CCE10926D0610926C0688EE93E0E1
:10240000A0E0B0E080936E0690936F06A0937006F4
:10241000B093710681E391E090936B0680936A0616
:1024200085EC90E0909377068093760684EC90E0BC
:10243000909379068093780680EC90E090937B06E9
:1024400080937A0681EC90E090937D0680937C06E1
:1024500082EC90E090937F0680937E0686EC90E07D
:1024600090938106809380061092830610928406D2
:10247000109285061092860610922007109221076E
:10248000109222071092230710922407109225071A
:1024900010922607109227071092280710922907FA
:1024A00010922A0710922B0710922C0710922D07DA
:1024B00010922E0710922F0760E082E00E94AD027A
:1024C000E9E0F1E0E491E0930707E5EFF0E0E49163
:1024D000F0E0EE0FFF1FE751FF4F8591949190932D
:1024E00009078093080710921207109214071092A0
:1024F0001307E2E1F7E0129287E0EA30F807D9F734
:102500000895F999FECF92BD81BDF89A992780B5BB
:102510000895262FF999FECF1FBA92BD81BD20BD27
:102520000FB6F894FA9AF99A0FBE01960895A1E2AF
:102530001A2EAA1BBB1BFD010DC0AA1FBB1FEE1F3D
:10254000FF1FA217B307E407F50720F0A21BB30B88
:10255000E40BF50B661F771F881F991F1A9469F704
:1025600060957095809590959B01AC01BD01CF0160
:102570000895EE0FFF1F0590F491E02D099481E07E
:0C25800090E0F8940C94C412F894FFCF83
:10258C000101FFFFFFFFFFFFFFFF0101010003003F
:10259C00050006000A000F00160022002A00500059
:1025AC008C0022019CFF9DFF9EFF9FFFFF000000FF
:1025BC000026015A0ABD007301EE00CC00E0006F4A
:1025CC0070656E5358373021212121212121212181
:1025DC002121212121210057656C636F6D452074E9
:1025EC006F206F70656E5358373000566572736983
:1025FC006F6E3A20000D0A00496E697469616C694E
:10260C007A696E6720454550524F4D2E2E2E2E0066
:10261C0052452D6E697469616C697A696E672045E3
:10262C004550524F4D2E2E2E2E00424C494E4B20D3
:10263C004E554D424552204F462053484F5453005F
:10264C003D3D3D3D3D3D3D3D3D3D3D3D3D3D3D3DAE
:10265C003D3D3D3D3D3D3D3D3D3D3D3D3D3D3D3D9E
:10266C003D3D3D3D3D3D3D3D3D3D3D3D3D3D3D3D8E
:10267C003D3D3D3D3D3D3D00656541646472657386
:10268C007320726561642028746869735265636F86
:10269C00726441646472657373293A2000437572E5
:1026AC0072656E7420506963747572653A200020EF
:1026BC0054797065207261773A20002054797065E6
:1026CC003A20004D414E55414C004155544F20315C
:1026DC00303000464C41534820444F4E474C454CFB
:1026EC0045535300464C41534820463820444F4EE6
:1026FC00474C4500464C41534820444F4E474C45AF
:10270C00004155544F203630300042554C42002089
:10271C005368757474657253706565643A20002053
:10272C004C4F573A200020484947483A20002C4D3E
:10273C00414E55414C2C002C4155544F20313030DA
:10274C002C002C464C41534820444F4E474C454C92
:10275C004553532C002C464C4153482046382044BA
:10276C004F4E474C452C002C4155544F20363030A1
:10277C002C002C42554C422C002C542C0074616BB8
:10278C006550696374757265203D2054525545003F
:10279C005354415254203530302C323630302C3595
:1027AC002C300020207365636F6E647320200074DE
:1027BC00616B6550696374757265203D2054525588
:1027CC004520736566742074696D6572006C617365
:1027DC007420706963740020202020202020202089
:1027EC0020202020202020202020202020202020DD
:1027FC00202020202020202020202053656C656381
:10280C00746F723A2000464C415348424152003A90
:10281C002020464C4153480043414D4552412046EF
:10282C004C41534800444F4E474C454C4553532064
:10283C004155544F3630300053454C4543544F525C
:10284C00204155544F3630300053454C4543544F7E
:10285C0052204155544F313030004D414E55414C72
:10286C002053454C4543544F52205350454544004A
:10287C0074616B65204D616E75616C207069637459
:10288C00757265002D2D2D2D2D2D2D2D2D2D2D2DD4
:10289C002D2D2D2D2D2D2D2D2D2D2D2D2D2D2D2D5C
:1028AC002D2D2D2D2D2D2D2D2D2D2D2D2D2D2D2D4C
:1028BC002D2D2D2D2D2D434C49434B3A20200064BA
:1028CC0061726B736C696465454A4543540053549B
:1028DC00415445313A20454A454354204441524BDA
:1028EC0020534C494445005354415445323A2050EE
:1028FC0041434B20495320454D505459003D3D3DDB
:10290C003D3D3D3D3D3D3D3D3D3D3D3D3D3D3D3DEB
:10291C003D3D3D3D20456E746572696E67206C6F60
:10292C006F70203D3D3D3D3D3D3D3D3D3D3D3D3D83
:10293C003D3D3D3D3D3D3D3D3D3D00494E495449AC
:10294C00414C2065654164647265737320626566F1
:10295C006F7265206C6F6F703A2000526561644134
:10296C00646472657373206265666F7265206C6F48
:10297C006F703A20006565416464726573732C5006
:10298C0061636B2C5061636B206F726465722C50A9
:10299C006963747572652C54797065205261772C5B
:1029AC0020547970652C205368757474657253705B
:1029BC006565642C204C7578005348555454455229
:1029CC00204200504F532054005348555454455204
:1029DC002054006D6F746F724F4646006D6F746FAC
:1029EC00724F4E004F766572666C6F77204F636343
:1029FC00757265642100504F534954494F4E3A202B
:102A0C0020002A2A2A2A2A2A2A2A2A2A2A2A2A2A4E
:102A1C002A2A2A2A2A2A2A2A2A2A2A2A2A2A2A0034
:102A2C0041637475616C20706963747572653A20CA
:102A3C000043757272656E7420706963747572658B
:102A4C00205061636B3A2000506963747572652085
:102A5C00747970653A2000536875747465722069D6
:102A6C006E206D733A2000436F756E7465723A2058
:102A7C0000506963747572652074616B656E3A20E1
:102A8C00006D6972726F725550006D6972726F725F
:102A9C00444F574E00736875747465724F50454EB1
:102AAC000073687574746572434C4F5345005459E8
:062ABC005045203200002D
:00000001FF
