:100000000C9435000C945D000C945D000C945D0024
:100010000C945D000C945D000C945D000C944A02FD
:100020000C945D000C945D000C945D000C945D00DC
:100030000C945D000C94AE020C945D000C945D0079
:100040000C9400020C945D000C94CE010C94A80159
:100050000C945D000C945D000C945D000C945D00AC
:100060000C945D000C945D00160411241FBECFEFAC
:10007000D8E0DEBFCDBF11E0A0E0B1E0ECE1FCE0F4
:1000800002C005900D92A833B107D9F721E0A8E38B
:10009000B1E001C01D92AB3EB207E1F710E0C5E34D
:1000A000D0E004C02197FE010E940106C433D107AD
:1000B000C9F70E94D3020C940C060C940000CF9256
:1000C000DF92EF92FF920F931F93CF93DF936C0118
:1000D0007A018B01C0E0D0E0CE15DF0581F0D801B8
:1000E0006D918D01D601ED91FC910190F081E02D93
:1000F000C6010995892B11F02196EECF7E01C7012B
:10010000DF91CF911F910F91FF90EF90DF90CF90F3
:100110000895089580E090E00895FC01538D448D8A
:10012000252F30E0842F90E0821B930B541710F0A2
:10013000CF96089501970895FC01918D828D9817AF
:1001400061F0828DDF01A80FB11D5D968C91928DBB
:100150009F5F9F73928F90E008958FEF9FEF0895B8
:10016000FC01918D828D981731F0828DE80FF11D81
:10017000858D90E008958FEF9FEF0895FC01918D9C
:10018000228D892F90E0805C9F4F821B91098F7395
:10019000992708958EE491E00E94BE0021E0892B0A
:1001A00009F420E0822F0895FC01848DDF01A80F5F
:1001B000B11DA35ABF4F2C91848D90E001968F738F
:1001C0009927848FA689B7892C93A089B1898C91AE
:1001D000837080648C93938D848D981306C00288FD
:1001E000F389E02D80818F7D80830895EF92FF92C7
:1001F0000F931F93CF93DF93EC0181E0888F9B8D4A
:100200008C8D981305C0E889F989808185FD26C009
:10021000F62E0B8D10E00F5F1F4F0F731127E02E8E
:100220008C8DE8120CC00FB607FCFACFE889F9896B
:10023000808185FFF5CFCE010E94D400F1CF8B8D58
:10024000FE01E80FF11DE35AFF4FF0829FB7F894CB
:100250000B8FEA89FB89808180620AC09FB7F8947E
:10026000EE89FF896083E889F989808183708064E1
:1002700080839FBF81E090E0DF91CF911F910F912C
:10028000FF90EF900895CF93DF93EC01888D882342
:10029000C9F0EA89FB89808185FD05C0A889B989F3
:1002A0008C9186FD0FC00FB607FCF5CF808185FFCE
:1002B000F2CFA889B9898C9185FFEDCFCE010E943C
:1002C000D400E7CFDF91CF91089580E090E0892BB3
:1002D00029F00E94CA0081110C94000008953FB7D4
:1002E000F89480913D0190913E01A0913F01B09121
:1002F000400126B5A89B05C02F3F19F00196A11D0E
:10030000B11D3FBFBA2FA92F982F8827820F911DAB
:10031000A11DB11DBC01CD0143E0660F771F881FF1
:10032000991F4A95D1F70895009769F0FC01019053
:100330000020E9F73197AF01481B590BBC018EE44F
:1003400091E00C945F0080E090E008950E94070621
:100350001F920F920FB60F9211242F933F934F933A
:100360005F936F937F938F939F93AF93BF93EF931D
:10037000FF938EE491E00E94D400FF91EF91BF9132
:10038000AF919F918F917F916F915F914F913F912D
:100390002F910F900FBE0F901F9018951F920F92E4
:1003A0000FB60F9211242F938F939F93EF93FF9388
:1003B000E0915E01F0915F018081E0916401F09134
:1003C000650182FD12C09081809167018F5F8F73FC
:1003D00020916801821751F0E0916701F0E0E25B43
:1003E000FE4F958F8093670101C08081FF91EF914F
:1003F0009F918F912F910F900FBE0F901F90189586
:100400001F920F920FB60F9211242F933F938F9349
:100410009F93AF93BF938091390190913A01A0913E
:100420003B01B0913C013091380126E0230F2D377C
:1004300020F40296A11DB11D05C029E8230F0396E3
:10044000A11DB11D209338018093390190933A0189
:10045000A0933B01B0933C0180913D0190913E01FE
:10046000A0913F01B09140010196A11DB11D809363
:100470003D0190933E01A0933F01B0934001BF9195
:10048000AF919F918F913F912F910F900FBE0F9041
:100490001F9018951F920F920FB60F9211242F9351
:1004A0003F934F935F936F937F938F939F93AF93FC
:1004B000BF934091840050918500809141019091BB
:1004C0004201A0914301B091440120914501309136
:1004D00046012F5F3F4F30934601209345016091C5
:1004E0004701709148012617370748F1B09B04C0B7
:1004F0004F3F510501F1F8F01092800010928100F9
:100500001092B0001092B10010926F001092700023
:10051000DC0199278827840F951FA11DB11D8093A9
:10052000490190934A01A0934B01B0934C0181E0A3
:1005300080934D0104C00196A11DB11DDDCFBF9177
:10054000AF919F918F917F916F915F914F913F916B
:100550002F910F900FBE0F901F9018951F920F9222
:100560000FB60F9211248F939F93AF93BF938091F7
:10057000410190914201A0914301B0914401019643
:10058000A11DB11D8093410190934201A0934301AD
:10059000B0934401BF91AF919F918F910F900FBE87
:1005A0000F901F901895CF93DF93CDB7DEB7A1972B
:1005B0000FB6F894DEBF0FBECDBF789484B58260CD
:1005C00084BD84B5816084BD85B5826085BD85B5F7
:1005D000816085BD80916E00816080936E00109275
:1005E00081008091810082608093810080918100F0
:1005F0008160809381008091800081608093800081
:100600008091B10084608093B1008091B0008160DE
:100610008093B00080917A00846080937A0080910A
:100620007A00826080937A0080917A008E7F809336
:100630007A0080917A00806880937A001092C100DD
:10064000E0915E01F0915F0182E08083E0915A01C8
:10065000F0915B011082E0915C01F0915D0187E611
:10066000808310926601E0916201F091630186E05F
:100670008083E0916001F0916101808180618083DD
:10068000E0916001F0916101808188608083E09158
:100690006001F0916101808180688083E091600158
:1006A000F091610180818F7D808382E191E00E94E1
:1006B000940184E291E00E9494013324339412E087
:1006C0009CE7292E07E02AE0822E912CA12CB12C48
:1006D000C4B4D5B414BC15BC10924D0184EF91E0A4
:1006E0009093480180934701109246011092450172
:1006F0001092410110924201109243011092440164
:1007000010928000109281001092B0001092B100FF
:1007100030926F001093B0002092B30010937000DD
:1007200010928500109284001092B20013BD95E0E3
:100730009093B1000093810080914D018823E1F3F3
:100740006091490170914A0180914B0190914C0157
:100750000E94E40420E030E04AE754E40E9472057D
:100760002B013C01609147017091480180E090E0CD
:100770000E94E4049B01AC01C301B2010E94430446
:100780002B013C0187E291E00E949401C301B20178
:100790000E94B5049B01AC0119A27E01E1E2EE0EBC
:1007A000F11CCA01B901A50194010E94DF05605D39
:1007B000F70162937F01211531054105510589F744
:1007C000CF010E94940183E391E00E94940184E2AE
:1007D00091E00E949401C4BCD5BC0E946F016B01E2
:1007E0007C0188EC482E512C612C712C0E946F01E9
:1007F000DC01CB018C199D09AE09BF09883E9340ED
:10080000A105B10598F3F1E04F1A5108610871088C
:1008100028EEC20E23E0D21EE11CF11C411451044B
:100820006104710419F70E94650152CFEEE4F1E012
:100830001382128288EE93E0A0E0B0E08483958377
:10084000A683B78384E091E09183808385EC90E078
:100850009587848784EC90E09787868780EC90E08A
:10086000918B808B81EC90E0938B828B82EC90E07B
:10087000958B848B86EC90E0978B868B118E128EF5
:10088000138E148E08950E9457040C9438050E940C
:10089000310558F00E942A0540F029F45F3F29F005
:1008A0000C94210551110C946C050C9427050E94A1
:1008B000490568F39923B1F3552391F3951B550B23
:1008C000BB27AA2762177307840738F09F5F5F4F23
:1008D000220F331F441FAA1FA9F335D00E2E3AF062
:1008E000E0E832D091505040E695001CCAF72BD07A
:1008F000FE2F29D0660F771F881FBB1F26173707CB
:100900004807AB07B0E809F0BB0B802DBF01FF27FC
:1009100093585F4F3AF09E3F510578F00C942105B3
:100920000C946C055F3FE4F3983ED4F3869577957D
:100930006795B795F7959F5FC9F7880F911D9695B5
:10094000879597F90895E1E0660F771F881FBB1F11
:10095000621773078407BA0720F0621B730B840BBE
:10096000BA0BEE1F88F7E09508950E94510588F0B4
:100970009F5798F0B92F9927B751B0F0E1F0660F63
:10098000771F881F991F1AF0BA95C9F714C0B130A4
:1009900091F00E946B05B1E008950C946B05672FF0
:1009A000782F8827B85F39F0B93FCCF386957795D3
:1009B0006795B395D9F73EF49095809570956195BC
:1009C0007F4F8F4F9F4F0895E89409C097FB3EF4E7
:1009D00090958095709561957F4F8F4F9F4F99238C
:1009E000A9F0F92F96E9BB279395F695879577950A
:1009F0006795B795F111F8CFFAF4BB0F11F460FFCA
:100A00001BC06F5F7F4F8F4F9F4F16C0882311F021
:100A100096E911C0772321F09EE8872F762F05C035
:100A2000662371F096E8862F70E060E02AF09A95D0
:100A3000660F771F881FDAF7880F9695879597F9C5
:100A4000089597F99F6780E870E060E008959FEF50
:100A500080EC089500240A94161617061806090655
:100A6000089500240A941216130614060506089524
:100A7000092E0394000C11F4882352F0BB0F40F4AC
:100A8000BF2B11F460FF04C06F5F7F4F8F4F9F4FEC
:100A9000089557FD9058440F551F59F05F3F71F06E
:100AA0004795880F97FB991F61F09F3F79F08795D5
:100AB0000895121613061406551FF2CF4695F1DF5E
:100AC00008C0161617061806991FF1CF86957105EE
:100AD000610508940895E894BB2766277727CB0122
:100AE00097F908950E9485050C9438050E942A05FF
:100AF00038F00E94310520F0952311F00C94210567
:100B00000C94270511240C946C050E94490570F380
:100B1000959FC1F3950F50E0551F629FF001729FA2
:100B2000BB27F00DB11D639FAA27F00DB11DAA1FB1
:100B3000649F6627B00DA11D661F829F2227B00DFE
:100B4000A11D621F739FB00DA11D621F839FA00D89
:100B5000611D221F749F3327A00D611D231F849FD9
:100B6000600D211D822F762F6A2F11249F57504030
:100B70009AF0F1F088234AF0EE0FFF1FBB1F661FAB
:100B8000771F881F91505040A9F79E3F510580F074
:100B90000C9421050C946C055F3FE4F3983ED4F36C
:100BA000869577956795B795F795E7959F5FC1F718
:100BB000FE2B880F911D9695879597F90895A1E2D0
:100BC0001A2EAA1BBB1BFD010DC0AA1FBB1FEE1FC7
:100BD000FF1FA217B307E407F50720F0A21BB30B12
:100BE000E40BF50B661F771F881F991F1A9469F78E
:100BF00060957095809590959B01AC01BD01CF01EA
:100C00000895EE0FFF1F0590F491E02D099481E007
:0C0C100090E0F8940C940C06F894FFCFD0
:100C1C0000000000F6005F008D004301BE009C0048
:100C2C00B0004672657175656E637920436F756EA1
:100C3C00746572000D0A004672657175656E637994
:080C4C003A200020487A2E0036
:00000001FF
