:100000000C945D000C9485000C9485000C94850084
:100010000C9485000C9485000C9485000C9485004C
:100020000C9485000C9485000C9485000C9485003C
:100030000C9485000C9485000C9485000C9485002C
:100040000C9474030C9485000C9442030C941C03D0
:100050000C9485000C9485000C9485000C9485000C
:100060000C9485000C9485000000000024002700FB
:100070002A0000000000250028002B0004040404CE
:100080000404040402020202020203030303030342
:10009000010204081020408001020408102001021F
:1000A00004081020000000080002010000030407FB
:1000B0000000000000000000370511241FBECFEF34
:1000C000D8E0DEBFCDBF13E0A0E0B1E0E6E2FBE0A8
:1000D00002C005900D92A432B107D9F723E0A4E243
:1000E000B3E001C01D92AC3CB207E1F710E0CDE5F2
:1000F000D0E004C02197FE010E948605CC35D107CF
:10010000C9F70E94BE030C9491050C940000CF9295
:10011000DF92EF92FF920F931F93CF93DF936C01C7
:100120007A018B01C0E0D0E0CE15DF0581F0D80167
:100130006D918D01D601ED91FC910190F081E02D42
:10014000C6010995892B11F02196EECF7E01C701DA
:10015000DF91CF911F910F91FF90EF90DF90CF90A3
:100160000895089580E090E00895FC01538D448D3A
:10017000252F30E0842F90E0821B930B541710F052
:10018000CF96089501970895FC01918D828D98175F
:1001900061F0828DDF01A80FB11D5D968C91928D6B
:1001A0009F5F9F73928F90E008958FEF9FEF089568
:1001B000FC01918D828D981731F0828DE80FF11D31
:1001C000858D90E008958FEF9FEF0895FC01918D4C
:1001D000228D892F90E0805C9F4F821B91098F7345
:1001E000992708958FE293E00E94E60021E0892B91
:1001F00009F420E0822F0895FC01848DDF01A80F0F
:10020000B11DA35ABF4F2C91848D90E001968F733E
:100210009927848FA689B7892C93A089B1898C915D
:10022000837080648C93938D848D981306C00288AC
:10023000F389E02D80818F7D80830895EF92FF9276
:100240000F931F93CF93DF93EC0181E0888F9B8DF9
:100250008C8D981305C0E889F989808185FD26C0B9
:10026000F62E0B8D10E00F5F1F4F0F731127E02E3E
:100270008C8DE8120CC00FB607FCFACFE889F9891B
:10028000808185FFF5CFCE010E94FC00F1CF8B8DE0
:10029000FE01E80FF11DE35AFF4FF0829FB7F8947B
:1002A0000B8FEA89FB89808180620AC09FB7F8942E
:1002B000EE89FF896083E889F98980818370806491
:1002C00080839FBF81E090E0DF91CF911F910F91DC
:1002D000FF90EF900895CF93DF93EC01888D8823F2
:1002E000C9F0EA89FB89808185FD05C0A889B989A3
:1002F0008C9186FD0FC00FB607FCF5CF808185FF7E
:10030000F2CFA889B9898C9185FFEDCFCE010E94EB
:10031000FC00E7CFDF91CF91089580E090E0892B3A
:1003200029F00E94F20081110C940000089590E0E1
:10033000FC01EC55FF4F2491FC01E057FF4F349135
:10034000FC01E458FF4FE491EE2309F43CC0222362
:1003500039F1233091F038F42130A9F0223001F541
:1003600084B58F7D12C0273091F02830A1F0243061
:10037000B9F4809180008F7D03C0809180008F77D9
:10038000809380000DC084B58F7784BD09C08091B3
:10039000B0008F7703C08091B0008F7D8093B00054
:1003A000F0E0EE0FFF1FEE58FF4FA591B4919FB7FD
:1003B000F894611104C08C913095382302C0EC91FF
:1003C0003E2B3C939FBF0895CF93DF9390E0FC01B9
:1003D000E057FF4F2491FC01E458FF4F849188239C
:1003E00061F190E0880F991FFC01E859FF4FC5911A
:1003F000D491FC01EE58FF4FA591B491611109C051
:100400009FB7F8948881209582238883EC912E23CE
:100410000BC0623061F49FB7F8948881322F309519
:1004200083238883EC912E2B2C939FBF06C08FB71C
:10043000F894E8812E2B28838FBFDF91CF91089508
:100440008E3008F08E508770806480937C0080919D
:100450007A00806480937A0080917A0086FDFCCFD8
:10046000809178002091790090E0922B08953FB719
:10047000F8948091290390912A03A0912B03B091C5
:100480002C0326B5A89B05C02F3F19F00196A11D8E
:10049000B11D3FBFBA2FA92F982F8827820F911D1A
:1004A000A11DB11DBC01CD0143E0660F771F881F60
:1004B000991F4A95D1F708958F929F92AF92BF925C
:1004C000CF92DF92EF92FF926B017C010E94370284
:1004D0004B015C01C114D104E104F104F1F00E946C
:1004E0003702DC01CB0188199909AA09BB09883EAA
:1004F0009340A105B10570F321E0C21AD108E108CB
:10050000F10888EE880E83E0981EA11CB11CC1146E
:10051000D104E104F10419F7DDCFFF90EF90DF90F3
:10052000CF90BF90AF909F908F900895009769F003
:10053000FC0101900020E9F73197AF01481B590BEE
:10054000BC018FE293E00C94870080E090E0089576
:1005500084E191E00C949602CF93DF930E9496027F
:10056000EC010E94A8028C0F9D1FDF91CF9108958E
:100570008F929F92AF92BF920F931F93CF93DF936F
:10058000CDB7DEB7A1970FB6F894DEBF0FBECDBFD3
:1005900019A2423008F44AE08E010F5D1F4F842EED
:1005A000912CA12CB12CA50194010E946405E62F89
:1005B000B901CA0101501109EA3014F4E05D01C02B
:1005C000E95CD801EC93232B242B252B61F7C80180
:1005D0000E949602A1960FB6F894DEBF0FBECDBF63
:1005E000DF91CF911F910F91BF90AF909F908F900F
:1005F0000895CF92DF92EF92FF92CF93DF936B013A
:100600007C016DE28FE293E00E941E01EC016627FF
:100610007727CB016C197D098E099F094AE00E945A
:10062000B8028C0F9D1FDF91CF91FF90EF90DF906C
:10063000CF9008950E948C051F920F920FB60F92D3
:1006400011242F933F934F935F936F937F938F93D7
:100650009F93AF93BF93EF93FF938FE293E00E943A
:10066000FC00FF91EF91BF91AF919F918F917F918E
:100670006F915F914F913F912F910F900FBE0F900F
:100680001F9018951F920F920FB60F9211242F935F
:100690008F939F93EF93FF93E0913F03F09140037B
:1006A0008081E0914503F091460382FD12C0908164
:1006B000809148038F5F8F7320914903821751F017
:1006C000E0914803F0E0E15DFC4F958F8093480393
:1006D00001C08081FF91EF919F918F912F910F9099
:1006E0000FBE0F901F9018951F920F920FB60F928A
:1006F00011242F933F938F939F93AF93BF93809138
:10070000250390912603A0912703B09128033091EF
:10071000240326E0230F2D3720F40296A11DB11DDE
:1007200005C029E8230F0396A11DB11D20932403C2
:100730008093250390932603A0932703B093280367
:100740008091290390912A03A0912B03B0912C034F
:100750000196A11DB11D8093290390932A03A093B4
:100760002B03B0932C03BF91AF919F918F913F9139
:100770002F910F900FBE0F901F901895789484B50D
:10078000826084BD84B5816084BD85B5826085BD8D
:1007900085B5816085BD80916E00816080936E001B
:1007A000109281008091810082608093810080910D
:1007B00081008160809381008091800081608093BE
:1007C00080008091B10084608093B1008091B0007E
:1007D00081608093B00080917A00846080937A0079
:1007E00080917A00826080937A0080917A008E7F77
:1007F00080937A0080917A00806880937A001092CA
:10080000C10061E08DE00E94E40161E085E00E94AA
:10081000E401E0913F03F091400382E08083E091A6
:100820003B03F0913C031082E0913D03F0913E03C5
:1008300087E6808310924703E0914303F0914403DD
:1008400086E08083E0914103F091420380818061E2
:100850008083E0914103F09142038081886080832E
:10086000E0914103F0914203808180688083E091B0
:100870004103F091420380818F7D808387E191E085
:100880000E94AC0288E391E00E94AC028DE591E009
:100890000E94AC020E94A8028AE691E00E94AC028B
:1008A0000E94A8028CE991E00E94AC020E94A8027A
:1008B00085EC91E00E94AC020E94A8020E94A8026E
:1008C00083EF91E00E949602609100017091010116
:1008D00080E090E04AE00E94B8020E94A802809165
:1008E0000001909101010196909301018093000114
:1008F00061E08DE00E9497018CEF91E00E94AC02D4
:1009000060E085E00E94970187E192E00E94AC02DE
:100910008BE492E00E94AC0268EE73E080E090E02D
:100920000E945C0287E192E00E94AC0260E082E1FA
:100930000E94E40161E083E10E94E40160E083E160
:100940000E9497016AE070E080E090E00E945C0203
:1009500081E10E94200290932E0380932D03009743
:1009600019F48DE592E005C08F3F934029F485E7A7
:1009700092E00E9496021AC08EE892E00E949602CF
:1009800060912D0370912E03072E000C880B990B9C
:1009900097FF03C00E94F90203C04AE00E94B80218
:1009A00064EF71E080E090E00E945C0260E083E12F
:1009B0000E94E40161E082E10E94E40160E082E1E2
:1009C0000E9497016AE070E080E090E00E945C0283
:1009D00081E10E94200290932E0380932D030097C3
:1009E00019F48FE992E005C08F3F934029F48CEB16
:1009F00092E00E94AC0234C08AED92E00E9496021E
:100A000060912D0370912E03072E000C880B990B1B
:100A100097FF03C00E94F90203C04AE00E94B80297
:100A20000E94A80287E192E00E94AC0260E08DE0A3
:100A30000E94970180EF92E00E94AC0261E085E0A5
:100A40000E94970187E192E00E94AC028BE093E064
:100A50000E94AC0268EE73E080E090E00E945C02CD
:100A600087E192E00E94AC020E948D0129CFEFE263
:100A7000F3E01382128288EE93E0A0E0B0E084837A
:100A80009583A683B78386E091E09183808385EC8C
:100A900090E09587848784EC90E09787868780EC48
:100AA00090E0918B808B81EC90E0938B828B82EC39
:100AB00090E0958B848B86EC90E0978B868B118EE3
:100AC000128E138E148E0895A1E21A2EAA1BBB1B40
:100AD000FD010DC0AA1FBB1FEE1FFF1FA217B3070A
:100AE000E407F50720F0A21BB30BE40BF50B661F20
:100AF000771F881F991F1A9469F7609570958095E4
:100B000090959B01AC01BD01CF010895EE0FFF1F31
:100B10000590F491E02D099481E090E0F8940C9414
:060B20009105F894FFCFDF
:100B26000100000000001E018700B5006B01E60011
:100B3600C400D8000D0A0057656C636F6D6520749C
:100B46006F20746865206F70656E5358373020705B
:100B5600726F6A65637421007468697320426C69F8
:100B66006E6B32202B204C696768744D6574657214
:100B7600207465737420736B6574636800586C6FBA
:100B8600616465722074657374006D6F646966696B
:100B960065642066726F6D206F726967696E616C3D
:100BA60020626C696E6B206279204A6F617175C331
:100BB600AD6E2064652050726164610069742073B3
:100BC600686F756C6420626C696E6B20696E207448
:100BD600776F20646966666572656E7420636F6CF4
:100BE6006F757273004C45443120697320706F72C3
:100BF6007420313320616E64204C45443220697381
:100C060020706F72742035206F6E20417264756992
:100C16006E6F004379636C653A2020004C45443181
:100C2600206973204F4E20202020204C454432203E
:100C36006973204F4646002D2D2D2D2D2D2D2D2D42
:100C46002D2D2D2D2D2D2D2D2D2D2D2D2D2D2D2DCE
:100C56002D2D2D2D2D2D2D2D2D2D2D2D2D2D2D2DBE
:100C66002D2D2D2D2D2D2D2D2D2D006E6F772049FF
:100C7600207761697420313030306D73004C4F57E6
:100C8600204C494748545320314D353A20746F6FF4
:100C9600206C6F77004C4F57204C494748545320DF
:100CA600314D353A20746F6F206D756368004C4F77
:100CB60057204C494748545320314D353A2000209F
:100CC600202048494748204C494748545320373547
:100CD600304B3A20746F6F206C6F770020202048CD
:100CE600494748204C4947485453203735304B3AFA
:100CF60020746F6F206D7563680020202048494777
:100D060048204C4947485453203735304B3A200049
:100D16004C454431206973204F4646202020202030
:100D26004C454432206973204F4E006E6F77204940
:100D3600207761697420313030306D7320616761CE
:040D4600696E0000D2
:00000001FF
