:100000000C9463000C948B000C948B000C948B006C
:100010000C948B000C948B000C948B000C94C401FA
:100020000C948B000C948B000C948B000C948B0024
:100030000C948B000C948B000C948B000C948B0014
:100040000C940B0A0C948B000C9446020C94200226
:100050000C948B000C948B000C948B000C948B00F4
:100060000C948B000C948B000200000000250028EB
:10007000002B00000000080002010000030407003C
:1000800000000000000000000000002300260029FE
:100090000004040404040404040202020202020331
:1000A000030303030301020408102040800102043B
:1000B000081020010204081020000000002400277E
:1000C000002A0000611011241FBECFEFD8E0DEBF70
:1000D000CDBF13E0A0E0B1E0E4E7F4E202C0059098
:1000E0000D92AC3AB107D9F724E0ACEAB3E001C015
:1000F0001D92A239B207E1F710E0C3E6D0E004C0D8
:100100002197FE010E940011C236D107C9F70E9453
:10011000550A0C9438120C940000CF92DF92EF92A3
:10012000FF920F931F93CF93DF936C017A018B01A2
:10013000C0E0D0E0CE15DF0589F0D8016D918D01CA
:10014000D601ED91FC910190F081E02DC601099559
:10015000892B11F47E0102C02196ECCFC701DF91FB
:10016000CF911F910F91FF90EF90DF90CF90089566
:10017000089580E090E00895FC01538D448D252F73
:1001800030E0842F90E0821B930B541710F0CF9631
:10019000089501970895FC01918D828D981761F063
:1001A000828DDF01A80FB11D5D968C91928D9F5FAE
:1001B0009F73928F90E008958FEF9FEF0895FC0159
:1001C000918D828D981731F0828DE80FF11D858D0C
:1001D00090E008958FEF9FEF0895FC01918D228D9F
:1001E000892F90E0805C9F4F821B91098F73992724
:1001F00008958AED93E00E94ED0021E0892B09F437
:1002000020E0822F0895FC01848DDF01A80FB11D2D
:10021000A35ABF4F2C91848D90E001968F7399273C
:10022000848FA689B7892C93A089B1898C91806429
:100230008C93938D848D981306C00288F389E02DEA
:1002400080818F7D80830895EF92FF920F931F939B
:10025000CF93DF93EC0181E0888F9B8D8C8D981379
:1002600005C0E889F989808185FD24C0F62E0B8DB3
:1002700010E00F5F1F4F0F731127E02E8C8DE812D7
:100280000CC00FB607FCFACFE889F989808185FF99
:10029000F5CFCE010E940301F1CF8B8DFE01E80F57
:1002A000F11DE35AFF4FF0820B8FEA89FB898081B1
:1002B000806207C0EE89FF896083E889F9898081BF
:1002C0008064808381E090E0DF91CF911F910F9156
:1002D000FF90EF900895CF93DF93EC01888D8823F2
:1002E000C9F0EA89FB89808185FD05C0A889B989A3
:1002F0008C9186FD0FC00FB607FCF5CF808185FF7E
:10030000F2CFA889B9898C9185FFEDCFCE010E94EB
:100310000301E7CFDF91CF91089580E090E0892B32
:1003200029F00E94F90081110C94000008950E94A8
:10033000331290910101981324C0E8E6F0E0E491B3
:100340009FEF90930101E130B9F098F0E230C9F4E9
:10035000909170009D7F9093700091E09093B00019
:100360009091B100987F94609093B1001092B30087
:1003700008C010926E0005C090916F009D7F909311
:100380006F0060E00C94AC081F920F920FB60F92B2
:1003900011242F933F934F935F936F937F938F938A
:1003A0009F93AF93BF93EF93FF938091D40390916A
:1003B000D503A091D603B091D703892B8A2B8B2B21
:1003C00051F18091D303E091D103F091D203908158
:1003D000892780838091D4039091D503A091D6037F
:1003E000B091D703181619061A061B06C4F480919B
:1003F000D4039091D503A091D603B091D703019770
:10040000A109B1098093D4039093D503A093D60397
:10041000B093D70304C0809101010E949901FF911C
:10042000EF91BF91AF919F918F917F916F915F916C
:100430004F913F912F910F900FBE0F901F901895E5
:100440001F920F920FB60F9211242F933F934F9349
:100450005F936F937F938F939F93AF93BF93EF932C
:10046000FF938AED93E00E940301FF91EF91BF910A
:10047000AF919F918F917F916F915F914F913F913C
:100480002F910F900FBE0F901F9018951F920F92F3
:100490000FB60F9211242F938F939F93EF93FF9397
:1004A000E091EA03F091EB038081E091F003F09199
:1004B000F10382FD12C090818091F3038F5F8F73EF
:1004C0002091F403821751F0E091F303F0E0E6523B
:1004D000FC4F958F8093F30301C08081FF91EF91D2
:1004E0009F918F912F910F900FBE0F901F90189595
:1004F000FC0190810180F281E02D892F809560FFC1
:1005000012C0F8942281822382838181892B818386
:10051000A0E1B0E01197F1F78281982B9283789453
:100520008AE690E011C0F89422818223828381813F
:10053000892B8183AEE7B0E01197F1F78281982B88
:100540009283789486E090E00197F1F70895CF9236
:10055000DF92EF92FF920F931F93CF93DF931F923F
:10056000CDB7DEB76C01E62E08E010E0FF24F3946F
:1005700061E08F2D8E2109F460E0C60149830E945D
:100580007802FF0C0150110949810115110581F70D
:10059000411115C0F894D6011196ED91FC91129776
:1005A00091818C918095892381831196ED91FC91A5
:1005B000129792818C9180958923828378940F90F1
:1005C000DF91CF911F910F91FF90EF90DF90CF902F
:1005D0000895FC0190810180F281E02DF8948181E1
:1005E000292F20958223818378948DE7815009F10A
:1005F00030813923D9F3F8948281822382838181E7
:10060000892B81837894ACEBB3E01197F1F7F894E0
:10061000818128232183A8E8B0E01197F1F7808138
:10062000982381E009F080E07894E0E3F3E03197EB
:10063000F1F70895CF92DF92EF92FF920F931F93FD
:10064000CF93DF93EB017B0129E0E20EF11C8B01DC
:100650006C01C61AD70AC601800F911F0E94C810EC
:10066000F80181938F01EE15FF05A9F7CE01DF9107
:10067000CF911F910F91FF90EF90DF90CF90089551
:100680000F931F93CF93DF938C01EB010E94C8104F
:100690008883C80101960E94C8108983CE01DF912A
:1006A000CF911F910F910895AF92BF92CF92DF9299
:1006B000EF92FF920F931F93CF93DF931F92CDB7CB
:1006C000DEB75C017B018B016C0182E0C80ED11C9E
:1006D000F80161918F01C50169830E94C810698189
:1006E000681719F0C5010E94D010FFEFAF1ABF0ABA
:1006F000AC14BD0469F7C7010F90DF91CF911F9132
:100700000F91FF90EF90DF90CF90BF90AF90089542
:100710000F931F93CF93C82F8091D8039091D90343
:100720000E9474060091D8031091D90387E794E0E2
:100730000E94E902C8010E94580681E090E0A0E012
:10074000B0E004C0880F991FAA1FBB1FCA95D2F73B
:100750008095CF911F910F910C9488060C94D01026
:10076000CF93DF93662321F0DF91CF910C94880320
:100770008091D8039091D9030E947406C091D80348
:10078000D091D90387E794E00E94E902CE010E944C
:1007900058068FEFDF91CF910C9488061F93CF936B
:1007A000DF93EC018091D8039091D9030E947406E5
:1007B000182F82E00E948308019711F411110DC0D7
:1007C00062E082E00E942A0982E00E948308892B6D
:1007D00011F484E638C088EC36C02097E1F48091AB
:1007E000D8039091D9030E947406982F80FD02C00F
:1007F00080E001C088E091FF02C0846001C08B7F6F
:1008000092FF02C0826001C08D7F93FF02C08160B1
:100810001AC08E7F18C0C230D10551F48091D80320
:100820009091D9030E94740684FF0CC081E00BC034
:10083000219741F48091D8039091D9030E947406C6
:1008400085FDF4CF80E0DF91CF911F910895CF9285
:10085000DF92EF92FF920F931F93CF93DF93CDB769
:10086000DEB72A970FB6F894DEBF0FBECDBF62EB9E
:1008700073E08DE090E00E9440038091B8038F5FA9
:100880008093B80380E090E00E94CE03E82FF0E070
:10089000EE0FFF1FE85FFE4FD0808091B203909172
:1008A000B3039A8389838091B8038B838091B603C5
:1008B0008C83DD82E090B003F090B103FF82EE8282
:1008C0000091AE031091AF03198708878CE693E07F
:1008D0000E947A078091B2039091B3030E943C0773
:1008E0008091B8030E9470088091B6030E9470083E
:1008F0008D2D0E947008C7010E943C07C8010E940C
:100900003C078CE693E00E947A076091B80384E08C
:1009100090E00E94D0108AE893E00E94D20684E022
:1009200090E00E94C8100E9470080091AC031091E2
:10093000AD03CE0101967C01680199E0C90ED11C7E
:10094000F70161917F01C8016A870E94C8106A851A
:10095000681719F0C8010E94D0100F5F1F4F0C15C7
:100960001D0571F78091AC039091AD039C012E5E43
:100970003F4F2115344030F409969093AD03809396
:10098000AC0304C01092AD031092AC036CEA73E0A8
:100990008AE090E00E9454038091B2039091B303E7
:1009A00001969093B3038093B20362EB73E08DE002
:1009B00090E02A960FB6F894DEBF0FBECDBFDF9150
:1009C000CF911F910F91FF90EF90DF90CF900C94FB
:1009D000540382E090E00E94CE03811105C068E2DA
:1009E00070E080E090E004C068EC70E080E090E0AF
:1009F0000C94C50961E080E10E94AC0887E00E9488
:100A000083080197D9F760E080E10C94AC0861E0BD
:100A100080E10E94AC0887E00E948308892BD9F707
:100A200060E080E10C94AC0860E070E083E00C943E
:100A3000660983E28093B00089E08093B10080EE84
:100A40008093B3008FE68093B4006FEF70E083E093
:100A50000E9466096FE070E080E090E00E94C509A6
:100A60006DE770E083E00C9466098091B7038823FA
:100A7000F1F10E9427040E9419050E94FA0488E0FF
:100A80000E9483080197D9F70E94E9040E94140587
:100A900060E570E080E090E00E94C50987E00E9478
:100AA000880361E070E080E090E00E94C50960E0AA
:100AB00087E00E94B0036AE070E080E090E00E946E
:100AC000C5090E94190568EC70E080E090E00E9482
:100AD000C5090E94070568EC70E080E090E00E9484
:100AE000C5090E9414051092B5031092B40308952D
:100AF00080917704E0917804F0917904F8949181E1
:100B0000982B91832281982F909529232283A2E00C
:100B1000B0E01197F1F7218192239183A0E1B0E039
:100B20001197F1F790817894E6E6F0E03197F1F7CC
:100B3000982381E009F480E008950F931F93CF93E9
:100B4000DF9308E010E0D1E0C0E00E947805811159
:100B5000CD2BDD0F01501109C1F78C2FDF91CF9103
:100B60001F910F910895009769F0FC0101900020FA
:100B7000E9F73197AF01481B590BBC018AED93E0AF
:100B80000C948D0080E090E00895CF92DF92EF9278
:100B9000FF920F931F93CF93DF931F92CDB7DEB7D2
:100BA00020918404211108C0092FF82E87E794E0D2
:100BB0000E94E902811108C01092820410928404FC
:100BC0001092830480E06AC040E060EF87E794E021
:100BD0000E94A702CC24C39410E0E12CDD24D3941E
:100BE0000E94780589830E9478056981613019F433
:100BF0008130C9F437C0212F30E068131EC08091C6
:100C00008204D81638F4F901E958FB4F83818C210E
:100C100051F402C0D81639F060E088E08D1560F01C
:100C2000D092830409C0E12FF0E0E958FB4F8381A3
:100C30008C29838361E009C0ED2CF901E958FB4F51
:100C400083812C2D20952823238387E794E00E941D
:100C50007802D394CC0C19F41F5FCC24C3941830C1
:100C600008F4BECF80E48D1508F0A6CFE092820490
:100C7000E11003C081E08093840480917A0488238A
:100C800009F49ACFAAE7B4E0EF2DF02FCF01089630
:100C90002D912193E817F907D9F781E00F90DF91A3
:100CA000CF911F910F91FF90EF90DF90CF9008951B
:100CB0000F931F93CF93DF938C0140E065E587E7A7
:100CC00094E00E94A702E801085F1F4F699140E08D
:100CD00087E794E00E94A702C017D107B9F7DF9118
:100CE000CF911F910F910895CF93DF93EC0187E788
:100CF00094E00E94E902CE010E94580641E065EFAF
:100D000087E794E00E94A702DF91CF910C949D05A4
:100D1000CF93C82F41E06AE587E794E00E94A702DD
:100D200041E06C2F87E794E00E94A7026C2F60954A
:100D300041E087E794E00E94A7020E949D058A3A5D
:100D400031F40E949D058C1302C081E001C080E057
:100D5000CF910895EAEDF3E0A089B18982E08C9308
:100D6000A485B5851C92A685B78587E68C93108EE1
:100D7000A489B58986E08C93A289B3898C9180611E
:100D80008C93A289B3898C9188608C93A289B38952
:100D90008C9180688C930288F389E02D80818F7D0F
:100DA000808308950C94B3058F929F92AF92BF9267
:100DB0000F931F93CF93DF93CDB7DEB7A1970FB6F5
:100DC000F894DEBF0FBECDBF19A2423008F44AE04E
:100DD0008E010F5D1F4F842E912CA12CB12CA501EB
:100DE00094010E94DE10E62FB901CA0101501109D9
:100DF000EA3014F4E05D01C0E95CD801EC93232BE8
:100E0000242B252B61F7C8010E94B305A1960FB6CC
:100E1000F894DEBF0FBECDBFDF91CF911F910F9130
:100E2000BF90AF909F908F900895CF92DF92EF92F6
:100E3000FF92CF93DF936B017C01E091DA03F09195
:100E4000DB030190F081E02D6DE28AED93E00995DE
:100E5000EC0166277727CB016C197D098E099F0964
:100E60004AE00E94D4068C0F9D1FDF91CF91FF9026
:100E7000EF90DF90CF900895CF93DF93BC01990F4F
:100E8000880B990B97FF03C00E94150703C04AE027
:100E90000E94D406EC018AE993E00E94B3058C0F0E
:100EA0009D1FDF91CF91089580E090E00E94CE03D6
:100EB000E82FF0E0EE0FFF1FE85FFE4F8081918189
:100EC00018161906B4F40E94140580E090E00E9400
:100ED000CE03E82FF0E0EE0FFF1FE85FFE4F6081CA
:100EE0007181072E000C880B990B0E94C5090C9488
:100EF00019050895CF93DF930E94B305EC018AE9A9
:100F000093E00E94B3058C0F9D1FDF91CF91089550
:100F10002F923F924F925F926F927F928F929F9209
:100F2000AF92BF92CF92DF92EF92FF920F931F93F7
:100F3000CF93DF9300D000D01F92CDB7DEB78C01E6
:100F400061E086E00E942A090E94FF09812C912C11
:100F50005401212C312C9B01AC012C53364F4F4FA7
:100F60005F4F29833A834B835C832801110F660806
:100F700077080E94FF0929813A814B815C816217C1
:100F800073078407950720F50E94FF096B017C0118
:100F9000DC01CB0188199909AA09BB0984159505BB
:100FA000A605B70530F3910141E02427622F617057
:100FB000190151E0252233248DE993E06D830E94CD
:100FC0007A076D8186E00E94B00346015701D1CFB8
:100FD00061E086E00E942A0986E00E9499010F9054
:100FE0000F900F900F900F90DF91CF911F910F9165
:100FF000FF90EF90DF90CF90BF90AF909F908F9039
:101000007F906F905F904F903F902F900895AF9298
:10101000BF92CF92DF92EF92FF921F93CF93DF9315
:10102000CDB7DEB728970FB6F894DEBF0FBECDBFA1
:1010300010E0CE0101960E94C505882349F0898100
:101040008932B9F784EA93E00E947A071F5FF1CFF3
:10105000109282041092840410928304E2E8F4E077
:10106000129284E0EA37F807D9F76AEF70E080E07F
:1010700090E00E94C509A12EB12CC50123E0880F84
:10108000991F2A95E1F70E9406119093D903809346
:10109000D803C12CD12CE12CF12CEA14FB047CF4F4
:1010A0008091D8039091D9038C0D9D1D0E94C50598
:1010B0008FEFE81AF80A88E0C80ED11CEECF812F16
:1010C00028960FB6F894DEBF0FBECDBFDF91CF914B
:1010D0001F91FF90EF90DF90CF90BF90AF90089559
:1010E000CF93DF93682F70E080E090E04AE00E94A9
:1010F000D406EC018AE993E00E94B3058C0F9D1F92
:10110000DF91CF910895CF93DF93282F30E0F9013D
:10111000ED58FF4F8491F901EB55FF4FD491F90140
:10112000EF56FF4FC491CC2391F081110E94010929
:10113000EC2FF0E0EE0FFF1FE957FF4FA591B491A0
:10114000EC91ED2381E090E021F480E002C080E0AA
:1011500090E0DF91CF9108951F93CF93DF93282FD5
:1011600030E0F901ED58FF4F8491F901EB55FF4F45
:10117000D491F901EF56FF4FC491CC23C9F0162F3B
:1011800081110E940109EC2FF0E0EE0FFF1FE759DB
:10119000FF4FA591B4918FB7F894111105C09C91A0
:1011A000ED2FE095E92302C0EC91ED2BEC938FBF7E
:1011B000DF91CF911F9108953FB7F89480918A04F1
:1011C00090918B04A0918C04B0918D0426B5A89BBE
:1011D00005C02F3F19F00196A11DB11D3FBFBA2FC9
:1011E000A92F982F8827820F911DA11DB11DBC0129
:1011F000CD0143E0660F771F881F991F4A95D1F7ED
:101200000895833081F028F4813099F08230A1F084
:1012100008958730A9F08830B9F08430D1F48091F6
:1012200080008F7D03C0809180008F778093800045
:10123000089584B58F7702C084B58F7D84BD0895ED
:101240008091B0008F7703C08091B0008F7D809334
:10125000B0000895CF93DF9390E0FC01EB55FF4F72
:101260002491FC01EF56FF4F8491882361F190E0B7
:10127000880F991FFC01E754FF4FC591D491FC01E1
:10128000E759FF4FA591B491611109C09FB7F89438
:101290008881209582238883EC912E230BC06230B5
:1012A00061F49FB7F8943881822F809583238883D7
:1012B000EC912E2B2C939FBF06C08FB7F894E8813A
:1012C0002E2B28838FBFDF91CF9108951F93CF934B
:1012D000DF93182FEB0161E00E942A09209711F497
:1012E00060E004C0CF3FD10539F461E0812FDF9188
:1012F000CF911F910C94AC08E12FF0E0ED58FF4F17
:10130000E491E330F9F048F4E130B9F0E230A1F5CE
:1013100084B5806284BDC8BD34C0E730E9F0E830F0
:1013200019F1E43049F5809180008062809380005B
:10133000D0938B00C0938A0024C084B5806884BD9C
:10134000C7BD1FC080918000806880938000D093CB
:101350008900C093880015C08091B0008068809398
:10136000B000C093B3000DC08091B0008062809344
:10137000B000C093B40005C0C038D1050CF0B5CFA3
:10138000AFCFDF91CF911F9108958F929F92AF922F
:10139000BF92CF92DF92EF92FF926B017C010E948D
:1013A000DC084B015C01C114D104E104F104F1F04B
:1013B0000E94DC08DC01CB0188199909AA09BB0944
:1013C000883E9340A105B10570F321E0C21AD1080F
:1013D000E108F10888EE880E83E0981EA11CB11C7C
:1013E000C114D104E104F10419F7DDCFFF90EF90AF
:1013F000DF90CF90BF90AF909F908F9008952FB7C0
:10140000F89460918604709187048091880490918B
:1014100089042FBF08951F920F920FB60F921124C7
:101420002F933F938F939F93AF93BF9380918604A5
:1014300090918704A0918804B0918904309185042B
:1014400026E0230F2D3720F40296A11DB11D05C003
:1014500029E8230F0396A11DB11D209385048093D5
:10146000860490938704A0938804B09389048091A4
:101470008A0490918B04A0918C04B0918D04019604
:10148000A11DB11D80938A0490938B04A0938C04BA
:10149000B0938D04BF91AF919F918F913F912F9108
:1014A0000F900FBE0F901F901895CF93DF93CDB77D
:1014B000DEB72B970FB6F894DEBF0FBECDBF789482
:1014C00084B5826084BD84B5816084BD85B5826049
:1014D00085BD85B5816085BD80916E0081608093FA
:1014E0006E00109281008091810082608093810063
:1014F0008091810081608093810080918000816073
:10150000809380008091B10084608093B1008091CD
:10151000B00081608093B00080917A0084608093F5
:101520007A0080917A00826080937A0080917A00BC
:101530008E7F80937A0080917A00806880937A0011
:101540001092C10061E083E00E942A0961E08BE013
:101550000E942A0962E08CE00E942A0962E082E08F
:101560000E942A0962E088E00E942A0962E087E07E
:101570000E942A0960E08FE00E942A0960E08EE064
:101580000E942A0961E084E00E942A0960E084E068
:101590000E94AC080E94AA0661E080E10E942A092C
:1015A00060E080E10E94AC0860E070E083E00E94AF
:1015B000660960E070E08BE00E9466090E940708FF
:1015C0008093C60387E794E00E94E90240E066E961
:1015D00087E794E00E94A70200E010E0E091D803C2
:1015E000F091D903E00FF11F40E0608187E794E0BC
:1015F0000E94A7020F5F1F4F0830110579F740E0E6
:101600006CE387E794E00E94A70287E794E00E94DA
:10161000E90280E090E00E94C810182F81E090E07D
:101620000E94C810133511F4883509F163E580E094
:1016300090E00E94AE0368E581E090E00E94AE0376
:1016400085E690E09B878A87BE01665F7F4F8AE0D0
:1016500090E00E94540381E090E09A838983BE0168
:101660006F5F7F4F8DE090E00E94540319C081E0CE
:1016700090E00E94CE03813039F482E090E00E9435
:10168000CE03813009F46FC06CEA73E08AE090E029
:101690000E94400362EB73E08DE090E00E94400303
:1016A0008FE00E948308892BA1F48EE00E948308BA
:1016B000892B79F484E090E00E94C81008E010E0E3
:1016C000081B1109101611060CF46EC086E00E946A
:1016D000880387E00E948308892B09F082C088E094
:1016E0000E948308892B09F07CC00E94AA0653E25D
:1016F000E52E69E0B62E70EEA72EEFE69E2EFF24B3
:10170000F3948091C603811111C00E940708809351
:10171000C60386E00E94880368EC70E080E090E0F9
:101720000E94C50960E086E00E94B0038FE00E943D
:101730008308019731F48EE00E948308892B09F415
:1017400053C08FE00E948308892B09F068C08EE0A7
:101750000E948308019709F062C01091B803183005
:1017600008F069C05CC063E580E090E00E94AE03D1
:1017700068E581E090E00E94AE0385E690E09B87FB
:101780008A87BE01665F7F4F8AE090E00E94540323
:1017900081E090E09A838983BE016F5F7F4F8DE087
:1017A00090E00E94540370CFEE24E394F12C68EC97
:1017B00070E080E090E00E94C50986E00E94880306
:1017C00068EC70E080E090E00E94C50960E086E08F
:1017D0000E94B0032FEFE21AF20A0E151F053CF724
:1017E00078CF0E94070581CF1092B80360E084E0B3
:1017F00090E00E94AE0360E086E00E94B00386E0C5
:101800000E9488030E9419050E94FA040E9407059D
:101810000E94140560E086E00E94B00392CF8FE042
:101820000E948308892BD9F48EE00E948308892BBB
:1018300009F497C114C086E00E9488038CE00E94DE
:101840008308892B39F482E090E00E94CE0388233C
:1018500009F4C9C08CE00E948308892B19F00E940A
:101860008D014FCF82E090E00E94CE038130B9F726
:101870008091B2039091B3039A8389838091B803D6
:101880008B838091B6038C831D821F821E821986F2
:1018900018866CEA73E08AE090E00E9440030E94A0
:1018A000AA0688E293E00E947A0780910001C09026
:1018B000AC03D090AD0398E4899FC018D1081124DF
:1018C00000E010E0BE016F5F7F4F38016C0C7D1CA3
:1018D000C3010E941A03B301770C880B990B97FF81
:1018E00003C00E94150703C04AE00E94D4068CE39F
:1018F00092E00E94D2066091000170E080E090E0EA
:101900004AE00E94D4068CE392E00E94D2066B81EA
:1019100070E080E090E04AE00E94D4068CE392E020
:101920000E94D20669817A81072E000C880B990BE0
:1019300097FF03C00E94150703C04AE00E94D40627
:101940008CE392E00E94D2066C8170E080E090E02F
:101950004AE00E94D4068C81811104C08AE292E0A0
:101960000E94D2068C81813021F483E392E00E94B0
:10197000D2068C81823021F48EE392E00E94D2065E
:101980008C81843021F481E592E00E94D2068C8122
:10199000863021F483E692E00E94D2068C81873063
:1019A00021F48EE692E00E94D2068C81883021F4E8
:1019B00085E792E00E94D2066D8170E080E090E0C1
:1019C0004AE00E94D4068CE392E00E94D206075FB0
:1019D0001F4F0834110509F075CF809100018F5F0A
:1019E000809300013CCF8091B2039091B3039A831E
:1019F00089831B831C821D821F821E821986188682
:101A0000BE016F5F7F4F8091AC039091AD030E9448
:101A10001A036CEA73E08AE090E00E944003C090F1
:101A2000AC03D090AD0386010854110980EB92E01D
:101A30000E947A078EEE92E00E94D2068091AC035B
:101A40009091AD030E943C078EE093E00E94D20685
:101A5000C8010E943C07BE016F5F7F4FC8010E9412
:101A60001A038AE391E00E947A0782E791E00E94DC
:101A7000D206C8010E943C078EE991E00E94D2067E
:101A800089819A810E943C0787E991E00E94D206F1
:101A90008B810E94700889EA91E00E94D2068C81B5
:101AA0000E94700885EB91E00E94D2068C81811122
:101AB00004C08DEB91E00E947A078C81813021F483
:101AC00084EC91E00E947A078C81823021F48DECC5
:101AD00091E00E947A078C81843021F48EED91E0B0
:101AE0000E947A078C81853021F48EEE91E00E946D
:101AF0007A078C81863021F48BEF91E00E947A077F
:101B00008C81873021F484E092E00E947A078C81F6
:101B1000883021F489E092E00E947A078BE092E01D
:101B20000E94D2068D810E9470088BE192E00E9493
:101B3000D2068E819F810E943C0782E292E00E9441
:101B4000D206888599850E943C07075F1F4F0C15B8
:101B50001D0509F080CF809100018F5F8093000107
:101B600079CE84E090E00E94C8108093B803109270
:101B7000B7038CE00E948308892B09F06BC080E0DA
:101B800090E00E94CE03E82FF0E0EE0FFF1FE85F29
:101B9000FE4F808191818F399F4F09F05BC087E0B4
:101BA0008093B6030E9427040E9419050E94FA043C
:101BB00088E00E9483080197D9F768E270E080E02E
:101BC00090E00E94C50982E090E00E94CE0381303F
:101BD00029F46FEF70E08BE00E9466090E94140503
:101BE00082E090E00E94CE03813029F462E870E048
:101BF0008BE00E9466098CE00E948308892BD9F350
:101C000082E090E00E94CE03813091F487E00E9450
:101C1000880361E070E080E090E00E94C50960E028
:101C200070E08BE00E94660960E087E00E94B003EC
:101C30000E94190568EC70E080E090E00E94C50900
:101C40000E94070568EC70E080E090E00E94C50902
:101C50000E9414058CE00E948308892B09F041C082
:101C600080E090E00E94CE03E82FF0E0EE0FFF1F2F
:101C7000E85FFE4F808191818E399F4F91F588E01A
:101C80008093B6030E9427040E9419050E94FA045B
:101C900088E00E9483080197D9F768E270E080E04D
:101CA00090E00E94C5090E9414058CE00E94830800
:101CB0000197D9F38CE00E948308892B11F40E94CC
:101CC000190568EC70E080E090E00E94C5090E9470
:101CD000070568EC70E080E090E00E94C5090E9472
:101CE000140562E08CE00E942A098CE00E948308BF
:101CF0002091C103892B79F4211122C00E94FF0990
:101D00006093B9037093BA038093BB039093BC03B1
:101D1000F092C10315C0222399F00E94FF0960933D
:101D2000BD037093BE038093BF039093C0032091C3
:101D3000B9033091BA03621B730B1092C10302C046
:101D400060E070E01092B603CB01875491098539A9
:101D50009540C8F06D3D7540C4F00E94FF0989E7C9
:101D600092E00E947A0788EE93E00E94880788E557
:101D700092E00E94880788EC90E00E94880780E546
:101D800090E00E948807F092B70380E090E00E9404
:101D9000CE03843608F0EDC080E090E00E94CE03D0
:101DA000E82FF0E0EE0FFF1FE85FFE4F808191818A
:101DB0008C399F4F09F053C08091B703882309F4F1
:101DC0004ECD0E942704E092B000B092B100A092E4
:101DD000B3009092B4006FEF70E08BE00E94660950
:101DE0000E9419050E94FA0488E00E948308019766
:101DF000D9F762E870E08BE00E9466090E94E9046E
:101E00000E94140560E570E080E090E00E94C50942
:101E100087E00E94880361E070E080E090E00E942B
:101E2000C50960E070E08BE00E94660960E087E031
:101E30000E94B0036AE070E080E090E00E94C50973
:101E40000E94190568EC70E080E090E00E94C509EE
:101E50000E94070568EC70E080E090E081C080E0BF
:101E600090E00E94CE03E82FF0E0EE0FFF1FE85F46
:101E7000FE4F808191818D399F4F19F40E94350565
:101E8000EECC0E94FF090091C2031091C303209180
:101E9000C4033091C503DC01CB01801B910BA20B65
:101EA000B30B803E23E9920724E0A207B105E0F0DE
:101EB0008091B4039091B50318161906D4F40E94CA
:101EC00027041092B5031092B4030E94070562E341
:101ED00070E080E090E00E94C5090E94140560E077
:101EE00086E00E94B0030FC080369A4EA105B1056E
:101EF00050F08091B4039091B503181619061CF4A4
:101F000086E00E9488038091B703882309F4A7CC58
:101F100081E090E00E94CE03811169C08091B403FA
:101F20009091B503892B09F062C00E9427040E949A
:101F3000190564E670E080E090E00E94C5090E9407
:101F4000FA0488E00E9483080197D9F70E94E90407
:101F50000E9454070E94070562E370E080E090E071
:101F60000E94C5090E9414051092B5031092B40393
:101F700076CC80E090E00E94CE03843609F47ECFD8
:101F800080E090E00E94CE03883C09F58091B70381
:101F9000882309F464CC0E9427040E94190564E692
:101FA00070E080E090E00E94C5090E94FA0488E099
:101FB0000E9483080197D9F768E270E080E090E022
:101FC0000E94C5090E9414050E9419053AC080E0CC
:101FD00090E00E94CE03682F70E080E090E04AE03D
:101FE0000E94D4068CE892E00E947A0738CC81E007
:101FF00090E00E94CE03813031F48091B40390913F
:10200000B503892BD9F181E090E00E94CE038130A5
:1020100019F181E090E00E94CE03811120CC8091E3
:10202000B4039091B503181619060CF018CC0E9451
:1020300027041092B5031092B40360E086E00E947A
:10204000B0030E94070562E370E080E090E00E9428
:10205000C5090E94140503CC0091B4031091B50387
:1020600010161106B4F60E94540764EF71E080E088
:1020700090E00E94C5090F5F1F4F1EC00E94FF091C
:102080006093C2037093C3038093C4039093C5030A
:102090000E9419050E94FA0488E00E9483088C01BE
:1020A0000197D1F70E94E9040E94540764EF71E0A0
:1020B00080E090E00E94C5091093B5030093B4033B
:1020C000CECB1092DD031092DC0388EE93E0A0E00B
:1020D000B0E08093DE039093DF03A093E003B0931E
:1020E000E1038CE291E09093DB038093DA0385ECCB
:1020F00090E09093E7038093E60384EC90E0909364
:10210000E9038093E80380EC90E09093EB038093E5
:10211000EA0381EC90E09093ED038093EC0382EC72
:1021200090E09093EF038093EE0386EC90E0909321
:10213000F1038093F0031092F3031092F4031092D2
:10214000F5031092F60360E082E00E942A09E7EAB4
:10215000F0E0E491E0937704E3E9F0E0E491F0E06B
:10216000EE0FFF1FE957FF4F8591949190937904EB
:102170008093780410928204109284041092830455
:10218000E2E8F4E0129284E0EA37F807D9F708951C
:10219000F999FECF92BD81BDF89A992780B508952F
:1021A000262FF999FECF1FBA92BD81BD20BD0FB673
:1021B000F894FA9AF99A0FBE01960895A1E21A2EA0
:1021C000AA1BBB1BFD010DC0AA1FBB1FEE1FFF1FDB
:1021D000A217B307E407F50720F0A21BB30BE40B2B
:1021E000F50B661F771F881F991F1A9469F7609572
:1021F0007095809590959B01AC01BD01CF0108952C
:10220000EE0FFF1F0590F491E02D0994CF93DF931B
:102210008230910510F482E090E0E0919004F0911A
:10222000910420E030E0C0E0D0E0309711F140812F
:10223000518148175907C0F04817590761F4828146
:102240009381209719F09B838A832BC090939104EC
:102250008093900426C02115310519F042175307C9
:1022600018F49A01BE01DF01EF010280F381E02D35
:10227000DCCF2115310509F1281B390B243031053C
:1022800090F412968D919C9113976115710521F030
:10229000FB019383828304C0909391048093900404
:1022A000FD01329644C0FD01E20FF31F819391932B
:1022B000225031092D933C933AC020918E043091E5
:1022C0008F04232B41F420910401309105013093B8
:1022D0008F0420938E042091020130910301211577
:1022E000310541F42DB73EB74091060150910701E9
:1022F000241B350BE0918E04F0918F04E217F30755
:10230000A0F42E1B3F0B2817390778F0AC014E5F65
:102310005F4F2417350748F04E0F5F1F50938F040F
:1023200040938E048193919302C0E0E0F0E0CF01EE
:10233000DF91CF9108950F931F93CF93DF93009771
:1023400009F48CC0FC013297138212820091900430
:10235000109191040115110581F420813181820FC2
:10236000931F20918E0430918F042817390779F537
:10237000F0938F04E0938E0471C0D80140E050E0E8
:10238000AE17BF0750F412962D913C911397AD01F3
:102390002115310509F1D901F3CF9D01DA0133830C
:1023A000228360817181860F971F8217930769F4DA
:1023B000EC0128813981260F371F2E5F3F4F318373
:1023C00020838A819B8193838283452B29F4F09318
:1023D0009104E093900442C01396FC93EE931297FD
:1023E000ED01499159919E01240F351FE217F30722
:1023F00071F480819181840F951F029611969C93B0
:102400008E938281938113969C938E931297E0E032
:10241000F0E0D80112968D919C911397009719F0D6
:10242000F8018C01F6CF8D919C9198012E5F3F4F62
:10243000820F931F20918E0430918F042817390743
:1024400069F4309729F4109291041092900402C01C
:102450001382128210938F0400938E04DF91CF9128
:102460001F910F91089581E090E0F8940C94381238
:04247000F894FFCF0E
:1024740001FF00009204800009000B000D000E0013
:102484001200190020002D0035005A0096002C017E
:102494009CFF9DFF9EFF9FFF0000000024018D0014
:1024A400BC006B01ED00CB00DF003D3D3D3D3D3DFB
:1024B4003D3D3D3D3D3D3D3D3D3D3D3D3D3D3D3D48
:1024C4003D3D3D3D3D3D3D3D3D3D3D3D3D3D3D3D38
:1024D4003D3D3D3D3D3D3D3D3D3D3D3D3D3D3D3D28
:1024E4003D0065654164647265737320726561645F
:1024F4002028746869735265636F726441646472FE
:10250400657373293A200043757272656E742050A6
:102514006963747572653A2000205479706520727D
:1025240061773A200020547970653A20004D414E7D
:1025340055414C004155544F2031303000464C41F8
:10254400534820444F4E474C454C45535300464C4A
:1025540041534820463820444F4E474C4500464C92
:1025640041534820444F4E474C45004155544F2059
:102574003630300042554C42005400205368757484
:1025840074657253706565643A2000204C4F573A65
:10259400200020484947483A20002C4D414E5541DF
:1025A4004C2C002C4155544F203130302C002C46FB
:1025B4004C41534820444F4E474C454C4553532CB3
:1025C400002C464C41534820463820444F4E474C3B
:1025D400452C002C4155544F203630302C002C42D1
:1025E400554C422C002C542C005354415254203549
:1025F40030302C323630302C352C30003A2020202C
:10260400444F4E54204B4E4F572C2053484F554C5B
:1026140044204E4F54204245204845524521200035
:102624003D3D3D3D3D3D3D3D3D3D3D3D3D3D3D3DD6
:102634003D3D3D3D3D3D3D20456E746572696E678F
:10264400206C6F6F70203D3D3D3D3D3D3D3D3D3D2A
:102654003D3D3D3D3D3D3D3D3D3D3D3D3D00494EC6
:10266400495449414C206565416464726573732023
:102674006265666F7265206C6F6F703A20005265F8
:10268400616441646472657373206265666F726528
:10269400206C6F6F703A20006565416464726573E5
:1026A400732C5061636B2C5061636B206F72646593
:1026B400722C506963747572652C5479706520525C
:1026C40061772C20547970652C2053687574746577
:1026D4007253706565642C204C7578002A2A2A2A66
:1026E4002A2A2A2A2A2A2A2A2A2A2A2A2A2A2A2A46
:1026F4002A2A2A2A2A2A2A2A2A00506963747572E5
:10270400652074616B656E3A20000D0A00545950BF
:0C27140045203200436F756E74212100D7
:107800000C94343C0C94513C0C94513C0C94513CE1
:107810000C94513C0C94513C0C94513C0C94513CB4
:107820000C94513C0C94513C0C94513C0C94513CA4
:107830000C94513C0C94513C0C94513C0C94513C94
:107840000C94513C0C94513C0C94513C0C94513C84
:107850000C94513C0C94513C0C94513C0C94513C74
:107860000C94513C0C94513C11241FBECFEFD8E036
:10787000DEBFCDBF11E0A0E0B1E0EAE8FFE702C063
:1078800005900D92A230B107D9F712E0A2E0B1E065
:1078900001C01D92AD30B107E1F70E942D3D0C945F
:1078A000C33F0C94003C982F95959595959595958B
:1078B000905D8F708A307CF0282F295A8091C0000B
:1078C00085FFFCCF9093C6008091C00085FFFCCF60
:1078D0002093C6000895282F205DF0CF982F809127
:1078E000C00085FFFCCF9093C6000895EF92FF92F1
:1078F0000F931F93EE24FF2487018091C00087FD22
:1079000017C00894E11CF11C011D111D81E2E8164D
:1079100081EAF80687E0080780E0180770F3E09135
:107920000401F091050109958091C00087FFE9CF1E
:107930008091C6001F910F91FF90EF9008950E94D3
:10794000763C982F8091C00085FFFCCF9093C600B5
:1079500091362CF490330CF09053892F089597555D
:10796000892F08951F930E949F3C182F0E949F3CCF
:107970001295107F810F1F9108951F93182F882350
:1079800021F00E94763C1150E1F71F9108951F935A
:10799000182F0E94763C803249F0809103018F5F5E
:1079A000809303018530C1F01F9108958091C0003C
:1079B00085FFFCCF84E18093C6008091C00085FFE5
:1079C000FCCF1093C6008091C00085FFFCCF80E102
:1079D0008093C6001F910895E0910401F091050184
:1079E00009951F9108950E94763C803241F0809164
:1079F00003018F5F80930301853081F008958091AA
:107A0000C00085FFFCCF84E18093C6008091C00058
:107A100085FFFCCF80E18093C6000895E0910401CA
:107A2000F09105010995089548EC50E08823A1F0F4
:107A30002D9A28EE33E0FA013197F1F721503040CA
:107A4000D1F72D9828EE33E0FA013197F1F7215064
:107A50003040D1F7815061F708953F924F925F9285
:107A60006F927F928F929F92AF92BF92CF92DF924E
:107A7000EF92FF920F931F93CF93DF93000082E06A
:107A80008093C00080E18093C4001092C50088E11B
:107A90008093C10086E08093C2005098589A259A3E
:107AA00081E00E94143D24E1F22E9EE1E92E85E959
:107AB000D82E0FE0C02E10E1B12EAA24A394B1E479
:107AC0009B2EA6E58A2EF2E57F2EE0E26E2E79E46B
:107AD000572E63E5462E50E5352E0E94763C8033C6
:107AE000B1F18133B9F1803409F46FC0813409F404
:107AF00076C0823409F485C0853409F488C08035A5
:107B000031F1823521F1813511F1853509F485C0D6
:107B1000863509F48DC0843609F496C0843709F49B
:107B200003C1853709F472C1863709F466C08091B4
:107B300003018F5F80930301853079F6E0910401A2
:107B4000F091050109950E94763C803351F60E9420
:107B5000F33CC3CF0E94763C803249F78091C0004D
:107B600085FFFCCFF092C6008091C00085FFFCCF5E
:107B70009092C6008091C00085FFFCCF8092C60025
:107B80008091C00085FFFCCF7092C6008091C0003C
:107B900085FFFCCF6092C6008091C00085FFFCCFBE
:107BA0005092C6008091C00085FFFCCF4092C60075
:107BB0008091C00085FFFCCF3092C6008091C0004C
:107BC00085FFFCCFB092C60088CF0E94763C8638F5
:107BD00008F4BDCF0E94763C0E94F33C7ECF0E9409
:107BE000763C803809F49CC0813809F40BC1823896
:107BF00009F430C1883909F48FC080E00E94C73C85
:107C00006CCF84E10E94BD3C0E94F33C66CF85E0CE
:107C10000E94BD3C0E94F33C60CF0E94763C809362
:107C200006010E94763C809307010E94F33C55CFE9
:107C30000E94763C803309F411C183E00E94BD3C70
:107C400080E00E94C73C49CF0E94763C80930902A5
:107C50000E94763C8093080280910C028E7F809374
:107C60000C020E94763C853409F409C18091080217
:107C700090910902892B89F000E010E00E94763C87
:107C8000F801E85FFE4F80830F5F1F4F809108026D
:107C9000909109020817190788F30E94763C8032F8
:107CA00009F045CF80910C0280FFF5C0609106017C
:107CB00070910701660F771F7093070160930601AB
:107CC000A0910802B09109021097C9F0E8E0F1E034
:107CD0009B01AD014E0F5F1FF999FECF32BD21BD53
:107CE000819180BDFA9AF99A2F5F3F4FE417F5070B
:107CF00099F76A0F7B1F70930701609306018091CB
:107D0000C00085FFFCCFF092C6008091C00085FFC7
:107D1000FCCFB092C600E1CE83E00E94C73CDDCE2E
:107D200082E00E94C73CD9CE0E94763C8093090233
:107D30000E94763C80930802809106019091070191
:107D4000880F991F90930701809306010E94763C4B
:107D5000853409F49AC080910C028E7F80930C02C6
:107D60000E94763C803209F0B8CE8091C00085FF39
:107D7000FCCFF092C600A0910802B09109021097C2
:107D8000C1F180910C02082F0170182F1695117007
:107D9000E0910601F0910701AF014F5F5F4FBA011B
:107DA00020E030E00023B1F4112339F49491809164
:107DB000C00085FFFCCF9093C6002F5F3F4FCB01E3
:107DC0000196FA012A173B0780F4BC014F5F5F4F11
:107DD000002351F3F999FECFF2BDE1BDF89A90B5B9
:107DE0008091C00085FFFCCFE6CF709307016093C0
:107DF00006018091C00085FDE5CE8091C00085FF21
:107E0000F8CFE0CE81E00E94C73C67CE0E94763C6E
:107E1000803209F08CCE8091C00085FFFCCFF092BB
:107E2000C6008091C00085FFFCCFE092C600809123
:107E3000C00085FFFCCFD092C6008091C00085FFB6
:107E4000FCCFC092C6008091C00085FFFCCFB092ED
:107E5000C60043CE80E10E94C73C3FCE0E94763CE4
:107E60000E94763C182F0E94763C112309F483C0AF
:107E7000113009F484C08FE00E94C73C2ECE80915F
:107E80000C02816080930C02F1CE80910C02816023
:107E900080930C0265CF809107018823880F880B9F
:107EA0008A2180930B028091060190910701880F2F
:107EB000991F90930701809306018091080280FF2B
:107EC00009C08091080290910902019690930902DD
:107ED00080930802F894F999FECF1127E0910601EA
:107EE000F0910701C8E0D1E0809108029091090269
:107EF000103091F40091570001700130D9F303E084
:107F000000935700E8950091570001700130D9F3B4
:107F100001E100935700E8950990199000915700EE
:107F200001700130D9F301E000935700E8951395F3
:107F3000103498F011270091570001700130D9F3E7
:107F400005E000935700E89500915700017001305B
:107F5000D9F301E100935700E8953296029709F0B2
:107F6000C7CF103011F00296E5CF11248091C000E8
:107F700085FFC5CEC8CE8EE10E94C73CAECD85E957
:0A7F80000E94C73CAACDF894FFCF81
:027F8A00800075
:040000030000780081
:00000001FF
