:100000000C9463000C948B000C948B000C948B006C
:100010000C948B000C948B000C948B000C949C091A
:100020000C948B000C948B000C948B000C94B506F4
:100030000C948B000C94C6040C948B000C948B00D5
:100040000C9452030C948B000C94E7010C94C101A6
:100050000C948B000C948B000C948B000C948B00F4
:100060000C948B000C948B000000000024002700EF
:100070002A0000000000250028002B0000000008D6
:10008000000201000003040700000000000000005F
:1000900000000000230026002900040404040404D6
:1000A0000404020202020202030303030303010227
:1000B00004081020408001020408102001020408F6
:1000C000102002004E1111241FBECFEFD8E0DEBF7A
:1000D000CDBF14E0A0E0B1E0E4EFF3E202C0059090
:1000E0000D92A437B107D9F725E0A4E7B4E001C029
:1000F0001D92A835B207E1F710E0C3E6D0E004C0D6
:100100002197FE010E94ED11C236D107C9F70E9466
:100110004B0A0C94F8110C940000089580E090E0D4
:100120000895FC01538D448D252F30E0842F90E0FD
:10013000821B930B541710F0CF96089501970895E2
:10014000FC01918D828D981761F0828DDF01A80FDF
:10015000B11D5D968C91928D9F5F9F73928F90E001
:1001600008958FEF9FEF0895FC01918D828D981770
:1001700031F0828DE80FF11D858D90E008958FEFAD
:100180009FEF0895FC01918D228D892F90E0805C76
:100190009F4F821B91098F739927089588EA94E0F5
:1001A0000E94C20021E0892B09F420E0822F0895EB
:1001B000FC01848DDF01A80FB11DA35ABF4F2C9104
:1001C000848D90E001968F739927848FA689B789D3
:1001D0002C93A089B1898C91837080648C93938DCA
:1001E000848D981306C00288F389E02D80818F7D6D
:1001F00080830895EF92FF920F931F93CF93DF9325
:10020000EC0181E0888F9B8D8C8D981305C0E88967
:10021000F989808185FD26C0F62E0B8D10E00F5FD9
:100220001F4F0F731127E02E8C8DE8120CC00FB6F4
:1002300007FCFACFE889F989808185FFF5CFCE01E7
:100240000E94D800F1CF8B8DFE01E80FF11DE35A1B
:10025000FF4FF0829FB7F8940B8FEA89FB8980816A
:1002600080620AC09FB7F894EE89FF896083E889AD
:10027000F98980818370806480839FBF81E090E0F2
:10028000DF91CF911F910F91FF90EF900895CF9341
:10029000DF93EC01888D8823C9F0EA89FB8980818E
:1002A00085FD05C0A889B9898C9186FD0FC00FB660
:1002B00007FCF5CF808185FFF2CFA889B9898C91A1
:1002C00085FFEDCFCE010E94D800E7CFDF91CF911F
:1002D000089580E090E0892B29F00E94CE008111E2
:1002E0000C9400000895833081F028F4813099F057
:1002F0008230A1F008958730A9F08830B9F08430B9
:10030000D1F4809180008F7D03C0809180008F7731
:1003100080938000089584B58F7702C084B58F7D67
:1003200084BD08958091B0008F7703C08091B000A4
:100330008F7D8093B00008953FB7F89480919C041E
:1003400090919D04A0919E04B0919F0426B5A89B16
:1003500005C02F3F19F00196A11DB11D3FBFBA2F57
:10036000A92F982F8827820F911DA11DB11DBC01B7
:10037000CD0143E0660F771F881F991F4A95D1F77B
:1003800008951F920F920FB60F9211242F933F934F
:100390004F935F936F937F938F939F93AF93BF938D
:1003A000EF93FF9388EA94E00E94D800FF91EF91C9
:1003B000BF91AF919F918F917F916F915F914F917D
:1003C0003F912F910F900FBE0F901F9018951F9285
:1003D0000F920FB60F9211242F938F939F93EF9349
:1003E000FF93E091B804F091B9048081E091BE04DC
:1003F000F091BF0482FD12C090818091C1048F5F93
:100400008F732091C204821751F0E091C104F0E093
:10041000E855FB4F958F8093C10401C08081FF9107
:10042000EF919F918F912F910F900FBE0F901F9082
:100430001895CF93DF93282F30E0F901E458FF4F50
:100440008491F901E255FF4FD491F901E656FF4F2F
:10045000C491CC2391F081110E947301EC2FF0E044
:10046000EE0FFF1FE057FF4FA591B491EC91ED23E4
:1004700081E090E021F480E002C080E090E0DF9134
:10048000CF9108951F93CF93DF93282F30E0F90188
:10049000E458FF4F8491F901E255FF4FD491F901DF
:1004A000E656FF4FC491CC23C1F0162F81110E9454
:1004B0007301EC2FF0E0EE0FFF1FEE58FF4FA591F8
:1004C000B4919FB7F894111104C08C91D095D823A2
:1004D00002C0EC91DE2BDC939FBFDF91CF911F9187
:1004E0000895CF93DF9390E0FC01E255FF4F2491F4
:1004F000FC01E656FF4F8491882361F190E0880F5C
:10050000991FFC01E859FF4FC591D491FC01EE58A9
:10051000FF4FA591B491611109C09FB7F8948881EC
:10052000209582238883EC912E230BC0623061F4E6
:100530009FB7F8948881322F309583238883EC917C
:100540002E2B2C939FBF06C08FB7F894E8812E2BDB
:1005500028838FBFDF91CF9108951F93CF93DF93AF
:10056000182FEB0161E00E947102209711F460E006
:1005700004C0CF3FD10539F461E0812FDF91CF91E5
:100580001F910C944202E12FF0E0E458FF4FE491F8
:10059000E330F9F048F4E130B9F0E230A1F584B588
:1005A000806284BDC8BD34C0E730E9F0E83019F19D
:1005B000E43049F580918000806280938000D09380
:1005C0008B00C0938A0024C084B5806884BDC7BDF9
:1005D0001FC080918000806880938000D093890044
:1005E000C093880015C08091B00080688093B000EF
:1005F000C093B3000DC08091B00080628093B000C2
:10060000C093B40005C0C038D1050CF0B5CFAFCF52
:10061000DF91CF911F9108958F929F92AF92BF92D9
:10062000CF92DF92EF92FF926B017C010E949C01BE
:100630004B015C01C114D104E104F104F1F00E940A
:100640009C01DC01CB0188199909AA09BB09883EE4
:100650009340A105B10570F321E0C21AD108E10869
:10066000F10888EE880E83E0981EA11CB11CC1140D
:10067000D104E104F10419F7DDCFFF90EF90DF9092
:10068000CF90BF90AF909F908F9008952FB7F89420
:10069000609198047091990480919A0490919B04C0
:1006A0002FBF08951F920F920FB60F9211242F9310
:1006B0003F938F939F93AF93BF93809198049091B2
:1006C0009904A0919A04B0919B043091970426E07C
:1006D000230F2D3720F40296A11DB11D05C029E876
:1006E000230F0396A11DB11D2093970480939804B6
:1006F00090939904A0939A04B0939B0480919C04D6
:1007000090919D04A0919E04B0919F040196A11D1B
:10071000B11D80939C0490939D04A0939E04B0937C
:100720009F04BF91AF919F918F913F912F910F9017
:100730000FBE0F901F901895FC0190810180F281EF
:10074000E02D892F809560FF12C0F89422818223CA
:1007500082838181892B8183A0E1B0E01197F1F739
:100760008281982B928378948AE690E011C0F89465
:100770002281822382838181892B8183AEE7B0E04D
:100780001197F1F78281982B9283789486E090E01C
:100790000197F1F70895DF92EF92FF920F931F9365
:1007A000CF93DF93EC01D62EE42E08E010E0FF2477
:1007B000F39461E08D2D8F2109F460E0CE010E9459
:1007C0009C03FF0C01501109A1F7E11010C0F8942F
:1007D000E981FA8191818881809589238183E981EA
:1007E000FA81928188818095892382837894DF9130
:1007F000CF911F910F91FF90EF90DF900895DC0152
:100800002C911196ED91FC911297F8948181922F81
:1008100090958923818378948DE7815009F1308107
:100820003223D9F3F8948281892382838181822BB8
:1008300081837894ACEBB3E01197F1F7F894818160
:100840009823918388E890E00197F1F7808128232D
:1008500081E009F080E07894E0E3F3E03197F1F78C
:100860000895CF92DF92EF92FF920F931F93CF9351
:10087000DF93EB017B0129E0E20EF11C8B016C019F
:10088000C61AD70AC601800F911F0E94B511F80140
:1008900081938F01EE15FF05A9F7CE01DF91CF916E
:1008A0001F910F91FF90EF90DF90CF9008950F93DD
:1008B0001F93CF93DF938C01EB010E94B5118883C6
:1008C000C80101960E94B5118983CE01DF91CF91B5
:1008D0001F910F910895AF92BF92DF92EF92FF9216
:1008E0000F931F93CF93DF93EC017B018B015C018E
:1008F00082E0A80EB11CF801D1908F01CE010E94B8
:10090000B511D81621F06D2DCE010E94BD11219692
:10091000CA15DB0581F7C701DF91CF911F910F91B8
:10092000FF90EF90DF90BF90AF900895CF93C82FC6
:100930000E94810785E495E00E94FF030E946A07F8
:1009400081E090E0A0E0B0E004C0880F991FAA1FEA
:10095000BB1FCA95D2F78095CF910C948F070C944A
:10096000BD110C94B511F8948FEF86BB10928000E6
:100970001092850010928400E1E8F0E080818460AC
:100980008083808182608083789408951F920F9283
:100990000FB60F9211242F933F934F935F936F9352
:1009A0007F938F939F93AF93BF93EF93FF9389EDC3
:1009B00093E00E944D09EFE6F0E080818E7F808316
:1009C00080818D7F8083FF91EF91BF91AF919F9147
:1009D0008F917F916F915F914F913F912F910F90E8
:1009E0000FBE0F901F901895AF92BF92DF92EF92BB
:1009F000FF920F931F93CF93DF93CDB7DEB7299765
:100A00000FB6F894DEBF0FBECDBF68E774E08DE08F
:100A100090E00E945704809184048F5F8093840447
:100A2000E0918604F0E0EE0FFF1FE45FFE4F1081BF
:100A300020917804309179043A8329838B838091C3
:100A400083048C831D8380917A0490917B049F831F
:100A50008E838091760490917704998788878BEEB6
:100A600093E00E94D90789E094E00E944D098091AB
:100A70007804909179040E948A098AE194E00E94A6
:100A80004D09809184040E943A0981E394E00E9418
:100A90004D09809183040E943A0980E494E00E9409
:100AA0004D09812F0E943A0980E594E00E944D098A
:100AB00060917A0470917B0480917C0490917D0414
:100AC0000E944F098BEE93E00E94D9076091840445
:100AD00084E090E00E94AF048AE594E00E944D0912
:100AE00084E090E00E94B1040E943A0900917404ED
:100AF00010917504CE0101967C01580199E0A90E70
:100B0000B11CF701D1907F01C8010E94B511D81620
:100B100021F06D2DC8010E94BD110F5F1F4F0A15F6
:100B20001B0579F780917404909175049C012E5EE9
:100B30003F4F2115344030F409969093750480930B
:100B4000740404C0109275041092740464E774E095
:100B50008AE090E00E946B0480917804909179047F
:100B60000196909379048093780468E774E08DE0AF
:100B700090E029960FB6F894DEBF0FBECDBFDF918F
:100B8000CF911F910F91FF90EF90DF90BF90AF90AA
:100B90000C946B04CF93DF9385E495E00E94FF03F0
:100BA00040E066E985E495E00E94CB03C0EAD4E02A
:100BB000699140E085E495E00E94CB0384E0C83A67
:100BC000D807B1F740E06CE385E495E00E94CB03E1
:100BD00085E495E0DF91CF910C94FF0361110C94B3
:100BE00096040E94810785E495E00E94FF030E941D
:100BF0006A078FEF0C948F07CF93DF93EC018091FE
:100C00008704811105C082E00E9419020197A9F0B2
:100C100082E00E941902019721F4809187048111DA
:100C200010C082E00E941902892B49F0809187044C
:100C3000811103C082E00E94190288EC2DC084E675
:100C40002BC02097C1F40E948107982F80FD02C01D
:100C500080E001C088E091FF02C0846001C08B7F0A
:100C600092FF02C0826001C08D7F93FF02C081604D
:100C700013C08E7F11C0C230D10529F40E948107B4
:100C80008295817009C0219731F40E94810785FB0C
:100C9000882780F901C080E0DF91CF91089561E05D
:100CA00080E10E94420287E00E9419020197D9F771
:100CB00060E080E10C94420261E080E10E94420227
:100CC00087E00E941902892BD9F760E080E10C943B
:100CD000420260E070E083E00C94AD0283E2809316
:100CE000B00089E08093B10080EE8093B3008FE67E
:100CF0008093B4006FEF70E083E00E94AD026FE07C
:100D000070E080E090E00E940C0361EE70E083E010
:100D10000C94AD020E946E0668EC70E080E090E0FA
:100D20000E940C0380918504882351F080918004F7
:100D3000909181040196909381048093800408959A
:100D400064E670E080E090E00E940C030E945C0684
:100D50006CE271E080E090E00E940C030E94690662
:100D6000109281041092800408951F920F920FB682
:100D70000F9211242F933F934F935F936F937F9321
:100D80008F939F93AF93BF93EF93FF93EFE6F0E0C2
:100D900080818E7F808380818D7F8083109285000B
:100DA000109284000E948A06FF91EF91BF91AF914B
:100DB0009F918F917F916F915F914F913F912F9173
:100DC0000F900FBE0F901F9018950E946E060E9404
:100DD0004F0688E00E9419020197D9F768E770E092
:100DE00080E090E00E940C0310928204F89410922C
:100DF0008000109281008FEF86BB109285001092C8
:100E0000840082E083BD80917E0490917F04909362
:100E100089008093880080916F00816080936F00CB
:100E200080916F00826080936F00789487E0809358
:100E300081000C94690690914505E0914605F0917A
:100E40004705F8948181892B81832281892F8095A0
:100E500028232283A2E0B0E01197F1F721818223B9
:100E60008183A0E1B0E01197F1F780817894E6E604
:100E7000F0E03197F1F7982381E009F480E00895DC
:100E80000F931F93CF93DF9308E010E0C0E0D1E011
:100E90000E941B078111CD2BDD0F01501109C1F7F5
:100EA0008C2FDF91CF911F910F910895009769F0DA
:100EB000FC0101900020E9F73197AF01481B590B65
:100EC000BC0188EA94E00C94F60980E090E0089573
:100ED0000E94F311CF93DF9340E065E585E495E050
:100EE0000E94CB03C0EAD4E0699140E085E495E03C
:100EF0000E94CB0384E0C83AD807B1F7DF91CF91C5
:100F0000089585E495E00E94FF030E946A0741E08E
:100F100065EF85E495E00E94CB030C944007CF93E6
:100F2000C82F41E06AE585E495E00E94CB0341E0EB
:100F30006C2F85E495E00E94CB036C2F609541E017
:100F400085E495E00E94CB030E9440078A3A31F481
:100F50000E944007C81302C081E001C080E0CF9129
:100F60000895E8EAF4E0A089B18982E08C93A48531
:100F7000B5851C92A685B78587E68C93108EA489CB
:100F8000B58986E08C93A289B3898C9180618C931A
:100F9000A289B3898C9188608C93A289B3898C9142
:100FA00080688C930288F389E02D80818F7D808317
:100FB0000895CF93DF930E945607EC018AE694E0F0
:100FC0000E9456078C0F9D1FDF91CF9108954F927D
:100FD0005F926F927F928F929F92AF92BF92CF92C9
:100FE000DF92EF92FF920F931F93CF93DF9300D086
:100FF00000D000D0CDB7DEB76C0161E086E00E9482
:1010000071020E944603812C912C54011E821D8284
:101010009B01AC012C53364F4F4F5F4F29833A83CE
:101020004B835C830D2C000CEE08FF080E944603E6
:1010300029813A814B815C81621773078407950788
:1010400020F50E9446032B013C01DC01CB018819ED
:101050009909AA09BB098C159D05AE05BF0530F39A
:101060000D811E8131E00327A801417055275E8361
:101070004D838DE694E00E94D907602F617086E071
:101080000E94EE0553014201D1CF61E086E00E944B
:10109000710286E00E94200A26960FB6F894DEBF01
:1010A0000FBECDBFDF91CF911F910F91FF90EF90B9
:1010B000DF90CF90BF90AF909F908F907F906F9078
:1010C0005F904F900895DF92EF92FF920F931F93DE
:1010D000CF93DF9310925005109252051092510554
:1010E000E0E5F5E088E4E82E85E0F82E129285E050
:1010F000E834F807D9F785E495E00E94FF038111F1
:1011000007C010925005109252051092510568C008
:1011100040E060EF85E495E00E94CB03D1E000E081
:10112000D12CC1E00E941B07182F0E941B07113011
:1011300019F48130C1F436C0202F30E018131DC0DF
:1011400080915005C81738F4F901EB5BFA4F8381A1
:101150008D2349F402C08C1731F010E0C93060F4DF
:10116000C093510509C0E02FF0E0EB5BFA4F83819B
:101170008D2B838311E009C0DC2EF901EB5BFA4F64
:1011800093818D2F809589238383612F85E495E05A
:101190000E949C03CF5FDD0F11F40F5FD1E0083098
:1011A00008F4C0CFC13408F4ACCFD0925005D110B0
:1011B00003C081E08093520580914805882309F49B
:1011C000A0CFE0EAF4E0D7018D917D018193B4E0F6
:1011D000E83AFB07C1F781E09091A004993209F049
:1011E00080E0DF91CF911F910F91FF90EF90DF9002
:1011F00008958F929F92AF92BF920F931F93CF93B8
:10120000DF93CDB7DEB7A1970FB6F894DEBF0FBE60
:10121000CDBF19A2423008F44AE08E010F5D1F4F86
:10122000842E912CA12CB12CA50194010E94CB11EC
:10123000E62FB901CA0101501109EA3014F4E05D4A
:1012400001C0E95CD801EC93232B242B252B61F7FB
:10125000C8010E945607A1960FB6F894DEBF0FBED4
:10126000CDBFDF91CF911F910F91BF90AF909F9015
:101270008F900895CF93DF93682F70E080E090E027
:101280004AE00E94F908EC018AE694E00E945607C1
:101290008C0F9D1FDF91CF9108950C945607CF932B
:1012A000DF934AE00E94F908EC018AE694E00E948C
:1012B00056078C0F9D1FDF91CF910895CF92DF923B
:1012C000EF92FF92CF93DF9397FF1BC06B017C01DE
:1012D0006DE288EA94E00E94FA00EC016627772725
:1012E000CB016C197D098E099F094AE00E94F9081B
:1012F0008C0F9D1FDF91CF91FF90EF90DF90CF90EB
:1013000008954AE0DF91CF91FF90EF90DF90CF906A
:101310000C94F908CF93DF93BC01990F880B990BBC
:101320000E945E09EC018AE694E00E9456078C0F49
:101330009D1FDF91CF9108951F920F920FB60F92CC
:1013400011242F933F934F935F936F937F938F93CA
:101350009F93AF93BF93EF93FF9380915405909128
:101360005505A0915605B0915705892B8A2B8B2BDB
:1013700041F19091530580910000892780930000EE
:101380008091540590915505A0915605B09157054F
:10139000181619061A061B06C4F48091540590917C
:1013A0005505A0915605B09157050197A109B109BE
:1013B0008093540590935505A0935605B093570517
:1013C00004C080912C010E94200AFF91EF91BF91EF
:1013D000AF919F918F917F916F915F914F913F91CD
:1013E0002F910F900FBE0F901F901895CF92DF9204
:1013F000EF92FF920F931F93CF93DF936C017A01CB
:101400008B01C0E0D0E0CE15DF0581F0D8016D91F1
:101410008D01D601ED91FC910190F081E02DC60186
:101420000995892B11F02196EECF7E01C701DF913E
:10143000CF911F910F91FF90EF90DF90CF90089583
:1014400090912C01891324C0E2ECF0E0E4919FEF2D
:1014500090932C01E130B9F098F0E230C9F490910A
:1014600070009D7F9093700091E09093B0009091F8
:10147000B100987F94609093B1001092B30008C0BF
:1014800010926E0005C090916F009D7F90936F0049
:1014900060E00C944202CF93DF93CDB7DEB72B9779
:1014A0000FB6F894DEBF0FBECDBF789484B58260CE
:1014B00084BD84B5816084BD85B5826085BD85B5F8
:1014C000816085BD80916E00816080936E00109276
:1014D00081008091810082608093810080918100F1
:1014E0008160809381008091800081608093800082
:1014F0008091B10084608093B1008091B0008160E0
:101500008093B00080917A00846080937A0080910B
:101510007A00826080937A0080917A008E7F809337
:101520007A0080917A00806880937A001092C100DE
:101530000E94B1078FE391E00E94D90761E08DE03E
:101540000E94710261E081E10E94710261E083E02A
:101550000E94710261E08BE00E94710262E08CE007
:101560000E94710262E082E00E94710262E088E003
:101570000E94710262E087E00E94710260E08FE0E9
:101580000E94710260E08EE00E94710261E084E0DE
:101590000E94710260E084E00E94420261E080E10A
:1015A0000E94710260E080E10E94420260E070E00F
:1015B00083E00E94AD0260E070E08BE00E94AD022B
:1015C00080E090E00E94B104182F81E090E00E943A
:1015D000B104133511F4883509F163E580E090E03A
:1015E0000E94AF0468E581E090E00E94AF0485E6C8
:1015F00090E09B878A87BE01665F7F4F8AE090E01C
:101600000E946B0481E090E09A838983BE016F5F42
:101610007F4F8DE090E00E946B0434C08091850480
:10162000882321F180918C04882301F163E580E017
:1016300090E00E94AF0468E581E090E00E94AF0472
:1016400085E690E09B878A87BE01665F7F4F8AE0D0
:1016500090E00E946B0481E090E09A838983BE0150
:101660006F5F7F4F8DE090E00E946B0464E774E051
:101670008AE090E00E94570468E774E08DE090E013
:101680000E9457040E946308182F809387048111D9
:101690000E94CA058FE00E941902892BB1F48EE0E6
:1016A0000E941902892B89F4112379F084E090E0DB
:1016B0000E94B10408E010E0081B11091016110681
:1016C0000CF4CBC086E00E94960487E00E941902C9
:1016D000892B09F0DFC088E00E941902892B09F0EC
:1016E000D9C011E091EE692E712C0FE6F0908704BD
:1016F0000E94630880938704882359F1F1100FC07A
:101700000E94CA0586E00E94960468EC70E080E0C2
:1017100090E00E940C0360E086E00E94EE0580E00D
:1017200090E00E94FC058093860481E090E00E9496
:10173000FC0591E0811101C090E09093850482E066
:1017400090E00E94FC0591E0811101C090E090932F
:101750008C04E0908604F12CEE0CFF1CF701E45F92
:10176000FE4F808191818C599F4F029708F495C05C
:1017700080E090E00E94FC05883C09F48EC060E0A7
:1017800081E10E94420280918C04882309F447C0C1
:1017900080910C0190910D018C199D0997FF03C058
:1017A000919581959109EEE0F1E061E070E0AB0187
:1017B00041505109219131912C193D0937FF03C046
:1017C0003195219531092817390754F4AB014F5F42
:1017D0005F4FC9014B30510511F0BA01E8CFAB01A1
:1017E000809186048D30D8F490E0841795073CF4FE
:1017F00061E081E10E94420260E08DE00EC0481786
:10180000590714F461E004C08417950741F460E0BF
:101810008DE00E94420260E081E10E9442028FE07E
:101820000E941902019731F48EE00E941902892B5F
:1018300009F494C08FE00E941902892B09F0A9C015
:101840008EE00E941902019709F0A3C0F090840471
:1018500087E08F1508F4A9C09CC0EE24E394F12C16
:1018600068EC70E080E090E00E940C0386E00E944B
:10187000960468EC70E080E090E00E940C0360E069
:1018800086E00E94EE052FEFE21AF20A0E151F0500
:101890003CF71BCF0E945C0624CFF701E45FFE4FAC
:1018A000808191818D399F4F09F453C0B1EEEB2EA9
:1018B000F12C0E9446031B012C0180908400909023
:1018C0008500A12CB12CA50194010E94CB11E29EB0
:1018D0006001E39ED00CF29ED00C11248BE691E0C7
:1018E0000E944D09C201B1010E944F0988E791E0B1
:1018F0000E944D09C501B4010E944F0982E891E0A0
:101900000E944D09C7010E948A0988E891E00E945F
:101910004D09C6010E948A0984EB91E00E944D099D
:10192000E0918604F0E0EE0FFF1FE45FFE4F808140
:1019300091810E948A0960E08DE00E9442028091BC
:101940001A0190911B01C816D9060CF418CF61E05A
:1019500017CF9FEEE92EFF24F394ABCF10928404AF
:1019600060E084E090E00E94AF0460E086E00E94C6
:10197000EE0586E00E9496040E946E060E944F06C5
:101980000E945C060E94690660E086E00E94EE0507
:1019900051CF8FE00E941902892BE9F48EE00E945A
:1019A0001902892B09F493C116C086E00E9496049F
:1019B00061E081E10E9442028CE00E941902892BC1
:1019C00029F480918C04882309F4C1C08CE00E9422
:1019D0001902892B19F00E94690188CE80918C042C
:1019E0008823C9F380917804909179049A8389833C
:1019F000809184048B83809183048C831D828091E9
:101A00007A0490917B049F838E831986188664E7FD
:101A100074E08AE090E00E9457040E94B10785E9D3
:101A200093E00E94D9078091000180907404909007
:101A3000750498E4899F801891081124A12CB12C79
:101A4000BE016F5F7F4F7401EA0CFB1CC7010E944F
:101A50003104B701FF0C880B990B0E945E098DECD5
:101A600092E00E944D096091000170E080E090E0FA
:101A70004AE00E94F9088DEC92E00E944D096B81CA
:101A800070E080E090E04AE00E94F9088DEC92E07E
:101A90000E944D0969817A81072E000C880B990BF1
:101AA0000E945E098DEC92E00E944D096C8170E00D
:101AB00080E090E04AE00E94F9088C81811104C026
:101AC0008BEB92E00E944D098C81813021F484ECF3
:101AD00092E00E944D098C81823021F48FEC92E0DB
:101AE0000E944D098C81843021F482EE92E00E94A4
:101AF0004D098C81863021F484EF92E00E944D09DB
:101B00008C81873021F48FEF92E00E944D098C8107
:101B1000883021F486E093E00E944D096D8170E0E9
:101B200080E090E04AE00E94F9088DEC92E00E948B
:101B30004D0929E0A20EB11C88E4A816B10409F0F1
:101B40007FCF809100018F5F8093000144CF80910F
:101B50007804909179049A838983FB821C821D8288
:101B60001F821E8219861886BE016F5F7F4F80918B
:101B70007404909175040E94310464E774E08AE073
:101B800090E00E945704A0907404B0907504750111
:101B900088E4E81AF1088DE193E00E94D9078BE50B
:101BA00093E00E944D0980917404909175040E9405
:101BB0008A098BE793E00E944D09C7010E948A09B8
:101BC000BE016F5F7F4FC7010E9431048DEC91E031
:101BD0000E94D90785E092E00E944D09C7010E944A
:101BE0008A0981E392E00E944D0989819A810E94CD
:101BF0008A098AE292E00E944D098B810E943A098B
:101C00008CE392E00E944D098C810E943A0988E49D
:101C100092E00E944D098C81811104C080E592E020
:101C20000E94D9078C81813021F487E592E00E94DF
:101C3000D9078C81823021F480E692E00E94D90796
:101C40008C81843021F481E792E00E94D9078C8155
:101C5000853021F481E892E00E94D9078C8186309A
:101C600021F48EE892E00E94D9078C81873021F41C
:101C700087E992E00E94D9078C81883021F489E6B7
:101C800091E00E94D9078CE992E00E944D098D8174
:101C90000E943A098CEA92E00E944D098E819F8150
:101CA0000E948A0983EB92E00E944D0988859985FC
:101CB0000E948A0999E0E90EF11CAE14BF0409F0F4
:101CC0007FCF809100018F5F809300017FCE84E001
:101CD00090E00E94B104809384048CE00E94190279
:101CE000892B09F05EC0E0918604F0E0EE0FFF1F43
:101CF000E45FFE4F808191818F399F4F09F051C081
:101D000087E0809383040E94F4040E946E060E9480
:101D10004F0688E00E9419020197D9F768E270E047
:101D200080E090E00E940C03F0908C04FF2029F0EA
:101D30006FEF70E08BE00E94AD020E946906FF2009
:101D400029F062E870E08BE00E94AD028CE00E9416
:101D50001902892BD9F3FF2091F087E00E949604A5
:101D600061E070E080E090E00E940C0360E070E0D1
:101D70008BE00E94AD0260E087E00E94EE050E94C9
:101D80006E0668EC70E080E090E00E940C030E9418
:101D90005C0668EC70E080E090E00E940C030E941A
:101DA00069068CE00E941902892BF1F5E091860406
:101DB000F0E0EE0FFF1FE45FFE4F808191818E39CE
:101DC0009F4F91F588E0809383040E94F4040E9461
:101DD0006E060E944F0688E00E9419020197D9F70B
:101DE00068E270E080E090E00E940C030E946906C7
:101DF0008CE00E9419020197D9F38CE00E9419022D
:101E0000892B11F40E946E0668EC70E080E090E08F
:101E10000E940C030E945C0668EC70E080E090E099
:101E20000E940C030E9469061092820462E08CE01A
:101E30000E9471028CE00E9419029C01BB24B394A1
:101E4000892B09F4B12CB0920B0190910A01232B3C
:101E500009F045C0992309F49FC00E9446032090D1
:101E60000601309007014090080150900901DC0103
:101E7000CB0182199309A409B5094597A105B105BC
:101E800008F48AC00E944603609302017093030124
:101E9000809304019093050110928B04109301012B
:101EA00010928A040E944603DC01CB018219930937
:101EB000A409B5098A3F9105A105B10568F480918F
:101EC0008904811109C080918804882329F0109326
:101ED00089041092880460C010928904FACF91118D
:101EE00028C00E94460320910201309103014091D5
:101EF000040150910501DC01CB01821B930BA40B63
:101F0000B50B4597A105B105A0F080918B04811117
:101F100010C00E94460360930601709307018093EE
:101F2000080190930901809189048111A5C1109342
:101F30008804E12CF12C0E94460320910601309187
:101F400007014091080150910901DC01CB01821B7E
:101F5000930BA40BB50B8A3F9105A105B10508F4BD
:101F600040C0809188048823E1F180918904811127
:101F700038C0809101018823A1F182E0E816F104C4
:101F800009F487C11092880410930A011092830407
:101F9000EE24E394F12C2BC00E9446032091020111
:101FA000309103014091040150910501DC01CB0106
:101FB000821B930BA40BB50B8E359140A105B10587
:101FC00008F43DC080918A04811160C110938B0494
:101FD000109289041092880410938A0443E0E42E3E
:101FE000F12CB0920A0110928304E0FE0BC0109312
:101FF000820492E0E916F10449F080918504811190
:1020000044C027C022E0E216F104E9F40E9446032E
:102010008AE093E00E94D90788EE93E00E94E707E8
:1020200088E592E00E94E70788EC90E00E94E707CD
:1020300080E590E00E94E7071093820404C0B0920C
:102040000A011092830480918204882309F4C3CC8E
:10205000D4CF809180049091810418161906ACF4B5
:102060000E94F404109281041092800460E086E0E3
:102070000E94EE050E945C0662E370E080E090E062
:102080000E940C030E946906A6CC80E090E00E94AA
:10209000FC05843609F064C084E090E00E94B1043D
:1020A000809384040E94F40483E28093B00099E05A
:1020B0009093B10020EE2093B3000093B4006FEF33
:1020C00070E08BE00E94AD020E946E060E944F06F7
:1020D00088E00E9419020197D9F762E870E08BE06E
:1020E0000E94AD0268E770E080E090E00E940C037F
:1020F0000E94690662E470E080E090E00E940C03B8
:1021000061E084E00E94420262E070E080E090E0E2
:102110000E940C0360E070E08BE00E94AD0260E082
:1021200084E00E94420264E170E080E090E00E945E
:102130000C030E946E0668EC70E080E090E00E9464
:102140000C030E945C0668EC70E080E090E00E9466
:102150000C030E94690610928104109280043BCC0B
:1021600080E090E00E94FC05883C59F470927F0466
:1021700060927E040E94F404109281041092800404
:1021800018C080918604843608F025CCE82EF12C06
:10219000EE0CFF1CF701E45FFE4F808191818C39CA
:1021A0002FEF920749F470927F0460927E040E94A0
:1021B000F4040E94E5060FCC8D399F4F39F48FEE61
:1021C00091E090937F0480937E04F1CF0E946E068D
:1021D00064E670E080E090E00E940C030E944F06ED
:1021E00088E00E9419020197D9F768E770E080E063
:1021F00090E00E940C030E94B304F701E45FFE4FDD
:10220000E080F18099E0E90EF11C0E946906B701B7
:102210000F2C000C880B990B0E940C0329E1E2168D
:10222000F1046CF087E00E94960461E070E080E0C9
:1022300090E00E940C0360E087E00E94EE050E949F
:102240006E066AE070E080E090E00E940C03F89473
:102250008091840090918500A0E0B0E080937A04A2
:1022600090937B04A0937C04B0937D0478940E94A7
:102270008A060E94F404AFCB10928904109288045D
:102280001092010152E0E52EF12C55CEE12CF12CFB
:10229000A8CE10930A0110928304B8CE1092AB041A
:1022A0001092AA0488EE93E0A0E0B0E08093AC0422
:1022B0009093AD04A093AE04B093AF0481E391E09A
:1022C0009093A9048093A80485EC90E09093B504C2
:1022D0008093B40484EC90E09093B7048093B604A8
:1022E00080EC90E09093B9048093B80481EC90E086
:1022F0009093BB048093BA0482EC90E09093BD0469
:102300008093BC0486EC90E09093BF048093BE045D
:102310001092C1041092C2041092C3041092C4041B
:1023200060E082E00E947102E0EBF0E0E491E09373
:102330004505ECE9F0E0E491F0E0EE0FFF1FE05717
:10234000FF4F859194919093470580934605109295
:1023500050051092520510925105E0E5F5E01292F9
:1023600085E0E834F807D9F70895F999FECF92BDD2
:1023700081BDF89A992780B50895262FF999FECF47
:102380001FBA92BD81BD20BD0FB6F894FA9AF99A92
:102390000FBE01960895A1E21A2EAA1BBB1BFD01D8
:1023A0000DC0AA1FBB1FEE1FFF1FA217B307E40734
:1023B000F50720F0A21BB30BE40BF50B661F771F8C
:1023C000881F991F1A9469F760957095809590956C
:1023D0009B01AC01BD01CF010895EE0FFF1F0590D9
:1023E000F491E02D099481E090E0F8940C94F811B8
:0423F000F894FFCF8F
:1023F4000101FFFFFFFFFFFFFFFF010102000300D8
:10240400050006000A000F00160022002A005000F2
:102414008C0022019CFF9DFF9EFF9FFFFF00000098
:1024240000FA00F60991004701C200A000B4006F51
:1024340070656E535837302121212121212121211A
:1024440021212121212100202020202020202020A2
:10245400202020202020494E49540074696D654D88
:10246400696C6C69733A2000636F756E7465723AB7
:10247400200049534F3A20002020202020202020F3
:102484002020202020202020202020202020205018
:102494007265646963746564204578706F737572DE
:1024A400653A200053687574746572537065656489
:1024B4005B73656C6563746F725D3A20003D3D3DEE
:1024C4003D3D3D3D3D3D3D3D3D3D3D3D3D3D3D3D38
:1024D4003D3D3D3D3D3D3D3D3D3D3D3D3D3D3D3D28
:1024E4003D3D3D3D3D3D3D3D3D3D3D3D3D3D3D3D18
:1024F4003D3D3D3D006565416464726573732072C2
:102504006561642028746869735265636F726441FD
:10251400646472657373293A200043757272656E40
:102524007420506963747572653A20002054797080
:1025340065207261773A200020547970653A200052
:102544004D414E55414C004155544F2031303000DF
:10255400464C41534820444F4E474C454C455353F9
:1025640000464C41534820463820444F4E474C4582
:1025740000464C41534820444F4E474C450041557A
:10258400544F203630300042554C42002053687579
:102594007474657253706565643A2000204C4F571B
:1025A4003A200020484947483A20002C4D414E55D6
:1025B400414C2C002C4155544F203130302C002CF0
:1025C400464C41534820444F4E474C454C45535389
:1025D4002C002C464C41534820463820444F4E474B
:1025E4004C452C002C4155544F203630302C002CB7
:1025F40042554C422C002C542C005354415254202C
:102604003530302C323630302C352C30003D3D3DC9
:102614003D3D3D3D3D3D3D3D3D3D3D3D3D3D3D3DE6
:102624003D3D3D3D20456E746572696E67206C6F5B
:102634006F70203D3D3D3D3D3D3D3D3D3D3D3D3D7E
:102644003D3D3D3D3D3D3D3D3D3D00494E495449A7
:10265400414C2065654164647265737320626566EC
:102664006F7265206C6F6F703A200052656164412F
:10267400646472657373206265666F7265206C6F43
:102684006F703A20006565416464726573732C5001
:1026940061636B2C5061636B206F726465722C50A4
:1026A4006963747572652C54797065205261772C56
:1026B40020547970652C2053687574746572537056
:1026C4006565642C204C7578004F766572666C6F76
:1026D40077204F63637572656421002A2A2A2A2AA7
:1026E4002A2A2A2A2A2A2A2A2A2A2A2A2A2A2A2A46
:1026F4002A2A2A2A2A2A2A2A0041637475616C200C
:10270400706963747572653A200043757272656E00
:10271400742070696374757265205061636B3A202C
:10272400005069637475726520747970653A20008D
:102734005368757474657220696E206D733A200055
:10274400436F756E7465723A2000506963747572D4
:10275400652074616B656E3A20000D0A005459506F
:0427640045203200DA
:107800000C94343C0C94513C0C94513C0C94513CE1
:107810000C94513C0C94513C0C94513C0C94513CB4
:107820000C94513C0C94513C0C94513C0C94513CA4
:107830000C94513C0C94513C0C94513C0C94513C94
:107840000C94513C0C94513C0C94513C0C94513C84
:107850000C94513C0C94513C0C94513C0C94513C74
:107860000C94513C0C94513C11241FBECFEFD8E036
:10787000DEBFCDBF11E0A0E0B1E0EAE8FFE702C063
:1078800005900D92A230B107D9F712E0A2E0B1E065
:1078900001C01D92AD30B107E1F70E942D3D0C945F
:1078A000C33F0C94003C982F95959595959595958B
:1078B000905D8F708A307CF0282F295A8091C0000B
:1078C00085FFFCCF9093C6008091C00085FFFCCF60
:1078D0002093C6000895282F205DF0CF982F809127
:1078E000C00085FFFCCF9093C6000895EF92FF92F1
:1078F0000F931F93EE24FF2487018091C00087FD22
:1079000017C00894E11CF11C011D111D81E2E8164D
:1079100081EAF80687E0080780E0180770F3E09135
:107920000401F091050109958091C00087FFE9CF1E
:107930008091C6001F910F91FF90EF9008950E94D3
:10794000763C982F8091C00085FFFCCF9093C600B5
:1079500091362CF490330CF09053892F089597555D
:10796000892F08951F930E949F3C182F0E949F3CCF
:107970001295107F810F1F9108951F93182F882350
:1079800021F00E94763C1150E1F71F9108951F935A
:10799000182F0E94763C803249F0809103018F5F5E
:1079A000809303018530C1F01F9108958091C0003C
:1079B00085FFFCCF84E18093C6008091C00085FFE5
:1079C000FCCF1093C6008091C00085FFFCCF80E102
:1079D0008093C6001F910895E0910401F091050184
:1079E00009951F9108950E94763C803241F0809164
:1079F00003018F5F80930301853081F008958091AA
:107A0000C00085FFFCCF84E18093C6008091C00058
:107A100085FFFCCF80E18093C6000895E0910401CA
:107A2000F09105010995089548EC50E08823A1F0F4
:107A30002D9A28EE33E0FA013197F1F721503040CA
:107A4000D1F72D9828EE33E0FA013197F1F7215064
:107A50003040D1F7815061F708953F924F925F9285
:107A60006F927F928F929F92AF92BF92CF92DF924E
:107A7000EF92FF920F931F93CF93DF93000082E06A
:107A80008093C00080E18093C4001092C50088E11B
:107A90008093C10086E08093C2005098589A259A3E
:107AA00081E00E94143D24E1F22E9EE1E92E85E959
:107AB000D82E0FE0C02E10E1B12EAA24A394B1E479
:107AC0009B2EA6E58A2EF2E57F2EE0E26E2E79E46B
:107AD000572E63E5462E50E5352E0E94763C8033C6
:107AE000B1F18133B9F1803409F46FC0813409F404
:107AF00076C0823409F485C0853409F488C08035A5
:107B000031F1823521F1813511F1853509F485C0D6
:107B1000863509F48DC0843609F496C0843709F49B
:107B200003C1853709F472C1863709F466C08091B4
:107B300003018F5F80930301853079F6E0910401A2
:107B4000F091050109950E94763C803351F60E9420
:107B5000F33CC3CF0E94763C803249F78091C0004D
:107B600085FFFCCFF092C6008091C00085FFFCCF5E
:107B70009092C6008091C00085FFFCCF8092C60025
:107B80008091C00085FFFCCF7092C6008091C0003C
:107B900085FFFCCF6092C6008091C00085FFFCCFBE
:107BA0005092C6008091C00085FFFCCF4092C60075
:107BB0008091C00085FFFCCF3092C6008091C0004C
:107BC00085FFFCCFB092C60088CF0E94763C8638F5
:107BD00008F4BDCF0E94763C0E94F33C7ECF0E9409
:107BE000763C803809F49CC0813809F40BC1823896
:107BF00009F430C1883909F48FC080E00E94C73C85
:107C00006CCF84E10E94BD3C0E94F33C66CF85E0CE
:107C10000E94BD3C0E94F33C60CF0E94763C809362
:107C200006010E94763C809307010E94F33C55CFE9
:107C30000E94763C803309F411C183E00E94BD3C70
:107C400080E00E94C73C49CF0E94763C80930902A5
:107C50000E94763C8093080280910C028E7F809374
:107C60000C020E94763C853409F409C18091080217
:107C700090910902892B89F000E010E00E94763C87
:107C8000F801E85FFE4F80830F5F1F4F809108026D
:107C9000909109020817190788F30E94763C8032F8
:107CA00009F045CF80910C0280FFF5C0609106017C
:107CB00070910701660F771F7093070160930601AB
:107CC000A0910802B09109021097C9F0E8E0F1E034
:107CD0009B01AD014E0F5F1FF999FECF32BD21BD53
:107CE000819180BDFA9AF99A2F5F3F4FE417F5070B
:107CF00099F76A0F7B1F70930701609306018091CB
:107D0000C00085FFFCCFF092C6008091C00085FFC7
:107D1000FCCFB092C600E1CE83E00E94C73CDDCE2E
:107D200082E00E94C73CD9CE0E94763C8093090233
:107D30000E94763C80930802809106019091070191
:107D4000880F991F90930701809306010E94763C4B
:107D5000853409F49AC080910C028E7F80930C02C6
:107D60000E94763C803209F0B8CE8091C00085FF39
:107D7000FCCFF092C600A0910802B09109021097C2
:107D8000C1F180910C02082F0170182F1695117007
:107D9000E0910601F0910701AF014F5F5F4FBA011B
:107DA00020E030E00023B1F4112339F49491809164
:107DB000C00085FFFCCF9093C6002F5F3F4FCB01E3
:107DC0000196FA012A173B0780F4BC014F5F5F4F11
:107DD000002351F3F999FECFF2BDE1BDF89A90B5B9
:107DE0008091C00085FFFCCFE6CF709307016093C0
:107DF00006018091C00085FDE5CE8091C00085FF21
:107E0000F8CFE0CE81E00E94C73C67CE0E94763C6E
:107E1000803209F08CCE8091C00085FFFCCFF092BB
:107E2000C6008091C00085FFFCCFE092C600809123
:107E3000C00085FFFCCFD092C6008091C00085FFB6
:107E4000FCCFC092C6008091C00085FFFCCFB092ED
:107E5000C60043CE80E10E94C73C3FCE0E94763CE4
:107E60000E94763C182F0E94763C112309F483C0AF
:107E7000113009F484C08FE00E94C73C2ECE80915F
:107E80000C02816080930C02F1CE80910C02816023
:107E900080930C0265CF809107018823880F880B9F
:107EA0008A2180930B028091060190910701880F2F
:107EB000991F90930701809306018091080280FF2B
:107EC00009C08091080290910902019690930902DD
:107ED00080930802F894F999FECF1127E0910601EA
:107EE000F0910701C8E0D1E0809108029091090269
:107EF000103091F40091570001700130D9F303E084
:107F000000935700E8950091570001700130D9F3B4
:107F100001E100935700E8950990199000915700EE
:107F200001700130D9F301E000935700E8951395F3
:107F3000103498F011270091570001700130D9F3E7
:107F400005E000935700E89500915700017001305B
:107F5000D9F301E100935700E8953296029709F0B2
:107F6000C7CF103011F00296E5CF11248091C000E8
:107F700085FFC5CEC8CE8EE10E94C73CAECD85E957
:0A7F80000E94C73CAACDF894FFCF81
:027F8A00800075
:040000030000780081
:00000001FF