:100000000C9463000C948B000C948B000C948B006C
:100010000C948B000C948B000C948B000C94750A40
:100020000C948B000C948B000C948B000C94480760
:100030000C948B000C9460050C948B000C948B003A
:100040000C9452030C948B000C94E7010C94C101A6
:100050000C948B000C948B000C948B000C948B00F4
:100060000C948B000C948B000000000024002700EF
:100070002A0000000000250028002B0000000008D6
:10008000000201000003040700000000000000005F
:1000900002000000002300260029000404040404D8
:1000A0000404040202020202020303030303030125
:1000B00002040810204080010204081020010204FC
:1000C000081020009B1111241FBECFEFD8E0DEBF27
:1000D000CDBF14E0A0E0B1E0E0E4F7E202C005909B
:1000E0000D92A030B107D9F724E0A0E0B4E001C040
:1000F0001D92AA3EB207E1F710E0C3E6D0E004C0CB
:100100002197FE010E949313C236D107C9F70E94BE
:10011000CF0A0C949E130C940000089580E090E0A8
:100120000895FC01538D448D252F30E0842F90E0FD
:10013000821B930B541710F0CF96089501970895E2
:10014000FC01918D828D981761F0828DDF01A80FDF
:10015000B11D5D968C91928D9F5F9F73928F90E001
:1001600008958FEF9FEF0895FC01918D828D981770
:1001700031F0828DE80FF11D858D90E008958FEFAD
:100180009FEF0895FC01918D228D892F90E0805C76
:100190009F4F821B91098F73992708958AE394E0FA
:1001A0000E94C20021E0892B09F420E0822F0895EB
:1001B000FC01848DDF01A80FB11DA35ABF4F2C9104
:1001C000848D90E001968F739927848FA689B789D3
:1001D0002C93A089B1898C91837080648C93938DCA
:1001E000848D981306C00288F389E02D80818F7D6D
:1001F00080830895EF92FF920F931F93CF93DF9325
:10020000EC0181E0888F9B8D8C8D981305C0E88967
:10021000F989808185FD26C0F62E0B8D10E00F5FD9
:100220001F4F0F731127E02E8C8DE8120CC00FB6F4
:1002300007FCFACFE889F989808185FFF5CFCE01E7
:100240000E94D800F1CF8B8DFE01E80FF11DE35A1B
:10025000FF4FF0829FB7F8940B8FEA89FB8980816A
:1002600080620AC09FB7F894EE89FF896083E889AD
:10027000F98980818370806480839FBF81E090E0F2
:10028000DF91CF911F910F91FF90EF900895CF9341
:10029000DF93EC01888D8823C9F0EA89FB8980818E
:1002A00085FD05C0A889B9898C9186FD0FC00FB660
:1002B00007FCF5CF808185FFF2CFA889B9898C91A1
:1002C00085FFEDCFCE010E94D800E7CFDF91CF911F
:1002D000089580E090E0892B29F00E94CE008111E2
:1002E0000C9400000895833081F028F4813099F057
:1002F0008230A1F008958730A9F08830B9F08430B9
:10030000D1F4809180008F7D03C0809180008F7731
:1003100080938000089584B58F7702C084B58F7D67
:1003200084BD08958091B0008F7703C08091B000A4
:100330008F7D8093B00008953FB7F89480911104A9
:1003400090911204A0911304B091140426B5A89BB7
:1003500005C02F3F19F00196A11DB11D3FBFBA2F57
:10036000A92F982F8827820F911DA11DB11DBC01B7
:10037000CD0143E0660F771F881F991F4A95D1F77B
:1003800008951F920F920FB60F9211242F933F934F
:100390004F935F936F937F938F939F93AF93BF938D
:1003A000EF93FF938AE394E00E94D800FF91EF91CE
:1003B000BF91AF919F918F917F916F915F914F917D
:1003C0003F912F910F900FBE0F901F9018951F9285
:1003D0000F920FB60F9211242F938F939F93EF9349
:1003E000FF93E0914A04F0914B048081E091500426
:1003F000F091510482FD12C09081809153048F5F6F
:100400008F7320915404821751F0E0915304F0E06F
:10041000E65CFB4F958F8093530401C08081FF9170
:10042000EF919F918F912F910F900FBE0F901F9082
:100430001895CF93DF93282F30E0F901E458FF4F50
:100440008491F901E155FF4FD491F901E556FF4F31
:10045000C491CC2391F081110E947301EC2FF0E044
:10046000EE0FFF1FEF56FF4FA591B491EC91ED23D6
:1004700081E090E021F480E002C080E090E0DF9134
:10048000CF9108951F93CF93DF93282F30E0F90188
:10049000E458FF4F8491F901E155FF4FD491F901E0
:1004A000E556FF4FC491CC23C1F0162F81110E9455
:1004B0007301EC2FF0E0EE0FFF1FEE58FF4FA591F8
:1004C000B4919FB7F894111104C08C91D095D823A2
:1004D00002C0EC91DE2BDC939FBFDF91CF911F9187
:1004E0000895CF93DF9390E0FC01E155FF4F2491F5
:1004F000FC01E556FF4F8491882361F190E0880F5D
:10050000991FFC01E859FF4FC591D491FC01EE58A9
:10051000FF4FA591B491611109C09FB7F8948881EC
:10052000209582238883EC912E230BC0623061F4E6
:100530009FB7F8948881322F309583238883EC917C
:100540002E2B2C939FBF06C08FB7F894E8812E2BDB
:1005500028838FBFDF91CF9108951F93CF93DF93AF
:10056000182FEB0161E00E947102209711F460E006
:1005700004C0CF3FD10539F461E0812FDF91CF91E5
:100580001F910C944202E12FF0E0E458FF4FE491F8
:10059000E330F9F048F4E130B9F0E230A1F584B588
:1005A000806284BDC8BD34C0E730E9F0E83019F19D
:1005B000E43049F580918000806280938000D09380
:1005C0008B00C0938A0024C084B5806884BDC7BDF9
:1005D0001FC080918000806880938000D093890044
:1005E000C093880015C08091B00080688093B000EF
:1005F000C093B3000DC08091B00080628093B000C2
:10060000C093B40005C0C038D1050CF0B5CFAFCF52
:10061000DF91CF911F9108958F929F92AF92BF92D9
:10062000CF92DF92EF92FF926B017C010E949C01BE
:100630004B015C01C114D104E104F104F1F00E940A
:100640009C01DC01CB0188199909AA09BB09883EE4
:100650009340A105B10570F321E0C21AD108E10869
:10066000F10888EE880E83E0981EA11CB11CC1140D
:10067000D104E104F10419F7DDCFFF90EF90DF9092
:10068000CF90BF90AF909F908F9008952FB7F89420
:1006900060910D0470910E0480910F0490911004EC
:1006A0002FBF08951F920F920FB60F9211242F9310
:1006B0003F938F939F93AF93BF9380910D0490913D
:1006C0000E04A0910F04B091100430910C0426E0A8
:1006D000230F2D3720F40296A11DB11D05C029E876
:1006E000230F0396A11DB11D20930C0480930D04CC
:1006F00090930E04A0930F04B09310048091110402
:1007000090911204A0911304B09114040196A11DBC
:10071000B11D8093110490931204A0931304B0931D
:100720001404BF91AF919F918F913F912F910F90A2
:100730000FBE0F901F901895FC0190810180F281EF
:10074000E02D892F809560FF12C0F89422818223CA
:1007500082838181892B8183A0E1B0E01197F1F739
:100760008281982B928378948AE690E011C0F89465
:100770002281822382838181892B8183AEE7B0E04D
:100780001197F1F78281982B9283789486E090E01C
:100790000197F1F70895DF92EF92FF920F931F9365
:1007A000CF93DF93EC01D62EE42E08E010E0FF2477
:1007B000F39461E08D2D8F2109F460E0CE010E9459
:1007C0009C03FF0C01501109A1F7E11010C0F8942F
:1007D000E981FA8191818881809589238183E981EA
:1007E000FA81928188818095892382837894DF9130
:1007F000CF911F910F91FF90EF90DF900895DC0152
:100800002C911196ED91FC911297F8948181922F81
:1008100090958923818378948DE7815009F1308107
:100820003223D9F3F8948281892382838181822BB8
:1008300081837894ACEBB3E01197F1F7F894818160
:100840009823918388E890E00197F1F7808128232D
:1008500081E009F080E07894E0E3F3E03197F1F78C
:100860000895CF92DF92EF92FF920F931F93CF9351
:10087000DF93EB017B0129E0E20EF11C8B016C019F
:10088000C61AD70AC601800F911F0E940212F801F2
:1008900081938F01EE15FF05A9F7CE01DF91CF916E
:1008A0001F910F91FF90EF90DF90CF9008950F93DD
:1008B0001F93CF93DF938C01EB010E940212888378
:1008C000C80101960E9402128983CE01DF91CF9167
:1008D0001F910F910895AF92BF92DF92EF92FF9216
:1008E0000F931F93CF93DF93EC017B018B015C018E
:1008F00082E0A80EB11CF801D1908F01CE010E94B8
:100900000212D81621F06D2DCE010E940A122196F6
:10091000CA15DB0581F7C701DF91CF911F910F91B8
:10092000FF90EF90DF90BF90AF900895CF93C82FC6
:100930000E94570887ED94E00E94FF030E94400840
:1009400081E090E0A0E0B0E004C0880F991FAA1FEA
:10095000BB1FCA95D2F78095CF910C9465080C9473
:100960000A120C940212F8948FEF86BB109280004A
:100970001092850010928400E1E8F0E080818460AC
:100980008083808182608083789408958F929F9283
:10099000AF92BF92CF92DF92EF92FF92CF93DF930D
:1009A000EC010E944603C0901504D0901604E0901C
:1009B0001704F0901804DC01CB018C199D09AE09D5
:1009C000BF0984369105A105B10508F469C080917D
:1009D000840090918500A0E0B0E080931F04909384
:1009E0002004A0932104B09322040E944603C090E7
:1009F0001504D0901604E0901704F09018044B01F1
:100A00005C018C189D08AE08BF080E9446036093E5
:100A100015047093160480931704909318040E9491
:100A2000B304CE0165E070E00E944913072E000C6C
:100A3000880B990B0E94BD126B017C01BE01DD0F7A
:100A4000880B990B0E94BD129B01AC01C701B60136
:100A50000E9419120E9485126B01770FEE08FF08A1
:100A600060911F04709120048091210490912204D0
:100A7000A50194010E945D132F5F3F4F4F4F5F4FC1
:100A8000C701B6010E945D13CA01B9010E94BB12E1
:100A90000E9485129B0170930B0460930A0404C0AA
:100AA00020910A0430910B04C901DF91CF91FF908E
:100AB000EF90DF90CF90BF90AF909F908F90089570
:100AC0001F920F920FB60F9211242F933F934F93C3
:100AD0005F936F937F938F939F93AF93BF93EF93A6
:100AE000FF938FE391E00E94350AEFE6F0E080810A
:100AF0008E7F808380818D7F8083FF91EF91BF9176
:100B0000AF919F918F917F916F915F914F913F91A5
:100B10002F910F900FBE0F901F901895AF92BF921C
:100B2000DF92EF92FF920F931F93CF93DF93CDB796
:100B3000DEB729970FB6F894DEBF0FBECDBF6DE1CB
:100B400074E08DE090E00E945704809129048F5F4B
:100B500080932904E0912B04F0E0EE0FFF1FE45F87
:100B6000FE4F108120911D0430911E043A83298389
:100B70008B83809128048C831D8380911F04909126
:100B800020049F838E8380911B0490911C0499877D
:100B9000888781E591E00E94C1088FE691E00E947C
:100BA000350A80911D0490911E040E94630A80E81A
:100BB00091E00E94350A809129040E94220A87E967
:100BC00091E00E94350A809128040E94220A86EA58
:100BD00091E00E94350A812F0E94220A86EB91E063
:100BE0000E94350A60911F047091200480912104B5
:100BF000909122044AE00E94E10980EC91E00E9479
:100C0000AF0881E591E00E94C1086091290484E069
:100C100090E00E94AF0483EC91E00E94350A84E0EA
:100C200090E00E94B1040E94220A009119041091E0
:100C30001A04CE0101967C01580199E0A90EB11C5D
:100C4000F701D1907F01C8010E940212D81621F04D
:100C50006D2DC8010E940A120F5F1F4FA016B1062A
:100C600079F78091190490911A049C012E5E3F4FF0
:100C70002115344030F4099690931A048093190496
:100C800004C010921A041092190469E174E08AE019
:100C900090E00E946B0480911D0490911E040196C7
:100CA00090931E0480931D046DE174E08DE090E04C
:100CB00029960FB6F894DEBF0FBECDBFDF91CF915E
:100CC0001F910F91FF90EF90DF90BF90AF900C9429
:100CD0006B04CF93DF9387ED94E00E94FF0340E025
:100CE00066E987ED94E00E94CB03C2E3D4E069910A
:100CF00040E087ED94E00E94CB0384E0CA33D8073C
:100D0000B1F740E06CE387ED94E00E94CB0387ED00
:100D100094E0DF91CF910C94FF0361110C94960441
:100D20000E94570887ED94E00E94FF030E9440084C
:100D30008FEF0C946508CF93DF93EC0180912C0426
:100D4000811105C082E00E9419020197A9F082E09A
:100D50000E941902019721F480912C04811110C086
:100D600082E00E941902892B49F080912C048111A4
:100D700003C082E00E94190288EC21C084E61FC0F3
:100D8000209761F40E945708982F817091FD82602E
:100D900092FD846093FF13C0886011C0C130D105FB
:100DA00029F40E9457088295817009C0229731F476
:100DB0000E94570885FB882780F901C080E0DF91F9
:100DC000CF91089561E080E10E94420287E00E9495
:100DD00019020197D9F760E080E10C94420261E0CA
:100DE00080E10E94420287E00E941902892BD9F714
:100DF00060E080E10C94420260E070E083E00C94DB
:100E0000AD0283E28093B00089E08093B10080EE70
:100E10008093B3008FE68093B4006FEF70E083E0BF
:100E20000E94AD026FE070E080E090E00E940C0351
:100E300061EE70E083E00C94AD020E94010768EC63
:100E400070E080E090E00E940C0380912A048823E7
:100E500051F08091250490912604019690932604E8
:100E600080932504089564E670E080E090E00E949D
:100E70000C030E94EF066CE271E080E090E00E94BB
:100E80000C030E94FC06109226041092250408957B
:100E90001F920F920FB60F9211242F933F934F93EF
:100EA0005F936F937F938F939F93AF93BF93EF93D2
:100EB000FF93EFE6F0E080818E7F808380818D7FDD
:100EC000808310928500109284000E941D07FF917C
:100ED000EF91BF91AF919F918F917F916F915F91B2
:100EE0004F913F912F910F900FBE0F901F9018952B
:100EF0000E9401070E94E20688E00E941902019701
:100F0000D9F768E770E080E090E00E940C0310924F
:100F10002704F89410928000109281008FEF86BB16
:100F2000109285001092840082E083BD809123049A
:100F300090912404909389008093880080916F00A1
:100F4000816080936F0080916F00826080936F005A
:100F5000789487E0809381000C94FC069091D704EC
:100F6000E091D804F091D904F8948181892B818390
:100F70002281892F809528232283A2E0B0E0119757
:100F8000F1F7218182238183A0E1B0E01197F1F78D
:100F900080817894E6E6F0E03197F1F7982381E0DC
:100FA00009F480E008950F931F93CF93DF9308E037
:100FB00010E0C0E0D1E00E94AE078111CD2BDD0F23
:100FC00001501109C1F78C2FDF91CF911F910F9123
:100FD0000895CF92DF92EF92FF920F931F93CF93DA
:100FE000DF936C017A018B01C0E0D0E0CE15DF0504
:100FF00081F0D8016D918D01D601ED91FC910190A8
:10100000F081E02DC6010995892B11F02196EECFD4
:101010007E01C701DF91CF911F910F91FF90EF905B
:10102000DF90CF9008950E94991390912C0189131D
:1010300024C0E0E9F0E0E4919FEF90932C01E130CF
:10104000B9F098F0E230C9F4909170009D7F9093D0
:10105000700091E09093B0009091B100987F9460FF
:101060009093B1001092B30008C010926E0005C0BA
:1010700090916F009D7F90936F0060E00C9442020E
:10108000CF93DF9340E065E587ED94E00E94CB03CA
:10109000C2E3D4E0699140E087ED94E00E94CB0385
:1010A00084E0CA33D807B1F7DF91CF91089587ED77
:1010B00094E00E94FF030E94400841E065EF87ED45
:1010C00094E00E94CB030C94D307CF93C82F41E048
:1010D0006AE587ED94E00E94CB0341E06C2F87ED39
:1010E00094E00E94CB036C2F609541E087ED94E083
:1010F0000E94CB030E94D3078A3A31F40E94D3079F
:10110000C81302C081E001C080E0CF910895EAE3F6
:10111000F4E0A089B18982E08C93A485B5851C9206
:10112000A685B78587E68C93108EA489B58986E05D
:101130008C93A289B3898C9180618C93A289B389A5
:101140008C9188608C93A289B3898C9180688C93F0
:101150000288F389E02D80818F7D80830895009738
:1011600069F0FC0101900020E9F73197AF01481BBD
:10117000590BBC018AE394E00C94E90780E090E00D
:101180000895CF93DF930E94AF08EC0180EC91E0CB
:101190000E94AF088C0F9D1FDF91CF9108954F9251
:1011A0005F926F927F928F929F92AF92BF92CF92F7
:1011B000DF92EF92FF920F931F93CF93DF9300D0B4
:1011C00000D000D0CDB7DEB76C0161E086E00E94B0
:1011D00071020E944603812C912C54011E821D82B3
:1011E0009B01AC012C53364F4F4F5F4F29833A83FD
:1011F0004B835C830D2C000CEE08FF080E94460315
:1012000029813A814B815C816217730784079507B6
:1012100020F50E9446032B013C01DC01CB0188191B
:101220009909AA09BB098C159D05AE05BF0530F3C8
:101230000D811E8131E00327A801417055275E838F
:101240004D8389EF93E00E94C108602F617086E0B2
:101250000E948D0653014201D1CF61E086E00E94D9
:10126000710286E00E94150826960FB6F894DEBF3C
:101270000FBECDBFDF91CF911F910F91FF90EF90E7
:10128000DF90CF90BF90AF909F908F907F906F90A6
:101290005F904F900895DF92EF92FF920F931F930C
:1012A000CF93DF931092E2041092E4041092E304CF
:1012B000E2EEF4E08AEDE82E84E0F82E129284E06B
:1012C000EA3DF807D9F787ED94E00E94FF0381110A
:1012D00007C01092E2041092E4041092E30468C084
:1012E00040E060EF87ED94E00E94CB03D1E000E0A6
:1012F000D12CC1E00E94AE07182F0E94AE0711301A
:1013000019F48130C1F436C0202F30E018131DC00D
:101310008091E204C81738F4F901E952FB4F838148
:101320008D2349F402C08C1731F010E0C93060F40D
:10133000C093E30409C0E02FF0E0E952FB4F838142
:101340008D2B838311E009C0DC2EF901E952FB4F9C
:1013500093818D2F809589238383612F87ED94E07E
:101360000E949C03CF5FDD0F11F40F5FD1E00830C6
:1013700008F4C0CFC13408F4ACCFD092E204D1104D
:1013800003C081E08093E4048091DA04882309F4A7
:10139000A0CFE2E3F4E0D7018D917D018193B4E029
:1013A000EA33FB07C1F781E090913204993209F0EA
:1013B00080E0DF91CF911F910F91FF90EF90DF9030
:1013C00008958F929F92AF92BF920F931F93CF93E6
:1013D000DF93CDB7DEB7A1970FB6F894DEBF0FBE8F
:1013E000CDBF19A2423008F44AE08E010F5D1F4FB5
:1013F000842E912CA12CB12CA50194010E945D1387
:10140000E62FB901CA0101501109EA3014F4E05D78
:1014100001C0E95CD801EC93232B242B252B61F729
:10142000C8010E94AF08A1960FB6F894DEBF0FBEA8
:10143000CDBFDF91CF911F910F91BF90AF909F9043
:101440008F900895CF93DF93682F70E080E090E055
:101450004AE00E94E109EC0180EC91E00E94AF08B3
:101460008C0F9D1FDF91CF9108950C94AF08CF9200
:10147000DF92EF92FF92CF93DF9397FF1BC06B0138
:101480007C016DE28AE394E00E94FA00EC01662799
:101490007727CB016C197D098E099F094AE00E94CC
:1014A000E1098C0F9D1FDF91CF91FF90EF90DF90AE
:1014B000CF9008954AE0DF91CF91FF90EF90DF90B9
:1014C000CF900C94E109CF93DF93BC01990F880B67
:1014D000990B0E94370AEC0180EC91E00E94AF0862
:1014E0008C0F9D1FDF91CF9108951F920F920FB621
:1014F0000F9211242F933F934F935F936F937F939A
:101500008F939F93AF93BF93EF93FF938091E604E4
:101510009091E704A091E804B091E904892B8A2B0B
:101520008B2B41F19091E5048091000089278093F5
:1015300000008091E6049091E704A091E804B09146
:10154000E904181619061A061B06C4F48091E6046D
:101550009091E704A091E804B091E9040197A109F2
:10156000B1098093E6049093E704A093E804B09354
:10157000E90404C080912C010E941508FF91EF91AD
:10158000BF91AF919F918F917F916F915F914F919B
:101590003F912F910F900FBE0F901F901895CF93F2
:1015A000DF93CDB7DEB72B970FB6F894DEBF0FBE33
:1015B000CDBF789484B5826084BD84B5816084BDDC
:1015C00085B5826085BD85B5816085BD80916E00E1
:1015D000816080936E001092810080918100826012
:1015E000809381008091810081608093810080914F
:1015F00080008160809380008091B100846080933E
:10160000B1008091B00081608093B00080917A0039
:10161000846080937A0080917A00826080937A005F
:1016200080917A008E7F80937A0080917A00806822
:1016300080937A001092C100109215041092160443
:1016400010921704109218040E94870883ED91E00D
:101650000E94C10861E08DE00E94710261E081E1B9
:101660000E94710261E083E00E94710261E08BE000
:101670000E94710262E08CE00E94710262E082E0EE
:101680000E94710262E088E00E94710262E087E0DD
:101690000E94710260E08FE00E94710260E08EE0C3
:1016A0000E94710261E084E00E94710260E084E0C7
:1016B0000E94420261E080E10E94710260E080E1EC
:1016C0000E94420260E070E083E00E94AD0260E0B0
:1016D00070E08BE00E94AD0280E090E00E94B104D7
:1016E000182F81E090E00E94B104133511F4883581
:1016F00009F163E580E090E00E94AF0468E581E0D5
:1017000090E00E94AF0485E690E09B878A87BE0147
:10171000665F7F4F8AE090E00E946B0481E090E07A
:101720009A838983BE016F5F7F4F8DE090E00E94B6
:101730006B0434C080912A04882321F18091310404
:10174000882301F163E580E090E00E94AF0468E542
:1017500081E090E00E94AF0485E690E09B878A8755
:10176000BE01665F7F4F8AE090E00E946B0481E0DB
:1017700090E09A838983BE016F5F7F4F8DE090E098
:101780000E946B0469E174E08AE090E00E945704D3
:101790006DE174E08DE090E00E9457040E944B09D7
:1017A000182F80932C0481110E9469068FE00E94FB
:1017B0001902892BB1F48EE00E941902892B89F459
:1017C000112379F084E090E00E94B10408E010E079
:1017D000081B1109101611060CF4D7C086E00E94F0
:1017E000960487E00E941902892B09F0EBC088E07B
:1017F0000E941902892B09F0E5C011E0EFEECE2E10
:10180000DD24D394F9E06F2E00EEAFE67A2EF0904F
:101810002C040E944B0980932C04882359F1F11069
:101820000FC00E94690686E00E94960468EC70E092
:1018300080E090E00E940C0360E086E00E948D064C
:1018400080E090E00E949B0680932B0481E090E072
:101850000E949B0691E0811101C090E090932A04C0
:1018600082E090E00E949B0691E0811101C090E02F
:101870009093310480913104811118C0E0912B04C0
:10188000F0E07F01EE0CFF1CF701E45FFE4F80816A
:1018900091818C599F4F029708F497C080E090E0A7
:1018A0000E949B06883C09F052C08FC060E08DE02A
:1018B0000E94420260E081E10E944202F0902B040B
:1018C0008BE08F1508F443C081EE90E00E94C604BF
:1018D00020910C0130910D01281B390B37FF03C0FB
:1018E000319521953109AEE0B1E061E070E0FB0196
:1018F00031974D915D91481B590B57FF03C051958E
:1019000041955109421753074CF4FB0131969A0156
:10191000EB30F10511F0BF01EACFFB018F2D90E014
:101920008E179F073CF461E081E10E94420260E073
:101930008DE00BC0E817F90714F461E001C060E026
:101940008DE00E94420260E081E10E9442028FE04D
:101950000E941902019731F48EE00E941902892B2E
:1019600009F44DC08FE00E941902892B09F062C072
:101970008EE00E941902019709F05CC0F0902904E2
:1019800097E09F1508F462C055C0EE24E394F12C53
:1019900068EC70E080E090E00E940C0386E00E941A
:1019A000960468EC70E080E090E00E940C0360E038
:1019B00086E00E948D062FEFE21AF20A0E151F052F
:1019C0003CF70FCF0E94EF0618CFF701E45FFE4F00
:1019D000808191818D399F4F79F081EE90E00E9456
:1019E000C60420911A0130911B018217930714F04D
:1019F00061E0AACF60E098CF8FEE91E0F0CF109237
:101A0000290460E084E090E00E94AF0460E086E09A
:101A10000E948D0686E00E9496040E9401070E94A3
:101A2000E2060E94EF060E94FC0660E086E00E944B
:101A30008D0698CF8FE00E941902892BC9F48EE0A1
:101A40000E941902892B09F48FC112C086E00E94FE
:101A500096048CE00E941902892B29F480913104AC
:101A6000882309F4C1C08CE00E941902892B19F067
:101A70000E946901CCCE809131048823C9F3809102
:101A80001D0490911E049A838983809129048B837D
:101A9000809128048C831D8280911F0490912004E2
:101AA0009F838E831986188669E174E08AE090E04E
:101AB0000E9457040E94870885EB93E00E94C108AA
:101AC000809100018090190490901A0498E4899FF5
:101AD000801891081124A12CB12CBE016F5F7F4F9B
:101AE0007401EA0CFB1CC7010E943104B701FF0C12
:101AF000880B990B0E94370A8DEE92E00E94350AFE
:101B00006091000170E080E090E04AE00E94E1090D
:101B10008DEE92E00E94350A6B8170E080E090E0EB
:101B20004AE00E94E1098DEE92E00E94350A698147
:101B30007A81072E000C880B990B0E94370A8DEED4
:101B400092E00E94350A6C8170E080E090E04AE00B
:101B50000E94E1098C81811104C08BED92E00E940A
:101B6000350A8C81813021F484EE92E00E94350A9E
:101B70008C81823021F48FEE92E00E94350A8C81B4
:101B8000843021F482E093E00E94350A8C81863013
:101B900021F484E193E00E94350A8C81873021F49E
:101BA0008FE193E00E94350A8C81883021F486E22F
:101BB00093E00E94350A6D8170E080E090E04AE099
:101BC0000E94E1098DEE92E00E94350A89E0A80E9C
:101BD000B11C98E4A916B10409F07FCF80910001EF
:101BE0008F5F8093000144CF80911D0490911E046B
:101BF0009A838983FB821C821D821F821E82198622
:101C00001886BE016F5F7F4F8091190490911A046E
:101C10000E94310469E174E08AE090E00E94570478
:101C2000A0901904B0901A04750188E4E81AF1082C
:101C30008DE393E00E94C1088BE793E00E94350A90
:101C40008091190490911A040E94630A8BE993E031
:101C50000E94350AC7010E94630ABE016F5F7F4F71
:101C6000C7010E9431048BEE91E00E94C10883E21B
:101C700092E00E94350AC7010E94630A8FE492E055
:101C80000E94350A89819A810E94630A88E492E061
:101C90000E94350A8B810E94220A8AE592E00E9406
:101CA000350A8C810E94220A86E692E00E94350A5B
:101CB0008C81811104C08EE692E00E94C1088C8163
:101CC000813021F485E792E00E94C1088C81823046
:101CD00021F48EE792E00E94C1088C81843021F4C7
:101CE0008FE892E00E94C1088C81853021F48FE951
:101CF00092E00E94C1088C81863021F48CEA92E047
:101D00000E94C1088C81873021F485EB92E00E940B
:101D1000C1088C81883021F48AEB92E00E94C108CE
:101D20008CEB92E00E94350A8D810E94220A8CEC95
:101D300092E00E94350A8E819F810E94630A83EDA2
:101D400092E00E94350A888599850E94630A29E0FD
:101D5000E20EF11CAE14BF0409F07FCF80910001A8
:101D60008F5F809300017FCE84E090E00E94B104F9
:101D7000809329048CE00E941902892B09F05EC02F
:101D8000E0912B04F0E0EE0FFF1FE45FFE4F808137
:101D900091818F399F4F09F051C087E080932804CB
:101DA0000E948E050E9401070E94E20688E00E94C0
:101DB00019020197D9F768E270E080E090E00E9494
:101DC0000C03F0903104FF2029F06FEF70E08BE0FE
:101DD0000E94AD020E94FC06FF2029F062E870E03C
:101DE0008BE00E94AD028CE00E941902892BD9F38E
:101DF000FF2091F087E00E94960461E070E080E0AF
:101E000090E00E940C0360E070E08BE00E94AD0265
:101E100060E087E00E948D060E94010768EC70E098
:101E200080E090E00E940C030E94EF0668EC70E0F6
:101E300080E090E00E940C030E94FC068CE00E946F
:101E40001902892BF1F5E0912B04F0E0EE0FFF1F52
:101E5000E45FFE4F808191818E399F4F91F588E03C
:101E6000809328040E948E050E9401070E94E206CA
:101E700088E00E9419020197D9F768E270E080E0DB
:101E800090E00E940C030E94FC068CE00E94190264
:101E90000197D9F38CE00E941902892B11F40E945A
:101EA000010768EC70E080E090E00E940C030E9463
:101EB000EF0668EC70E080E090E00E940C030E9466
:101EC000FC061092270462E08CE00E9471028CE014
:101ED0000E9419029C01BB24B394892B09F4B12CF4
:101EE000B0920B0190910A01232B09F045C0992370
:101EF00009F49FC00E94460320900601309007011C
:101F00004090080150900901DC01CB01821993092E
:101F1000A409B5094597A105B10508F48AC00E9436
:101F20004603609302017093030180930401909330
:101F30000501109230041093010110922F040E94A9
:101F40004603DC01CB0182199309A409B5098A3F34
:101F50009105A105B10568F480912E04811109C095
:101F600080912D04882329F010932E0410922D04C3
:101F700060C010922E04FACF911128C00E9446032F
:101F8000209102013091030140910401509105011B
:101F9000DC01CB01821B930BA40BB50B4597A1056C
:101FA000B105A0F080913004811110C00E94460359
:101FB00060930601709307018093080190930901D3
:101FC00080912E048111A5C110932D04E12CF12CD8
:101FD0000E944603209106013091070140910801BB
:101FE00050910901DC01CB01821B930BA40BB50BB3
:101FF0008A3F9105A105B10508F440C080912D04E8
:102000008823E1F180912E04811138C08091010173
:102010008823A1F182E0E816F10409F487C1109247
:102020002D0410930A0110922804EE24E394F12C5D
:102030002BC00E9446032091020130910301409180
:10204000040150910501DC01CB01821B930BA40B11
:10205000B50B8E359140A105B10508F43DC08091C6
:102060002F04811160C11093300410922E0410923D
:102070002D0410932F0433E0E32EF12CB0920A01CB
:1020800010922804E0FE0BC01093270492E0E9169A
:10209000F10449F080912A04811144C027C022E054
:1020A000E216F104E9F40E9446038AE293E00E94FA
:1020B000C10888EE93E00E94CF0888E592E00E9474
:1020C000CF0888EC90E00E94CF0880E590E00E9465
:1020D000CF081093270404C0B0920A01109228047C
:1020E00080912704882309F4C3CCD4CF80912504A0
:1020F0009091260418161906ACF40E948E051092D1
:1021000026041092250460E086E00E948D060E945D
:10211000EF0662E370E080E090E00E940C030E9412
:10212000FC06A6CC80E090E00E949B06843609F075
:1021300062C084E090E00E94B104809329040E9470
:102140008E0583E28093B0006092B1000093B300EB
:102150007092B4006FEF70E08BE00E94AD020E94BD
:1021600001070E94E20688E00E9419020197D9F750
:1021700062E870E08BE00E94AD0268E770E080E00A
:1021800090E00E940C030E94FC0662E470E080E094
:1021900090E00E940C0361E084E00E94420262E051
:1021A00070E080E090E00E940C0360E070E08BE063
:1021B0000E94AD0260E084E00E94420264E170E0AF
:1021C00080E090E00E940C030E94010768EC70E040
:1021D00080E090E00E940C030E94EF0668EC70E043
:1021E00080E090E00E940C030E94FC0610922604FE
:1021F000109225043DCC80E090E00E949B06883C34
:1022000069F481EE90E090932404809323040E946B
:102210008E0510922604109225041AC080912B047A
:10222000843608F025CCE82EF12CEE0CFF1CF701CB
:10223000E45FFE4F808191818C392FEF920759F432
:1022400081EE90E090932404809323040E948E05F5
:102250000E9478070DCC8D399F4F29F4D092240429
:10226000C0922304F3CF0E94010764E670E080E08F
:1022700090E00E940C030E94E20688E00E9419028E
:102280000197D9F768E770E080E090E00E940C03C6
:102290000E94B304F701E45FFE4FE080F18089E023
:1022A000E80EF11C0E94FC06B7010F2C000C880BF5
:1022B000990B0E940C0399E1E916F1046CF087E098
:1022C0000E94960461E070E080E090E00E940C03C0
:1022D00060E087E00E948D060E9401076AE070E0DE
:1022E00080E090E00E940C03F8948091840090912B
:1022F0008500A0E0B0E080931F0490932004A09399
:102300002104B093220478940E941D070E948E0538
:10231000AFCB10922E0410922D041092010142E0D6
:10232000E42EF12C55CEE12CF12CA8CE10930A010D
:1023300010922804B8CE10923D0410923C0488EE0E
:1023400093E0A0E0B0E080933E0490933F04A0931C
:102350004004B093410481E391E090933B04809367
:102360003A0485EC90E0909347048093460484EC13
:1023700090E0909349048093480480EC90E090931F
:102380004B0480934A0481EC90E090934D04809339
:102390004C0482EC90E090934F0480934E0486ECC2
:1023A00090E0909351048093500410925304109243
:1023B0005404109255041092560460E082E00E948A
:1023C0007102E1EBF0E0E491E093D704EDE9F0E095
:1023D000E491F0E0EE0FFF1FEF56FF4F85919491CF
:1023E0009093D9048093D8041092E2041092E404EC
:1023F0001092E304E2EEF4E0129284E0EA3DF80782
:10240000D9F70895F999FECF92BD81BDF89A992721
:1024100080B50895262FF999FECF1FBA92BD81BDD0
:1024200020BD0FB6F894FA9AF99A0FBE0196089556
:102430005058BB27AA270E9430120C940F130E94F9
:10244000011338F00E94081320F039F49F3F19F46B
:1024500026F40C94FE120EF4E095E7FB0C94F812AF
:10246000E92F0E94201358F3BA17620773078407F5
:10247000950720F079F4A6F50C9442130EF4E0953C
:102480000B2EBA2FA02D0B01B90190010C01CA012E
:10249000A0011124FF27591B99F0593F50F4503ED9
:1024A00068F11A16F040A22F232F342F4427585FCB
:1024B000F3CF469537952795A795F0405395C9F7E3
:1024C0007EF41F16BA0B620B730B840BBAF091509B
:1024D000A1F0FF0FBB1F661F771F881FC2F70EC03A
:1024E000BA0F621F731F841F48F48795779567950D
:1024F000B795F7959E3F08F0B0CF9395880F08F0F9
:102500009927EE0F9795879508950E948C126894ED
:10251000B1110C94431308950E94281388F09F571B
:1025200098F0B92F9927B751B0F0E1F0660F771FF7
:10253000881F991F1AF0BA95C9F714C0B13091F0ED
:102540000E944213B1E008950C944213672F782F34
:102550008827B85F39F0B93FCCF3869577956795B2
:10256000B395D9F73EF490958095709561957F4F1E
:102570008F4F9F4F0895E89409C097FB3EF49095C4
:102580008095709561957F4F8F4F9F4F9923A9F04C
:10259000F92F96E9BB279395F695879577956795DB
:1025A000B795F111F8CFFAF4BB0F11F460FF1BC01F
:1025B0006F5F7F4F8F4F9F4F16C0882311F096E9B2
:1025C00011C0772321F09EE8872F762F05C0662360
:1025D00071F096E8862F70E060E02AF09A95660F19
:1025E000771F881FDAF7880F9695879597F90895D2
:1025F00097F99F6780E870E060E008959FEF80ECB6
:10260000089500240A941616170618060906089558
:1026100000240A9412161306140605060895092EBE
:102620000394000C11F4882352F0BB0F40F4BF2B2D
:1026300011F460FF04C06F5F7F4F8F4F9F4F08956D
:1026400057FD9058440F551F59F05F3F71F0479563
:10265000880F97FB991F61F09F3F79F08795089548
:10266000121613061406551FF2CF4695F1DF08C067
:10267000161617061806991FF1CF86957105610584
:1026800008940895E894BB2766277727CB0197F92C
:10269000089597FB072E16F4009407D077FD09D014
:1026A0000E947F1307FC05D03EF4909581959F4FC3
:1026B0000895709561957F4F0895A1E21A2EAA1B87
:1026C000BB1BFD010DC0AA1FBB1FEE1FFF1FA217E2
:1026D000B307E407F50720F0A21BB30BE40BF50BDF
:1026E000661F771F881F991F1A9469F76095709568
:1026F000809590959B01AC01BD01CF010895AA1B67
:10270000BB1B51E107C0AA1FBB1FA617B70710F0DC
:10271000A61BB70B881F991F5A95A9F7809590950E
:10272000BC01CD010895EE0FFF1F0590F491E02D3F
:10273000099481E090E0F8940C949E13F894FFCFF4
:102740000101FFFFFFFFFFFFFFFF01010200030088
:10275000050006000A000F00160022002A005000A3
:102760008C0022019CFF9DFF9EFF9FFFFF00000049
:1027700000FA00E90791004701C200A000B4004F31
:10278000766572666C6F77204F636375726564213E
:10279000002A2A2A2A2A2A2A2A2A2A2A2A2A2A2AC3
:1027A0002A2A2A2A2A2A2A2A2A2A2A2A2A2A00419C
:1027B000637475616C20706963747572653A20008A
:1027C00043757272656E74207069637475726520EA
:1027D0005061636B3A2000506963747572652074B0
:1027E0007970653A20005368757474657220696E5B
:1027F000206D733A2000436F756E7465723A200045
:102800000D0A00506963747572652074616B656EA2
:102810003A20006F70656E535837302121212121F5
:1028200021212121212121212121003D3D3D3D3D2D
:102830003D3D3D3D3D3D3D3D3D3D3D3D3D3D3D3DC8
:102840003D3D3D3D3D3D3D3D3D3D3D3D3D3D3D3DB8
:102850003D3D3D3D3D3D3D3D3D3D3D3D3D3D3D3DA8
:102860003D3D006565416464726573732072656106
:10287000642028746869735265636F72644164648C
:1028800072657373293A200043757272656E742005
:10289000506963747572653A200020547970652020
:1028A0007261773A200020547970653A20004D41DA
:1028B0004E55414C004155544F2031303000464C6C
:1028C00041534820444F4E474C454C4553530046D6
:1028D0004C41534820463820444F4E474C45004613
:1028E0004C41534820444F4E474C45004155544FAE
:1028F000203630300042554C420054002053687559
:102900007474657253706565643A2000204C4F57AB
:102910003A200020484947483A20002C4D414E5566
:10292000414C2C002C4155544F203130302C002C80
:10293000464C41534820444F4E474C454C45535319
:102940002C002C464C41534820463820444F4E47DB
:102950004C452C002C4155544F203630302C002C47
:1029600042554C422C002C542C00535441525420BC
:102970003530302C323630302C352C30003D3D3D5A
:102980003D3D3D3D3D3D3D3D3D3D3D3D3D3D3D3D77
:102990003D3D3D3D20456E746572696E67206C6FEC
:1029A0006F70203D3D3D3D3D3D3D3D3D3D3D3D3D0F
:1029B0003D3D3D3D3D3D3D3D3D3D00494E49544938
:1029C000414C20656541646472657373206265667D
:1029D0006F7265206C6F6F703A20005265616441C0
:1029E000646472657373206265666F7265206C6FD4
:1029F0006F703A20006565416464726573732C5092
:102A000061636B2C5061636B206F726465722C5034
:102A10006963747572652C54797065205261772CE6
:102A200020547970652C20536875747465725370E6
:102A30006565642C204C757800545950452032004F
:00000001FF
