:100000000C9463000C948B000C948B000C948B006C
:100010000C948B000C948B000C948B000C94600A55
:100020000C948B000C948B000C948B000C94330775
:100030000C948B000C944B050C948B000C948B004F
:100040000C9452030C948B000C94E7010C94C101A6
:100050000C948B000C948B000C948B000C948B00F4
:100060000C948B000C948B000000000024002700EF
:100070002A0000000000250028002B0000000008D6
:10008000000201000003040700000000000000005F
:1000900002000000002300260029000404040404D8
:1000A0000404040202020202020303030303030125
:1000B00002040810204080010204081020010204FC
:1000C00008102000841111241FBECFEFD8E0DEBF3E
:1000D000CDBF14E0A0E0B1E0E8E9F5E202C0059090
:1000E0000D92A030B107D9F724E0A0E0B4E001C040
:1000F0001D92AA3EB207E1F710E0C3E6D0E004C0CB
:100100002197FE010E94BF12C236D107C9F70E9493
:10011000BA0A0C94CA120C940000089580E090E092
:100120000895FC01538D448D252F30E0842F90E0FD
:10013000821B930B541710F0CF96089501970895E2
:10014000FC01918D828D981761F0828DDF01A80FDF
:10015000B11D5D968C91928D9F5F9F73928F90E001
:1001600008958FEF9FEF0895FC01918D828D981770
:1001700031F0828DE80FF11D858D90E008958FEFAD
:100180009FEF0895FC01918D228D892F90E0805C76
:100190009F4F821B91098F73992708958AE394E0FA
:1001A0000E94C20021E0892B09F420E0822F0895EB
:1001B000FC01848DDF01A80FB11DA35ABF4F2C9104
:1001C000848D90E001968F739927848FA689B789D3
:1001D0002C93A089B1898C91837080648C93938DCA
:1001E000848D981306C00288F389E02D80818F7D6D
:1001F00080830895EF92FF920F931F93CF93DF9325
:10020000EC0181E0888F9B8D8C8D981305C0E88967
:10021000F989808185FD26C0F62E0B8D10E00F5FD9
:100220001F4F0F731127E02E8C8DE8120CC00FB6F4
:1002300007FCFACFE889F989808185FFF5CFCE01E7
:100240000E94D800F1CF8B8DFE01E80FF11DE35A1B
:10025000FF4FF0829FB7F8940B8FEA89FB8980816A
:1002600080620AC09FB7F894EE89FF896083E889AD
:10027000F98980818370806480839FBF81E090E0F2
:10028000DF91CF911F910F91FF90EF900895CF9341
:10029000DF93EC01888D8823C9F0EA89FB8980818E
:1002A00085FD05C0A889B9898C9186FD0FC00FB660
:1002B00007FCF5CF808185FFF2CFA889B9898C91A1
:1002C00085FFEDCFCE010E94D800E7CFDF91CF911F
:1002D000089580E090E0892B29F00E94CE008111E2
:1002E0000C9400000895833081F028F4813099F057
:1002F0008230A1F008958730A9F08830B9F08430B9
:10030000D1F4809180008F7D03C0809180008F7731
:1003100080938000089584B58F7702C084B58F7D67
:1003200084BD08958091B0008F7703C08091B000A4
:100330008F7D8093B00008953FB7F89480911104A9
:1003400090911204A0911304B091140426B5A89BB7
:1003500005C02F3F19F00196A11DB11D3FBFBA2F57
:10036000A92F982F8827820F911DA11DB11DBC01B7
:10037000CD0143E0660F771F881F991F4A95D1F77B
:1003800008951F920F920FB60F9211242F933F934F
:100390004F935F936F937F938F939F93AF93BF938D
:1003A000EF93FF938AE394E00E94D800FF91EF91CE
:1003B000BF91AF919F918F917F916F915F914F917D
:1003C0003F912F910F900FBE0F901F9018951F9285
:1003D0000F920FB60F9211242F938F939F93EF9349
:1003E000FF93E0914A04F0914B048081E091500426
:1003F000F091510482FD12C09081809153048F5F6F
:100400008F7320915404821751F0E0915304F0E06F
:10041000E65CFB4F958F8093530401C08081FF9170
:10042000EF919F918F912F910F900FBE0F901F9082
:100430001895CF93DF93282F30E0F901E458FF4F50
:100440008491F901E155FF4FD491F901E556FF4F31
:10045000C491CC2391F081110E947301EC2FF0E044
:10046000EE0FFF1FEF56FF4FA591B491EC91ED23D6
:1004700081E090E021F480E002C080E090E0DF9134
:10048000CF9108951F93CF93DF93282F30E0F90188
:10049000E458FF4F8491F901E155FF4FD491F901E0
:1004A000E556FF4FC491CC23C1F0162F81110E9455
:1004B0007301EC2FF0E0EE0FFF1FEE58FF4FA591F8
:1004C000B4919FB7F894111104C08C91D095D823A2
:1004D00002C0EC91DE2BDC939FBFDF91CF911F9187
:1004E0000895CF93DF9390E0FC01E155FF4F2491F5
:1004F000FC01E556FF4F8491882361F190E0880F5D
:10050000991FFC01E859FF4FC591D491FC01EE58A9
:10051000FF4FA591B491611109C09FB7F8948881EC
:10052000209582238883EC912E230BC0623061F4E6
:100530009FB7F8948881322F309583238883EC917C
:100540002E2B2C939FBF06C08FB7F894E8812E2BDB
:1005500028838FBFDF91CF9108951F93CF93DF93AF
:10056000182FEB0161E00E947102209711F460E006
:1005700004C0CF3FD10539F461E0812FDF91CF91E5
:100580001F910C944202E12FF0E0E458FF4FE491F8
:10059000E330F9F048F4E130B9F0E230A1F584B588
:1005A000806284BDC8BD34C0E730E9F0E83019F19D
:1005B000E43049F580918000806280938000D09380
:1005C0008B00C0938A0024C084B5806884BDC7BDF9
:1005D0001FC080918000806880938000D093890044
:1005E000C093880015C08091B00080688093B000EF
:1005F000C093B3000DC08091B00080628093B000C2
:10060000C093B40005C0C038D1050CF0B5CFAFCF52
:10061000DF91CF911F9108958F929F92AF92BF92D9
:10062000CF92DF92EF92FF926B017C010E949C01BE
:100630004B015C01C114D104E104F104F1F00E940A
:100640009C01DC01CB0188199909AA09BB09883EE4
:100650009340A105B10570F321E0C21AD108E10869
:10066000F10888EE880E83E0981EA11CB11CC1140D
:10067000D104E104F10419F7DDCFFF90EF90DF9092
:10068000CF90BF90AF909F908F9008952FB7F89420
:1006900060910D0470910E0480910F0490911004EC
:1006A0002FBF08951F920F920FB60F9211242F9310
:1006B0003F938F939F93AF93BF9380910D0490913D
:1006C0000E04A0910F04B091100430910C0426E0A8
:1006D000230F2D3720F40296A11DB11D05C029E876
:1006E000230F0396A11DB11D20930C0480930D04CC
:1006F00090930E04A0930F04B09310048091110402
:1007000090911204A0911304B09114040196A11DBC
:10071000B11D8093110490931204A0931304B0931D
:100720001404BF91AF919F918F913F912F910F90A2
:100730000FBE0F901F901895FC0190810180F281EF
:10074000E02D892F809560FF12C0F89422818223CA
:1007500082838181892B8183A0E1B0E01197F1F739
:100760008281982B928378948AE690E011C0F89465
:100770002281822382838181892B8183AEE7B0E04D
:100780001197F1F78281982B9283789486E090E01C
:100790000197F1F70895DF92EF92FF920F931F9365
:1007A000CF93DF93EC01D62EE42E08E010E0FF2477
:1007B000F39461E08D2D8F2109F460E0CE010E9459
:1007C0009C03FF0C01501109A1F7E11010C0F8942F
:1007D000E981FA8191818881809589238183E981EA
:1007E000FA81928188818095892382837894DF9130
:1007F000CF911F910F91FF90EF90DF900895DC0152
:100800002C911196ED91FC911297F8948181922F81
:1008100090958923818378948DE7815009F1308107
:100820003223D9F3F8948281892382838181822BB8
:1008300081837894ACEBB3E01197F1F7F894818160
:100840009823918388E890E00197F1F7808128232D
:1008500081E009F080E07894E0E3F3E03197F1F78C
:100860000895CF92DF92EF92FF920F931F93CF9351
:10087000DF93EB017B0129E0E20EF11C8B016C019F
:10088000C61AD70AC601800F911F0E94EB11F8010A
:1008900081938F01EE15FF05A9F7CE01DF91CF916E
:1008A0001F910F91FF90EF90DF90CF9008950F93DD
:1008B0001F93CF93DF938C01EB010E94EB11888390
:1008C000C80101960E94EB118983CE01DF91CF917F
:1008D0001F910F910895AF92BF92DF92EF92FF9216
:1008E0000F931F93CF93DF93EC017B018B015C018E
:1008F00082E0A80EB11CF801D1908F01CE010E94B8
:10090000EB11D81621F06D2DCE010E94F311219626
:10091000CA15DB0581F7C701DF91CF911F910F91B8
:10092000FF90EF90DF90BF90AF900895CF93C82FC6
:100930000E94420887ED94E00E94FF030E942B086A
:1009400081E090E0A0E0B0E004C0880F991FAA1FEA
:10095000BB1FCA95D2F78095CF910C9450080C9488
:10096000F3110C94EB11F8948FEF86BB109280007A
:100970001092850010928400E1E8F0E080818460AC
:100980008083808182608083789408958F929F9283
:10099000AF92BF92CF92DF92EF92FF92CF93DF930D
:1009A000EC010E944603C0901504D0901604E0901C
:1009B0001704F0901804DC01CB018C199D09AE09D5
:1009C000BF0984369105A105B10508F454C0809192
:1009D000840090918500A0E0B0E080931F04909384
:1009E0002004A0932104B093220410928500109259
:1009F00084000E944603C0901504D0901604E09035
:100A00001704F09018049B01AC012C193D094E0904
:100A10005F0969017A010E9446036093150470938F
:100A2000160480931704909318040E94B3044E0197
:100A3000DD0FAA08BB0860911F047091200480910B
:100A4000210490912204A70196010E949D122F5F1C
:100A50003F4F4F4F5F4FC501B4010E949D12CA0125
:100A6000B9010E9437120E9401129B0170930B047E
:100A700060930A0404C020910A0430910B04C90158
:100A8000DF91CF91FF90EF90DF90CF90BF90AF902C
:100A90009F908F9008951F920F920FB60F9211247E
:100AA0002F933F934F935F936F937F938F939F9376
:100AB000AF93BF93EF93FF938FE391E00E94200ADF
:100AC000EFE6F0E080818E7F808380818D7F808360
:100AD000FF91EF91BF91AF919F918F917F916F9116
:100AE0005F914F913F912F910F900FBE0F901F90EC
:100AF0001895AF92BF92DF92EF92FF920F931F93E0
:100B0000CF93DF93CDB7DEB729970FB6F894DEBF4A
:100B10000FBECDBF6DE174E08DE090E00E94570400
:100B2000809129048F5F80932904E0912B04F0E0E9
:100B3000EE0FFF1FE45FFE4F108120911D043091E6
:100B40001E043A8329838B83809128048C831D8320
:100B500080911F04909120049F838E8380911B04B9
:100B600090911C049987888781E591E00E94AC08E8
:100B70008FE691E00E94200A80911D0490911E044E
:100B80000E944E0A80E891E00E94200A8091290488
:100B90000E940D0A87E991E00E94200A80912804B2
:100BA0000E940D0A86EA91E00E94200A812F0E948D
:100BB0000D0A86EB91E00E94200A60911F0470915B
:100BC000200480912104909122044AE00E94CC09E3
:100BD00080EC91E00E949A0881E591E00E94AC08C7
:100BE0006091290484E090E00E94AF0483EC91E0DE
:100BF0000E94200A84E090E00E94B1040E940D0A45
:100C00000091190410911A04CE0101967C0158013B
:100C100099E0A90EB11CF701D1907F01C8010E9493
:100C2000EB11D81621F06D2DC8010E94F3110F5F52
:100C30001F4FA016B10679F78091190490911A04FC
:100C40009C012E5E3F4F2115344030F4099690935D
:100C50001A048093190404C010921A041092190403
:100C600069E174E08AE090E00E946B0480911D04C9
:100C700090911E04019690931E0480931D046DE1D3
:100C800074E08DE090E029960FB6F894DEBF0FBEB9
:100C9000CDBFDF91CF911F910F91FF90EF90DF902B
:100CA000BF90AF900C946B04CF93DF9387ED94E0EB
:100CB0000E94FF0340E066E987ED94E00E94CB03C9
:100CC000C2E3D4E0699140E087ED94E00E94CB0359
:100CD00084E0CA33D807B1F740E06CE387ED94E0D5
:100CE0000E94CB0387ED94E0DF91CF910C94FF033A
:100CF00061110C9496040E94420887ED94E00E94D2
:100D0000FF030E942B088FEF0C945008CF93DF93C2
:100D1000EC0180912C04811105C082E00E9419022F
:100D20000197A9F082E00E941902019721F48091B5
:100D30002C04811110C082E00E941902892B49F015
:100D400080912C04811103C082E00E94190288EC7A
:100D500021C084E61FC0209761F40E944208982FAA
:100D6000817091FD826092FD846093FF13C0886062
:100D700011C0C130D10529F40E94420882958170CA
:100D800009C0229731F40E94420885FB882780F928
:100D900001C080E0DF91CF91089561E080E10E9481
:100DA000420287E00E9419020197D9F760E080E1D2
:100DB0000C94420261E080E10E94420287E00E94BE
:100DC0001902892BD9F760E080E10C94420260E0BF
:100DD00070E083E00C94AD0283E28093B00089E080
:100DE0008093B10080EE8093B3008FE68093B400CF
:100DF0006FEF70E083E00E94AD026FE070E080E092
:100E000090E00E940C0361EE70E083E00C94AD0270
:100E10000E94EC0668EC70E080E090E00E940C0319
:100E200080912A04882351F0809125049091260412
:100E300001969093260480932504089564E670E05B
:100E400080E090E00E940C030E94DA066CE271E000
:100E500080E090E00E940C030E94E70610922604B6
:100E60001092250408951F920F920FB60F9211242D
:100E70002F933F934F935F936F937F938F939F93A2
:100E8000AF93BF93EF93FF93EFE6F0E080818E7F07
:100E9000808380818D7F80831092850010928400F2
:100EA0000E940807FF91EF91BF91AF919F918F91A1
:100EB0007F916F915F914F913F912F910F900FBE56
:100EC0000F901F9018950E94EC060E94CD0688E0B6
:100ED0000E9419020197D9F768E770E080E090E07E
:100EE0000E940C0310922704F89410928000109234
:100EF00081008FEF86BB109285001092840082E003
:100F000083BD809123049091240490938900809361
:100F1000880080916F00816080936F0080916F00E6
:100F2000826080936F00789487E0809381000C94B6
:100F3000E7069091D704E091D804F091D904F89491
:100F40008181892B81832281892F80952823228387
:100F5000A2E0B0E01197F1F7218182238183A0E123
:100F6000B0E01197F1F780817894E6E6F0E03197F0
:100F7000F1F7982381E009F480E008950F931F931F
:100F8000CF93DF9308E010E0C0E0D1E00E94990722
:100F90008111CD2BDD0F01501109C1F78C2FDF918D
:100FA000CF911F910F910895CF92DF92EF92FF9210
:100FB0000F931F93CF93DF936C017A018B01C0E0F5
:100FC000D0E0CE15DF0581F0D8016D918D01D601FD
:100FD000ED91FC910190F081E02DC6010995892BDE
:100FE00011F02196EECF7E01C701DF91CF911F91C5
:100FF0000F91FF90EF90DF90CF9008950E94C5125F
:1010000090912C01891324C0E0E9F0E0E4919FEF76
:1010100090932C01E130B9F098F0E230C9F490914E
:1010200070009D7F9093700091E09093B00090913C
:10103000B100987F94609093B1001092B30008C003
:1010400010926E0005C090916F009D7F90936F008D
:1010500060E00C944202CF93DF9340E065E587EDBA
:1010600094E00E94CB03C2E3D4E0699140E087EDB5
:1010700094E00E94CB0384E0CA33D807B1F7DF9134
:10108000CF91089587ED94E00E94FF030E942B0802
:1010900041E065EF87ED94E00E94CB030C94BE071E
:1010A000CF93C82F41E06AE587ED94E00E94CB031F
:1010B00041E06C2F87ED94E00E94CB036C2F60958C
:1010C00041E087ED94E00E94CB030E94BE078A3A7C
:1010D00031F40E94BE07C81302C081E001C080E065
:1010E000CF910895EAE3F4E0A089B18982E08C937E
:1010F000A485B5851C92A685B78587E68C93108E4E
:10110000A489B58986E08C93A289B3898C9180618A
:101110008C93A289B3898C9188608C93A289B389BE
:101120008C9180688C930288F389E02D80818F7D7B
:1011300080830895009769F0FC0101900020E9F791
:101140003197AF01481B590BBC018AE394E00C9422
:10115000D40780E090E00895CF93DF930E949A082F
:10116000EC0180EC91E00E949A088C0F9D1FDF91AA
:10117000CF9108954F925F926F927F928F929F923C
:10118000AF92BF92CF92DF92EF92FF920F931F9395
:10119000CF93DF9300D000D000D0CDB7DEB76C0185
:1011A00061E086E00E9471020E944603812C912C2E
:1011B00054011E821D829B01AC012C53364F4F4FB0
:1011C0005F4F29833A834B835C830D2C000CEE0820
:1011D000FF080E94460329813A814B815C81621796
:1011E00073078407950720F50E9446032B013C01F5
:1011F000DC01CB0188199909AA09BB098C159D0549
:10120000AE05BF0530F30D811E8131E00327A80133
:10121000417055275E834D8389EF93E00E94AC08AF
:10122000602F617086E00E94780653014201D1CFA1
:1012300061E086E00E94710286E00E940008269626
:101240000FB6F894DEBF0FBECDBFDF91CF911F91D7
:101250000F91FF90EF90DF90CF90BF90AF909F9055
:101260008F907F906F905F904F900895DF92EF92F4
:10127000FF920F931F93CF93DF931092E20410928B
:10128000E4041092E304E2EEF4E08AEDE82E84E058
:10129000F82E129284E0EA3DF807D9F787ED94E042
:1012A0000E94FF03811107C01092E2041092E4042F
:1012B0001092E30468C040E060EF87ED94E00E9484
:1012C000CB03D1E000E0D12CC1E00E949907182F98
:1012D0000E949907113019F48130C1F436C0202FD3
:1012E00030E018131DC08091E204C81738F4F901EA
:1012F000E952FB4F83818D2349F402C08C1731F0F2
:1013000010E0C93060F4C093E30409C0E02FF0E0BE
:10131000E952FB4F83818D2B838311E009C0DC2EC2
:10132000F901E952FB4F93818D2F809589238383A7
:10133000612F87ED94E00E949C03CF5FDD0F11F4D5
:101340000F5FD1E0083008F4C0CFC13408F4ACCF4F
:10135000D092E204D11003C081E08093E404809134
:10136000DA04882309F4A0CFE2E3F4E0D7018D91F9
:101370007D018193B4E0EA33FB07C1F781E09091EE
:101380003204993209F080E0DF91CF911F910F91E3
:10139000FF90EF90DF9008958F929F92AF92BF924F
:1013A0000F931F93CF93DF93CDB7DEB7A1970FB6FF
:1013B000F894DEBF0FBECDBF19A2423008F44AE058
:1013C0008E010F5D1F4F842E912CA12CB12CA501F5
:1013D00094010E949D12E62FB901CA010150110922
:1013E000EA3014F4E05D01C0E95CD801EC93232BF2
:1013F000242B252B61F7C8010E949A08A1960FB6ED
:10140000F894DEBF0FBECDBFDF91CF911F910F913A
:10141000BF90AF909F908F900895CF93DF93682FE8
:1014200070E080E090E04AE00E94CC09EC0180ECA2
:1014300091E00E949A088C0F9D1FDF91CF91089533
:101440000C949A08CF92DF92EF92FF92CF93DF93A2
:1014500097FF1BC06B017C016DE28AE394E00E9460
:10146000FA00EC0166277727CB016C197D098E09FC
:101470009F094AE00E94CC098C0F9D1FDF91CF91FC
:10148000FF90EF90DF90CF9008954AE0DF91CF91E9
:10149000FF90EF90DF90CF900C94CC09CF93DF9327
:1014A000BC01990F880B990B0E94220AEC0180EC79
:1014B00091E00E949A088C0F9D1FDF91CF910895B3
:1014C0001F920F920FB60F9211242F933F934F93B9
:1014D0005F936F937F938F939F93AF93BF93EF939C
:1014E000FF938091E6049091E704A091E804B09105
:1014F000E904892B8A2B8B2B41F19091E504809193
:1015000000008927809300008091E6049091E70411
:10151000A091E804B091E904181619061A061B06F2
:10152000C4F48091E6049091E704A091E804B0919E
:10153000E9040197A109B1098093E6049093E704B7
:10154000A093E804B093E90404C080912C010E94A8
:101550000008FF91EF91BF91AF919F918F917F9183
:101560006F915F914F913F912F910F900FBE0F9010
:101570001F901895CF93DF93CDB7DEB72B970FB69B
:10158000F894DEBF0FBECDBF789484B5826084BD71
:1015900084B5816084BD85B5826085BD85B5816077
:1015A00085BD80916E00816080936E0010928100F5
:1015B00080918100826080938100809181008160B0
:1015C0008093810080918000816080938000809171
:1015D000B10084608093B1008091B00081608093FD
:1015E000B00080917A00846080937A0080917A00C4
:1015F000826080937A0080917A008E7F80937A0057
:1016000080917A00806880937A001092C1001092D5
:1016100015041092160410921704109218040E94D8
:10162000720883ED91E00E94AC0861E08DE00E94B9
:10163000710261E081E10E94710261E083E00E9439
:10164000710261E08BE00E94710262E08CE00E9416
:10165000710262E082E00E94710262E088E00E9412
:10166000710262E087E00E94710260E08FE00E94F8
:10167000710260E08EE00E94710261E084E00E94ED
:10168000710260E084E00E94420261E080E10E9419
:10169000710260E080E10E94420260E070E083E05D
:1016A0000E94AD0260E070E08BE00E94AD0280E03D
:1016B00090E00E94B104182F81E090E00E94B104F4
:1016C000133511F4883509F163E580E090E00E945C
:1016D000AF0468E581E090E00E94AF0485E690E009
:1016E0009B878A87BE01665F7F4F8AE090E00E94F9
:1016F0006B0481E090E09A838983BE016F5F7F4F26
:101700008DE090E00E946B0434C080912A0488230D
:1017100021F180913104882301F163E580E090E0BC
:101720000E94AF0468E581E090E00E94AF0485E686
:1017300090E09B878A87BE01665F7F4F8AE090E0DA
:101740000E946B0481E090E09A838983BE016F5F01
:101750007F4F8DE090E00E946B0469E174E08AE0C5
:1017600090E00E9457046DE174E08DE090E00E94EB
:1017700057040E943609182F80932C0481110E946F
:1017800054068FE00E941902892BB1F48EE00E946A
:101790001902892B89F4112379F084E090E00E94EA
:1017A000B10408E010E0081B1109101611060CF432
:1017B000E7C086E00E94960487E00E941902892B08
:1017C00009F0FBC088E00E941902892B09F0F5C0DE
:1017D00011E0E1EEAE2EB12CF9E02F2EA0EE3A2E64
:1017E0000FE6F0902C040E94360980932C04882385
:1017F00059F1F1100FC00E94540686E00E94960431
:1018000068EC70E080E090E00E940C0360E086E00D
:101810000E94780680E090E00E94860680932B0468
:1018200081E090E00E94860691E0811101C090E085
:1018300090932A0482E090E00E94860691E0811154
:1018400001C090E09093310470902B04E72CF12CB0
:101850004701880C991CF401E45FFE4F808191815F
:101860008C599F4F029730F080E090E00E948606EE
:10187000883CD1F4F401E45FFE4F808191818D3981
:101880009F4F09F4A4C081EE90E00E94C6046C0151
:1018900080911A0190911B01C816D9060CF490C0D2
:1018A00061E081E10E94420280913104882309F4C1
:1018B00042C08BE0871528F081EE90E00E94C604BC
:1018C0006C0180910C0190910D018C199D0997FF7D
:1018D00003C0919581959109EEE0F1E061E070E03F
:1018E000AB0141505109219131912C193D0937FF2C
:1018F00003C03195219531092817390754F4AB01FC
:101900004F5F5F4FC9014B30510511F0BA01E8CF6D
:10191000AB01E416F5063CF461E081E10E9442026D
:1019200060E08DE00EC04E155F0514F461E004C068
:10193000E416F50641F460E08DE00E94420260E0AA
:1019400081E10E9442028FE00E941902019729F46E
:101950008EE00E941902892BE9F18FE00E941902A2
:10196000892B09F052C08EE00E941902019709F0FC
:101970004CC0F090290497E09F1508F452C045C070
:10198000EE24E394F12C68EC70E080E090E00E949B
:101990000C0386E00E94960468EC70E080E090E022
:1019A0000E940C0360E086E00E9478062FEFE21AA6
:1019B000F20A0E151F053CF7FFCE0E94DA0608CF8B
:1019C00060E081E10E94420260E08DE06BCF8FEE2B
:1019D00091E05BCF1092290460E084E090E00E94E7
:1019E000AF0460E086E00E94780686E00E949604DC
:1019F0000E94EC060E94CD060E94DA060E94E706CD
:101A000060E086E00E947806A8CF8FE00E9419026D
:101A1000892BC9F48EE00E941902892B09F48FC129
:101A200012C086E00E9496048CE00E941902892B65
:101A300029F480913104882309F4C1C08CE00E940C
:101A40001902892B19F00E946901CBCE80913104D3
:101A50008823C9F380911D0490911E049A83898381
:101A6000809129048B83809128048C831D8280912E
:101A70001F04909120049F838E831986188669E144
:101A800074E08AE090E00E9457040E94720885EB9F
:101A900093E00E94AC08809100018090190490901E
:101AA0001A0498E4899F801891081124E12CF12CE4
:101AB000BE016F5F7F4F34016E0C7F1CC3010E941B
:101AC0003104B301770C880B990B0E94220A8DEE2A
:101AD00092E00E94200A6091000170E080E090E0B6
:101AE0004AE00E94CC098DEE92E00E94200A6B81B0
:101AF00070E080E090E04AE00E94CC098DEE92E038
:101B00000E94200A69817A81072E000C880B990BAC
:101B10000E94220A8DEE92E00E94200A6C8170E001
:101B200080E090E04AE00E94CC098C81811104C0E1
:101B30008BED92E00E94200A8C81813021F484EEAA
:101B400092E00E94200A8C81823021F48FEE92E094
:101B50000E94200A8C81843021F482E093E00E946C
:101B6000200A8C81863021F484E193E00E94200ACF
:101B70008C81873021F48FE193E00E94200A8C81D0
:101B8000883021F486E293E00E94200A6D8170E0A3
:101B900080E090E04AE00E94CC098DEE92E00E9445
:101BA000200A89E0E80EF11C98E4E916F10409F036
:101BB0007FCF809100018F5F8093000144CF80919F
:101BC0001D0490911E049A838983FB821C821D82CE
:101BD0001F821E8219861886BE016F5F7F4F80911B
:101BE000190490911A040E94310469E174E08AE0BA
:101BF00090E00E9457048090190490901A04740198
:101C000088E4E81AF1088DE393E00E94AC088BE7C2
:101C100093E00E94200A8091190490911A040E9476
:101C20004E0A8BE993E00E94200AC7010E944E0AE7
:101C3000BE016F5F7F4FC7010E9431048BEE91E0C0
:101C40000E94AC0883E292E00E94200AC7010E9431
:101C50004E0A8FE492E00E94200A89819A810E94B4
:101C60004E0A88E492E00E94200A8B810E940D0AAD
:101C70008AE592E00E94200A8C810E940D0A86E685
:101C800092E00E94200A8C81811104C08EE692E0CD
:101C90000E94AC088C81813021F485E792E00E949B
:101CA000AC088C81823021F48EE792E00E94AC086F
:101CB0008C81843021F48FE892E00E94AC088C8102
:101CC000853021F48FE992E00E94AC088C81863047
:101CD00021F48CEA92E00E94AC088C81873021F4D8
:101CE00085EB92E00E94AC088C81883021F48AEB6D
:101CF00092E00E94AC088CEB92E00E94200A8D8159
:101D00000E940D0A8CEC92E00E94200A8E819F8135
:101D10000E944E0A83ED92E00E94200A88859985F0
:101D20000E944E0A29E0E20EF11C8E149F0409F075
:101D30007FCF809100018F5F809300017FCE84E090
:101D400090E00E94B104809329048CE00E94190263
:101D5000892B09F05EC0E0912B04F0E0EE0FFF1F2D
:101D6000E45FFE4F808191818F399F4F09F051C010
:101D700087E0809328040E9479050E94EC060E9467
:101D8000CD0688E00E9419020197D9F768E270E059
:101D900080E090E00E940C03F0903104FF2029F0D5
:101DA0006FEF70E08BE00E94AD020E94E706FF201B
:101DB00029F062E870E08BE00E94AD028CE00E94A6
:101DC0001902892BD9F3FF2091F087E00E94960435
:101DD00061E070E080E090E00E940C0360E070E061
:101DE0008BE00E94AD0260E087E00E9478060E94CE
:101DF000EC0668EC70E080E090E00E940C030E942A
:101E0000DA0668EC70E080E090E00E940C030E942B
:101E1000E7068CE00E941902892BF1F5E0912B0472
:101E2000F0E0EE0FFF1FE45FFE4F808191818E395D
:101E30009F4F91F588E0809328040E9479050E94C5
:101E4000EC060E94CD0688E00E9419020197D9F79E
:101E500068E270E080E090E00E940C030E94E706D8
:101E60008CE00E9419020197D9F38CE00E941902BC
:101E7000892B11F40E94EC0668EC70E080E090E0A1
:101E80000E940C030E94DA0668EC70E080E090E0AB
:101E90000E940C030E94E7061092270462E08CE087
:101EA0000E9471028CE00E9419029C019924939473
:101EB000892B09F4912C90920B0190910A01232B0C
:101EC00009F045C0992309F49FC00E944603409041
:101ED0000601509007016090080170900901DC0133
:101EE000CB0184199509A609B7094597A105B10544
:101EF00008F48AC00E9446036093020170930301B4
:101F00008093040190930501109230041093010115
:101F100010922F040E944603DC01CB01841995091D
:101F2000A609B7098A3F9105A105B10568F480911A
:101F30002E04811109C080912D04882329F010936B
:101F40002E0410922D0460C010922E04FACF91112D
:101F500028C00E9446034090020150900301609007
:101F6000040170900501DC01CB0184199509A609D3
:101F7000B7094597A105B105A0F080913004811102
:101F800010C00E944603609306017093070180937E
:101F900008019093090180912E048111A3C110932F
:101FA0002D04E12CF12C0E94460340900601509034
:101FB00007016090080170900901DC01CB018419D0
:101FC0009509A609B7098A3F9105A105B10508F44D
:101FD00040C080912D048823E1F180912E0481116D
:101FE00038C0809101018823A1F182E0E816F10454
:101FF00009F485C110922D0410930A01109228044F
:10200000EE24E394F12C2BC00E94460320910201A0
:10201000309103014091040150910501DC01CB0195
:10202000821B930BA40BB50B8E359140A105B10516
:1020300008F43DC080912F0481115EC110933004DB
:1020400010922E0410922D0410932F0433E0E32EEF
:10205000F12C90920A0110922804E0FE0BC010931C
:10206000270492E0E916F10449F080912A048111D5
:1020700044C027C022E0E216F104E9F40E944603BE
:102080008AE293E00E94AC0888EE93E00E94BA08CE
:1020900088E592E00E94BA0888EC90E00E94BA08B5
:1020A00080E590E00E94BA081093270404C0909243
:1020B0000A011092280480912704882309F4C3CCD4
:1020C000D4CF809125049091260418161906ACF4FB
:1020D0000E947905109226041092250460E086E0A3
:1020E0000E9478060E94DA0662E370E080E090E0E9
:1020F0000E940C030E94E706A6CC80E090E00E94BC
:102100008606843609F062C084E090E00E94B10443
:10211000809329040E94790583E28093B000209285
:10212000B1003092B3000093B4006FEF70E08BE029
:102130000E94AD020E94EC060E94CD0688E00E943B
:1021400019020197D9F762E870E08BE00E94AD02B6
:1021500068E770E080E090E00E940C030E94E706D0
:1021600062E470E080E090E00E940C0361E084E0B3
:102170000E94420262E070E080E090E00E940C0366
:1021800060E070E08BE00E94AD0260E084E00E94BD
:10219000420264E170E080E090E00E940C030E9443
:1021A000EC0668EC70E080E090E00E940C030E9476
:1021B000DA0668EC70E080E090E00E940C030E9478
:1021C000E70610922604109225043DCC80E090E0B2
:1021D0000E948606883C59F4B0922404A0922304FD
:1021E0000E947905109226041092250418C080914F
:1021F0002B04843608F027CCE82EF12CEE0CFF1CC3
:10220000F701E45FFE4F808191818C392FEF9207B7
:1022100049F4B0922404A09223040E9479050E94FC
:10222000630711CC8D399F4F39F48FEE91E0909375
:10223000240480932304F1CF0E94EC0664E670E04E
:1022400080E090E00E940C030E94CD0688E00E948E
:1022500019020197D9F768E770E080E090E00E94EA
:102260000C030E94B304F701E45FFE4FE080F180AD
:1022700099E0E90EF11C0E94E706B7010F2C000C53
:10228000880B990B0E940C0329E1E216F1046CF013
:1022900087E00E94960461E070E080E090E00E9498
:1022A0000C0360E087E00E9478060E94EC066AE07A
:1022B00070E080E090E00E940C03F894809184002C
:1022C00090918500A0E0B0E080931F0490932004DB
:1022D000A0932104B093220478940E9408070E94DE
:1022E0007905B1CB10922E0410922D0410920101A9
:1022F00042E0E42EF12C57CEE12CF12CAACE109323
:102300000A0110922804BACE10923D0410923C04A7
:1023100088EE93E0A0E0B0E080933E0490933F0409
:10232000A0934004B093410481E391E090933B0477
:1023300080933A0485EC90E09093470480934604A0
:1023400084EC90E0909349048093480480EC90E002
:1023500090934B0480934A0481EC90E090934D0459
:1023600080934C0482EC90E090934F0480934E0451
:1023700086EC90E0909351048093500410925304A3
:1023800010925404109255041092560460E082E0BA
:102390000E947102E1EBF0E0E491E093D704EDE9F3
:1023A000F0E0E491F0E0EE0FFF1FEF56FF4F859154
:1023B00094919093D9048093D8041092E2041092DF
:1023C000E4041092E304E2EEF4E0129284E0EA3DC9
:1023D000F807D9F70895F999FECF92BD81BDF89A13
:1023E000992780B50895262FF999FECF1FBA92BD7F
:1023F00081BD20BD0FB6F894FA9AF99A0FBE0196E6
:1024000008950E9408126894B1110C9497120895CF
:102410000E947C1288F09F5798F0B92F9927B751E6
:10242000B0F0E1F0660F771F881F991F1AF0BA9578
:10243000C9F714C0B13091F00E949612B1E008952E
:102440000C949612672F782F8827B85F39F0B93F20
:10245000CCF3869577956795B395D9F73EF490952B
:102460008095709561957F4F8F4F9F4F0895E894A9
:1024700009C097FB3EF490958095709561957F4FCC
:102480008F4F9F4F9923A9F0F92F96E9BB2793957A
:10249000F695879577956795B795F111F8CFFAF48A
:1024A000BB0F11F460FF1BC06F5F7F4F8F4F9F4FBB
:1024B00016C0882311F096E911C0772321F09EE819
:1024C000872F762F05C0662371F096E8862F70E07F
:1024D00060E02AF09A95660F771F881FDAF7880F59
:1024E0009695879597F9089557FD9058440F551F75
:1024F00059F05F3F71F04795880F97FB991F61F086
:102500009F3F79F087950895121613061406551FFC
:10251000F2CF4695F1DF08C0161617061806991F68
:10252000F1CF86957105610508940895E894BB275D
:1025300066277727CB0197F90895A1E21A2EAA1BE7
:10254000BB1BFD010DC0AA1FBB1FEE1FFF1FA21763
:10255000B307E407F50720F0A21BB30BE40BF50B60
:10256000661F771F881F991F1A9469F760957095E9
:10257000809590959B01AC01BD01CF010895EE0FB0
:10258000FF1F0590F491E02D099481E090E0F8940C
:082590000C94CA12F894FFCF6D
:102598000101FFFFFFFFFFFFFFFF01010200030032
:1025A800050006000A000F00160022002A0050004D
:1025B8008C0022019CFF9DFF9EFF9FFFFF000000F3
:1025C80000FA00D40791004701C200A000B4004FF0
:1025D800766572666C6F77204F63637572656421E8
:1025E800002A2A2A2A2A2A2A2A2A2A2A2A2A2A2A6D
:1025F8002A2A2A2A2A2A2A2A2A2A2A2A2A2A004146
:10260800637475616C20706963747572653A200033
:1026180043757272656E7420706963747572652093
:102628005061636B3A200050696374757265207459
:102638007970653A20005368757474657220696E04
:10264800206D733A2000436F756E7465723A2000EE
:102658000D0A00506963747572652074616B656E4C
:102668003A20006F70656E5358373021212121219F
:1026780021212121212121212121003D3D3D3D3DD7
:102688003D3D3D3D3D3D3D3D3D3D3D3D3D3D3D3D72
:102698003D3D3D3D3D3D3D3D3D3D3D3D3D3D3D3D62
:1026A8003D3D3D3D3D3D3D3D3D3D3D3D3D3D3D3D52
:1026B8003D3D0065654164647265737320726561B0
:1026C800642028746869735265636F726441646436
:1026D80072657373293A200043757272656E7420AF
:1026E800506963747572653A2000205479706520CA
:1026F8007261773A200020547970653A20004D4184
:102708004E55414C004155544F2031303000464C15
:1027180041534820444F4E474C454C45535300467F
:102728004C41534820463820444F4E474C450046BC
:102738004C41534820444F4E474C45004155544F57
:10274800203630300042554C420054002053687502
:102758007474657253706565643A2000204C4F5755
:102768003A200020484947483A20002C4D414E5510
:10277800414C2C002C4155544F203130302C002C2A
:10278800464C41534820444F4E474C454C455353C3
:102798002C002C464C41534820463820444F4E4785
:1027A8004C452C002C4155544F203630302C002CF1
:1027B80042554C422C002C542C0053544152542066
:1027C8003530302C323630302C352C30003D3D3D04
:1027D8003D3D3D3D3D3D3D3D3D3D3D3D3D3D3D3D21
:1027E8003D3D3D3D20456E746572696E67206C6F96
:1027F8006F70203D3D3D3D3D3D3D3D3D3D3D3D3DB9
:102808003D3D3D3D3D3D3D3D3D3D00494E495449E1
:10281800414C206565416464726573732062656626
:102828006F7265206C6F6F703A2000526561644169
:10283800646472657373206265666F7265206C6F7D
:102848006F703A20006565416464726573732C503B
:1028580061636B2C5061636B206F726465722C50DE
:102868006963747572652C54797065205261772C90
:1028780020547970652C2053687574746572537090
:102888006565642C204C75780054595045203200F9
:107800000C94343C0C94513C0C94513C0C94513CE1
:107810000C94513C0C94513C0C94513C0C94513CB4
:107820000C94513C0C94513C0C94513C0C94513CA4
:107830000C94513C0C94513C0C94513C0C94513C94
:107840000C94513C0C94513C0C94513C0C94513C84
:107850000C94513C0C94513C0C94513C0C94513C74
:107860000C94513C0C94513C11241FBECFEFD8E036
:10787000DEBFCDBF11E0A0E0B1E0EAE8FFE702C063
:1078800005900D92A230B107D9F712E0A2E0B1E065
:1078900001C01D92AD30B107E1F70E942D3D0C945F
:1078A000C33F0C94003C982F95959595959595958B
:1078B000905D8F708A307CF0282F295A8091C0000B
:1078C00085FFFCCF9093C6008091C00085FFFCCF60
:1078D0002093C6000895282F205DF0CF982F809127
:1078E000C00085FFFCCF9093C6000895EF92FF92F1
:1078F0000F931F93EE24FF2487018091C00087FD22
:1079000017C00894E11CF11C011D111D81E2E8164D
:1079100081EAF80687E0080780E0180770F3E09135
:107920000401F091050109958091C00087FFE9CF1E
:107930008091C6001F910F91FF90EF9008950E94D3
:10794000763C982F8091C00085FFFCCF9093C600B5
:1079500091362CF490330CF09053892F089597555D
:10796000892F08951F930E949F3C182F0E949F3CCF
:107970001295107F810F1F9108951F93182F882350
:1079800021F00E94763C1150E1F71F9108951F935A
:10799000182F0E94763C803249F0809103018F5F5E
:1079A000809303018530C1F01F9108958091C0003C
:1079B00085FFFCCF84E18093C6008091C00085FFE5
:1079C000FCCF1093C6008091C00085FFFCCF80E102
:1079D0008093C6001F910895E0910401F091050184
:1079E00009951F9108950E94763C803241F0809164
:1079F00003018F5F80930301853081F008958091AA
:107A0000C00085FFFCCF84E18093C6008091C00058
:107A100085FFFCCF80E18093C6000895E0910401CA
:107A2000F09105010995089548EC50E08823A1F0F4
:107A30002D9A28EE33E0FA013197F1F721503040CA
:107A4000D1F72D9828EE33E0FA013197F1F7215064
:107A50003040D1F7815061F708953F924F925F9285
:107A60006F927F928F929F92AF92BF92CF92DF924E
:107A7000EF92FF920F931F93CF93DF93000082E06A
:107A80008093C00080E18093C4001092C50088E11B
:107A90008093C10086E08093C2005098589A259A3E
:107AA00081E00E94143D24E1F22E9EE1E92E85E959
:107AB000D82E0FE0C02E10E1B12EAA24A394B1E479
:107AC0009B2EA6E58A2EF2E57F2EE0E26E2E79E46B
:107AD000572E63E5462E50E5352E0E94763C8033C6
:107AE000B1F18133B9F1803409F46FC0813409F404
:107AF00076C0823409F485C0853409F488C08035A5
:107B000031F1823521F1813511F1853509F485C0D6
:107B1000863509F48DC0843609F496C0843709F49B
:107B200003C1853709F472C1863709F466C08091B4
:107B300003018F5F80930301853079F6E0910401A2
:107B4000F091050109950E94763C803351F60E9420
:107B5000F33CC3CF0E94763C803249F78091C0004D
:107B600085FFFCCFF092C6008091C00085FFFCCF5E
:107B70009092C6008091C00085FFFCCF8092C60025
:107B80008091C00085FFFCCF7092C6008091C0003C
:107B900085FFFCCF6092C6008091C00085FFFCCFBE
:107BA0005092C6008091C00085FFFCCF4092C60075
:107BB0008091C00085FFFCCF3092C6008091C0004C
:107BC00085FFFCCFB092C60088CF0E94763C8638F5
:107BD00008F4BDCF0E94763C0E94F33C7ECF0E9409
:107BE000763C803809F49CC0813809F40BC1823896
:107BF00009F430C1883909F48FC080E00E94C73C85
:107C00006CCF84E10E94BD3C0E94F33C66CF85E0CE
:107C10000E94BD3C0E94F33C60CF0E94763C809362
:107C200006010E94763C809307010E94F33C55CFE9
:107C30000E94763C803309F411C183E00E94BD3C70
:107C400080E00E94C73C49CF0E94763C80930902A5
:107C50000E94763C8093080280910C028E7F809374
:107C60000C020E94763C853409F409C18091080217
:107C700090910902892B89F000E010E00E94763C87
:107C8000F801E85FFE4F80830F5F1F4F809108026D
:107C9000909109020817190788F30E94763C8032F8
:107CA00009F045CF80910C0280FFF5C0609106017C
:107CB00070910701660F771F7093070160930601AB
:107CC000A0910802B09109021097C9F0E8E0F1E034
:107CD0009B01AD014E0F5F1FF999FECF32BD21BD53
:107CE000819180BDFA9AF99A2F5F3F4FE417F5070B
:107CF00099F76A0F7B1F70930701609306018091CB
:107D0000C00085FFFCCFF092C6008091C00085FFC7
:107D1000FCCFB092C600E1CE83E00E94C73CDDCE2E
:107D200082E00E94C73CD9CE0E94763C8093090233
:107D30000E94763C80930802809106019091070191
:107D4000880F991F90930701809306010E94763C4B
:107D5000853409F49AC080910C028E7F80930C02C6
:107D60000E94763C803209F0B8CE8091C00085FF39
:107D7000FCCFF092C600A0910802B09109021097C2
:107D8000C1F180910C02082F0170182F1695117007
:107D9000E0910601F0910701AF014F5F5F4FBA011B
:107DA00020E030E00023B1F4112339F49491809164
:107DB000C00085FFFCCF9093C6002F5F3F4FCB01E3
:107DC0000196FA012A173B0780F4BC014F5F5F4F11
:107DD000002351F3F999FECFF2BDE1BDF89A90B5B9
:107DE0008091C00085FFFCCFE6CF709307016093C0
:107DF00006018091C00085FDE5CE8091C00085FF21
:107E0000F8CFE0CE81E00E94C73C67CE0E94763C6E
:107E1000803209F08CCE8091C00085FFFCCFF092BB
:107E2000C6008091C00085FFFCCFE092C600809123
:107E3000C00085FFFCCFD092C6008091C00085FFB6
:107E4000FCCFC092C6008091C00085FFFCCFB092ED
:107E5000C60043CE80E10E94C73C3FCE0E94763CE4
:107E60000E94763C182F0E94763C112309F483C0AF
:107E7000113009F484C08FE00E94C73C2ECE80915F
:107E80000C02816080930C02F1CE80910C02816023
:107E900080930C0265CF809107018823880F880B9F
:107EA0008A2180930B028091060190910701880F2F
:107EB000991F90930701809306018091080280FF2B
:107EC00009C08091080290910902019690930902DD
:107ED00080930802F894F999FECF1127E0910601EA
:107EE000F0910701C8E0D1E0809108029091090269
:107EF000103091F40091570001700130D9F303E084
:107F000000935700E8950091570001700130D9F3B4
:107F100001E100935700E8950990199000915700EE
:107F200001700130D9F301E000935700E8951395F3
:107F3000103498F011270091570001700130D9F3E7
:107F400005E000935700E89500915700017001305B
:107F5000D9F301E100935700E8953296029709F0B2
:107F6000C7CF103011F00296E5CF11248091C000E8
:107F700085FFC5CEC8CE8EE10E94C73CAECD85E957
:0A7F80000E94C73CAACDF894FFCF81
:027F8A00800075
:040000030000780081
:00000001FF