:100000000C9463000C948B000C948B000C948B006C
:100010000C948B000C948B000C948B000C94530A62
:100020000C948B000C948B000C948B000C94480760
:100030000C948B000C9460050C948B000C948B003A
:100040000C9452030C948B000C94E7010C94C101A6
:100050000C948B000C948B000C948B000C948B00F4
:100060000C948B000C948B000000000024002700EF
:100070002A0000000000250028002B0000000008D6
:10008000000201000003040700000000000000005F
:1000900002000000002300260029000404040404D8
:1000A0000404040202020202020303030303030125
:1000B00002040810204080010204081020010204FC
:1000C00008102000AE1111241FBECFEFD8E0DEBF14
:1000D000CDBF14E0A0E0B1E0E2E7F7E202C0059096
:1000E0000D92A230B107D9F724E0A2E0B4E001C03C
:1000F0001D92AE3EB207E1F710E0C3E6D0E004C0C7
:100100002197FE010E94AC13C236D107C9F70E94A5
:10011000D70A0C94B7130C940000089580E090E087
:100120000895FC01538D448D252F30E0842F90E0FD
:10013000821B930B541710F0CF96089501970895E2
:10014000FC01918D828D981761F0828DDF01A80FDF
:10015000B11D5D968C91928D9F5F9F73928F90E001
:1001600008958FEF9FEF0895FC01918D828D981770
:1001700031F0828DE80FF11D858D90E008958FEFAD
:100180009FEF0895FC01918D228D892F90E0805C76
:100190009F4F821B91098F73992708958CE394E0F8
:1001A0000E94C20021E0892B09F420E0822F0895EB
:1001B000FC01848DDF01A80FB11DA35ABF4F2C9104
:1001C000848D90E001968F739927848FA689B789D3
:1001D0002C93A089B1898C91837080648C93938DCA
:1001E000848D981306C00288F389E02D80818F7D6D
:1001F00080830895EF92FF920F931F93CF93DF9325
:10020000EC0181E0888F9B8D8C8D981305C0E88967
:10021000F989808185FD26C0F62E0B8D10E00F5FD9
:100220001F4F0F731127E02E8C8DE8120CC00FB6F4
:1002300007FCFACFE889F989808185FFF5CFCE01E7
:100240000E94D800F1CF8B8DFE01E80FF11DE35A1B
:10025000FF4FF0829FB7F8940B8FEA89FB8980816A
:1002600080620AC09FB7F894EE89FF896083E889AD
:10027000F98980818370806480839FBF81E090E0F2
:10028000DF91CF911F910F91FF90EF900895CF9341
:10029000DF93EC01888D8823C9F0EA89FB8980818E
:1002A00085FD05C0A889B9898C9186FD0FC00FB660
:1002B00007FCF5CF808185FFF2CFA889B9898C91A1
:1002C00085FFEDCFCE010E94D800E7CFDF91CF911F
:1002D000089580E090E0892B29F00E94CE008111E2
:1002E0000C9400000895833081F028F4813099F057
:1002F0008230A1F008958730A9F08830B9F08430B9
:10030000D1F4809180008F7D03C0809180008F7731
:1003100080938000089584B58F7702C084B58F7D67
:1003200084BD08958091B0008F7703C08091B000A4
:100330008F7D8093B00008953FB7F89480911304A7
:1003400090911404A0911504B091160426B5A89BB1
:1003500005C02F3F19F00196A11DB11D3FBFBA2F57
:10036000A92F982F8827820F911DA11DB11DBC01B7
:10037000CD0143E0660F771F881F991F4A95D1F77B
:1003800008951F920F920FB60F9211242F933F934F
:100390004F935F936F937F938F939F93AF93BF938D
:1003A000EF93FF938CE394E00E94D800FF91EF91CC
:1003B000BF91AF919F918F917F916F915F914F917D
:1003C0003F912F910F900FBE0F901F9018951F9285
:1003D0000F920FB60F9211242F938F939F93EF9349
:1003E000FF93E0914C04F0914D048081E091520420
:1003F000F091530482FD12C09081809155048F5F6B
:100400008F7320915604821751F0E0915504F0E06B
:10041000E45CFB4F958F8093550401C08081FF9170
:10042000EF919F918F912F910F900FBE0F901F9082
:100430001895CF93DF93282F30E0F901E458FF4F50
:100440008491F901E155FF4FD491F901E556FF4F31
:10045000C491CC2391F081110E947301EC2FF0E044
:10046000EE0FFF1FEF56FF4FA591B491EC91ED23D6
:1004700081E090E021F480E002C080E090E0DF9134
:10048000CF9108951F93CF93DF93282F30E0F90188
:10049000E458FF4F8491F901E155FF4FD491F901E0
:1004A000E556FF4FC491CC23C1F0162F81110E9455
:1004B0007301EC2FF0E0EE0FFF1FEE58FF4FA591F8
:1004C000B4919FB7F894111104C08C91D095D823A2
:1004D00002C0EC91DE2BDC939FBFDF91CF911F9187
:1004E0000895CF93DF9390E0FC01E155FF4F2491F5
:1004F000FC01E556FF4F8491882361F190E0880F5D
:10050000991FFC01E859FF4FC591D491FC01EE58A9
:10051000FF4FA591B491611109C09FB7F8948881EC
:10052000209582238883EC912E230BC0623061F4E6
:100530009FB7F8948881322F309583238883EC917C
:100540002E2B2C939FBF06C08FB7F894E8812E2BDB
:1005500028838FBFDF91CF9108951F93CF93DF93AF
:10056000182FEB0161E00E947102209711F460E006
:1005700004C0CF3FD10539F461E0812FDF91CF91E5
:100580001F910C944202E12FF0E0E458FF4FE491F8
:10059000E330F9F048F4E130B9F0E230A1F584B588
:1005A000806284BDC8BD34C0E730E9F0E83019F19D
:1005B000E43049F580918000806280938000D09380
:1005C0008B00C0938A0024C084B5806884BDC7BDF9
:1005D0001FC080918000806880938000D093890044
:1005E000C093880015C08091B00080688093B000EF
:1005F000C093B3000DC08091B00080628093B000C2
:10060000C093B40005C0C038D1050CF0B5CFAFCF52
:10061000DF91CF911F9108958F929F92AF92BF92D9
:10062000CF92DF92EF92FF926B017C010E949C01BE
:100630004B015C01C114D104E104F104F1F00E940A
:100640009C01DC01CB0188199909AA09BB09883EE4
:100650009340A105B10570F321E0C21AD108E10869
:10066000F10888EE880E83E0981EA11CB11CC1140D
:10067000D104E104F10419F7DDCFFF90EF90DF9092
:10068000CF90BF90AF909F908F9008952FB7F89420
:1006900060910F04709110048091110490911204E4
:1006A0002FBF08951F920F920FB60F9211242F9310
:1006B0003F938F939F93AF93BF9380910F0490913B
:1006C0001004A0911104B091120430910E0426E0A0
:1006D000230F2D3720F40296A11DB11D05C029E876
:1006E000230F0396A11DB11D20930E0480930F04C8
:1006F00090931004A0931104B093120480911304FA
:1007000090911404A0911504B09116040196A11DB6
:10071000B11D8093130490931404A0931504B09317
:100720001604BF91AF919F918F913F912F910F90A0
:100730000FBE0F901F901895FC0190810180F281EF
:10074000E02D892F809560FF12C0F89422818223CA
:1007500082838181892B8183A0E1B0E01197F1F739
:100760008281982B928378948AE690E011C0F89465
:100770002281822382838181892B8183AEE7B0E04D
:100780001197F1F78281982B9283789486E090E01C
:100790000197F1F70895DF92EF92FF920F931F9365
:1007A000CF93DF93EC01D62EE42E08E010E0FF2477
:1007B000F39461E08D2D8F2109F460E0CE010E9459
:1007C0009C03FF0C01501109A1F7E11010C0F8942F
:1007D000E981FA8191818881809589238183E981EA
:1007E000FA81928188818095892382837894DF9130
:1007F000CF911F910F91FF90EF90DF900895DC0152
:100800002C911196ED91FC911297F8948181922F81
:1008100090958923818378948DE7815009F1308107
:100820003223D9F3F8948281892382838181822BB8
:1008300081837894ACEBB3E01197F1F7F894818160
:100840009823918388E890E00197F1F7808128232D
:1008500081E009F080E07894E0E3F3E03197F1F78C
:100860000895CF92DF92EF92FF920F931F93CF9351
:10087000DF93EB017B0129E0E20EF11C8B016C019F
:10088000C61AD70AC601800F911F0E941B12F801D9
:1008900081938F01EE15FF05A9F7CE01DF91CF916E
:1008A0001F910F91FF90EF90DF90CF9008950F93DD
:1008B0001F93CF93DF938C01EB010E941B1288835F
:1008C000C80101960E941B128983CE01DF91CF914E
:1008D0001F910F910895AF92BF92DF92EF92FF9216
:1008E0000F931F93CF93DF93EC017B018B015C018E
:1008F00082E0A80EB11CF801D1908F01CE010E94B8
:100900001B12D81621F06D2DCE010E9423122196C4
:10091000CA15DB0581F7C701DF91CF911F910F91B8
:10092000FF90EF90DF90BF90AF900895CF93C82FC6
:100930000E9435088BED94E00E94FF030E941E0880
:1009400081E090E0A0E0B0E004C0880F991FAA1FEA
:10095000BB1FCA95D2F78095CF910C9443080C9495
:1009600023120C941B12F8948FEF86BB1092800018
:100970001092850010928400E1E8F0E080818460AC
:100980008083808182608083789408958F929F9283
:10099000AF92BF92CF92DF92EF92FF92CF93DF930D
:1009A000EC010E944603C0901704D0901804E09018
:1009B0001904F0901A04DC01CB018C199D09AE09D1
:1009C000BF0984369105A105B10508F469C080917D
:1009D000840090918500A0E0B0E080932104909382
:1009E0002204A0932304B09324040E944603C090E1
:1009F0001704D0901804E0901904F0901A044B01E9
:100A00005C018C189D08AE08BF080E9446036093E5
:100A10001704709318048093190490931A040E9489
:100A2000B304CE0165E070E00E946213072E000C53
:100A3000880B990B0E94D6126B017C01BE01DD0F61
:100A4000880B990B0E94D6129B01AC01C701B6011D
:100A50000E9432120E949E126B01770FEE08FF086F
:100A600060912104709122048091230490912404C8
:100A7000A50194010E9476132F5F3F4F4F4F5F4FA8
:100A8000C701B6010E947613CA01B9010E94D412AF
:100A90000E949E129B0170930D0460930C0404C08D
:100AA00020910C0430910D04C901DF91CF91FF908A
:100AB000EF90DF90CF90BF90AF909F908F90089570
:100AC0001F920F920FB60F9211242F933F934F93C3
:100AD0005F936F937F938F939F93AF93BF93EF93A6
:100AE000FF9381E491E00E94130AEFE6F0E0808139
:100AF0008E7F808380818D7F8083FF91EF91BF9176
:100B0000AF919F918F917F916F915F914F913F91A5
:100B10002F910F900FBE0F901F901895AF92BF921C
:100B2000DF92EF92FF920F931F93CF93DF93CDB796
:100B3000DEB729970FB6F894DEBF0FBECDBF6FE1C9
:100B400074E08DE090E00E94570480912B048F5F49
:100B500080932B04E0912D04F0E0EE0FFF1FE45F83
:100B6000FE4F108120911F04309120043A83298385
:100B70008B8380912A048C831D8380912104909122
:100B800022049F838E8380911D0490911E04998777
:100B9000888783E591E00E949F0881E791E00E94A9
:100BA000130A80911F04909120040E94410A82E858
:100BB00091E00E94130A80912B040E94000A89E9A7
:100BC00091E00E94130A80912A040E94000A88EA98
:100BD00091E00E94130A812F0E94000A88EB91E0A5
:100BE0000E94130A609121047091220480912304D1
:100BF000909124044AE00E94BF0982EC91E00E9497
:100C00008D0883E591E00E949F0860912B0484E0A9
:100C100090E00E94AF0485EC91E00E94130A84E00A
:100C200090E00E94B1040E94000A00911B04109100
:100C30001C04CE0101967C01580199E0A90EB11C5B
:100C4000F701D1907F01C8010E941B12D81621F034
:100C50006D2DC8010E9423120F5F1F4FA016B10611
:100C600079F780911B0490911C049C012E5E3F4FEC
:100C70002115344030F4099690931C0480931B0492
:100C800004C010921C0410921B046BE174E08AE013
:100C900090E00E946B0480911F04909120040196C3
:100CA0009093200480931F046FE174E08DE090E046
:100CB00029960FB6F894DEBF0FBECDBFDF91CF915E
:100CC0001F910F91FF90EF90DF90BF90AF900C9429
:100CD0006B04CF93DF938BED94E00E94FF0340E021
:100CE00066E98BED94E00E94CB03C4E3D4E0699104
:100CF00040E08BED94E00E94CB0384E0CC33D80736
:100D0000B1F740E06CE38BED94E00E94CB038BEDF8
:100D100094E0DF91CF910C94FF0361110C94960441
:100D20000E9435088BED94E00E94FF030E941E088C
:100D30008FEF0C944308CF93DF93EC0180912E0446
:100D4000811105C082E00E9419020197A9F082E09A
:100D50000E941902019721F480912E04811110C084
:100D600082E00E941902892B49F080912E048111A2
:100D700003C082E00E94190288EC21C084E61FC0F3
:100D8000209761F40E943508982F817091FD826050
:100D900092FD846093FF13C0886011C0C130D105FB
:100DA00029F40E9435088295817009C0229731F498
:100DB0000E94350885FB882780F901C080E0DF911B
:100DC000CF91089561E080E10E94420287E00E9495
:100DD00019020197D9F760E080E10C94420261E0CA
:100DE00080E10E94420287E00E941902892BD9F714
:100DF00060E080E10C94420260E070E083E00C94DB
:100E0000AD0283E28093B00089E08093B10080EE70
:100E10008093B3008FE68093B4006FEF70E083E0BF
:100E20000E94AD026FE070E080E090E00E940C0351
:100E300061EE70E083E00C94AD020E94010768EC63
:100E400070E080E090E00E940C0380912C048823E5
:100E500051F08091270490912804019690932804E2
:100E600080932704089564E670E080E090E00E949B
:100E70000C030E94EF066CE271E080E090E00E94BB
:100E80000C030E94FC061092280410922704089577
:100E90001F920F920FB60F9211242F933F934F93EF
:100EA0005F936F937F938F939F93AF93BF93EF93D2
:100EB000FF93EFE6F0E080818E7F808380818D7FDD
:100EC000808310928500109284000E941D07FF917C
:100ED000EF91BF91AF919F918F917F916F915F91B2
:100EE0004F913F912F910F900FBE0F901F9018952B
:100EF00060E081E10E94420260E08DE00E944202D7
:100F00000E9401070E94E20688E00E9419020197F0
:100F1000D9F768E770E080E090E00E940C0310923F
:100F20002904F89410928000109281008FEF86BB04
:100F3000109285001092840082E083BD8091250488
:100F400090912604909389008093880080916F008F
:100F5000816080936F0080916F00826080936F004A
:100F6000789487E0809381000C94FC069091DB04D8
:100F7000E091DC04F091DD04F8948181892B818378
:100F80002281892F809528232283A2E0B0E0119747
:100F9000F1F7218182238183A0E1B0E01197F1F77D
:100FA00080817894E6E6F0E03197F1F7982381E0CC
:100FB00009F480E008950F931F93CF93DF9308E027
:100FC00010E0C0E0D1E00E94B6078111CD2BDD0F0B
:100FD00001501109C1F78C2FDF91CF911F910F9113
:100FE00008950E94B21390912C01891324C0E0E966
:100FF000F0E0E4919FEF90932C01E130B9F098F08C
:10100000E230C9F4909170009D7F9093700091E060
:101010009093B0009091B100987F94609093B1004C
:101020001092B30008C010926E0005C090916F003E
:101030009D7F90936F0060E00C944202CF93DF930A
:1010400040E065E58BED94E00E94CB03C4E3D4E07F
:10105000699140E08BED94E00E94CB0384E0CC33B7
:10106000D807B1F7DF91CF9108958BED94E00E94FE
:10107000FF030E941E0841E065EF8BED94E00E94A3
:10108000CB030C94DB07CF93C82F41E06AE58BEDCF
:1010900094E00E94CB0341E06C2F8BED94E00E9422
:1010A000CB036C2F609541E08BED94E00E94CB0365
:1010B0000E94DB078A3A31F40E94DB07C81302C0A2
:1010C00081E001C080E0CF910895ECE3F4E0A089D5
:1010D000B18982E08C93A485B5851C92A685B785DD
:1010E00087E68C93108EA489B58986E08C93A289BB
:1010F000B3898C9180618C93A289B3898C9188602B
:101100008C93A289B3898C9180688C930288F3892F
:10111000E02D80818F7D80830895009769F0FC0128
:1011200001900020E9F73197AF01481B590BBC0132
:101130008CE394E00C94AD0A80E090E00895CF93A6
:10114000DF930E948D08EC0182EC91E00E948D08F3
:101150008C0F9D1FDF91CF9108954F925F926F92F8
:101160007F928F929F92AF92BF92CF92DF92EF9237
:10117000FF920F931F93CF93DF9300D000D000D046
:10118000CDB7DEB76C0161E086E00E9471020E947B
:101190004603812C912C54011E821D829B01AC01BF
:1011A0002C53364F4F4F5F4F29833A834B835C83D9
:1011B0000D2C000CEE08FF080E94460329813A819D
:1011C0004B815C81621773078407950720F50E94A5
:1011D00046032B013C01DC01CB0188199909AA09BE
:1011E000BB098C159D05AE05BF0530F30D811E8131
:1011F00031E00327A801417055275E834D838BEFB3
:1012000093E00E949F08602F617086E00E948D0627
:1012100053014201D1CF61E086E00E94710286E075
:101220000E94F30726960FB6F894DEBF0FBECDBF1F
:10123000DF91CF911F910F91FF90EF90DF90CF90B2
:10124000BF90AF909F908F907F906F905F904F90E6
:101250000895DF92EF92FF920F931F93CF93DF9346
:101260001092E6041092E8041092E704E6EEF4E02F
:101270008EEDE82E84E0F82E129284E0EE3DF80721
:10128000D9F78BED94E00E94FF03811107C0109203
:10129000E6041092E8041092E70468C040E060EFB2
:1012A0008BED94E00E94CB03D1E000E0D12CC1E0B3
:1012B0000E94B607182F0E94B607113019F481302A
:1012C000C1F436C0202F30E018131DC08091E60411
:1012D000C81738F4F901E552FB4F83818D2349F497
:1012E00002C08C1731F010E0C93060F4C093E704FD
:1012F00009C0E02FF0E0E552FB4F83818D2B838303
:1013000011E009C0DC2EF901E552FB4F93818D2FCE
:10131000809589238383612F8BED94E00E949C0349
:10132000CF5FDD0F11F40F5FD1E0083008F4C0CFBC
:10133000C13408F4ACCFD092E604D11003C081E0F0
:101340008093E8048091DE04882309F4A0CFE4E3CD
:10135000F4E0D7018D917D018193B4E0EC33FB077C
:10136000C1F781E090913404993209F080E0DF9177
:10137000CF911F910F91FF90EF90DF9008958F9282
:101380009F92AF92BF920F931F93CF93DF93CDB7EE
:10139000DEB7A1970FB6F894DEBF0FBECDBF19A27E
:1013A000423008F44AE08E010F5D1F4F842E912CCD
:1013B000A12CB12CA50194010E947613E62FB9014E
:1013C000CA0101501109EA3014F4E05D01C0E95C82
:1013D000D801EC93232B242B252B61F7C8010E9405
:1013E0008D08A1960FB6F894DEBF0FBECDBFDF917A
:1013F000CF911F910F91BF90AF909F908F900895C4
:10140000CF93DF93682F70E080E090E04AE00E9485
:10141000BF09EC0182EC91E00E948D088C0F9D1FAA
:10142000DF91CF9108950C948D08CF92DF92EF92C7
:10143000FF92CF93DF9397FF1BC06B017C016DE29E
:101440008CE394E00E94FA00EC0166277727CB0139
:101450006C197D098E099F094AE00E94BF098C0F13
:101460009D1FDF91CF91FF90EF90DF90CF90089577
:101470004AE0DF91CF91FF90EF90DF90CF900C94F6
:10148000BF09CF93DF93BC01990F880B990B0E9482
:10149000150AEC0182EC91E00E948D088C0F9D1FD3
:1014A000DF91CF9108951F920F920FB60F921124E2
:1014B0002F933F934F935F936F937F938F939F935C
:1014C000AF93BF93EF93FF938091EA049091EB0465
:1014D000A091EC04B091ED04892B8A2B8B2B41F168
:1014E0009091E90480910000892780930000809109
:1014F000EA049091EB04A091EC04B091ED0418166D
:1015000019061A061B06C4F48091EA049091EB04B4
:10151000A091EC04B091ED040197A109B109809369
:10152000EA049093EB04A093EC04B093ED0404C0A0
:1015300080912C010E94F307FF91EF91BF91AF9131
:101540009F918F917F916F915F914F913F912F91DB
:101550000F900FBE0F901F901895CF92DF92EF92D1
:10156000FF920F931F93CF93DF936C017A018B014E
:10157000C0E0D0E0CE15DF0581F0D8016D918D017E
:10158000D601ED91FC910190F081E02DC601099505
:10159000892B11F02196EECF7E01C701DF91CF910B
:1015A0001F910F91FF90EF90DF90CF900895CF9310
:1015B000DF93CDB7DEB72B970FB6F894DEBF0FBE23
:1015C000CDBF789484B5826084BD84B5816084BDCC
:1015D00085B5826085BD85B5816085BD80916E00D1
:1015E000816080936E001092810080918100826002
:1015F000809381008091810081608093810080913F
:1016000080008160809380008091B100846080932D
:10161000B1008091B00081608093B00080917A0029
:10162000846080937A0080917A00826080937A004F
:1016300080917A008E7F80937A0080917A00806812
:1016400080937A001092C10010921704109218042F
:101650001092190410921A040E94650885ED91E019
:101660000E949F0861E08DE00E94710261E081E1CB
:101670000E94710261E083E00E94710261E08BE0F0
:101680000E94710262E08CE00E94710262E082E0DE
:101690000E94710262E088E00E94710262E087E0CD
:1016A0000E94710260E08FE00E94710260E08EE0B3
:1016B0000E94710261E084E00E94710260E084E0B7
:1016C0000E94420261E080E10E94710260E080E1DC
:1016D0000E94420260E070E083E00E94AD0260E0A0
:1016E00070E08BE00E94AD0280E090E00E94B104C7
:1016F000182F81E090E00E94B104133511F4883571
:1017000009F163E580E090E00E94AF0468E581E0C4
:1017100090E00E94AF0485E690E09B878A87BE0137
:10172000665F7F4F8AE090E00E946B0481E090E06A
:101730009A838983BE016F5F7F4F8DE090E00E94A6
:101740006B0434C080912C04882321F180913304F0
:10175000882301F163E580E090E00E94AF0468E532
:1017600081E090E00E94AF0485E690E09B878A8745
:10177000BE01665F7F4F8AE090E00E946B0481E0CB
:1017800090E09A838983BE016F5F7F4F8DE090E088
:101790000E946B046BE174E08AE090E00E945704C1
:1017A0006FE174E08DE090E00E9457040E942909E7
:1017B000182F80932E0481110E9469068FE00E94E9
:1017C0001902892BB1F48EE00E941902892B89F449
:1017D000112379F084E090E00E94B10408E010E069
:1017E000081B1109101611060CF4D7C086E00E94E0
:1017F000960487E00E941902892B09F0EBC088E06B
:101800000E941902892B09F0E5C011E0EFEECE2EFF
:10181000DD24D394F9E06F2E00EEAFE67A2EF0903F
:101820002E040E94290980932E04882359F1F11077
:101830000FC00E94690686E00E94960468EC70E082
:1018400080E090E00E940C0360E086E00E948D063C
:1018500080E090E00E949B0680932D0481E090E060
:101860000E949B0691E0811101C090E090932C04AE
:1018700082E090E00E949B0691E0811101C090E01F
:101880009093330480913304811118C0E0912D04AA
:10189000F0E07F01EE0CFF1CF701E45FFE4F80815A
:1018A00091818C599F4F029708F497C080E090E097
:1018B0000E949B06883C09F052C08FC060E08DE01A
:1018C0000E94420260E081E10E944202F0902D04F9
:1018D0008BE08F1508F443C081EE90E00E94C604AF
:1018E00020910C0130910D01281B390B37FF03C0EB
:1018F000319521953109AEE0B1E061E070E0FB0186
:1019000031974D915D91481B590B57FF03C051957D
:1019100041955109421753074CF4FB0131969A0146
:10192000EB30F10511F0BF01EACFFB018F2D90E004
:101930008E179F073CF461E081E10E94420260E063
:101940008DE00BC0E817F90714F461E001C060E016
:101950008DE00E94420260E081E10E9442028FE03D
:101960000E941902019731F48EE00E941902892B1E
:1019700009F44DC08FE00E941902892B09F062C062
:101980008EE00E941902019709F05CC0F0902B04D0
:1019900097E09F1508F462C055C0EE24E394F12C43
:1019A00068EC70E080E090E00E940C0386E00E940A
:1019B000960468EC70E080E090E00E940C0360E028
:1019C00086E00E948D062FEFE21AF20A0E151F051F
:1019D0003CF70FCF0E94EF0618CFF701E45FFE4FF0
:1019E000808191818D399F4F79F081EE90E00E9446
:1019F000C60420911A0130911B018217930714F03D
:101A000061E0AACF60E098CF8FEE91E0F0CF109226
:101A10002B0460E084E090E00E94AF0460E086E088
:101A20000E948D0686E00E9496040E9401070E9493
:101A3000E2060E94EF060E94FC0660E086E00E943B
:101A40008D0698CF8FE00E941902892BC9F48EE091
:101A50000E941902892B09F48FC112C086E00E94EE
:101A600096048CE00E941902892B29F4809133049A
:101A7000882309F4C1C08CE00E941902892B19F057
:101A80000E946901CCCE809133048823C9F38091F0
:101A90001F04909120049A83898380912B048B8367
:101AA00080912A048C831D828091210490912204CC
:101AB0009F838E83198618866BE174E08AE090E03C
:101AC0000E9457040E94650887EB93E00E949F08DC
:101AD0008091000180901B0490901C0498E4899FE1
:101AE000801891081124A12CB12CBE016F5F7F4F8B
:101AF0007401EA0CFB1CC7010E943104B701FF0C02
:101B0000880B990B0E94150A8FEE92E00E94130A2F
:101B10006091000170E080E090E04AE00E94BF091F
:101B20008FEE92E00E94130A6B8170E080E090E0FB
:101B30004AE00E94BF098FEE92E00E94130A698179
:101B40007A81072E000C880B990B0E94150A8FEEE4
:101B500092E00E94130A6C8170E080E090E04AE01D
:101B60000E94BF098C81811104C08DED92E00E941A
:101B7000130A8C81813021F486EE92E00E94130AD0
:101B80008C81823021F481EF92E00E94130A8C81D3
:101B9000843021F484E093E00E94130A8C81863023
:101BA00021F486E193E00E94130A8C81873021F4AE
:101BB00081E293E00E94130A8C81883021F488E24C
:101BC00093E00E94130A6D8170E080E090E04AE0AB
:101BD0000E94BF098FEE92E00E94130A89E0A80ECE
:101BE000B11C98E4A916B10409F07FCF80910001DF
:101BF0008F5F8093000144CF80911F049091200457
:101C00009A838983FB821C821D821F821E82198611
:101C10001886BE016F5F7F4F80911B0490911C045A
:101C20000E9431046BE174E08AE090E00E94570466
:101C3000A0901B04B0901C04750188E4E81AF10818
:101C40008FE393E00E949F088DE793E00E94130AC0
:101C500080911B0490911C040E94410A8DE993E03D
:101C60000E94130AC7010E94410ABE016F5F7F4FA5
:101C7000C7010E9431048DEE91E00E949F0885E229
:101C800092E00E94130AC7010E94410A81E592E096
:101C90000E94130A89819A810E94410A8AE492E093
:101CA0000E94130A8B810E94000A8CE592E00E9438
:101CB000130A8C810E94000A88E692E00E94130AAF
:101CC0008C81811104C080E792E00E949F088C8182
:101CD000813021F487E792E00E949F088C81823056
:101CE00021F480E892E00E949F088C81843021F4E6
:101CF00081E992E00E949F088C81853021F481EA7D
:101D000092E00E949F088C81863021F48EEA92E056
:101D10000E949F088C81873021F487EB92E00E941B
:101D20009F088C81883021F48CEB92E00E949F0800
:101D30008EEB92E00E94130A8D810E94000A8EECC5
:101D400092E00E94130A8E819F810E94410A85EDD4
:101D500092E00E94130A888599850E94410A29E031
:101D6000E20EF11CAE14BF0409F07FCF8091000198
:101D70008F5F809300017FCE84E090E00E94B104E9
:101D800080932B048CE00E941902892B09F05EC01D
:101D9000E0912D04F0E0EE0FFF1FE45FFE4F808125
:101DA00091818F399F4F09F051C087E080932A04B9
:101DB0000E948E050E9401070E94E20688E00E94B0
:101DC00019020197D9F768E270E080E090E00E9484
:101DD0000C03F0903304FF2029F06FEF70E08BE0EC
:101DE0000E94AD020E94FC06FF2029F062E870E02C
:101DF0008BE00E94AD028CE00E941902892BD9F37E
:101E0000FF2091F087E00E94960461E070E080E09E
:101E100090E00E940C0360E070E08BE00E94AD0255
:101E200060E087E00E948D060E94010768EC70E088
:101E300080E090E00E940C030E94EF0668EC70E0E6
:101E400080E090E00E940C030E94FC068CE00E945F
:101E50001902892BF1F5E0912D04F0E0EE0FFF1F40
:101E6000E45FFE4F808191818E399F4F91F588E02C
:101E700080932A040E948E050E9401070E94E206B8
:101E800088E00E9419020197D9F768E270E080E0CB
:101E900090E00E940C030E94FC068CE00E94190254
:101EA0000197D9F38CE00E941902892B11F40E944A
:101EB000010768EC70E080E090E00E940C030E9453
:101EC000EF0668EC70E080E090E00E940C030E9456
:101ED000FC061092290462E08CE00E9471028CE002
:101EE0000E9419029C01BB24B394892B09F4B12CE4
:101EF000B0920B0190910A01232B09F045C0992360
:101F000009F49FC00E94460320900601309007010B
:101F10004090080150900901DC01CB01821993091E
:101F2000A409B5094597A105B10508F48AC00E9426
:101F30004603609302017093030180930401909320
:101F400005011092320410930101109231040E9495
:101F50004603DC01CB0182199309A409B5098A3F24
:101F60009105A105B10568F480913004811109C083
:101F700080912F04882329F01093300410922F04AD
:101F800060C010923004FACF911128C00E9446031D
:101F9000209102013091030140910401509105010B
:101FA000DC01CB01821B930BA40BB50B4597A1055C
:101FB000B105A0F080913204811110C00E94460347
:101FC00060930601709307018093080190930901C3
:101FD000809130048111B0C110932F04E12CF12CB9
:101FE0000E944603209106013091070140910801AB
:101FF00050910901DC01CB01821B930BA40BB50BA3
:102000008A3F9105A105B10508F440C080912F04D5
:102010008823E1F180913004811138C08091010161
:102020008823A1F182E0E816F10409F492C110922C
:102030002F0410930A0110922A04EE24E394F12C49
:102040002BC00E9446032091020130910301409170
:10205000040150910501DC01CB01821B930BA40B01
:10206000B50B8E359140A105B10508F43DC08091B6
:10207000310481116BC1109332041092300410921C
:102080002F041093310433E0E32EF12CB0920A01B7
:1020900010922A04E0FE0BC01093290492E0E91686
:1020A000F10449F080912C04811144C027C022E042
:1020B000E216F104E9F40E9446038CE293E00E94E8
:1020C0009F0888EE93E00E94AD0888E592E00E94A8
:1020D000AD0888EC90E00E94AD0880E590E00E9499
:1020E000AD081093290404C0B0920A0110922A048A
:1020F00080912904882309F4C3CCD4CF809127048C
:102100009091280418161906ACF40E948E051092BE
:1021100028041092270460E086E00E948D060E9449
:10212000EF0662E370E080E090E00E940C030E9402
:10213000FC06A6CC80E090E00E949B06843609F065
:1021400062C084E090E00E94B10480932B040E945E
:102150008E0583E28093B0006092B1000093B300DB
:102160007092B4006FEF70E08BE00E94AD020E94AD
:1021700001070E94E20688E00E9419020197D9F740
:1021800062E870E08BE00E94AD0268E770E080E0FA
:1021900090E00E940C030E94FC0662E470E080E084
:1021A00090E00E940C0361E084E00E94420262E041
:1021B00070E080E090E00E940C0360E070E08BE053
:1021C0000E94AD0260E084E00E94420264E170E09F
:1021D00080E090E00E940C030E94010768EC70E030
:1021E00080E090E00E940C030E94EF0668EC70E033
:1021F00080E090E00E940C030E94FC0610922804EC
:10220000109227043DCC80E090E00E949B06883C21
:1022100069F481EE90E090932604809325040E9457
:102220008E0510922804109227041AC080912D0464
:10223000843608F025CCE82EF12CEE0CFF1CF701BB
:10224000E45FFE4F808191818C392FEF920759F422
:1022500081EE90E090932604809325040E948E05E1
:102260000E9478070DCC8D399F4F29F4D092260417
:10227000C0922504F3CF60E081E10E94420260E059
:102280008DE00E9442020E94010764E670E080E057
:1022900090E00E940C030E94E20688E00E9419026E
:1022A0000197D9F768E770E080E090E00E940C03A6
:1022B0000E94B304F701E45FFE4FE080F18089E003
:1022C000E80EF11C0E94FC06B7010F2C000C880BD5
:1022D000990B0E940C038091D9049091DA04E816BE
:1022E000F9066CF087E00E94960461E070E080E0FF
:1022F00090E00E940C0360E087E00E948D060E943F
:1023000001076AE070E080E090E00E940C03F8941E
:102310008091840090918500A0E0B0E0809321043A
:1023200090932204A0932304B093240478940E94F1
:102330001D070E948E05A4CB1092300410922F042A
:102340001092010142E0E42EF12C4ACEE12CF12C56
:102350009DCE10930A0110922A04ADCE10923F0434
:1023600010923E0488EE93E0A0E0B0E08093400439
:1023700090934104A0934204B093430481E391E01D
:1023800090933D0480933C0485EC90E09093490445
:102390008093480484EC90E090934B0480934A042B
:1023A00080EC90E090934D0480934C0481EC90E09D
:1023B00090934F0480934E0482EC90E090935104EC
:1023C0008093500486EC90E09093530480935204E1
:1023D000109255041092560410925704109258040B
:1023E00060E082E00E947102E1EBF0E0E491E093B2
:1023F000DB04EDE9F0E0E491F0E0EE0FFF1FEF56B3
:10240000FF4F859194919093DD048093DC041092AA
:10241000E6041092E8041092E704E6EEF4E012926B
:1024200084E0EE3DF807D9F782E290E09093DA0479
:102430008093D9040895F999FECF92BD81BDF89A91
:10244000992780B50895262FF999FECF1FBA92BD1E
:1024500081BD20BD0FB6F894FA9AF99A0FBE019685
:1024600008955058BB27AA270E9449120C9428139C
:102470000E941A1338F00E94211320F039F49F3F74
:1024800019F426F40C9417130EF4E095E7FB0C9462
:102490001113E92F0E94391358F3BA176207730713
:1024A0008407950720F079F4A6F50C945B130EF4DD
:1024B000E0950B2EBA2FA02D0B01B90190010C0154
:1024C000CA01A0011124FF27591B99F0593F50F46C
:1024D000503E68F11A16F040A22F232F342F4427C4
:1024E000585FF3CF469537952795A795F0405395BC
:1024F000C9F77EF41F16BA0B620B730B840BBAF08C
:102500009150A1F0FF0FBB1F661F771F881FC2F7F6
:102510000EC0BA0F621F731F841F48F4879577950A
:102520006795B795F7959E3F08F0B0CF9395880FC4
:1025300008F09927EE0F9795879508950E94A512A8
:102540006894B1110C945C1308950E94411388F0B3
:102550009F5798F0B92F9927B751B0F0E1F0660F67
:10256000771F881F991F1AF0BA95C9F714C0B130A8
:1025700091F00E945B13B1E008950C945B13672FF8
:10258000782F8827B85F39F0B93FCCF386957795D7
:102590006795B395D9F73EF49095809570956195C0
:1025A0007F4F8F4F9F4F0895E89409C097FB3EF4EB
:1025B00090958095709561957F4F8F4F9F4F992390
:1025C000A9F0F92F96E9BB279395F695879577950E
:1025D0006795B795F111F8CFFAF4BB0F11F460FFCE
:1025E0001BC06F5F7F4F8F4F9F4F16C0882311F026
:1025F00096E911C0772321F09EE8872F762F05C03A
:10260000662371F096E8862F70E060E02AF09A95D4
:10261000660F771F881FDAF7880F9695879597F9C9
:10262000089597F99F6780E870E060E008959FEF54
:1026300080EC089500240A94161617061806090659
:10264000089500240A941216130614060506089528
:10265000092E0394000C11F4882352F0BB0F40F4B0
:10266000BF2B11F460FF04C06F5F7F4F8F4F9F4FF0
:10267000089557FD9058440F551F59F05F3F71F072
:102680004795880F97FB991F61F09F3F79F08795D9
:102690000895121613061406551FF2CF4695F1DF62
:1026A00008C0161617061806991FF1CF86957105F2
:1026B000610508940895E894BB2766277727CB0126
:1026C00097F9089597FB072E16F4009407D077FD2D
:1026D00009D00E94981307FC05D03EF4909581958F
:1026E0009F4F0895709561957F4F0895A1E21A2E2E
:1026F000AA1BBB1BFD010DC0AA1FBB1FEE1FFF1FA6
:10270000A217B307E407F50720F0A21BB30BE40BF5
:10271000F50B661F771F881F991F1A9469F760953C
:102720007095809590959B01AC01BD01CF010895F6
:10273000AA1BBB1B51E107C0AA1FBB1FA617B707E7
:1027400010F0A61BB70B881F991F5A95A9F7809503
:102750009095BC01CD010895EE0FFF1F0590F491F7
:10276000E02D099481E090E0F8940C94B713F8946C
:02277000FFCF99
:102772000101FFFFFFFFFFFFFFFF01010200030056
:10278200050006000A000F00160022002A00500071
:102792008C0022019CFF9DFF9EFF9FFFFF00000017
:1027A20000FA00AD0A91004701C200A000B400097E
:1027B200004F766572666C6F77204F636375726542
:1027C2006421002A2A2A2A2A2A2A2A2A2A2A2A2A60
:1027D2002A2A2A2A2A2A2A2A2A2A2A2A2A2A2A2A57
:1027E2000041637475616C20706963747572653A37
:1027F200200043757272656E74207069637475721D
:1028020065205061636B3A2000506963747572658C
:1028120020747970653A200053687574746572206B
:10282200696E206D733A2000436F756E7465723A5B
:1028320020000D0A00506963747572652074616B23
:10284200656E3A20006F70656E5358373021212132
:10285200212121212121212121212121003D3D3D33
:102862003D3D3D3D3D3D3D3D3D3D3D3D3D3D3D3D96
:102872003D3D3D3D3D3D3D3D3D3D3D3D3D3D3D3D86
:102882003D3D3D3D3D3D3D3D3D3D3D3D3D3D3D3D76
:102892003D3D3D3D00656541646472657373207220
:1028A2006561642028746869735265636F7264415C
:1028B200646472657373293A200043757272656E9F
:1028C2007420506963747572653A200020547970DF
:1028D20065207261773A200020547970653A2000B1
:1028E2004D414E55414C004155544F20313030003E
:1028F200464C41534820444F4E474C454C45535358
:1029020000464C41534820463820444F4E474C45E0
:1029120000464C41534820444F4E474C45004155D8
:10292200544F203630300042554C42005400205360
:1029320068757474657253706565643A2000204C42
:102942004F573A200020484947483A20002C4D4131
:102952004E55414C2C002C4155544F203130302CD7
:10296200002C464C41534820444F4E474C454C4561
:1029720053532C002C464C41534820463820444F98
:102982004E474C452C002C4155544F203630302CAC
:10299200002C42554C422C002C542C0053544152D2
:1029A20054203530302C323630302C352C30003D2E
:1029B2003D3D3D3D3D3D3D3D3D3D3D3D3D3D3D3D45
:1029C2003D3D3D3D3D3D20456E746572696E67201B
:1029D2006C6F6F70203D3D3D3D3D3D3D3D3D3D3D7C
:1029E2003D3D3D3D3D3D3D3D3D3D3D3D00494E4929
:1029F2005449414C20656541646472657373206279
:102A020065666F7265206C6F6F703A200052656167
:102A12006441646472657373206265666F726520D7
:102A22006C6F6F703A200065654164647265737300
:102A32002C5061636B2C5061636B206F7264657202
:102A42002C506963747572652C54797065205261DB
:102A5200772C20547970652C2053687574746572D4
:102A620053706565642C204C75780054595045208C
:022A7200320030
:107800000C94343C0C94513C0C94513C0C94513CE1
:107810000C94513C0C94513C0C94513C0C94513CB4
:107820000C94513C0C94513C0C94513C0C94513CA4
:107830000C94513C0C94513C0C94513C0C94513C94
:107840000C94513C0C94513C0C94513C0C94513C84
:107850000C94513C0C94513C0C94513C0C94513C74
:107860000C94513C0C94513C11241FBECFEFD8E036
:10787000DEBFCDBF11E0A0E0B1E0EAE8FFE702C063
:1078800005900D92A230B107D9F712E0A2E0B1E065
:1078900001C01D92AD30B107E1F70E942D3D0C945F
:1078A000C33F0C94003C982F95959595959595958B
:1078B000905D8F708A307CF0282F295A8091C0000B
:1078C00085FFFCCF9093C6008091C00085FFFCCF60
:1078D0002093C6000895282F205DF0CF982F809127
:1078E000C00085FFFCCF9093C6000895EF92FF92F1
:1078F0000F931F93EE24FF2487018091C00087FD22
:1079000017C00894E11CF11C011D111D81E2E8164D
:1079100081EAF80687E0080780E0180770F3E09135
:107920000401F091050109958091C00087FFE9CF1E
:107930008091C6001F910F91FF90EF9008950E94D3
:10794000763C982F8091C00085FFFCCF9093C600B5
:1079500091362CF490330CF09053892F089597555D
:10796000892F08951F930E949F3C182F0E949F3CCF
:107970001295107F810F1F9108951F93182F882350
:1079800021F00E94763C1150E1F71F9108951F935A
:10799000182F0E94763C803249F0809103018F5F5E
:1079A000809303018530C1F01F9108958091C0003C
:1079B00085FFFCCF84E18093C6008091C00085FFE5
:1079C000FCCF1093C6008091C00085FFFCCF80E102
:1079D0008093C6001F910895E0910401F091050184
:1079E00009951F9108950E94763C803241F0809164
:1079F00003018F5F80930301853081F008958091AA
:107A0000C00085FFFCCF84E18093C6008091C00058
:107A100085FFFCCF80E18093C6000895E0910401CA
:107A2000F09105010995089548EC50E08823A1F0F4
:107A30002D9A28EE33E0FA013197F1F721503040CA
:107A4000D1F72D9828EE33E0FA013197F1F7215064
:107A50003040D1F7815061F708953F924F925F9285
:107A60006F927F928F929F92AF92BF92CF92DF924E
:107A7000EF92FF920F931F93CF93DF93000082E06A
:107A80008093C00080E18093C4001092C50088E11B
:107A90008093C10086E08093C2005098589A259A3E
:107AA00081E00E94143D24E1F22E9EE1E92E85E959
:107AB000D82E0FE0C02E10E1B12EAA24A394B1E479
:107AC0009B2EA6E58A2EF2E57F2EE0E26E2E79E46B
:107AD000572E63E5462E50E5352E0E94763C8033C6
:107AE000B1F18133B9F1803409F46FC0813409F404
:107AF00076C0823409F485C0853409F488C08035A5
:107B000031F1823521F1813511F1853509F485C0D6
:107B1000863509F48DC0843609F496C0843709F49B
:107B200003C1853709F472C1863709F466C08091B4
:107B300003018F5F80930301853079F6E0910401A2
:107B4000F091050109950E94763C803351F60E9420
:107B5000F33CC3CF0E94763C803249F78091C0004D
:107B600085FFFCCFF092C6008091C00085FFFCCF5E
:107B70009092C6008091C00085FFFCCF8092C60025
:107B80008091C00085FFFCCF7092C6008091C0003C
:107B900085FFFCCF6092C6008091C00085FFFCCFBE
:107BA0005092C6008091C00085FFFCCF4092C60075
:107BB0008091C00085FFFCCF3092C6008091C0004C
:107BC00085FFFCCFB092C60088CF0E94763C8638F5
:107BD00008F4BDCF0E94763C0E94F33C7ECF0E9409
:107BE000763C803809F49CC0813809F40BC1823896
:107BF00009F430C1883909F48FC080E00E94C73C85
:107C00006CCF84E10E94BD3C0E94F33C66CF85E0CE
:107C10000E94BD3C0E94F33C60CF0E94763C809362
:107C200006010E94763C809307010E94F33C55CFE9
:107C30000E94763C803309F411C183E00E94BD3C70
:107C400080E00E94C73C49CF0E94763C80930902A5
:107C50000E94763C8093080280910C028E7F809374
:107C60000C020E94763C853409F409C18091080217
:107C700090910902892B89F000E010E00E94763C87
:107C8000F801E85FFE4F80830F5F1F4F809108026D
:107C9000909109020817190788F30E94763C8032F8
:107CA00009F045CF80910C0280FFF5C0609106017C
:107CB00070910701660F771F7093070160930601AB
:107CC000A0910802B09109021097C9F0E8E0F1E034
:107CD0009B01AD014E0F5F1FF999FECF32BD21BD53
:107CE000819180BDFA9AF99A2F5F3F4FE417F5070B
:107CF00099F76A0F7B1F70930701609306018091CB
:107D0000C00085FFFCCFF092C6008091C00085FFC7
:107D1000FCCFB092C600E1CE83E00E94C73CDDCE2E
:107D200082E00E94C73CD9CE0E94763C8093090233
:107D30000E94763C80930802809106019091070191
:107D4000880F991F90930701809306010E94763C4B
:107D5000853409F49AC080910C028E7F80930C02C6
:107D60000E94763C803209F0B8CE8091C00085FF39
:107D7000FCCFF092C600A0910802B09109021097C2
:107D8000C1F180910C02082F0170182F1695117007
:107D9000E0910601F0910701AF014F5F5F4FBA011B
:107DA00020E030E00023B1F4112339F49491809164
:107DB000C00085FFFCCF9093C6002F5F3F4FCB01E3
:107DC0000196FA012A173B0780F4BC014F5F5F4F11
:107DD000002351F3F999FECFF2BDE1BDF89A90B5B9
:107DE0008091C00085FFFCCFE6CF709307016093C0
:107DF00006018091C00085FDE5CE8091C00085FF21
:107E0000F8CFE0CE81E00E94C73C67CE0E94763C6E
:107E1000803209F08CCE8091C00085FFFCCFF092BB
:107E2000C6008091C00085FFFCCFE092C600809123
:107E3000C00085FFFCCFD092C6008091C00085FFB6
:107E4000FCCFC092C6008091C00085FFFCCFB092ED
:107E5000C60043CE80E10E94C73C3FCE0E94763CE4
:107E60000E94763C182F0E94763C112309F483C0AF
:107E7000113009F484C08FE00E94C73C2ECE80915F
:107E80000C02816080930C02F1CE80910C02816023
:107E900080930C0265CF809107018823880F880B9F
:107EA0008A2180930B028091060190910701880F2F
:107EB000991F90930701809306018091080280FF2B
:107EC00009C08091080290910902019690930902DD
:107ED00080930802F894F999FECF1127E0910601EA
:107EE000F0910701C8E0D1E0809108029091090269
:107EF000103091F40091570001700130D9F303E084
:107F000000935700E8950091570001700130D9F3B4
:107F100001E100935700E8950990199000915700EE
:107F200001700130D9F301E000935700E8951395F3
:107F3000103498F011270091570001700130D9F3E7
:107F400005E000935700E89500915700017001305B
:107F5000D9F301E100935700E8953296029709F0B2
:107F6000C7CF103011F00296E5CF11248091C000E8
:107F700085FFC5CEC8CE8EE10E94C73CAECD85E957
:0A7F80000E94C73CAACDF894FFCF81
:027F8A00800075
:040000030000780081
:00000001FF