:100000000C9463000C948B000C948B000C948B006C
:100010000C948B000C948B000C948B000C94E709CF
:100020000C948B000C948B000C948B000C94BA06EF
:100030000C948B000C94C6040C948B000C948B00D5
:100040000C9452030C948B000C94E7010C94C101A6
:100050000C948B000C948B000C948B000C948B00F4
:100060000C948B000C948B000000000024002700EF
:100070002A0000000000250028002B0000000008D6
:10008000000201000003040700000000000000005F
:1000900002000000002300260029000404040404D8
:1000A0000404040202020202020303030303030125
:1000B00002040810204080010204081020010204FC
:1000C00008102000241111241FBECFEFD8E0DEBF9E
:1000D000CDBF14E0A0E0B1E0E0EAF3E202C0059099
:1000E0000D92A030B107D9F724E0A0E0B4E001C040
:1000F0001D92A43EB207E1F710E0C3E6D0E004C0D1
:100100002197FE010E94C311C236D107C9F70E9490
:10011000410A0C94CE110C940000089580E090E008
:100120000895FC01538D448D252F30E0842F90E0FD
:10013000821B930B541710F0CF96089501970895E2
:10014000FC01918D828D981761F0828DDF01A80FDF
:10015000B11D5D968C91928D9F5F9F73928F90E001
:1001600008958FEF9FEF0895FC01918D828D981770
:1001700031F0828DE80FF11D858D90E008958FEFAD
:100180009FEF0895FC01918D228D892F90E0805C76
:100190009F4F821B91098F739927089584E394E000
:1001A0000E94C20021E0892B09F420E0822F0895EB
:1001B000FC01848DDF01A80FB11DA35ABF4F2C9104
:1001C000848D90E001968F739927848FA689B789D3
:1001D0002C93A089B1898C91837080648C93938DCA
:1001E000848D981306C00288F389E02D80818F7D6D
:1001F00080830895EF92FF920F931F93CF93DF9325
:10020000EC0181E0888F9B8D8C8D981305C0E88967
:10021000F989808185FD26C0F62E0B8D10E00F5FD9
:100220001F4F0F731127E02E8C8DE8120CC00FB6F4
:1002300007FCFACFE889F989808185FFF5CFCE01E7
:100240000E94D800F1CF8B8DFE01E80FF11DE35A1B
:10025000FF4FF0829FB7F8940B8FEA89FB8980816A
:1002600080620AC09FB7F894EE89FF896083E889AD
:10027000F98980818370806480839FBF81E090E0F2
:10028000DF91CF911F910F91FF90EF900895CF9341
:10029000DF93EC01888D8823C9F0EA89FB8980818E
:1002A00085FD05C0A889B9898C9186FD0FC00FB660
:1002B00007FCF5CF808185FFF2CFA889B9898C91A1
:1002C00085FFEDCFCE010E94D800E7CFDF91CF911F
:1002D000089580E090E0892B29F00E94CE008111E2
:1002E0000C9400000895833081F028F4813099F057
:1002F0008230A1F008958730A9F08830B9F08430B9
:10030000D1F4809180008F7D03C0809180008F7731
:1003100080938000089584B58F7702C084B58F7D67
:1003200084BD08958091B0008F7703C08091B000A4
:100330008F7D8093B00008953FB7F8948091280492
:1003400090912904A0912A04B0912B0426B5A89B72
:1003500005C02F3F19F00196A11DB11D3FBFBA2F57
:10036000A92F982F8827820F911DA11DB11DBC01B7
:10037000CD0143E0660F771F881F991F4A95D1F77B
:1003800008951F920F920FB60F9211242F933F934F
:100390004F935F936F937F938F939F93AF93BF938D
:1003A000EF93FF9384E394E00E94D800FF91EF91D4
:1003B000BF91AF919F918F917F916F915F914F917D
:1003C0003F912F910F900FBE0F901F9018951F9285
:1003D0000F920FB60F9211242F938F939F93EF9349
:1003E000FF93E0914404F09145048081E0914A0438
:1003F000F0914B0482FD12C0908180914D048F5F7B
:100400008F7320914E04821751F0E0914D04F0E07B
:10041000EC5CFB4F958F80934D0401C08081FF9170
:10042000EF919F918F912F910F900FBE0F901F9082
:100430001895CF93DF93282F30E0F901E458FF4F50
:100440008491F901E155FF4FD491F901E556FF4F31
:10045000C491CC2391F081110E947301EC2FF0E044
:10046000EE0FFF1FEF56FF4FA591B491EC91ED23D6
:1004700081E090E021F480E002C080E090E0DF9134
:10048000CF9108951F93CF93DF93282F30E0F90188
:10049000E458FF4F8491F901E155FF4FD491F901E0
:1004A000E556FF4FC491CC23C1F0162F81110E9455
:1004B0007301EC2FF0E0EE0FFF1FEE58FF4FA591F8
:1004C000B4919FB7F894111104C08C91D095D823A2
:1004D00002C0EC91DE2BDC939FBFDF91CF911F9187
:1004E0000895CF93DF9390E0FC01E155FF4F2491F5
:1004F000FC01E556FF4F8491882361F190E0880F5D
:10050000991FFC01E859FF4FC591D491FC01EE58A9
:10051000FF4FA591B491611109C09FB7F8948881EC
:10052000209582238883EC912E230BC0623061F4E6
:100530009FB7F8948881322F309583238883EC917C
:100540002E2B2C939FBF06C08FB7F894E8812E2BDB
:1005500028838FBFDF91CF9108951F93CF93DF93AF
:10056000182FEB0161E00E947102209711F460E006
:1005700004C0CF3FD10539F461E0812FDF91CF91E5
:100580001F910C944202E12FF0E0E458FF4FE491F8
:10059000E330F9F048F4E130B9F0E230A1F584B588
:1005A000806284BDC8BD34C0E730E9F0E83019F19D
:1005B000E43049F580918000806280938000D09380
:1005C0008B00C0938A0024C084B5806884BDC7BDF9
:1005D0001FC080918000806880938000D093890044
:1005E000C093880015C08091B00080688093B000EF
:1005F000C093B3000DC08091B00080628093B000C2
:10060000C093B40005C0C038D1050CF0B5CFAFCF52
:10061000DF91CF911F9108958F929F92AF92BF92D9
:10062000CF92DF92EF92FF926B017C010E949C01BE
:100630004B015C01C114D104E104F104F1F00E940A
:100640009C01DC01CB0188199909AA09BB09883EE4
:100650009340A105B10570F321E0C21AD108E10869
:10066000F10888EE880E83E0981EA11CB11CC1140D
:10067000D104E104F10419F7DDCFFF90EF90DF9092
:10068000CF90BF90AF909F908F9008952FB7F89420
:100690006091240470912504809126049091270490
:1006A0002FBF08951F920F920FB60F9211242F9310
:1006B0003F938F939F93AF93BF9380912404909126
:1006C0002504A0912604B09127043091230426E04C
:1006D000230F2D3720F40296A11DB11D05C029E876
:1006E000230F0396A11DB11D20932304809324049E
:1006F00090932504A0932604B093270480912804A6
:1007000090912904A0912A04B0912B040196A11D77
:10071000B11D8093280490932904A0932A04B093D8
:100720002B04BF91AF919F918F913F912F910F908B
:100730000FBE0F901F901895FC0190810180F281EF
:10074000E02D892F809560FF12C0F89422818223CA
:1007500082838181892B8183A0E1B0E01197F1F739
:100760008281982B928378948AE690E011C0F89465
:100770002281822382838181892B8183AEE7B0E04D
:100780001197F1F78281982B9283789486E090E01C
:100790000197F1F70895DF92EF92FF920F931F9365
:1007A000CF93DF93EC01D62EE42E08E010E0FF2477
:1007B000F39461E08D2D8F2109F460E0CE010E9459
:1007C0009C03FF0C01501109A1F7E11010C0F8942F
:1007D000E981FA8191818881809589238183E981EA
:1007E000FA81928188818095892382837894DF9130
:1007F000CF911F910F91FF90EF90DF900895DC0152
:100800002C911196ED91FC911297F8948181922F81
:1008100090958923818378948DE7815009F1308107
:100820003223D9F3F8948281892382838181822BB8
:1008300081837894ACEBB3E01197F1F7F894818160
:100840009823918388E890E00197F1F7808128232D
:1008500081E009F080E07894E0E3F3E03197F1F78C
:100860000895CF92DF92EF92FF920F931F93CF9351
:10087000DF93EB017B0129E0E20EF11C8B016C019F
:10088000C61AD70AC601800F911F0E948B11F8016A
:1008900081938F01EE15FF05A9F7CE01DF91CF916E
:1008A0001F910F91FF90EF90DF90CF9008950F93DD
:1008B0001F93CF93DF938C01EB010E948B118883F0
:1008C000C80101960E948B118983CE01DF91CF91DF
:1008D0001F910F910895AF92BF92DF92EF92FF9216
:1008E0000F931F93CF93DF93EC017B018B015C018E
:1008F00082E0A80EB11CF801D1908F01CE010E94B8
:100900008B11D81621F06D2DCE010E9493112196E6
:10091000CA15DB0581F7C701DF91CF911F910F91B8
:10092000FF90EF90DF90BF90AF900895CF93C82FC6
:100930000E94C90781ED94E00E94FF030E94B20764
:1009400081E090E0A0E0B0E004C0880F991FAA1FEA
:10095000BB1FCA95D2F78095CF910C94D7070C9402
:1009600093110C948B11F8948FEF86BB109280003A
:100970001092850010928400E1E8F0E080818460AC
:100980008083808182608083789408951F920F9283
:100990000FB60F9211242F933F934F935F936F9352
:1009A0007F938F939F93AF93BF93EF93FF9385E6CE
:1009B00093E00E94A709EFE6F0E080818E7F8083BC
:1009C00080818D7F8083FF91EF91BF91AF919F9147
:1009D0008F917F916F915F914F913F912F910F90E8
:1009E0000FBE0F901F901895AF92BF92DF92EF92BB
:1009F000FF920F931F93CF93DF93CDB7DEB7299765
:100A00000FB6F894DEBF0FBECDBF64E074E08DE09A
:100A100090E00E945704809110048F5F809310042F
:100A2000E0911204F0E0EE0FFF1FE45FFE4F108133
:100A300020910404309105043A8329838B838091AB
:100A40000F048C831D8380910604909107049F837B
:100A50008E8380910204909103049987888787E7A9
:100A600093E00E94330885E993E00E94A7098091F2
:100A70000404909105040E94D50986EA93E00E943F
:100A8000A709809110040E9494098DEB93E00E94C5
:100A9000A70980910F040E9494098CEC93E00E94B6
:100AA000A709812F0E9494098CED93E00E94A70969
:100AB00060910604709107048091080490910904E4
:100AC0004AE00E94530986EE93E00E94210887E7DE
:100AD00093E00E9433086091100484E090E00E944B
:100AE000AF0489EE93E00E94A70984E090E00E94A1
:100AF000B1040E9494090091000410910104CE01F8
:100B000001967C01580199E0A90EB11CF701D19022
:100B10007F01C8010E948B11D81621F06D2DC801EC
:100B20000E9493110F5F1F4FA016B10679F78091B5
:100B30000004909101049C012E5E3F4F211534402A
:100B400030F40996909301048093000404C010923D
:100B500001041092000460E074E08AE090E00E94DA
:100B60006B04809104049091050401969093050410
:100B70008093040464E074E08DE090E029960FB661
:100B8000F894DEBF0FBECDBFDF91CF911F910F91C3
:100B9000FF90EF90DF90BF90AF900C946B04CF93D9
:100BA000DF9381ED94E00E94FF0340E066E981ED70
:100BB00094E00E94CB03CCE2D4E0699140E081ED67
:100BC00094E00E94CB0384E0C433D807B1F740E03F
:100BD0006CE381ED94E00E94CB0381ED94E0DF9122
:100BE000CF910C94FF0361110C9496040E94C907E5
:100BF00081ED94E00E94FF030E94B2078FEF0C94F6
:100C0000D707CF93DF93EC0180911304811105C0C6
:100C100082E00E9419020197A9F082E00E94190265
:100C2000019721F480911304811110C082E00E9489
:100C30001902892B49F080911304811103C082E0CD
:100C40000E94190288EC2DC084E62BC02097C1F4C5
:100C50000E94C907982F80FD02C080E001C088E093
:100C600091FF02C0846001C08B7F92FF02C082604E
:100C700001C08D7F93FF02C0816013C08E7F11C0C1
:100C8000C230D10529F40E94C9078295817009C03C
:100C9000219731F40E94C90785FB882780F901C09C
:100CA00080E0DF91CF91089561E080E10E944202EF
:100CB00087E00E9419020197D9F760E080E10C9467
:100CC000420261E080E10E94420287E00E94190234
:100CD000892BD9F760E080E10C94420260E070E07B
:100CE00083E00C94AD0283E28093B00089E08093AE
:100CF000B10080EE8093B3008FE68093B4006FEF75
:100D000070E083E00E94AD026FE070E080E090E070
:100D10000E940C0361EE70E083E00C94AD020E942F
:100D2000730668EC70E080E090E00E940C03809114
:100D30001104882351F080910C0490910D040196C8
:100D400090930D0480930C04089564E670E080E0B5
:100D500090E00E940C030E9461066CE271E080E06A
:100D600090E00E940C030E946E0610920D041092F7
:100D70000C0408951F920F920FB60F9211242F9317
:100D80003F934F935F936F937F938F939F93AF9313
:100D9000BF93EF93FF93EFE6F0E080818E7F808337
:100DA00080818D7F808310928500109284000E9444
:100DB0008F06FF91EF91BF91AF919F918F917F919E
:100DC0006F915F914F913F912F910F900FBE0F90B8
:100DD0001F9018950E9473060E94540688E00E9496
:100DE00019020197D9F768E770E080E090E00E946F
:100DF0000C0310920E04F89410928000109281005F
:100E00008FEF86BB109285001092840082E083BD34
:100E100080910A0490910B0490938900809388003C
:100E200080916F00816080936F0080916F0082607D
:100E300080936F00789487E0809381000C946E0615
:100E40009091D104E091D204F091D304F89481817F
:100E5000892B81832281892F809528232283A2E0F8
:100E6000B0E01197F1F7218182238183A0E1B0E006
:100E70001197F1F780817894E6E6F0E03197F1F789
:100E8000982381E009F480E008950F931F93CF9396
:100E9000DF9308E010E0C0E0D1E00E94200781115C
:100EA000CD2BDD0F01501109C1F78C2FDF91CF91B0
:100EB0001F910F910895CF92DF92EF92FF920F93BF
:100EC0001F93CF93DF936C017A018B01C0E0D0E0D8
:100ED000CE15DF0581F0D8016D918D01D601ED9120
:100EE000FC910190F081E02DC6010995892B11F04C
:100EF0002196EECF7E01C701DF91CF911F910F9117
:100F0000FF90EF90DF90CF9008950E94C9119091CB
:100F10002C01891324C0E0E9F0E0E4919FEF909365
:100F20002C01E130B9F098F0E230C9F490917000F2
:100F30009D7F9093700091E09093B0009091B100EC
:100F4000987F94609093B1001092B30008C0109203
:100F50006E0005C090916F009D7F90936F0060E0E0
:100F60000C944202CF93DF9340E065E581ED94E07D
:100F70000E94CB03CCE2D4E0699140E081ED94E0A3
:100F80000E94CB0384E0C433D807B1F7DF91CF913F
:100F9000089581ED94E00E94FF030E94B20741E0B2
:100FA00065EF81ED94E00E94CB030C944507CF934D
:100FB000C82F41E06AE581ED94E00E94CB0341E057
:100FC0006C2F81ED94E00E94CB036C2F609541E083
:100FD00081ED94E00E94CB030E9445078A3A31F4E8
:100FE0000E944507C81302C081E001C080E0CF9194
:100FF0000895E4E3F4E0A089B18982E08C93A485AC
:10100000B5851C92A685B78587E68C93108EA4893A
:10101000B58986E08C93A289B3898C9180618C9389
:10102000A289B3898C9188608C93A289B3898C91B1
:1010300080688C930288F389E02D80818F7D808386
:101040000895009769F0FC0101900020E9F73197BD
:10105000AF01481B590BBC0184E394E00C945B077F
:1010600080E090E00895CF93DF930E942108EC0187
:1010700086EE93E00E9421088C0F9D1FDF91CF9197
:1010800008954F925F926F927F928F929F92AF924C
:10109000BF92CF92DF92EF92FF920F931F93CF9365
:1010A000DF9300D000D000D0CDB7DEB76C0161E097
:1010B00086E00E9471020E944603812C912C54010B
:1010C0001E821D829B01AC012C53364F4F4F5F4F48
:1010D00029833A834B835C830D2C000CEE08FF08B8
:1010E0000E94460329813A814B815C816217730714
:1010F0008407950720F50E9446032B013C01DC0183
:10110000CB0188199909AA09BB098C159D05AE0563
:10111000BF0530F30D811E8131E00327A801417026
:1011200055275E834D8389EF93E00E943308602F3B
:10113000617086E00E94F30553014201D1CF61E066
:1011400086E00E94710286E00E94870726960FB60D
:10115000F894DEBF0FBECDBFDF91CF911F910F91ED
:10116000FF90EF90DF90CF90BF90AF909F908F90C7
:101170007F906F905F904F900895DF92EF92FF9273
:101180000F931F93CF93DF931092DC041092DE0431
:101190001092DD04ECEDF4E084EDE82E84E0F82E0E
:1011A000129284E0E43DF807D9F781ED94E00E94C3
:1011B000FF03811107C01092DC041092DE0410922C
:1011C000DD0468C040E060EF81ED94E00E94CB0355
:1011D000D1E000E0D12CC1E00E942007182F0E942E
:1011E0002007113019F48130C1F436C0202F30E0CF
:1011F00018131DC08091DC04C81738F4F901EF52B0
:10120000FB4F83818D2349F402C08C1731F010E02D
:10121000C93060F4C093DD0409C0E02FF0E0EF5264
:10122000FB4F83818D2B838311E009C0DC2EF901F4
:10123000EF52FB4F93818D2F809589238383612FFC
:1012400081ED94E00E949C03CF5FDD0F11F40F5FEE
:10125000D1E0083008F4C0CFC13408F4ACCFD0924C
:10126000DC04D11003C081E08093DE048091D404BB
:10127000882309F4A0CFECE2F4E0D7018D917D0141
:101280008193B4E0E433FB07C1F781E090912C0433
:10129000993209F080E0DF91CF911F910F91FF907B
:1012A000EF90DF9008958F929F92AF92BF920F932D
:1012B0001F93CF93DF93CDB7DEB7A1970FB6F89406
:1012C000DEBF0FBECDBF19A2423008F44AE08E0146
:1012D0000F5D1F4F842E912CA12CB12CA5019401E0
:1012E0000E94A111E62FB901CA0101501109EA308B
:1012F00014F4E05D01C0E95CD801EC93232B242BAE
:10130000252B61F7C8010E942108A1960FB6F89419
:10131000DEBF0FBECDBFDF91CF911F910F91BF9068
:10132000AF909F908F900895CF93DF93682F70E0D8
:1013300080E090E04AE00E945309EC0186EE93E0E1
:101340000E9421088C0F9D1FDF91CF9108950C946E
:101350002108CF92DF92EF92FF92CF93DF9397FF16
:101360001BC06B017C016DE284E394E00E94FA00F3
:10137000EC0166277727CB016C197D098E099F093F
:101380004AE00E9453098C0F9D1FDF91CF91FF907F
:10139000EF90DF90CF9008954AE0DF91CF91FF90DA
:1013A000EF90DF90CF900C945309CF93DF93BC0163
:1013B000990F880B990B0E94A909EC0186EE93E026
:1013C0000E9421088C0F9D1FDF91CF9108951F92DD
:1013D0000F920FB60F9211242F933F934F935F9369
:1013E0006F937F938F939F93AF93BF93EF93FF93ED
:1013F0008091E0049091E104A091E204B091E304B3
:10140000892B8A2B8B2B41F19091DF048091000076
:101410008927809300008091E0049091E104A091DD
:10142000E204B091E304181619061A061B06C4F468
:101430008091E0049091E104A091E204B091E30472
:101440000197A109B1098093E0049093E104A0936E
:10145000E204B093E30404C080912C010E9487074A
:10146000FF91EF91BF91AF919F918F917F916F917C
:101470005F914F913F912F910F900FBE0F901F9052
:101480001895CF93DF93CDB7DEB72B970FB6F894AF
:10149000DEBF0FBECDBF789484B5826084BD84B5B5
:1014A000816084BD85B5826085BD85B5816085BD5F
:1014B00080916E00816080936E0010928100809117
:1014C000810082608093810080918100816080939F
:1014D0008100809180008160809380008091B100C4
:1014E00084608093B1008091B00081608093B000EF
:1014F00080917A00846080937A0080917A00826083
:1015000080937A0080917A008E7F80937A00809118
:101510007A00806880937A001092C1000E94F907D7
:101520008FE391E00E94330861E08DE00E94710238
:1015300061E081E10E94710261E083E00E9471023A
:1015400061E08BE00E94710262E08CE00E94710217
:1015500062E082E00E94710262E088E00E94710213
:1015600062E087E00E94710260E08FE00E947102F9
:1015700060E08EE00E94710261E084E00E947102EE
:1015800060E084E00E94420261E080E10E9471021A
:1015900060E080E10E94420260E070E083E00E942F
:1015A000AD0260E070E08BE00E94AD0280E090E070
:1015B0000E94B104182F81E090E00E94B10413351D
:1015C00011F4883509F163E580E090E00E94AF04F2
:1015D00068E581E090E00E94AF0485E690E09B879B
:1015E0008A87BE01665F7F4F8AE090E00E946B04AD
:1015F00081E090E09A838983BE016F5F7F4F8DE029
:1016000090E00E946B0434C080911104882321F182
:1016100080911804882301F163E580E090E00E9446
:10162000AF0468E581E090E00E94AF0485E690E0B9
:101630009B878A87BE01665F7F4F8AE090E00E94A9
:101640006B0481E090E09A838983BE016F5F7F4FD6
:101650008DE090E00E946B0460E074E08AE090E02E
:101660000E94570464E074E08DE090E00E9457040B
:101670000E94BD08182F8093130481110E94CF058A
:101680008FE00E941902892BB1F48EE00E941902AA
:10169000892B89F4112379F084E090E00E94B10451
:1016A00008E010E0081B1109101611060CF4CFC059
:1016B00086E00E94960487E00E941902892B09F0B7
:1016C000E3C088E00E941902892B09F0DDC011E017
:1016D000A1EE8A2E912CB9E02B2E00EE302E0FE6D3
:1016E000F09013040E94BD0880931304882359F1DD
:1016F000F1100FC00E94CF0586E00E94960468ECAE
:1017000070E080E090E00E940C0360E086E00E94C0
:10171000F30580E090E00E9401068093120481E0CE
:1017200090E00E94010691E0811101C090E0909349
:10173000110482E090E00E94010691E0811101C055
:1017400090E090931804E0901204F12CEE0CFF1C32
:10175000F701E45FFE4F808191818C599F4F029782
:1017600008F495C080E090E00E940106883C09F4EE
:101770008EC060E081E10E944202809118048823BB
:1017800009F447C080910C0190910D018C199D09BD
:1017900097FF03C0919581959109EEE0F1E061E03A
:1017A00070E0AB0141505109219131912C193D0953
:1017B00037FF03C03195219531092817390754F4B3
:1017C000AB014F5F5F4FC9014B30510511F0BA01BA
:1017D000E8CFAB01809112048D30D8F490E08417EB
:1017E00095073CF461E081E10E94420260E08DE0F7
:1017F0000EC04817590714F461E004C08417950718
:1018000041F460E08DE00E94420260E081E10E94CC
:1018100042028FE00E941902019731F48EE00E948B
:101820001902892B09F472C08FE00E941902892BDA
:1018300009F087C08EE00E941902019709F081C06B
:10184000F090100487E08F1508F487C07AC0EE246A
:10185000E394F12C68EC70E080E090E00E940C03CF
:1018600086E00E94960468EC70E080E090E00E94C0
:101870000C0360E086E00E94F3052FEFE21AF20A03
:101880000E151F053CF717CF0E94610620CFF70108
:10189000E45FFE4F808191818D399F4F91F1E1EEA0
:1018A000EE2EF12C0E94B30468EC70E080E090E032
:1018B0000E940C0360918400709185006701FF0C09
:1018C000EE08FF0880E090E028EC30E040E050E0D7
:1018D0000E94A1112F5F3F4F4F4F5F4FC701B601CD
:1018E0000E94A111690160E08DE00E944202809196
:1018F0001A0190911B01C816D9060CF43ACF61E089
:1019000039CF9FEEE92EFF24F394CCCF1092100430
:1019100060E084E090E00E94AF0460E086E00E9416
:10192000F30586E00E9496040E9473060E94540606
:101930000E9461060E946E0660E086E00E94F30548
:1019400073CF8FE00E941902892BE9F48EE00E9488
:101950001902892B09F493C116C086E00E949604EF
:1019600061E081E10E9442028CE00E941902892B11
:1019700029F480911804882309F4C1C08CE00E94E6
:101980001902892B19F00E946901AACE80911804CE
:101990008823C9F380910404909105049A83898374
:1019A000809110048B8380910F048C831D82809121
:1019B0000604909107049F838E831986188660E041
:1019C00074E08AE090E00E9457040E94F90781E2E7
:1019D00093E00E94330880910001A0900004B09031
:1019E000010498E4899FA018B1081124E12CF12C7E
:1019F000BE016F5F7F4F35016E0C7F1CC3010E94DB
:101A00003104B301770C880B990B0E94A90989E571
:101A100092E00E94A7096091000170E080E090E0F0
:101A20004AE00E94530989E592E00E94A7096B8170
:101A300070E080E090E04AE00E94530989E592E07E
:101A40000E94A70969817A81072E000C880B990BE7
:101A50000E94A90989E592E00E94A7096C8170E0C3
:101A600080E090E04AE00E9453098C81811104C01B
:101A700087E492E00E94A7098C81813021F480E5FF
:101A800092E00E94A7098C81823021F48BE592E0DC
:101A90000E94A7098C81843021F48EE692E00E9496
:101AA000A7098C81863021F480E892E00E94A70982
:101AB0008C81873021F48BE892E00E94A7098C8109
:101AC000883021F482E992E00E94A7096D8170E0DC
:101AD00080E090E04AE00E94530989E592E00E948C
:101AE000A70929E0E20EF11C88E4E816F10409F0E8
:101AF0007FCF809100018F5F8093000144CF809160
:101B00000404909105049A838983FB821C821D82C0
:101B10001F821E8219861886BE016F5F7F4F8091DB
:101B20000004909101040E94310460E074E08AE0B6
:101B300090E00E945704A0900004B0900104750149
:101B400088E4E81AF10889EA92E00E94330887EEF7
:101B500092E00E94A70980910004909101040E94E4
:101B6000D50987E093E00E94A709C7010E94D50923
:101B7000BE016F5F7F4FC7010E94310487E591E08E
:101B80000E9433088FE891E00E94A709C7010E94D4
:101B9000D5098BEB91E00E94A70989819A810E9467
:101BA000D50984EB91E00E94A7098B810E949409DA
:101BB00086EC91E00E94A7098C810E94940982ED35
:101BC00091E00E94A7098C81811104C08AED91E007
:101BD0000E9433088C81813021F481EE91E00E94D3
:101BE00033088C81823021F48AEE91E00E94330820
:101BF0008C81843021F48BEF91E00E9433088C813A
:101C0000853021F48BE092E00E9433088C8186308D
:101C100021F488E192E00E9433088C81873021F41E
:101C200081E292E00E9433088C81883021F486E2C0
:101C300092E00E94330888E292E00E94A7098D8119
:101C40000E94940988E392E00E94A7098E819F81F7
:101C50000E94D5098FE392E00E94A70988859985A3
:101C60000E94D50999E0E90EF11CAE14BF0409F0F9
:101C70007FCF809100018F5F809300017FCE84E051
:101C800090E00E94B104809310048CE00E9419023D
:101C9000892B09F05EC0E0911204F0E0EE0FFF1F07
:101CA000E45FFE4F808191818F399F4F09F051C0D1
:101CB00087E080930F040E94F4040E9473060E9440
:101CC000540688E00E9419020197D9F768E270E093
:101CD00080E090E00E940C03F0901804FF2029F0AF
:101CE0006FEF70E08BE00E94AD020E946E06FF2055
:101CF00029F062E870E08BE00E94AD028CE00E9467
:101D00001902892BD9F3FF2091F087E00E949604F5
:101D100061E070E080E090E00E940C0360E070E021
:101D20008BE00E94AD0260E087E00E94F3050E9414
:101D3000730668EC70E080E090E00E940C030E9463
:101D4000610668EC70E080E090E00E940C030E9465
:101D50006E068CE00E941902892BF1F5E0911204C5
:101D6000F0E0EE0FFF1FE45FFE4F808191818E391E
:101D70009F4F91F588E080930F040E94F4040E9425
:101D800073060E94540688E00E9419020197D9F751
:101D900068E270E080E090E00E940C030E946E0612
:101DA0008CE00E9419020197D9F38CE00E9419027D
:101DB000892B11F40E94730668EC70E080E090E0DB
:101DC0000E940C030E94610668EC70E080E090E0E5
:101DD0000E940C030E946E0610920E0462E08CE0DA
:101DE0000E9471028CE00E9419029C01BB24B394F2
:101DF000892B09F4B12CB0920B0190910A01232B8D
:101E000009F045C0992309F49FC00E944603409001
:101E10000601509007016090080170900901DC01F3
:101E2000CB0184199509A609B7094597A105B10504
:101E300008F48AC00E944603609302017093030174
:101E400080930401909305011092170410930101EF
:101E5000109216040E944603DC01CB0184199509F7
:101E6000A609B7098A3F9105A105B10540F4809103
:101E70001504811104C080911404811105C01092D1
:101E800015041092140460C010931504FACF911138
:101E900028C00E94460340900201509003016090C8
:101EA000040170900501DC01CB0184199509A60994
:101EB000B7094597A105B105A0F0809117048111DC
:101EC00010C00E944603609306017093070180933F
:101ED000080190930901809115048111A3C1109309
:101EE0001404E12CF12C0E9446034090060150900E
:101EF00007016090080170900901DC01CB01841991
:101F00009509A609B7098A3F9105A105B10508F40D
:101F100040C0809114048823E1F18091150481115F
:101F200038C0809101018823A1F182E0E816F10414
:101F300009F485C11092140410930A0110920F0441
:101F4000EE24E394F12C2BC00E9446032091020161
:101F5000309103014091040150910501DC01CB0156
:101F6000821B930BA40BB50B8E359140A105B105D7
:101F700008F43DC08091160481115EC110931704CE
:101F800010921504109214041093160443E0E42EEA
:101F9000F12CB0920A0110920F04E0FE0BC01093D6
:101FA0000E0492E0E916F10449F0809111048111C8
:101FB00044C027C022E0E216F104E9F40E9446037F
:101FC00086E992E00E94330888EE93E00E9441087F
:101FD00088E592E00E94410888EC90E00E94410868
:101FE00080E590E00E94410810930E0404C0B09276
:101FF0000A0110920F0480910E04882309F4C3CCC7
:10200000D4CF80910C0490910D0418161906ACF4ED
:102010000E94F40410920D0410920C0460E086E01B
:102020000E94F3050E94610662E370E080E090E0A8
:102030000E940C030E946E06A6CC80E090E00E94F5
:102040000106843609F062C084E090E00E94B10489
:10205000809310040E94F40483E28093B0002092E5
:10206000B1003092B3000093B4006FEF70E08BE0EA
:102070000E94AD020E9473060E94540688E00E94EE
:1020800019020197D9F762E870E08BE00E94AD0277
:1020900068E770E080E090E00E940C030E946E060A
:1020A00062E470E080E090E00E940C0361E084E074
:1020B0000E94420262E070E080E090E00E940C0327
:1020C00060E070E08BE00E94AD0260E084E00E947E
:1020D000420264E170E080E090E00E940C030E9404
:1020E000730668EC70E080E090E00E940C030E94B0
:1020F000610668EC70E080E090E00E940C030E94B2
:102100006E0610920D0410920C043DCC80E090E01D
:102110000E940106883C59F490920B0480920A04B4
:102120000E94F40410920D0410920C0418C08091C7
:102130001204843608F027CCE82EF12CEE0CFF1C9C
:10214000F701E45FFE4F808191818C392FEF920778
:1021500049F490920B0480920A040E94F4040E94B5
:10216000EA0611CC8D399F4F39F48FEE91E09093B0
:102170000B0480930A04F1CF0E94730664E670E0BA
:1021800080E090E00E940C030E94540688E00E94C8
:1021900019020197D9F768E770E080E090E00E94AB
:1021A0000C030E94B304F701E45FFE4FE080F1806E
:1021B0009AE0E90EF11C0E946E06B7010F2C000C8C
:1021C000880B990B0E940C0329E1E216F1046CF0D4
:1021D00087E00E94960461E070E080E090E00E9459
:1021E0000C0360E087E00E94F3050E9473066AE03A
:1021F00070E080E090E00E940C03F89480918400ED
:1022000090918500A0E0B0E08093060490930704CD
:10221000A0930804B093090478940E948F060E944A
:10222000F404B1CB10921504109214041092010121
:1022300052E0E52EF12C57CEE12CF12CAACE1093D2
:102240000A0110920F04BACE10923704109236048D
:1022500088EE93E0A0E0B0E08093380490933904D6
:10226000A0933A04B0933B0481E391E0909335044A
:102270008093340485EC90E0909341048093400473
:1022800084EC90E0909343048093420480EC90E0CF
:10229000909345048093440481EC90E0909347042C
:1022A0008093460482EC90E0909349048093480424
:1022B00086EC90E090934B0480934A0410924D0476
:1022C00010924E0410924F041092500460E082E08D
:1022D0000E947102E1EBF0E0E491E093D104EDE9BA
:1022E000F0E0E491F0E0EE0FFF1FEF56FF4F859115
:1022F00094919093D3048093D2041092DC041092B2
:10230000DE041092DD04ECEDF4E0129284E0E43D92
:10231000F807D9F70895F999FECF92BD81BDF89AD3
:10232000992780B50895262FF999FECF1FBA92BD3F
:1023300081BD20BD0FB6F894FA9AF99A0FBE0196A6
:102340000895A1E21A2EAA1BBB1BFD010DC0AA1FF6
:10235000BB1FEE1FFF1FA217B307E407F50720F00E
:10236000A21BB30BE40BF50B661F771F881F991F89
:102370001A9469F760957095809590959B01AC01D2
:10238000BD01CF010895EE0FFF1F0590F491E02DE0
:10239000099481E090E0F8940C94CE11F894FFCF6A
:1023A0000101FFFFFFFFFFFFFFFF0101020003002C
:1023B000050006000A000F00160022002A00500047
:1023C0008C0022019CFF9DFF9EFF9FFFFF000000ED
:1023D00000FA005B0791004701C200A000B4006F43
:1023E00070656E535837302121212121212121216F
:1023F000212121212121003D3D3D3D3D3D3D3D3DF2
:102400003D3D3D3D3D3D3D3D3D3D3D3D3D3D3D3DFC
:102410003D3D3D3D3D3D3D3D3D3D3D3D3D3D3D3DEC
:102420003D3D3D3D3D3D3D3D3D3D3D3D3D3D0065F1
:1024300065416464726573732072656164202874F9
:102440006869735265636F72644164647265737323
:10245000293A200043757272656E74205069637466
:102460007572653A20002054797065207261773A60
:10247000200020547970653A20004D414E55414C62
:10248000004155544F2031303000464C41534820D4
:10249000444F4E474C454C45535300464C415348DE
:1024A00020463820444F4E474C4500464C41534847
:1024B00020444F4E474C45004155544F2036303054
:1024C0000042554C42005400205368757474657284
:1024D00053706565643A2000204C4F573A20002025
:1024E000484947483A20002C4D414E55414C2C005C
:1024F0002C4155544F203130302C002C464C415348
:102500004820444F4E474C454C4553532C002C46D5
:102510004C41534820463820444F4E474C452C00F0
:102520002C4155544F203630302C002C42554C4213
:102530002C002C542C005354415254203530302C54
:10254000323630302C352C30003D3D3D3D3D3D3D5B
:102550003D3D3D3D3D3D3D3D3D3D3D3D3D3D3D3DAB
:1025600020456E746572696E67206C6F6F70203DD8
:102570003D3D3D3D3D3D3D3D3D3D3D3D3D3D3D3D8B
:102580003D3D3D3D3D3D00494E495449414C20654E
:102590006541646472657373206265666F7265205D
:1025A0006C6F6F703A2000526561644164647265BB
:1025B0007373206265666F7265206C6F6F703A206E
:1025C000006565416464726573732C5061636B2CA4
:1025D0005061636B206F726465722C50696374750F
:1025E00072652C54797065205261772C2054797073
:1025F000652C205368757474657253706565642C1E
:10260000204C7578004F766572666C6F77204F634B
:10261000637572656421002A2A2A2A2A2A2A2A2A0C
:102620002A2A2A2A2A2A2A2A2A2A2A2A2A2A2A2A0A
:102630002A2A2A2A0041637475616C2070696374C8
:102640007572653A200043757272656E7420706908
:102650006374757265205061636B3A200050696342
:102660007475726520747970653A200053687574CA
:1026700074657220696E206D733A2000436F756E29
:102680007465723A20000D0A0050696374757265B2
:102690002074616B656E3A20005459504520320019
:107800000C94343C0C94513C0C94513C0C94513CE1
:107810000C94513C0C94513C0C94513C0C94513CB4
:107820000C94513C0C94513C0C94513C0C94513CA4
:107830000C94513C0C94513C0C94513C0C94513C94
:107840000C94513C0C94513C0C94513C0C94513C84
:107850000C94513C0C94513C0C94513C0C94513C74
:107860000C94513C0C94513C11241FBECFEFD8E036
:10787000DEBFCDBF11E0A0E0B1E0EAE8FFE702C063
:1078800005900D92A230B107D9F712E0A2E0B1E065
:1078900001C01D92AD30B107E1F70E942D3D0C945F
:1078A000C33F0C94003C982F95959595959595958B
:1078B000905D8F708A307CF0282F295A8091C0000B
:1078C00085FFFCCF9093C6008091C00085FFFCCF60
:1078D0002093C6000895282F205DF0CF982F809127
:1078E000C00085FFFCCF9093C6000895EF92FF92F1
:1078F0000F931F93EE24FF2487018091C00087FD22
:1079000017C00894E11CF11C011D111D81E2E8164D
:1079100081EAF80687E0080780E0180770F3E09135
:107920000401F091050109958091C00087FFE9CF1E
:107930008091C6001F910F91FF90EF9008950E94D3
:10794000763C982F8091C00085FFFCCF9093C600B5
:1079500091362CF490330CF09053892F089597555D
:10796000892F08951F930E949F3C182F0E949F3CCF
:107970001295107F810F1F9108951F93182F882350
:1079800021F00E94763C1150E1F71F9108951F935A
:10799000182F0E94763C803249F0809103018F5F5E
:1079A000809303018530C1F01F9108958091C0003C
:1079B00085FFFCCF84E18093C6008091C00085FFE5
:1079C000FCCF1093C6008091C00085FFFCCF80E102
:1079D0008093C6001F910895E0910401F091050184
:1079E00009951F9108950E94763C803241F0809164
:1079F00003018F5F80930301853081F008958091AA
:107A0000C00085FFFCCF84E18093C6008091C00058
:107A100085FFFCCF80E18093C6000895E0910401CA
:107A2000F09105010995089548EC50E08823A1F0F4
:107A30002D9A28EE33E0FA013197F1F721503040CA
:107A4000D1F72D9828EE33E0FA013197F1F7215064
:107A50003040D1F7815061F708953F924F925F9285
:107A60006F927F928F929F92AF92BF92CF92DF924E
:107A7000EF92FF920F931F93CF93DF93000082E06A
:107A80008093C00080E18093C4001092C50088E11B
:107A90008093C10086E08093C2005098589A259A3E
:107AA00081E00E94143D24E1F22E9EE1E92E85E959
:107AB000D82E0FE0C02E10E1B12EAA24A394B1E479
:107AC0009B2EA6E58A2EF2E57F2EE0E26E2E79E46B
:107AD000572E63E5462E50E5352E0E94763C8033C6
:107AE000B1F18133B9F1803409F46FC0813409F404
:107AF00076C0823409F485C0853409F488C08035A5
:107B000031F1823521F1813511F1853509F485C0D6
:107B1000863509F48DC0843609F496C0843709F49B
:107B200003C1853709F472C1863709F466C08091B4
:107B300003018F5F80930301853079F6E0910401A2
:107B4000F091050109950E94763C803351F60E9420
:107B5000F33CC3CF0E94763C803249F78091C0004D
:107B600085FFFCCFF092C6008091C00085FFFCCF5E
:107B70009092C6008091C00085FFFCCF8092C60025
:107B80008091C00085FFFCCF7092C6008091C0003C
:107B900085FFFCCF6092C6008091C00085FFFCCFBE
:107BA0005092C6008091C00085FFFCCF4092C60075
:107BB0008091C00085FFFCCF3092C6008091C0004C
:107BC00085FFFCCFB092C60088CF0E94763C8638F5
:107BD00008F4BDCF0E94763C0E94F33C7ECF0E9409
:107BE000763C803809F49CC0813809F40BC1823896
:107BF00009F430C1883909F48FC080E00E94C73C85
:107C00006CCF84E10E94BD3C0E94F33C66CF85E0CE
:107C10000E94BD3C0E94F33C60CF0E94763C809362
:107C200006010E94763C809307010E94F33C55CFE9
:107C30000E94763C803309F411C183E00E94BD3C70
:107C400080E00E94C73C49CF0E94763C80930902A5
:107C50000E94763C8093080280910C028E7F809374
:107C60000C020E94763C853409F409C18091080217
:107C700090910902892B89F000E010E00E94763C87
:107C8000F801E85FFE4F80830F5F1F4F809108026D
:107C9000909109020817190788F30E94763C8032F8
:107CA00009F045CF80910C0280FFF5C0609106017C
:107CB00070910701660F771F7093070160930601AB
:107CC000A0910802B09109021097C9F0E8E0F1E034
:107CD0009B01AD014E0F5F1FF999FECF32BD21BD53
:107CE000819180BDFA9AF99A2F5F3F4FE417F5070B
:107CF00099F76A0F7B1F70930701609306018091CB
:107D0000C00085FFFCCFF092C6008091C00085FFC7
:107D1000FCCFB092C600E1CE83E00E94C73CDDCE2E
:107D200082E00E94C73CD9CE0E94763C8093090233
:107D30000E94763C80930802809106019091070191
:107D4000880F991F90930701809306010E94763C4B
:107D5000853409F49AC080910C028E7F80930C02C6
:107D60000E94763C803209F0B8CE8091C00085FF39
:107D7000FCCFF092C600A0910802B09109021097C2
:107D8000C1F180910C02082F0170182F1695117007
:107D9000E0910601F0910701AF014F5F5F4FBA011B
:107DA00020E030E00023B1F4112339F49491809164
:107DB000C00085FFFCCF9093C6002F5F3F4FCB01E3
:107DC0000196FA012A173B0780F4BC014F5F5F4F11
:107DD000002351F3F999FECFF2BDE1BDF89A90B5B9
:107DE0008091C00085FFFCCFE6CF709307016093C0
:107DF00006018091C00085FDE5CE8091C00085FF21
:107E0000F8CFE0CE81E00E94C73C67CE0E94763C6E
:107E1000803209F08CCE8091C00085FFFCCFF092BB
:107E2000C6008091C00085FFFCCFE092C600809123
:107E3000C00085FFFCCFD092C6008091C00085FFB6
:107E4000FCCFC092C6008091C00085FFFCCFB092ED
:107E5000C60043CE80E10E94C73C3FCE0E94763CE4
:107E60000E94763C182F0E94763C112309F483C0AF
:107E7000113009F484C08FE00E94C73C2ECE80915F
:107E80000C02816080930C02F1CE80910C02816023
:107E900080930C0265CF809107018823880F880B9F
:107EA0008A2180930B028091060190910701880F2F
:107EB000991F90930701809306018091080280FF2B
:107EC00009C08091080290910902019690930902DD
:107ED00080930802F894F999FECF1127E0910601EA
:107EE000F0910701C8E0D1E0809108029091090269
:107EF000103091F40091570001700130D9F303E084
:107F000000935700E8950091570001700130D9F3B4
:107F100001E100935700E8950990199000915700EE
:107F200001700130D9F301E000935700E8951395F3
:107F3000103498F011270091570001700130D9F3E7
:107F400005E000935700E89500915700017001305B
:107F5000D9F301E100935700E8953296029709F0B2
:107F6000C7CF103011F00296E5CF11248091C000E8
:107F700085FFC5CEC8CE8EE10E94C73CAECD85E957
:0A7F80000E94C73CAACDF894FFCF81
:027F8A00800075
:040000030000780081
:00000001FF