:100000000C945D000C9485000C9485000C94850084
:100010000C9485000C9485000C9485000C9485004C
:100020000C9485000C9485000C9485000C9485003C
:100030000C9485000C9485000C9485000C9485002C
:100040000C9474030C9485000C9442030C941C03D0
:100050000C9485000C9485000C9485000C9485000C
:100060000C9485000C9485000000000024002700FB
:100070002A0000000000250028002B0004040404CE
:100080000404040402020202020203030303030342
:10009000010204081020408001020408102001021F
:1000A00004081020000000080002010000030407FB
:1000B0000000000000000000330511241FBECFEF38
:1000C000D8E0DEBFCDBF13E0A0E0B1E0EEE1FBE0A1
:1000D00002C005900D92A430B107D9F723E0A4E047
:1000E000B3E001C01D92AC3AB207E1F710E0CDE5F4
:1000F000D0E004C02197FE010E948205CC35D107D3
:10010000C9F70E94BE030C948D050C940000CF9299
:10011000DF92EF92FF920F931F93CF93DF936C01C7
:100120007A018B01C0E0D0E0CE15DF0581F0D80167
:100130006D918D01D601ED91FC910190F081E02D42
:10014000C6010995892B11F02196EECF7E01C701DA
:10015000DF91CF911F910F91FF90EF90DF90CF90A3
:100160000895089580E090E00895FC01538D448D3A
:10017000252F30E0842F90E0821B930B541710F052
:10018000CF96089501970895FC01918D828D98175F
:1001900061F0828DDF01A80FB11D5D968C91928D6B
:1001A0009F5F9F73928F90E008958FEF9FEF089568
:1001B000FC01918D828D981731F0828DE80FF11D31
:1001C000858D90E008958FEF9FEF0895FC01918D4C
:1001D000228D892F90E0805C9F4F821B91098F7345
:1001E000992708958FE093E00E94E60021E0892B93
:1001F00009F420E0822F0895FC01848DDF01A80F0F
:10020000B11DA35ABF4F2C91848D90E001968F733E
:100210009927848FA689B7892C93A089B1898C915D
:10022000837080648C93938D848D981306C00288AC
:10023000F389E02D80818F7D80830895EF92FF9276
:100240000F931F93CF93DF93EC0181E0888F9B8DF9
:100250008C8D981305C0E889F989808185FD26C0B9
:10026000F62E0B8D10E00F5F1F4F0F731127E02E3E
:100270008C8DE8120CC00FB607FCFACFE889F9891B
:10028000808185FFF5CFCE010E94FC00F1CF8B8DE0
:10029000FE01E80FF11DE35AFF4FF0829FB7F8947B
:1002A0000B8FEA89FB89808180620AC09FB7F8942E
:1002B000EE89FF896083E889F98980818370806491
:1002C00080839FBF81E090E0DF91CF911F910F91DC
:1002D000FF90EF900895CF93DF93EC01888D8823F2
:1002E000C9F0EA89FB89808185FD05C0A889B989A3
:1002F0008C9186FD0FC00FB607FCF5CF808185FF7E
:10030000F2CFA889B9898C9185FFEDCFCE010E94EB
:10031000FC00E7CFDF91CF91089580E090E0892B3A
:1003200029F00E94F20081110C940000089590E0E1
:10033000FC01EC55FF4F2491FC01E057FF4F349135
:10034000FC01E458FF4FE491EE2309F43CC0222362
:1003500039F1233091F038F42130A9F0223001F541
:1003600084B58F7D12C0273091F02830A1F0243061
:10037000B9F4809180008F7D03C0809180008F77D9
:10038000809380000DC084B58F7784BD09C08091B3
:10039000B0008F7703C08091B0008F7D8093B00054
:1003A000F0E0EE0FFF1FEE58FF4FA591B4919FB7FD
:1003B000F894611104C08C913095382302C0EC91FF
:1003C0003E2B3C939FBF0895CF93DF9390E0FC01B9
:1003D000E057FF4F2491FC01E458FF4F849188239C
:1003E00061F190E0880F991FFC01E859FF4FC5911A
:1003F000D491FC01EE58FF4FA591B491611109C051
:100400009FB7F8948881209582238883EC912E23CE
:100410000BC0623061F49FB7F8948881322F309519
:1004200083238883EC912E2B2C939FBF06C08FB71C
:10043000F894E8812E2B28838FBFDF91CF91089508
:100440008E3008F08E508770806480937C0080919D
:100450007A00806480937A0080917A0086FDFCCFD8
:10046000809178002091790090E0922B08953FB719
:10047000F8948091090390910A03A0910B03B09125
:100480000C0326B5A89B05C02F3F19F00196A11DAE
:10049000B11D3FBFBA2FA92F982F8827820F911D1A
:1004A000A11DB11DBC01CD0143E0660F771F881F60
:1004B000991F4A95D1F708958F929F92AF92BF925C
:1004C000CF92DF92EF92FF926B017C010E94370284
:1004D0004B015C01C114D104E104F104F1F00E946C
:1004E0003702DC01CB0188199909AA09BB09883EAA
:1004F0009340A105B10570F321E0C21AD108E108CB
:10050000F10888EE880E83E0981EA11CB11CC1146E
:10051000D104E104F10419F7DDCFFF90EF90DF90F3
:10052000CF90BF90AF909F908F900895009769F003
:10053000FC0101900020E9F73197AF01481B590BEE
:10054000BC018FE093E00C94870080E090E0089578
:1005500084E191E00C949602CF93DF930E9496027F
:10056000EC010E94A8028C0F9D1FDF91CF9108958E
:100570008F929F92AF92BF920F931F93CF93DF936F
:10058000CDB7DEB7A1970FB6F894DEBF0FBECDBFD3
:1005900019A2423008F44AE08E010F5D1F4F842EED
:1005A000912CA12CB12CA50194010E946005E62F8D
:1005B000B901CA0101501109EA3014F4E05D01C02B
:1005C000E95CD801EC93232B242B252B61F7C80180
:1005D0000E949602A1960FB6F894DEBF0FBECDBF63
:1005E000DF91CF911F910F91BF90AF909F908F900F
:1005F0000895CF92DF92EF92FF92CF93DF936B013A
:100600007C016DE28FE093E00E941E01EC01662701
:100610007727CB016C197D098E099F094AE00E945A
:10062000B8028C0F9D1FDF91CF91FF90EF90DF906C
:10063000CF9008950E9488051F920F920FB60F92D7
:1006400011242F933F934F935F936F937F938F93D7
:100650009F93AF93BF93EF93FF938FE093E00E943C
:10066000FC00FF91EF91BF91AF919F918F917F918E
:100670006F915F914F913F912F910F900FBE0F900F
:100680001F9018951F920F920FB60F9211242F935F
:100690008F939F93EF93FF93E0911F03F0912003BB
:1006A0008081E0912503F091260382FD12C09081A4
:1006B000809128038F5F8F7320912903821751F057
:1006C000E0912803F0E0E15FFC4F958F80932803D1
:1006D00001C08081FF91EF919F918F912F910F9099
:1006E0000FBE0F901F9018951F920F920FB60F928A
:1006F00011242F933F938F939F93AF93BF93809138
:10070000050390910603A0910703B091080330916F
:10071000040326E0230F2D3720F40296A11DB11DFE
:1007200005C029E8230F0396A11DB11D20930403E2
:100730008093050390930603A0930703B0930803E7
:100740008091090390910A03A0910B03B0910C03CF
:100750000196A11DB11D8093090390930A03A093F4
:100760000B03B0930C03BF91AF919F918F913F9179
:100770002F910F900FBE0F901F901895789484B50D
:10078000826084BD84B5816084BD85B5826085BD8D
:1007900085B5816085BD80916E00816080936E001B
:1007A000109281008091810082608093810080910D
:1007B00081008160809381008091800081608093BE
:1007C00080008091B10084608093B1008091B0007E
:1007D00081608093B00080917A00846080937A0079
:1007E00080917A00826080937A0080917A008E7F77
:1007F00080937A0080917A00806880937A001092CA
:10080000C10061E08DE00E94E40161E085E00E94AA
:10081000E401E0911F03F091200382E08083E091E6
:100820001B03F0911C031082E0911D03F0911E0345
:1008300087E6808310922703E0912303F09124033D
:1008400086E08083E0912103F09122038081806122
:100850008083E0912103F09122038081886080836E
:10086000E0912103F0912203808180688083E091F0
:100870002103F091220380818F7D808387E191E0C5
:100880000E94AC0288E391E00E94AC020E94A802A0
:100890008BE491E00E94AC020E94A8028DE791E0F7
:1008A0000E94AC020E94A80286EA91E00E94AC027B
:1008B0000E94A8020E94A80284ED91E00E94960284
:1008C000609100017091010180E090E04AE00E9497
:1008D000B8020E94A8028091000190910101019646
:1008E000909301018093000161E08DE00E949701E7
:1008F0008DED91E00E94AC0260E085E00E949701DE
:1009000088EF91E00E94AC028CE292E00E94AC027F
:1009100068EE73E080E090E00E945C0288EF91E076
:100920000E94AC0260E082E10E94E40161E083E1A8
:100930000E94E40160E083E10E9497016AE070E0B8
:1009400080E090E00E945C0281E10E94200290938E
:100950000E0380930D03009719F48EE392E005C017
:100960008F3F934029F486E592E00E9496021AC0D8
:100970008FE692E00E94960260910D0370910E0343
:10098000072E000C880B990B97FF03C00E94F902F9
:1009900003C04AE00E94B80264EF71E080E090E09A
:1009A0000E945C0260E083E10E94E40161E082E178
:1009B0000E94E40160E082E10E9497016AE070E039
:1009C00080E090E00E945C0281E10E94200290930E
:1009D0000E0380930D03009719F480E892E005C0A0
:1009E0008F3F934029F48DE992E00E94AC0234C01D
:1009F0008BEB92E00E94960260910D0370910E03C2
:100A0000072E000C880B990B97FF03C00E94F90278
:100A100003C04AE00E94B8020E94A80288EF91E059
:100A20000E94AC0260E08DE00E94970181ED92E0AF
:100A30000E94AC0261E085E00E94970188EF91E09E
:100A40000E94AC028CEE92E00E94AC0268EE73E071
:100A500080E090E00E945C0288EF91E00E94AC028E
:100A60000E948D0129CFEFE0F3E01382128288EE1D
:100A700093E0A0E0B0E084839583A683B78386E00B
:100A800091E09183808385EC90E09587848784EC66
:100A900090E09787868780EC90E0918B808B81EC4B
:100AA00090E0938B828B82EC90E0958B848B86EC2C
:100AB00090E0978B868B118E128E138E148E089574
:100AC000A1E21A2EAA1BBB1BFD010DC0AA1FBB1F52
:100AD000EE1FFF1FA217B307E407F50720F0A21BC4
:100AE000B30BE40BF50B661F771F881F991F1A9431
:100AF00069F760957095809590959B01AC01BD015B
:100B0000CF010895EE0FFF1F0590F491E02D099499
:0E0B100081E090E0F8940C948D05F894FFCFEE
:100B1E000100000000001E018700B5006B01E60019
:100B2E00C400D8000D0A0057656C636F6D652074A4
:100B3E006F20746865206F70656E53583730207063
:100B4E00726F6A65637421007468697320426C6900
:100B5E006E6B3220736B65746368006D6F646966CB
:100B6E006965642066726F6D206F726967696E6168
:100B7E006C20626C696E6B206279204A6F617175B0
:100B8E00C3AD6E206465205072616461006974208B
:100B9E0073686F756C6420626C696E6B20696E2071
:100BAE0074776F20646966666572656E7420636F14
:100BBE006C6F757273004C45443120697320706FF1
:100BCE00727420313320616E64204C4544322069AA
:100BDE007320706F72742035206F6E2041726475B1
:100BEE00696E6F004379636C653A2020004C454472
:100BFE0031206973204F4E20202020204C45443256
:100C0E00206973204F4646002D2D2D2D2D2D2D2D77
:100C1E002D2D2D2D2D2D2D2D2D2D2D2D2D2D2D2DF6
:100C2E002D2D2D2D2D2D2D2D2D2D2D2D2D2D2D2DE6
:100C3E002D2D2D2D2D2D2D2D2D2D2D006E6F772043
:100C4E0049207761697420313030306D73004C4F1C
:100C5E0057204C494748545320314D353A20746F34
:100C6E006F206C6F77004C4F57204C4947485453B8
:100C7E0020314D353A20746F6F206D756368004CCE
:100C8E004F57204C494748545320314D353A200098
:100C9E0020202048494748204C4947485453203784
:100CAE0035304B3A20746F6F206C6F770020202008
:100CBE0048494748204C4947485453203735304B14
:100CCE003A20746F6F206D756368002020204849AC
:100CDE004748204C4947485453203735304B3A202B
:100CEE00004C454431206973204F46462020202079
:100CFE00204C454432206973204F4E006E6F772092
:100D0E0049207761697420313030306D732061670E
:040D1E0061696E0099
:00000001FF
