:100000000C9463000C948B000C948B000C948B006C
:100010000C948B000C948B000C948B000C94350189
:100020000C948B000C948B000C948B000C94910618
:100030000C948B000C94A9040C948B000C948B00F2
:100040000C94C0000C948B000C94C5020C949F027D
:100050000C948B000C948B000C948B000C948B00F4
:100060000C948B000C948B000200000000240027ED
:10007000002A0000000000250028002B00000000DE
:100080000800020100000304070000000000000057
:1000900000000000002300260029000404040404DA
:1000A0000404040202020202020303030303030125
:1000B00002040810204080010204081020010204FC
:1000C00008102000D01011241FBECFEFD8E0DEBFF3
:1000D000CDBF13E0A0E0B1E0ECE8F4E202C005908F
:1000E0000D92A037B107D9F724E0A0E7B3E001C033
:1000F0001D92AE35B207E1F710E0C3E6D0E004C0D0
:100100002197FE010E943912C236D107C9F70E9419
:10011000910A0C9444120C9400000E943F123FB7C5
:10012000F8948091950390919603A0919703B091D4
:10013000980326B5A89B05C02F3F19F00196A11D75
:10014000B11D3FBFBA2FA92F982F8827820F911D6D
:10015000A11DB11DBC01CD0143E0660F771F881FB3
:10016000991F4A95D1F708952FB7F894609191039C
:100170007091920380919303909194032FBF0895FF
:100180001F920F920FB60F9211242F933F938F93CC
:100190009F93AF93BF938091910390919203A0910D
:1001A0009303B09194033091900326E0230F2D37F1
:1001B00020F40296A11DB11D05C029E8230F039666
:1001C000A11DB11D209390038093910390939203FE
:1001D000A0939303B0939403809195039091960319
:1001E000A0919703B09198030196A11DB11D809332
:1001F000950390939603A0939703B0939803BF91B0
:10020000AF919F918F913F912F910F900FBE0F90C3
:100210001F90189590910001891324C0E8E6F0E042
:10022000E4919FEF90930001E130B9F098F0E23053
:10023000C9F4909170009D7F9093700091E090932D
:10024000B0009091B100987F94609093B1001092AB
:10025000B30008C010926E0005C090916F009D7FA2
:1002600090936F0060E00C9411091F920F920FB6EB
:100270000F9211242F933F934F935F936F937F932C
:100280008F939F93AF93BF93EF93FF9380918503D9
:1002900090918603A0918703B0918803892B8A2BC4
:1002A0008B2B41F1909184038091000089278093EA
:1002B00000008091850390918603A0918703B091FF
:1002C0008803181619061A061B06C4F480918503C4
:1002D00090918603A0918703B09188030197A109AB
:1002E000B1098093850390938603A0938703B0930D
:1002F000880304C0809100010E940A01FF91EF91E0
:10030000BF91AF919F918F917F916F915F914F912D
:100310003F912F910F900FBE0F901F901895CF9285
:10032000DF92EF92FF920F931F93CF93DF936C01B5
:100330007A018B01C0E0D0E0CE15DF0581F0D80155
:100340006D918D01D601ED91FC910190F081E02D30
:10035000C6010995892B11F02196EECF7E01C701C8
:10036000DF91CF911F910F91FF90EF90DF90CF9091
:100370000895089580E090E00895FC01538D448D28
:10038000252F30E0842F90E0821B930B541710F040
:10039000CF96089501970895FC01918D828D98174D
:1003A00061F0828DDF01A80FB11D5D968C91928D59
:1003B0009F5F9F73928F90E008958FEF9FEF089556
:1003C000FC01918D828D981731F0828DE80FF11D1F
:1003D000858D90E008958FEF9FEF0895FC01918D3A
:1003E000228D892F90E0805C9F4F821B91098F7333
:1003F0009927089581EB93E00E94EE0121E0892B7B
:1004000009F420E0822F0895FC01848DDF01A80FFC
:10041000B11DA35ABF4F2C91848D90E001968F732C
:100420009927848FA689B7892C93A089B1898C914B
:10043000837080648C93938D848D981306C002889A
:10044000F389E02D80818F7D80830895EF92FF9264
:100450000F931F93CF93DF93EC0181E0888F9B8DE7
:100460008C8D981305C0E889F989808185FD26C0A7
:10047000F62E0B8D10E00F5F1F4F0F731127E02E2C
:100480008C8DE8120CC00FB607FCFACFE889F98909
:10049000808185FFF5CFCE010E940402F1CF8B8DC4
:1004A000FE01E80FF11DE35AFF4FF0829FB7F89469
:1004B0000B8FEA89FB89808180620AC09FB7F8941C
:1004C000EE89FF896083E889F9898081837080647F
:1004D00080839FBF81E090E0DF91CF911F910F91CA
:1004E000FF90EF900895CF93DF93EC01888D8823E0
:1004F000C9F0EA89FB89808185FD05C0A889B98991
:100500008C9186FD0FC00FB607FCF5CF808185FF6B
:10051000F2CFA889B9898C9185FFEDCFCE010E94D9
:100520000402E7CFDF91CF91089580E090E0892B1E
:1005300029F00E94FA0181110C94000008951F9285
:100540000F920FB60F9211242F933F934F935F9307
:100550006F937F938F939F93AF93BF93EF93FF938B
:1005600081EB93E00E940402FF91EF91BF91AF9164
:100570009F918F917F916F915F914F913F912F91BB
:100580000F900FBE0F901F9018951F920F920FB6ED
:100590000F9211242F938F939F93EF93FF93E091EA
:1005A000C103F091C2038081E091C703F091C803B9
:1005B00082FD12C090818091CA038F5F8F7320915A
:1005C000CB03821751F0E091CA03F0E0EF54FC4FE7
:1005D000958F8093CA0301C08081FF91EF919F9115
:1005E0008F912F910F900FBE0F901F901895FC01C7
:1005F00090810180F281E02D892F809560FF12C0EB
:10060000F8942281822382838181892B8183A0E1D6
:10061000B0E01197F1F78281982B928378948AE663
:1006200090E011C0F8942281822382838181892BFA
:100630008183AEE7B0E01197F1F78281982B928326
:10064000789486E090E00197F1F70895DF92EF92B9
:10065000FF920F931F93CF93DF93EC01D62EE42EDE
:1006600008E010E0FF24F39461E08D2D8F2109F460
:1006700060E0CE010E94F702FF0C01501109A1F7C2
:10068000E11010C0F894E981FA8191818881809508
:1006900089238183E981FA819281888180958923E8
:1006A00082837894DF91CF911F910F91FF90EF900B
:1006B000DF900895DC012C911196ED91FC91129739
:1006C000F8948181922F90958923818378948DE786
:1006D000815009F130813223D9F3F8948281892342
:1006E00082838181822B81837894ACEBB3E0119774
:1006F000F1F7F89481819823918388E890E001973D
:10070000F1F78081282381E009F080E07894E0E32C
:10071000F3E03197F1F70895CF92DF92EF92FF92D5
:100720000F931F93CF93DF93EB017B0129E0E20E40
:10073000F11C8B016C01C61AD70AC601800F911FEC
:100740000E943D11F80181938F01EE15FF05A9F775
:10075000CE01DF91CF911F910F91FF90EF90DF902D
:10076000CF9008950F931F93CF93DF938C01EB01EC
:100770000E943D118883C80101960E943D11898322
:10078000CE01DF91CF911F910F910895AF92BF924B
:10079000DF92EF92FF920F931F93CF93DF93EC01C1
:1007A0007B018B015C0182E0A80EB11CF801D190A5
:1007B0008F01CE010E943D11D81621F06D2DCE0182
:1007C0000E9445112196CA15DB0581F7C701DF910B
:1007D000CF911F910F91FF90EF90DF90BF90AF905E
:1007E0000895CF93C82F0E947A0780E594E00E9475
:1007F0005A030E94630781E090E0A0E0B0E004C0EB
:10080000880F991FAA1FBB1FCA95D2F78095CF9159
:100810000C9488070C9445110C943D118F929F9273
:10082000AF92BF92CF92DF92EF92FF926C010E9443
:10083000B4008090700390907103A0907203B09008
:100840007303DC01CB0188199909AA09BB09843615
:100850009105A105B10508F46EC0809184009091C6
:100860008500A0E0B0E08093A3039093A403A0933D
:10087000A503B093A6030E94B400809070039090EB
:100880007103A0907203B09073039B01AC0128190F
:1008900039094A095B0949015A010E94B400609371
:1008A0007003709371038093720390937303F894B1
:1008B0008FEF86BB1092800010928500109284000A
:1008C00080918100846080938100809181008260AA
:1008D0008093810078942DE22C9DC0012D9D900D78
:1008E000112464E670E00E94EF11C60ED71E0D2C95
:1008F000000CEE08FF086091A3037091A40380919F
:10090000A5039091A603A50194010E9403122F5FF5
:100910003F4F4F4F5F4FC701B6010E940312CA01FC
:10092000B9010E9489110E9453119B017093A80381
:100930006093A70304C02091A7033091A803C901C5
:10094000FF90EF90DF90CF90BF90AF909F908F90EF
:1009500008951F920F920FB60F9211242F933F9379
:100960004F935F936F937F938F939F93AF93BF93B7
:10097000EF93FF9384ED92E00E94B408EFE6F0E07D
:1009800080818E7F808380818D7F8083FF91EF9136
:10099000BF91AF919F918F917F916F915F914F9197
:1009A0003F912F910F900FBE0F901F901895AF920F
:1009B000BF92DF92EF92FF920F931F93CF93DF933B
:1009C000CDB7DEB729970FB6F894DEBF0FBECDBF07
:1009D00068E773E08DE090E00E94B20380918003AD
:1009E0008F5F80938003E0918203F0E0EE0FFF1FA2
:1009F000E35FFE4F108120917803309179033A83B1
:100A000029838B8380917F038C831D838091A30333
:100A10009091A4039F838E838091760390917703B6
:100A20009987888786EE92E00E94BC0784E093E075
:100A30000E94B40880917803909179030E94B608CF
:100A400085E193E00E94B408809180030E94A10890
:100A50008CE293E00E94B40880917F030E94A10879
:100A60008BE393E00E94B408812F0E94A1088BE4DD
:100A700093E00E94B4086091A3037091A403809155
:100A8000A5039091A6034AE00E94600885E593E0E3
:100A90000E94AA0786EE92E00E94BC076091800344
:100AA00084E090E00E940A0488E593E00E94B40884
:100AB00084E090E00E940C040E94A108009174035D
:100AC00010917503CE0101967C01580199E0A90EA1
:100AD000B11CF701D1907F01C8010E943D11D816C9
:100AE00021F06D2DC8010E9445110F5F1F4FA01608
:100AF000B10679F780917403909175039C012E5E85
:100B00003F4F2115344030F409969093750380933C
:100B1000740304C0109275031092740364E773E0C9
:100B20008AE090E00E94C603809178039091790357
:100B30000196909379038093780368E773E08DE0E2
:100B400090E029960FB6F894DEBF0FBECDBFDF91BF
:100B5000CF911F910F91FF90EF90DF90BF90AF90DA
:100B60000C94C603CF93DF9380E594E00E945A0370
:100B700040E066E980E594E00E942603C9EAD3E0FC
:100B8000699140E080E594E00E94260383E0C13B48
:100B9000D807B1F740E06CE380E594E00E942603BB
:100BA00080E594E0DF91CF910C945A0361110C948D
:100BB000F1030E947A0780E594E00E945A030E94A4
:100BC00063078FEF0C948807CF93DF93EC0180913C
:100BD0008303811105C082E00E94E8080197A9F013
:100BE00082E00E94E808019721F48091830381113B
:100BF00010C082E00E94E808892B49F080918303AD
:100C0000811103C082E00E94E80888EC21C084E6DC
:100C10001FC0209761F40E947A07982F817091FD80
:100C2000826092FD846093FF13C0886011C0C13060
:100C3000D10529F40E947A078295817009C0229714
:100C400031F40E947A0785FB882780F901C080E093
:100C5000DF91CF91089561E080E10E94110987E062
:100C60000E94E8080197D9F760E080E10C9411092F
:100C700061E080E10E94110987E00E94E808892B69
:100C8000D9F760E080E10C94110960E070E083E046
:100C90000C94F80983E28093B00089E08093B1005E
:100CA00080EE8093B3008FE68093B4006FEF70E026
:100CB00083E00E94F8096FE070E080E090E00E941D
:100CC000570A61EE70E083E00C94F8090E944A062E
:100CD00068EC70E080E090E00E94570A8091810308
:100CE000882351F080917C0390917D03019690932D
:100CF0007D0380937C03089564E670E080E090E0DB
:100D00000E94570A0E9438066CE271E080E090E091
:100D10000E94570A0E94450610927D0310927C03A0
:100D200008951F920F920FB60F9211242F933F93A5
:100D30004F935F936F937F938F939F93AF93BF93E3
:100D4000EF93FF93EFE6F0E080818E7F80838081D8
:100D50008D7F808310928500109284000E94660629
:100D6000FF91EF91BF91AF919F918F917F916F9183
:100D70005F914F913F912F910F900FBE0F901F9059
:100D8000189560E081E10E94110960E08DE00E9409
:100D900011090E944A060E942B0688E00E94E8087A
:100DA0000197D9F768E770E080E090E00E94570A69
:100DB00010927E03F89410928000109281008FEFC1
:100DC00086BB109285001092840082E083BD8091E2
:100DD0007A0390917B03909389008093880080919F
:100DE0006F00816080936F0080916F0082608093BC
:100DF0006F00789487E0809381000C944506909171
:100E00005004E0915104F0915204F8948181892BAF
:100E100081832281892F809528232283A2E0B0E05C
:100E20001197F1F7218182238183A0E1B0E011972E
:100E3000F1F780817894E6E6F0E03197F1F79823B6
:100E400081E009F480E008950F931F93CF93DF931F
:100E500008E010E0C0E0D1E00E94FF068111CD2B38
:100E6000DD0F01501109C1F78C2FDF91CF911F9138
:100E70000F910895833081F028F4813099F0823009
:100E8000A1F008958730A9F08830B9F08430D1F40A
:100E9000809180008F7D03C0809180008F77809348
:100EA0008000089584B58F7702C084B58F7D84BD9E
:100EB00008958091B0008F7703C08091B0008F7D3E
:100EC0008093B0000895CF93DF9340E065E580E51F
:100ED00094E00E942603C9EAD3E0699140E080E5EE
:100EE00094E00E94260383E0C13BD807B1F7DF916D
:100EF000CF91089580E594E00E945A030E94630711
:100F000041E065EF80E594E00E9426030C942407FD
:100F1000CF93C82F41E06AE580E594E00E94260364
:100F200041E06C2F80E594E00E9426036C2F6095D1
:100F300041E080E594E00E9426030E9424078A3A5B
:100F400031F40E942407C81302C081E001C080E090
:100F5000CF910895009769F0FC0101900020E9F716
:100F60003197AF01481B590BBC0181EB93E00C9406
:100F70008F0180E090E00895CF93DF930E94AA074D
:100F8000EC0185E593E00E94AA078C0F9D1FDF917D
:100F9000CF910895DF92EF92FF920F931F93CF931B
:100FA000DF9310925B0410925D0410925C04EBE5F9
:100FB000F4E083E5E82E84E0F82E129284E0E33535
:100FC000F807D9F780E594E00E945A03811107C021
:100FD00010925B0410925D0410925C0468C040E0C3
:100FE00060EF80E594E00E942603D1E000E0D12C80
:100FF000C1E00E94FF06182F0E94FF06113019F46D
:101000008130C1F436C0202F30E018131DC080910C
:101010005B04C81738F4F901E05BFB4F83818D2333
:1010200049F402C08C1731F010E0C93060F4C0936D
:101030005C0409C0E02FF0E0E05BFB4F83818D2B67
:10104000838311E009C0DC2EF901E05BFB4F938143
:101050008D2F809589238383612F80E594E00E9402
:10106000F702CF5FDD0F11F40F5FD1E0083008F415
:10107000C0CFC13408F4ACCFD0925B04D11003C010
:1010800081E080935D0480915304882309F4A0CF0C
:10109000E9EAF3E0D7018D917D018193B3E0E13B73
:1010A000FB07C1F781E09091A903993209F080E034
:1010B000DF91CF911F910F91FF90EF90DF900895F6
:1010C0008F929F92AF92BF920F931F93CF93DF9314
:1010D000CDB7DEB7A1970FB6F894DEBF0FBECDBF78
:1010E00019A2423008F44AE08E010F5D1F4F842E92
:1010F000912CA12CB12CA50194010E940312E62F82
:10110000B901CA0101501109EA3014F4E05D01C0CF
:10111000E95CD801EC93232B242B252B61F7C80124
:101120000E94AA07A1960FB6F894DEBF0FBECDBFEE
:10113000DF91CF911F910F91BF90AF909F908F90B3
:101140000895CF93DF93682F70E080E090E04AE04D
:101150000E946008EC0185E593E00E94AA078C0FCD
:101160009D1FDF91CF9108950C94AA07CF92DF9233
:10117000EF92FF92CF93DF936C01990FEE08FF0877
:10118000F7FE13C06DE281EB93E00E942602EC01B2
:1011900066277727CB016C197D098E099F094AE0E4
:1011A0000E946008C80FD91F06C04AE0C701B601F7
:1011B0000E946008EC0185E593E00E94AA078C0F6D
:1011C0009D1FDF91CF91FF90EF90DF90CF9008951A
:1011D000CF93DF93282F30E0F901E358FF4F84913C
:1011E000F901E155FF4FD491F901E556FF4FC49144
:1011F000CC2391F081110E943A07EC2FF0E0EE0F22
:10120000FF1FEF56FF4FA591B491EC91ED2381E0C4
:1012100090E021F480E002C080E090E0DF91CF9187
:1012200008951F93CF93DF93282F30E0F901E358FF
:10123000FF4F8491F901E155FF4FD491F901E55633
:10124000FF4FC491CC23C1F0162F81110E943A07A1
:10125000EC2FF0E0EE0FFF1FED58FF4FA591B4917A
:101260009FB7F894111104C08C91D095D82302C077
:10127000EC91DE2BDC939FBFDF91CF911F910895FE
:10128000CF93DF9390E0FC01E155FF4F2491FC01E7
:10129000E556FF4F8491882361F190E0880F991FF4
:1012A000FC01E759FF4FC591D491FC01ED58FF4F68
:1012B000A591B491611109C09FB7F89488812095D8
:1012C00082238883EC912E230BC0623061F49FB798
:1012D000F8948881322F309583238883EC912E2BCC
:1012E0002C939FBF06C08FB7F894E8812E2B2883DC
:1012F0008FBFDF91CF9108954F925F926F927F924F
:101300008F929F92AF92BF92CF92DF92EF92FF9215
:101310000F931F93CF93DF9300D000D000D0CDB7B1
:10132000DEB76C0161E086E00E9440090E94B400D3
:10133000812C912C54011E821D829B01AC012C53E7
:10134000364F4F4F5F4F29833A834B835C830D2C7D
:10135000000CEE08FF080E94B40029813A814B81FD
:101360005C81621773078407950720F50E94B4001B
:101370002B013C01DC01CB0188199909AA09BB09A1
:101380008C159D05AE05BF0530F30D811E8131E042
:101390000327A801417055275E834D8388E693E0BB
:1013A0000E94BC07602F617086E00E94D605530141
:1013B0004201D1CF61E086E00E94400986E00E94B0
:1013C0000A0126960FB6F894DEBF0FBECDBFDF919F
:1013D000CF911F910F91FF90EF90DF90CF90BF9032
:1013E000AF909F908F907F906F905F904F900895F7
:1013F0001F93CF93DF93182FEB0161E00E94400908
:10140000209711F460E004C0CF3FD10539F461E0CA
:10141000812FDF91CF911F910C941109E12FF0E002
:10142000E358FF4FE491E330F9F048F4E130B9F0CC
:10143000E230A1F584B5806284BDC8BD34C0E73018
:10144000E9F0E83019F1E43049F5809180008062DC
:1014500080938000D0938B00C0938A0024C084B511
:10146000806884BDC7BD1FC0809180008068809364
:101470008000D0938900C093880015C08091B0008F
:1014800080688093B000C093B3000DC08091B0001D
:1014900080628093B000C093B40005C0C038D1050D
:1014A0000CF0B5CFAFCFDF91CF911F9108958F9200
:1014B0009F92AF92BF92CF92DF92EF92FF926B0119
:1014C0007C010E948F004B015C01C114D104E10436
:1014D000F104F1F00E948F00DC01CB018819990919
:1014E000AA09BB09883E9340A105B10570F321E02C
:1014F000C21AD108E108F10888EE880E83E0981E30
:10150000A11CB11CC114D104E104F10419F7DDCF11
:10151000FF90EF90DF90CF90BF90AF909F908F9013
:101520000895CF93DF93CDB7DEB72B970FB6F8941E
:10153000DEBF0FBECDBF789484B5826084BD84B514
:10154000816084BD85B5826085BD85B5816085BDBE
:1015500080916E00816080936E0010928100809176
:1015600081008260809381008091810081608093FE
:101570008100809180008160809380008091B10023
:1015800084608093B1008091B00081608093B0004E
:1015900080917A00846080937A0080917A008260E2
:1015A00080937A0080917A008E7F80937A00809178
:1015B0007A00806880937A001092C10010927003C4
:1015C000109271031092720310927303E091C103A1
:1015D000F091C20382E08083E091BD03F091BE03ED
:1015E0001082E091BF03F091C00387E680831092E0
:1015F000C903E091C503F091C60386E08083E091C2
:10160000C303F091C403808180618083E091C303B0
:10161000F091C403808188608083E091C303F091DE
:10162000C403808180688083E091C303F091C40388
:1016300080818F7D808381E491E00E94BC0761E01E
:101640008DE00E94400961E081E10E94400961E073
:1016500083E00E94400961E08BE00E94400962E063
:101660008CE00E94400962E082E00E94400962E052
:1016700088E00E94400962E087E00E94400960E043
:101680008FE00E94400960E08EE00E94400961E026
:1016900084E00E94400960E084E00E94110961E05A
:1016A00080E10E94400960E080E10E94110960E051
:1016B00070E083E00E94F80960E070E08BE00E9437
:1016C000F80980E090E00E940C04182F81E090E07F
:1016D0000E940C04133511F4883509F163E580E0AC
:1016E00090E00E940A0468E581E090E00E940A040C
:1016F00085E690E09B878A87BE01665F7F4F8AE020
:1017000090E00E94C60381E090E09A838983BE0145
:101710006F5F7F4F8DE090E00E94C60334C08091E0
:101720008103882321F180918F03882301F163E5F0
:1017300080E090E00E940A0468E581E090E00E9469
:101740000A0485E690E09B878A87BE01665F7F4F2B
:101750008AE090E00E94C60381E090E09A8389834A
:10176000BE016F5F7F4F8DE090E00E94C60364E78B
:1017700073E08AE090E00E94B20368E773E08DE0D6
:1017800090E00E94B2030E94CA07182F809383033F
:1017900081110E94B2058FE00E94E808892BB1F404
:1017A0008EE00E94E808892B89F4112379F084E007
:1017B00090E00E940C0408E010E0081B11091016CC
:1017C00011060CF4DAC086E00E94F10387E00E9463
:1017D000E808892B09F0EEC088E00E94E808892B10
:1017E00009F0E8C001E0FFEEEF2EFF24F394A3E23E
:1017F0003A2EB9E0AB2E10EEB12E8FE6C82E109126
:1018000083030E94CA0780938303882359F111112F
:101810000FC00E94B20586E00E94F10368EC70E000
:1018200080E090E00E94570A60E086E00E94D605C2
:1018300080E090E00E94E4058093820381E090E0E4
:101840000E94E40591E0811101C090E09093810332
:1018500082E090E00E94E40591E0811101C090E0F7
:1018600090938F03D0908F0310918203D11016C0F4
:10187000812E912C880C991CF401E35FFE4F80812E
:1018800091818C599F4F029708F497C080E090E0B7
:101890000E94E405883C09F047C08FC01C3008F066
:1018A00043C081EE90E00E940E0420910D01309122
:1018B0000E01281B390B37FF03C0319521953109E3
:1018C000AFE0B1E061E070E0FB0131974D915D91D7
:1018D000481B590B57FF03C05195419551094217B9
:1018E00053074CF4FB0131969A01EB30F10511F0EE
:1018F000BF01EACFFB01812F90E08E179F073CF4D8
:1019000061E081E10E94110960E08DE00BC0E81701
:10191000F90714F461E001C060E08DE00E94110954
:1019200060E081E10E9411098FE00E94E8080197C0
:1019300009F067C08EE00E94E808892B09F061C0B9
:101940001092800360E084E090E00E940A0460E06E
:1019500086E00E94D60586E00E94F1030E944A06B6
:101960000E942B060E9438060E94450660E086E031
:101970000E94D6050E94950242CFEE24E394F12CFA
:1019800068EC70E080E090E00E94570A86E00E94D8
:10199000F10368EC70E080E090E00E94570A60E09C
:1019A00086E00E94D6052FEFE21AF20A0E151F05F7
:1019B0003CF70CCF0E94380615CFF401E35FFE4FD1
:1019C000808191818D399F4F29F4F0928E03E092AE
:1019D0008D0306C081EE90E090938E0380938D037B
:1019E00080918D0390918E030E940E0420911B0123
:1019F00030911C018217930714F061E092CF60E0F0
:101A000080CF8FE00E94E808892B29F48EE00E94A5
:101A1000E808019739F08FE00E94E808892B09F067
:101A2000A9CF05C010918003183040F4F4CF8EE0A8
:101A30000E94E808892B09F4CCC09CCF86E00E9464
:101A4000F1038CE00E94E808892B09F093CFD110B4
:101A500091CF80917803909179039A8389831B8336
:101A60001C821D821F821E8219861886BE016F5F2E
:101A70007F4F80917403909175030E948C0364E7FB
:101A800073E08AE090E00E94B2036090740370906B
:101A90007503430188E4881A91088CE592E00E945E
:101AA000BC078AE992E00E94B40880917403909187
:101AB00075030E94B6088AEB92E00E94B408C40144
:101AC0000E94B608BE016F5F7F4FC4010E948C0365
:101AD00089E591E00E94BC0781E991E00E94B40889
:101AE000C4010E94B6088DEB91E00E94B408898180
:101AF0009A810E94B60886EB91E00E94B4088B811F
:101B00000E94A10888EC91E00E94B4088C810E9498
:101B1000A10884ED91E00E94B4088C81811104C079
:101B20008CED91E00E94BC078C81813021F483EE22
:101B300091E00E94BC078C81823021F48CEE91E010
:101B40000E94BC078C81843021F48DEF91E00E94CB
:101B5000BC078C81853021F48DE092E00E94BC07A7
:101B60008C81863021F48AE192E00E94BC078C814E
:101B7000873021F483E292E00E94BC078C81883098
:101B800021F488E292E00E94BC078AE292E00E947F
:101B9000B4088D810E94A1088AE392E00E94B408F3
:101BA0008E819F810E94B60881E492E00E94B40871
:101BB000888599850E94B60889E0880E911C681472
:101BC000790409F07FCF809101018F5F809301013B
:101BD000D1CE84E090E00E940C04809380038CE0DE
:101BE0000E94E808892B09F05EC0E0918203F0E0D2
:101BF000EE0FFF1FE35FFE4F808191818F399F4F72
:101C000009F051C087E080937F030E94D7040E94AF
:101C10004A060E942B0688E00E94E8080197D9F73F
:101C200068E270E080E090E00E94570A10918F0314
:101C3000112329F06FEF70E08BE00E94F8090E94F9
:101C40004506112329F062E870E08BE00E94F80954
:101C50008CE00E94E808892BD9F3112391F087E0EA
:101C60000E94F10361E070E080E090E00E94570A7A
:101C700060E070E08BE00E94F80960E087E00E947D
:101C8000D6050E944A0668EC70E080E090E00E9471
:101C9000570A0E94380668EC70E080E090E00E94ED
:101CA000570A0E9445068CE00E94E808892BF1F54E
:101CB000E0918203F0E0EE0FFF1FE35FFE4F8081B3
:101CC00091818E399F4F91F588E080937F030E9428
:101CD000D7040E944A060E942B0688E00E94E8086A
:101CE0000197D9F768E270E080E090E00E94570A1F
:101CF0000E9445068CE00E94E8080197D9F38CE029
:101D00000E94E808892B11F40E944A0668EC70E0F2
:101D100080E090E00E94570A0E94380668EC70E06C
:101D200080E090E00E94570A0E94450610927E03D0
:101D300062E08CE00E9440098CE00E94E8089C016F
:101D400011E0892B09F410E010930C0190910B0124
:101D5000232B09F045C0992309F49FC00E94B400C9
:101D600040900701509008016090090170900A01AD
:101D7000DC01CB0184199509A609B7094597A1058E
:101D8000B10508F48AC00E94B40060930301709307
:101D90000401809305019093060110928C03009337
:101DA000020110928B030E94B400DC01CB01841964
:101DB0009509A609B7098A3F9105A105B10568F4FF
:101DC00080918A03811109C080918903882329F0B9
:101DD00000938A031092890360C010928A03FACF9D
:101DE000911128C00E94B40040900301509004015A
:101DF0006090050170900601DC01CB018419950902
:101E0000A609B7094597A105B105A0F080918C03FB
:101E1000811110C00E94B400609307017093080103
:101E20008093090190930A0180918A038111A6C1D0
:101E300000938903812C912C0E94B40040900701EB
:101E4000509008016090090170900A01DC01CB01FB
:101E500084199509A609B7098A3F9105A105B1051D
:101E600008F440C0809189038823E1F180918A03BE
:101E7000811138C0809102018823A1F182E0881687
:101E8000910409F488C11092890300930B01109208
:101E90007F0388248394912C2BC00E94B40020914E
:101EA0000301309104014091050150910601DC01CC
:101EB000CB01821B930BA40BB50B8E359140A10572
:101EC000B10508F43DC080918B03811161C100937D
:101ED0008C0310928A031092890300938B0343E0D2
:101EE000842E912C10930B0110927F0380FE0BC067
:101EF00000937E0322E08216910449F080918103D1
:101F0000811144C027C082E088169104E9F40E9440
:101F1000B40089E492E00E94BC0788EE93E00E943E
:101F20007C0988E592E00E947C0988EC90E00E94A0
:101F30007C0980E590E00E947C0900937E0304C048
:101F400010930B0110927F0380917E03882309F484
:101F500011CDD4CF80917C0390917D031816190682
:101F6000ACF40E94D70410927D0310927C0360E0D1
:101F700086E00E94D6050E94380662E370E080E0A9
:101F800090E00E94570A0E944506F4CC80E090E061
:101F90000E94E405843609F061C084E090E00E946C
:101FA0000C04809380030E94D7043092B000A0926A
:101FB000B100B092B300C092B4006FEF70E08BE05C
:101FC0000E94F8090E944A060E942B0688E00E949F
:101FD000E8080197D9F762E870E08BE00E94F80901
:101FE00068E770E080E090E00E94570A0E94450692
:101FF00062E470E080E090E00E94570A61E084E0D3
:102000000E94110962E070E080E090E00E94570AAF
:1020100060E070E08BE00E94F80960E084E00E94DC
:10202000110964E170E080E090E00E94570A0E948C
:102030004A0668EC70E080E090E00E94570A0E9437
:10204000380668EC70E080E090E00E94570A0E9439
:10205000450610927D0310927C038CCC80E090E0CA
:102060000E94E405883C69F481EE90E090937B0344
:1020700080937A030E94D70410927D0310927C0310
:102080007AC010918203143608F074CC1C3008F02A
:1020900055C060E081E10E94110960E08DE00E947E
:1020A00011090E944A0664E670E080E090E00E9418
:1020B000570A0E942B0688E00E94E8080197D9F78A
:1020C00068E770E080E090E00E94570AE12FF0E0BE
:1020D000EE0FFF1FE35FFE4F8080918026E1820EAE
:1020E000911C0E9445060E94B4002401092C000C9A
:1020F00066087708460E571E681E791E0E94B400B7
:102100004616570668067906C8F780914E049091E6
:102110004F04881699066CF087E00E94F10361E095
:1021200070E080E090E00E94570A60E087E00E9443
:10213000D6050E9466060E94D7041CCCE12FF0E071
:10214000EE0FFF1FE35FFE4F808191818C392FEFEF
:10215000920739F481EE90E090937B0380937A03A9
:1021600008C08D399F4F09F005CCF0927B03E092B7
:102170007A030E94D7040E94C106FCCB10928A0306
:10218000109289031092020152E0852E912C54CEB8
:10219000812C912CA7CE00930B0110927F03B7CE18
:1021A0001092B4031092B30388EE93E0A0E0B0E085
:1021B0008093B5039093B603A093B703B093B8038D
:1021C00081E391E09093B2038093B10385EC90E0BA
:1021D0009093BE038093BD0384EC90E09093C00382
:1021E0008093BF0380EC90E09093C2038093C1037F
:1021F00081EC90E09093C4038093C30382EC90E061
:102200009093C6038093C50386EC90E09093C80337
:102210008093C7031092CA031092CB031092CC0391
:102220001092CD0360E082E00E944009E1EBF0E013
:10223000E491E0935004EDE9F0E0E491F0E0EE0F7A
:10224000FF1FEF56FF4F8591949190935204809316
:10225000510410925B0410925D0410925C04EBE553
:10226000F4E0129284E0E335F807D9F78FE290E0CA
:1022700090934F0480934E040895F999FECF92BD38
:1022800081BDF89A992780B50895262FF999FECF38
:102290001FBA92BD81BD20BD0FB6F894FA9AF99A83
:1022A0000FBE019608950E945A116894B1110C94C2
:1022B000E91108950E94CE1188F09F5798F0B92F28
:1022C0009927B751B0F0E1F0660F771F881F991F6B
:1022D0001AF0BA95C9F714C0B13091F00E94E81114
:1022E000B1E008950C94E811672F782F8827B85F24
:1022F00039F0B93FCCF3869577956795B395D9F7C3
:102300003EF490958095709561957F4F8F4F9F4FCC
:102310000895E89409C097FB3EF4909580957095D8
:1023200061957F4F8F4F9F4F9923A9F0F92F96E921
:10233000BB279395F695879577956795B795F11196
:10234000F8CFFAF4BB0F11F460FF1BC06F5F7F4F33
:102350008F4F9F4F16C0882311F096E911C0772345
:1023600021F09EE8872F762F05C0662371F096E84E
:10237000862F70E060E02AF09A95660F771F881F1D
:10238000DAF7880F9695879597F9089557FD905835
:10239000440F551F59F05F3F71F04795880F97FB29
:1023A000991F61F09F3F79F08795089512161306E3
:1023B0001406551FF2CF4695F1DF08C01616170612
:1023C0001806991FF1CF8695710561050894089547
:1023D000E894BB2766277727CB0197F9089597FBE9
:1023E000072E16F4009407D077FD09D00E9425121D
:1023F00007FC05D03EF4909581959F4F0895709508
:1024000061957F4F0895A1E21A2EAA1BBB1BFD0107
:102410000DC0AA1FBB1FEE1FFF1FA217B307E407C3
:10242000F50720F0A21BB30BE40BF50B661F771F1B
:10243000881F991F1A9469F76095709580959095FB
:102440009B01AC01BD01CF010895AA1BBB1B51E14B
:1024500007C0AA1FBB1FA617B70710F0A61BB70B14
:10246000881F991F5A95A9F780959095BC01CD01B9
:102470000895EE0FFF1F0590F491E02D099481E07F
:0C24800090E0F8940C944412F894FFCF04
:10248C00FF0101FFFFFFFFFFFFFFFF010101000440
:10249C0000060007000B001100160022002A005055
:1024AC00008C0022019CFF9DFF9EFF9FFF000000FF
:1024BC000026028F01BD017302EE01CC01E0011672
:1024CC00006F70656E535837302121212121212155
:1024DC002121212121212121003D3D3D3D3D3D3D3D
:1024EC003D3D3D3D3D3D3D3D3D3D3D3D3D3D3D3D10
:1024FC003D3D3D3D3D3D3D3D3D3D3D3D3D3D3D3D00
:10250C003D3D3D3D3D3D3D3D3D3D3D3D3D3D3D3DEF
:10251C000065654164647265737320726561642043
:10252C0028746869735265636F7264416464726580
:10253C007373293A200043757272656E742050696A
:10254C0063747572653A200020547970652072614D
:10255C00773A200020547970653A20004D414E5551
:10256C00414C004155544F2031303000464C4153C2
:10257C004820444F4E474C454C45535300464C4124
:10258C00534820463820444F4E474C4500464C415A
:10259C00534820444F4E474C45004155544F20362C
:1025AC0030300042554C420054002053687574740E
:1025BC00657253706565643A2000204C4F573A2081
:1025CC000020484947483A20005354415254203582
:1025DC0030302C323630302C352C30003D3D3D3DEA
:1025EC003D3D3D3D3D3D3D3D3D3D3D3D3D3D3D3D0F
:1025FC003D3D3D20456E746572696E67206C6F6F52
:10260C0070203D3D3D3D3D3D3D3D3D3D3D3D3D3DD8
:10261C003D3D3D3D3D3D3D3D3D00494E49544941CB
:10262C004C20656541646472657373206265666FE6
:10263C007265206C6F6F703A200052656164416462
:10264C006472657373206265666F7265206C6F6F60
:10265C00703A20004F766572666C6F77204F63631B
:10266C007572656421002A2A2A2A2A2A2A2A2A2AE9
:10267C002A2A2A2A2A2A2A2A2A2A2A2A2A2A2A2AAE
:10268C002A2A2A0041637475616C20706963747521
:10269C0072653A200043757272656E7420706963BE
:1026AC0074757265205061636B3A200050696374D5
:1026BC0075726520747970653A200053687574746E
:1026CC00657220696E206D733A2000436F756E74CD
:1026DC0065723A20000D0A005069637475726520AA
:1026EC0074616B656E3A20005459504520320000DD
:00000001FF
