:100000000C945D000C9485000C9485000C94850084
:100010000C9485000C9485000C9485000C9485004C
:100020000C9485000C9485000C9485000C9485003C
:100030000C9485000C9485000C9485000C9485002C
:100040000C94DC020C9485000C94AA020C9484029B
:100050000C9485000C9485000C9485000C9485000C
:100060000C9485000C94850000000008000201003B
:100070000003040700000000000000000000000072
:10008000250028002B0000000000240027002A0083
:10009000040404040404040402020202020203032E
:1000A0000303030301020408102040800102040836
:1000B0001020010204081020230411241FBECFEFDA
:1000C000D8E0DEBFCDBF12E0A0E0B1E0EEEFF8E097
:1000D00002C005900D92AE33B107D9F722E0AEE32E
:1000E000B2E001C01D92A43EB207E1F710E0CDE5F9
:1000F000D0E004C02197FE010E947204CC35D107E4
:10010000C9F70E9426030C947D040C94000090E033
:10011000FC01EC55FF4F2491FC01E057FF4F849107
:10012000882399F090E0880F991FFC01EA57FF4F50
:10013000A591B491FC01E458FF4F859194918FB73C
:10014000F894EC91E22BEC938FBF0895CF92DF925D
:10015000EF92FF920F931F93CF93DF936C017A017D
:100160008B01C0E0D0E0CE15DF0581F0D8016D91A4
:100170008D01D601ED91FC910190F081E02DC60139
:100180000995892B11F02196EECF7E01C701DF91F1
:10019000CF911F910F91FF90EF90DF90CF90089536
:1001A000089580E090E00895FC01538D448D252F43
:1001B00030E0842F90E0821B930B541710F0CF9601
:1001C000089501970895FC01918D828D981761F033
:1001D000828DDF01A80FB11D5D968C91928D9F5F7E
:1001E0009F73928F90E008958FEF9FEF0895FC0129
:1001F000918D828D981731F0828DE80FF11D858DDC
:1002000090E008958FEF9FEF0895FC01918D228D6E
:10021000892F90E0805C9F4F821B91098F739927F3
:10022000089587E492E00E94050121E0892B09F4FA
:1002300020E0822F0895FC01848DDF01A80FB11DFD
:10024000A35ABF4F2C91848D90E001968F7399270C
:10025000848FA689B7892C93A089B1898C918370EA
:1002600080648C93938D848D981306C00288F389E3
:10027000E02D80818F7D80830895EF92FF920F9310
:100280001F93CF93DF93EC0181E0888F9B8D8C8D42
:10029000981305C0E889F989808185FD26C0F62E6E
:1002A0000B8D10E00F5F1F4F0F731127E02E8C8D09
:1002B000E8120CC00FB607FCFACFE889F9898081F3
:1002C00085FFF5CFCE010E941B01F1CF8B8DFE0182
:1002D000E80FF11DE35AFF4FF0829FB7F8940B8FA0
:1002E000EA89FB89808180620AC09FB7F894EE8911
:1002F000FF896083E889F9898081837080648083C5
:100300009FBF81E090E0DF91CF911F910F91FF900F
:10031000EF900895CF93DF93EC01888D8823C9F087
:10032000EA89FB89808185FD05C0A889B9898C91FE
:1003300086FD0FC00FB607FCF5CF808185FFF2CF99
:10034000A889B9898C9185FFEDCFCE010E941B0150
:10035000E7CFDF91CF91089580E090E0892B29F0DD
:100360000E94110181110C940000089590E0FC019D
:10037000E859FF4F2491FC01EC55FF4F3491FC01EB
:10038000E057FF4FE491EE2309F43CC0222339F1FA
:10039000233091F038F42130A9F0223001F584B5F2
:1003A0008F7D12C0273091F02830A1F02430B9F4AD
:1003B000809180008F7D03C0809180008F77809333
:1003C00080000DC084B58F7784BD09C08091B000D6
:1003D0008F7703C08091B0008F7D8093B000F0E0F4
:1003E000EE0FFF1FE458FF4FA591B4919FB7F8940B
:1003F000611104C08C913095382302C0EC913E2BE2
:100400003C939FBF08953FB7F89480914302909129
:100410004402A0914502B091460226B5A89B05C0B2
:100420002F3F19F00196A11DB11D3FBFBA2FA92F73
:10043000982F8827820F911DA11DB11DBC01CD01F0
:1004400043E0660F771F881F991F4A95D1F70895DB
:100450008F929F92AF92BF92CF92DF92EF92FF92D4
:100460000E9403024B015C0188EEC82E83E0D82E67
:10047000E12CF12C0E940302DC01CB0188199909BF
:10048000AA09BB09883E9340A105B10598F321E074
:10049000C21AD108E108F10888EE880E83E0981EA0
:1004A000A11CB11CC114D104E104F10419F7FF909F
:1004B000EF90DF90CF90BF90AF909F908F90089576
:1004C000009769F0FC0101900020E9F73197AF0136
:1004D000481B590BBC0187E492E00C94A60080E015
:1004E00090E0089584E191E00C946002CF93DF9353
:1004F0000E946002EC010E9472028C0F9D1FDF912E
:10050000CF9108950E9478041F920F920FB60F9218
:1005100011242F933F934F935F936F937F938F9308
:100520009F93AF93BF93EF93FF9387E492E00E9472
:100530001B01FF91EF91BF91AF919F918F917F919F
:100540006F915F914F913F912F910F900FBE0F9040
:100550001F9018951F920F920FB60F9211242F9390
:100560008F939F93EF93FF93E0915702F09158027E
:100570008081E0915D02F0915E0282FD12C0908167
:10058000809160028F5F8F7320916102821751F01A
:10059000E0916002F0E0E95BFD4F958F809360028F
:1005A00001C08081FF91EF919F918F912F910F90CA
:1005B0000FBE0F901F9018951F920F920FB60F92BB
:1005C00011242F933F938F939F93AF93BF93809169
:1005D0003F0290914002A0914102B09142023091BD
:1005E0003E0226E0230F2D3720F40296A11DB11DF7
:1005F00005C029E8230F0396A11DB11D20933E02DB
:1006000080933F0290934002A0934102B093420234
:100610008091430290914402A0914502B09146021C
:100620000196A11DB11D8093430290934402A093B3
:100630004502B0934602BF91AF919F918F913F9138
:100640002F910F900FBE0F901F901895CF93DF93AF
:10065000CDB7DEB7A1970FB6F894DEBF0FBECDBF02
:10066000789484B5826084BD84B5816084BD85B58D
:10067000826085BD85B5816085BD80916E00816099
:1006800080936E001092810080918100826080933F
:100690008100809181008160809381008091800041
:1006A0008160809380008091B10084608093B1006C
:1006B0008091B00081608093B00080917A00846066
:1006C00080937A0080917A00826080937A00809192
:1006D0007A008E7F80937A0080917A008068809380
:1006E0007A001092C1008DE00E94870081E10E9493
:1006F0008700E0915702F091580282E08083E091F8
:100700005302F09154021082E0915502F09156028A
:1007100087E6808310925F02E0915B02F0915C02B9
:1007200086E08083E0915902F0915A0280818061D5
:100730008083E0915902F0915A0280818860808321
:10074000E0915902F0915A02808180688083E091A3
:100750005902F0915A0280818F7D808387E191E078
:100760000E94760288E391E00E9476020E94720263
:100770008BE491E00E9476020E9472028DE791E084
:100780000E9476020E94720286EA91E00E9476023E
:100790000E9472020E9472028AE0C82ED12CE12CC3
:1007A000F12C85ED91E00E946002209100013091D2
:1007B000010140E050E019A28E010F5D1F4FCA01F8
:1007C000B901A70196010E945004605DF80162938F
:1007D0008F01211531054105510589F7CF010E948F
:1007E00060020E94720280910001909101010196C5
:1007F000909301018093000161E08DE00E94B601B9
:100800008EED91E00E94760260E081E10E94B601E7
:1008100089EF91E00E9476020E94280260E08DE05C
:100820000E94B6018BE092E00E94760261E081E1D5
:100830000E94B60186E292E00E9476020E9428029F
:100840000E94AC01AECFE7E4F2E01382128288EEA0
:1008500093E0A0E0B0E084839583A683B78386E02D
:1008600091E09183808385EC90E09587848784EC88
:1008700090E09787868780EC90E0918B808B81EC6D
:1008800090E0938B828B82EC90E0958B848B86EC4E
:1008900090E0978B868B118E128E138E148E089596
:1008A000A1E21A2EAA1BBB1BFD010DC0AA1FBB1F74
:1008B000EE1FFF1FA217B307E407F50720F0A21BE6
:1008C000B30BE40BF50B661F771F881F991F1A9453
:1008D00069F760957095809590959B01AC01BD017D
:1008E000CF010895EE0FFF1F0590F491E02D0994BC
:0E08F00081E090E0F8940C947D04F894FFCF22
:1008FE000100000000003D01A600D4008A010501A0
:10090E00E300F7000D0A0057656C636F6D65207488
:10091E006F20746865206F70656E53583730207085
:10092E00726F6A65637421007468697320426C6922
:10093E006E6B3220736B65746368006D6F646966ED
:10094E006965642066726F6D206F726967696E618A
:10095E006C20626C696E6B206279204A6F617175D2
:10096E00C3AD6E20646520507261646100697420AD
:10097E0073686F756C6420626C696E6B20696E2093
:10098E0074776F20646966666572656E7420636F36
:10099E006C6F757273004C45443120697320706F13
:1009AE00727420313320616E64204C4544322069CC
:1009BE007320706F7274204133206F6E2041726409
:1009CE0075696E6F004379636C653A2020004C4563
:1009DE004431206973204F4E20202020204C454466
:1009EE0032206973204F4646006E6F77204920777C
:1009FE0061697420313030306D73004C45443120C4
:100A0E006973204F464620202020204C454432203A
:100A1E006973204F4E006E6F77204920776169749D
:0E0A2E0020313030306D7320616761696E00D9
:00000001FF
